{
  "_format": "hh-sol-artifact-1",
  "contractName": "MedicalRecordVault",
  "sourceName": "contracts/MedicalRecordVault.sol",
  "abi": [
    {
      "inputs": [],
      "stateMutability": "nonpayable",
      "type": "constructor"
    },
    {
      "anonymous": false,
      "inputs": [
        {
          "indexed": true,
          "internalType": "address",
          "name": "patient",
          "type": "address"
        },
        {
          "indexed": true,
          "internalType": "address",
          "name": "doctor",
          "type": "address"
        },
        {
          "indexed": false,
          "internalType": "string",
          "name": "cid",
          "type": "string"
        }
      ],
      "name": "AccessGranted",
      "type": "event"
    },
    {
      "anonymous": false,
      "inputs": [
        {
          "indexed": true,
          "internalType": "address",
          "name": "patient",
          "type": "address"
        },
        {
          "indexed": true,
          "internalType": "address",
          "name": "doctor",
          "type": "address"
        }
      ],
      "name": "AccessRevoked",
      "type": "event"
    },
    {
      "anonymous": false,
      "inputs": [
        {
          "indexed": true,
          "internalType": "address",
          "name": "patient",
          "type": "address"
        },
        {
          "indexed": true,
          "internalType": "address",
          "name": "doctor",
          "type": "address"
        },
        {
          "indexed": false,
          "internalType": "string",
          "name": "cid",
          "type": "string"
        }
      ],
      "name": "AccessRevokedForCid",
      "type": "event"
    },
    {
      "anonymous": false,
      "inputs": [
        {
          "indexed": true,
          "internalType": "address",
          "name": "doctor",
          "type": "address"
        },
        {
          "indexed": false,
          "internalType": "string",
          "name": "name",
          "type": "string"
        }
      ],
      "name": "DoctorApproved",
      "type": "event"
    },
    {
      "anonymous": false,
      "inputs": [
        {
          "indexed": true,
          "internalType": "address",
          "name": "doctor",
          "type": "address"
        },
        {
          "indexed": false,
          "internalType": "string",
          "name": "reason",
          "type": "string"
        }
      ],
      "name": "DoctorRejected",
      "type": "event"
    },
    {
      "anonymous": false,
      "inputs": [
        {
          "indexed": true,
          "internalType": "address",
          "name": "doctor",
          "type": "address"
        },
        {
          "indexed": false,
          "internalType": "string",
          "name": "name",
          "type": "string"
        },
        {
          "indexed": false,
          "internalType": "string",
          "name": "licenseNumber",
          "type": "string"
        }
      ],
      "name": "DoctorRequestSubmitted",
      "type": "event"
    },
    {
      "anonymous": false,
      "inputs": [
        {
          "indexed": true,
          "internalType": "address",
          "name": "patient",
          "type": "address"
        },
        {
          "indexed": false,
          "internalType": "uint256",
          "name": "recordIndex",
          "type": "uint256"
        },
        {
          "indexed": false,
          "internalType": "string",
          "name": "cid",
          "type": "string"
        }
      ],
      "name": "RecordApproved",
      "type": "event"
    },
    {
      "anonymous": false,
      "inputs": [
        {
          "indexed": true,
          "internalType": "address",
          "name": "patient",
          "type": "address"
        },
        {
          "indexed": false,
          "internalType": "uint256",
          "name": "recordIndex",
          "type": "uint256"
        },
        {
          "indexed": false,
          "internalType": "string",
          "name": "cid",
          "type": "string"
        }
      ],
      "name": "RecordRejected",
      "type": "event"
    },
    {
      "anonymous": false,
      "inputs": [
        {
          "indexed": true,
          "internalType": "address",
          "name": "patient",
          "type": "address"
        },
        {
          "indexed": true,
          "internalType": "address",
          "name": "doctor",
          "type": "address"
        },
        {
          "indexed": false,
          "internalType": "string",
          "name": "cid",
          "type": "string"
        },
        {
          "indexed": false,
          "internalType": "uint256",
          "name": "recordIndex",
          "type": "uint256"
        },
        {
          "indexed": false,
          "internalType": "uint256",
          "name": "timestamp",
          "type": "uint256"
        }
      ],
      "name": "RecordSubmitted",
      "type": "event"
    },
    {
      "anonymous": false,
      "inputs": [
        {
          "indexed": true,
          "internalType": "address",
          "name": "user",
          "type": "address"
        },
        {
          "indexed": false,
          "internalType": "enum MedicalRecordVault.Role",
          "name": "role",
          "type": "uint8"
        }
      ],
      "name": "UserRegistered",
      "type": "event"
    },
    {
      "inputs": [
        {
          "internalType": "address",
          "name": "",
          "type": "address"
        },
        {
          "internalType": "address",
          "name": "",
          "type": "address"
        }
      ],
      "name": "accessList",
      "outputs": [
        {
          "internalType": "bool",
          "name": "",
          "type": "bool"
        }
      ],
      "stateMutability": "view",
      "type": "function"
    },
    {
      "inputs": [
        {
          "internalType": "address",
          "name": "_doctor",
          "type": "address"
        }
      ],
      "name": "approveDoctor",
      "outputs": [],
      "stateMutability": "nonpayable",
      "type": "function"
    },
    {
      "inputs": [
        {
          "internalType": "uint256",
          "name": "_recordIndex",
          "type": "uint256"
        }
      ],
      "name": "approveRecord",
      "outputs": [],
      "stateMutability": "nonpayable",
      "type": "function"
    },
    {
      "inputs": [
        {
          "internalType": "address",
          "name": "",
          "type": "address"
        }
      ],
      "name": "displayNames",
      "outputs": [
        {
          "internalType": "string",
          "name": "",
          "type": "string"
        }
      ],
      "stateMutability": "view",
      "type": "function"
    },
    {
      "inputs": [
        {
          "internalType": "address",
          "name": "",
          "type": "address"
        }
      ],
      "name": "doctorRequests",
      "outputs": [
        {
          "internalType": "string",
          "name": "name",
          "type": "string"
        },
        {
          "internalType": "string",
          "name": "licenseNumber",
          "type": "string"
        },
        {
          "internalType": "string",
          "name": "specialization",
          "type": "string"
        },
        {
          "internalType": "string",
          "name": "hospital",
          "type": "string"
        },
        {
          "internalType": "string",
          "name": "publicKey",
          "type": "string"
        },
        {
          "internalType": "uint256",
          "name": "requestedAt",
          "type": "uint256"
        },
        {
          "internalType": "bool",
          "name": "isPending",
          "type": "bool"
        },
        {
          "internalType": "bool",
          "name": "isApproved",
          "type": "bool"
        },
        {
          "internalType": "bool",
          "name": "isRejected",
          "type": "bool"
        },
        {
          "internalType": "string",
          "name": "rejectReason",
          "type": "string"
        }
      ],
      "stateMutability": "view",
      "type": "function"
    },
    {
      "inputs": [
        {
          "internalType": "address",
          "name": "_doctor",
          "type": "address"
        }
      ],
      "name": "getAccessibleCidsForDoctor",
      "outputs": [
        {
          "internalType": "string[]",
          "name": "",
          "type": "string[]"
        }
      ],
      "stateMutability": "view",
      "type": "function"
    },
    {
      "inputs": [],
      "name": "getApprovedDoctors",
      "outputs": [
        {
          "components": [
            {
              "internalType": "address",
              "name": "addr",
              "type": "address"
            },
            {
              "internalType": "string",
              "name": "name",
              "type": "string"
            },
            {
              "internalType": "string",
              "name": "licenseNumber",
              "type": "string"
            },
            {
              "internalType": "string",
              "name": "specialization",
              "type": "string"
            },
            {
              "internalType": "string",
              "name": "hospital",
              "type": "string"
            },
            {
              "internalType": "uint256",
              "name": "requestedAt",
              "type": "uint256"
            }
          ],
          "internalType": "struct MedicalRecordVault.DoctorRequestView[]",
          "name": "",
          "type": "tuple[]"
        }
      ],
      "stateMutability": "view",
      "type": "function"
    },
    {
      "inputs": [],
      "name": "getAuthorizedDoctors",
      "outputs": [
        {
          "internalType": "address[]",
          "name": "",
          "type": "address[]"
        }
      ],
      "stateMutability": "view",
      "type": "function"
    },
    {
      "inputs": [
        {
          "internalType": "address",
          "name": "_account",
          "type": "address"
        }
      ],
      "name": "getDisplayName",
      "outputs": [
        {
          "internalType": "string",
          "name": "",
          "type": "string"
        }
      ],
      "stateMutability": "view",
      "type": "function"
    },
    {
      "inputs": [
        {
          "internalType": "address",
          "name": "_addr",
          "type": "address"
        }
      ],
      "name": "getDoctorRequest",
      "outputs": [
        {
          "internalType": "bool",
          "name": "isPending",
          "type": "bool"
        },
        {
          "internalType": "bool",
          "name": "isApproved",
          "type": "bool"
        },
        {
          "internalType": "bool",
          "name": "isRejected",
          "type": "bool"
        },
        {
          "internalType": "string",
          "name": "rejectReason",
          "type": "string"
        },
        {
          "internalType": "string",
          "name": "name",
          "type": "string"
        },
        {
          "internalType": "string",
          "name": "licenseNumber",
          "type": "string"
        },
        {
          "internalType": "string",
          "name": "specialization",
          "type": "string"
        },
        {
          "internalType": "string",
          "name": "hospital",
          "type": "string"
        }
      ],
      "stateMutability": "view",
      "type": "function"
    },
    {
      "inputs": [
        {
          "internalType": "string",
          "name": "_cid",
          "type": "string"
        }
      ],
      "name": "getEncryptedKey",
      "outputs": [
        {
          "internalType": "string",
          "name": "",
          "type": "string"
        }
      ],
      "stateMutability": "view",
      "type": "function"
    },
    {
      "inputs": [],
      "name": "getMyCids",
      "outputs": [
        {
          "internalType": "string[]",
          "name": "",
          "type": "string[]"
        }
      ],
      "stateMutability": "view",
      "type": "function"
    },
    {
      "inputs": [],
      "name": "getMyRecords",
      "outputs": [
        {
          "components": [
            {
              "internalType": "string",
              "name": "cid",
              "type": "string"
            },
            {
              "internalType": "address",
              "name": "patientAddress",
              "type": "address"
            },
            {
              "internalType": "address",
              "name": "doctorAddress",
              "type": "address"
            },
            {
              "internalType": "string",
              "name": "fileType",
              "type": "string"
            },
            {
              "internalType": "string",
              "name": "fileName",
              "type": "string"
            },
            {
              "internalType": "enum MedicalRecordVault.RecordStatus",
              "name": "status",
              "type": "uint8"
            },
            {
              "internalType": "uint256",
              "name": "timestamp",
              "type": "uint256"
            }
          ],
          "internalType": "struct MedicalRecordVault.Record[]",
          "name": "",
          "type": "tuple[]"
        }
      ],
      "stateMutability": "view",
      "type": "function"
    },
    {
      "inputs": [],
      "name": "getPatientList",
      "outputs": [
        {
          "internalType": "address[]",
          "name": "addrs",
          "type": "address[]"
        },
        {
          "internalType": "string[]",
          "name": "names",
          "type": "string[]"
        }
      ],
      "stateMutability": "view",
      "type": "function"
    },
    {
      "inputs": [
        {
          "internalType": "address",
          "name": "_patient",
          "type": "address"
        }
      ],
      "name": "getPatientRecords",
      "outputs": [
        {
          "components": [
            {
              "internalType": "string",
              "name": "cid",
              "type": "string"
            },
            {
              "internalType": "address",
              "name": "patientAddress",
              "type": "address"
            },
            {
              "internalType": "address",
              "name": "doctorAddress",
              "type": "address"
            },
            {
              "internalType": "string",
              "name": "fileType",
              "type": "string"
            },
            {
              "internalType": "string",
              "name": "fileName",
              "type": "string"
            },
            {
              "internalType": "enum MedicalRecordVault.RecordStatus",
              "name": "status",
              "type": "uint8"
            },
            {
              "internalType": "uint256",
              "name": "timestamp",
              "type": "uint256"
            }
          ],
          "internalType": "struct MedicalRecordVault.Record[]",
          "name": "",
          "type": "tuple[]"
        }
      ],
      "stateMutability": "view",
      "type": "function"
    },
    {
      "inputs": [],
      "name": "getPendingCount",
      "outputs": [
        {
          "internalType": "uint256",
          "name": "",
          "type": "uint256"
        }
      ],
      "stateMutability": "view",
      "type": "function"
    },
    {
      "inputs": [],
      "name": "getPendingDoctorRequests",
      "outputs": [
        {
          "components": [
            {
              "internalType": "address",
              "name": "addr",
              "type": "address"
            },
            {
              "internalType": "string",
              "name": "name",
              "type": "string"
            },
            {
              "internalType": "string",
              "name": "licenseNumber",
              "type": "string"
            },
            {
              "internalType": "string",
              "name": "specialization",
              "type": "string"
            },
            {
              "internalType": "string",
              "name": "hospital",
              "type": "string"
            },
            {
              "internalType": "uint256",
              "name": "requestedAt",
              "type": "uint256"
            }
          ],
          "internalType": "struct MedicalRecordVault.DoctorRequestView[]",
          "name": "",
          "type": "tuple[]"
        }
      ],
      "stateMutability": "view",
      "type": "function"
    },
    {
      "inputs": [],
      "name": "getPendingRecords",
      "outputs": [
        {
          "components": [
            {
              "internalType": "string",
              "name": "cid",
              "type": "string"
            },
            {
              "internalType": "address",
              "name": "patientAddress",
              "type": "address"
            },
            {
              "internalType": "address",
              "name": "doctorAddress",
              "type": "address"
            },
            {
              "internalType": "string",
              "name": "fileType",
              "type": "string"
            },
            {
              "internalType": "string",
              "name": "fileName",
              "type": "string"
            },
            {
              "internalType": "enum MedicalRecordVault.RecordStatus",
              "name": "status",
              "type": "uint8"
            },
            {
              "internalType": "uint256",
              "name": "timestamp",
              "type": "uint256"
            }
          ],
          "internalType": "struct MedicalRecordVault.Record[]",
          "name": "",
          "type": "tuple[]"
        },
        {
          "internalType": "uint256[]",
          "name": "",
          "type": "uint256[]"
        }
      ],
      "stateMutability": "view",
      "type": "function"
    },
    {
      "inputs": [
        {
          "internalType": "address",
          "name": "_account",
          "type": "address"
        }
      ],
      "name": "getPublicKey",
      "outputs": [
        {
          "internalType": "string",
          "name": "",
          "type": "string"
        }
      ],
      "stateMutability": "view",
      "type": "function"
    },
    {
      "inputs": [],
      "name": "getRecordCount",
      "outputs": [
        {
          "internalType": "uint256",
          "name": "",
          "type": "uint256"
        }
      ],
      "stateMutability": "view",
      "type": "function"
    },
    {
      "inputs": [
        {
          "internalType": "address",
          "name": "_account",
          "type": "address"
        }
      ],
      "name": "getRole",
      "outputs": [
        {
          "internalType": "enum MedicalRecordVault.Role",
          "name": "",
          "type": "uint8"
        }
      ],
      "stateMutability": "view",
      "type": "function"
    },
    {
      "inputs": [
        {
          "internalType": "address",
          "name": "_doctor",
          "type": "address"
        },
        {
          "internalType": "string",
          "name": "_cid",
          "type": "string"
        },
        {
          "internalType": "string",
          "name": "_encryptedKeyForDoctor",
          "type": "string"
        }
      ],
      "name": "grantAccess",
      "outputs": [],
      "stateMutability": "nonpayable",
      "type": "function"
    },
    {
      "inputs": [],
      "name": "owner",
      "outputs": [
        {
          "internalType": "address",
          "name": "",
          "type": "address"
        }
      ],
      "stateMutability": "view",
      "type": "function"
    },
    {
      "inputs": [
        {
          "internalType": "address",
          "name": "",
          "type": "address"
        }
      ],
      "name": "publicKeys",
      "outputs": [
        {
          "internalType": "string",
          "name": "",
          "type": "string"
        }
      ],
      "stateMutability": "view",
      "type": "function"
    },
    {
      "inputs": [
        {
          "internalType": "string",
          "name": "_name",
          "type": "string"
        },
        {
          "internalType": "string",
          "name": "_publicKey",
          "type": "string"
        }
      ],
      "name": "registerAsPatient",
      "outputs": [],
      "stateMutability": "nonpayable",
      "type": "function"
    },
    {
      "inputs": [
        {
          "internalType": "address",
          "name": "_doctor",
          "type": "address"
        },
        {
          "internalType": "string",
          "name": "_reason",
          "type": "string"
        }
      ],
      "name": "rejectDoctor",
      "outputs": [],
      "stateMutability": "nonpayable",
      "type": "function"
    },
    {
      "inputs": [
        {
          "internalType": "uint256",
          "name": "_recordIndex",
          "type": "uint256"
        }
      ],
      "name": "rejectRecord",
      "outputs": [],
      "stateMutability": "nonpayable",
      "type": "function"
    },
    {
      "inputs": [
        {
          "internalType": "string",
          "name": "_name",
          "type": "string"
        },
        {
          "internalType": "string",
          "name": "_licenseNumber",
          "type": "string"
        },
        {
          "internalType": "string",
          "name": "_specialization",
          "type": "string"
        },
        {
          "internalType": "string",
          "name": "_hospital",
          "type": "string"
        },
        {
          "internalType": "string",
          "name": "_publicKey",
          "type": "string"
        }
      ],
      "name": "requestDoctorVerification",
      "outputs": [],
      "stateMutability": "nonpayable",
      "type": "function"
    },
    {
      "inputs": [
        {
          "internalType": "address",
          "name": "_doctor",
          "type": "address"
        }
      ],
      "name": "revokeAccess",
      "outputs": [],
      "stateMutability": "nonpayable",
      "type": "function"
    },
    {
      "inputs": [
        {
          "internalType": "address",
          "name": "_doctor",
          "type": "address"
        },
        {
          "internalType": "string",
          "name": "_cid",
          "type": "string"
        }
      ],
      "name": "revokeAccessForCid",
      "outputs": [],
      "stateMutability": "nonpayable",
      "type": "function"
    },
    {
      "inputs": [
        {
          "internalType": "address",
          "name": "",
          "type": "address"
        }
      ],
      "name": "roles",
      "outputs": [
        {
          "internalType": "enum MedicalRecordVault.Role",
          "name": "",
          "type": "uint8"
        }
      ],
      "stateMutability": "view",
      "type": "function"
    },
    {
      "inputs": [
        {
          "internalType": "address",
          "name": "_patient",
          "type": "address"
        },
        {
          "internalType": "string",
          "name": "_cid",
          "type": "string"
        },
        {
          "internalType": "string",
          "name": "_encryptedKeyForPatient",
          "type": "string"
        },
        {
          "internalType": "string",
          "name": "_fileType",
          "type": "string"
        },
        {
          "internalType": "string",
          "name": "_fileName",
          "type": "string"
        }
      ],
      "name": "submitRecord",
      "outputs": [],
      "stateMutability": "nonpayable",
      "type": "function"
    }
  ],
  "bytecode": "0x608060405234801561001057600080fd5b50600080546001600160a01b031916331790556155a880620000336000396000f3fe608060405234801561001057600080fd5b50600436106101f05760003560e01c80638da5cb5b1161010f578063d795ede1116100a2578063e76637ce11610071578063e76637ce146104bf578063eb056845146104c7578063f7d9e157146104cf578063f7e7bd90146104e257600080fd5b8063d795ede11461047b578063dc86638114610483578063e085456714610496578063e6a5210a146104ac57600080fd5b8063a3d6f9a9116100de578063a3d6f9a91461042c578063b38261561461043f578063b8278dcf14610452578063ca267f281461046557600080fd5b80638da5cb5b146103b6578063918c0c43146103e157806399374642146103f45780639e64b8561461041757600080fd5b806350bd43dc116101875780637dff0044116101565780637dff004414610356578063857cdbb81461037d57806385e685311461039057806388c118a9146103a357600080fd5b806350bd43dc146102dd5780636160a5c2146102f257806377814646146103055780637c2e811a1461034357600080fd5b806330ab126a116101c357806330ab126a146102685780633a6d50b61461027b578063442767331461028e578063503b1354146102c757600080fd5b80631042876d146101f557806318bd48471461021e57806319c2ea861461023e5780632ca4862b14610253575b600080fd5b610208610203366004614623565b61050b565b604051610215919061468b565b60405180910390f35b61023161022c366004614623565b6105b7565b60405161021591906147bc565b610246610a46565b60405161021591906147cf565b6102666102613660046148f4565b610dac565b005b6102666102763660046148f4565b611104565b610208610289366004614946565b6111df565b6102ba61029c366004614623565b6001600160a01b031660009081526001602052604090205460ff1690565b6040516102159190614987565b6102cf611301565b604051610215929190614a33565b6102e56114fc565b6040516102159190614a61565b610266610300366004614623565b611743565b610333610313366004614a74565b600960209081526000928352604080842090915290825290205460ff1681565b6040519015158152602001610215565b610266610351366004614aa7565b6118f8565b610369610364366004614623565b611ae4565b604051610215989796959493929190614b12565b61020861038b366004614623565b611e18565b61026661039e366004614623565b611f23565b6102666103b1366004614b9d565b6120ea565b6000546103c9906001600160a01b031681565b6040516001600160a01b039091168152602001610215565b6102666103ef366004614b9d565b61225e565b6102ba610402366004614623565b60016020526000908152604090205460ff1681565b61041f612496565b6040516102159190614bb6565b61020861043a366004614623565b6125ba565b61041f61044d366004614623565b612654565b610266610460366004614bc9565b61278b565b61046d612bdc565b604051908152602001610215565b61046d612c35565b610208610491366004614623565b612cfd565b61049e612d16565b604051610215929190614c9f565b6102666104ba366004614ce9565b61316d565b6102316135b3565b610246613997565b6102666104dd366004614dd9565b613cf7565b6104f56104f0366004614623565b61406b565b6040516102159a99989796959493929190614e59565b6001600160a01b038116600090815260036020526040902080546060919061053290614f02565b80601f016020809104026020016040519081016040528092919081815260200182805461055e90614f02565b80156105ab5780601f10610580576101008083540402835291602001916105ab565b820191906000526020600020905b81548152906001019060200180831161058e57829003601f168201915b50505050509050919050565b606060023360009081526001602052604090205460ff1660028111156105df576105df61469e565b146106055760405162461bcd60e51b81526004016105fc90614f3c565b60405180910390fd5b6001600160a01b038216600090815260096020908152604080832033845290915290205460ff166106915760405162461bcd60e51b815260206004820152603060248201527f596f7520646f206e6f7420686176652061636365737320746f2074686973207060448201526f617469656e742773207265636f72647360801b60648201526084016105fc565b6001600160a01b038216600090815260076020526040812090805b82548110156107165760018382815481106106c9576106c9614f80565b600091825260209091206005600790920201015460ff1660028111156106f1576106f161469e565b03610704578161070081614fac565b9250505b8061070e81614fac565b9150506106ac565b506000816001600160401b0381111561073157610731614fc5565b60405190808252806020026020018201604052801561076a57816020015b610757614500565b81526020019060019003908161074f5790505b5090506000805b8454811015610a3957600185828154811061078e5761078e614f80565b600091825260209091206005600790920201015460ff1660028111156107b6576107b661469e565b03610a27578481815481106107cd576107cd614f80565b90600052602060002090600702016040518060e00160405290816000820180546107f690614f02565b80601f016020809104026020016040519081016040528092919081815260200182805461082290614f02565b801561086f5780601f106108445761010080835404028352916020019161086f565b820191906000526020600020905b81548152906001019060200180831161085257829003601f168201915b505050918352505060018201546001600160a01b03908116602083015260028301541660408201526003820180546060909201916108ac90614f02565b80601f01602080910402602001604051908101604052809291908181526020018280546108d890614f02565b80156109255780601f106108fa57610100808354040283529160200191610925565b820191906000526020600020905b81548152906001019060200180831161090857829003601f168201915b5050505050815260200160048201805461093e90614f02565b80601f016020809104026020016040519081016040528092919081815260200182805461096a90614f02565b80156109b75780601f1061098c576101008083540402835291602001916109b7565b820191906000526020600020905b81548152906001019060200180831161099a57829003601f168201915b5050509183525050600582015460209091019060ff1660028111156109de576109de61469e565b60028111156109ef576109ef61469e565b8152602001600682015481525050838380610a0990614fac565b945081518110610a1b57610a1b614f80565b60200260200101819052505b80610a3181614fac565b915050610771565b509093505050505b919050565b6000546060906001600160a01b03163314610a735760405162461bcd60e51b81526004016105fc90614fdb565b6005546000906001600160401b03811115610a9057610a90614fc5565b604051908082528060200260200182016040528015610ac957816020015b610ab661453c565b815260200190600190039081610aae5790505b50905060005b600554811015610da657600060058281548110610aee57610aee614f80565b60009182526020808320909101546001600160a01b031680835260048252604092839020835160c08101909452818452805491945092918201908390610b3390614f02565b80601f0160208091040260200160405190810160405280929190818152602001828054610b5f90614f02565b8015610bac5780601f10610b8157610100808354040283529160200191610bac565b820191906000526020600020905b815481529060010190602001808311610b8f57829003601f168201915b50505050508152602001826001018054610bc590614f02565b80601f0160208091040260200160405190810160405280929190818152602001828054610bf190614f02565b8015610c3e5780601f10610c1357610100808354040283529160200191610c3e565b820191906000526020600020905b815481529060010190602001808311610c2157829003601f168201915b50505050508152602001826002018054610c5790614f02565b80601f0160208091040260200160405190810160405280929190818152602001828054610c8390614f02565b8015610cd05780601f10610ca557610100808354040283529160200191610cd0565b820191906000526020600020905b815481529060010190602001808311610cb357829003601f168201915b50505050508152602001826003018054610ce990614f02565b80601f0160208091040260200160405190810160405280929190818152602001828054610d1590614f02565b8015610d625780601f10610d3757610100808354040283529160200191610d62565b820191906000526020600020905b815481529060010190602001808311610d4557829003601f168201915b505050505081526020018260050154815250848481518110610d8657610d86614f80565b602002602001018190525050508080610d9e90614fac565b915050610acf565b50905090565b60013360009081526001602052604090205460ff166002811115610dd257610dd261469e565b14610def5760405162461bcd60e51b81526004016105fc90614ffe565b3360009081526009602090815260408083206001600160a01b038716845290915290205460ff16610e625760405162461bcd60e51b815260206004820152601b60248201527f446f63746f7220646f6573206e6f74206861766520616363657373000000000060448201526064016105fc565b600060088383604051610e76929190615043565b90815260408051602092819003830190206001600160a01b0387166000908152925290208054610ea590614f02565b905011610f075760405162461bcd60e51b815260206004820152602a60248201527f446f63746f7220646f6573206e6f7420686176652061636365737320746f20746044820152691a1a5cc81c9958dbdc9960b21b60648201526084016105fc565b60088282604051610f19929190615043565b90815260408051602092819003830190206001600160a01b038616600090815292528120610f469161457b565b336000908152600c602090815260408083206001600160a01b03871684529091528120905b815481101561105a578383604051610f84929190615043565b6040518091039020828281548110610f9e57610f9e614f80565b90600052602060002001604051610fb591906150c6565b6040518091039020036110485781548290610fd2906001906150d2565b81548110610fe257610fe2614f80565b90600052602060002001828281548110610ffe57610ffe614f80565b9060005260206000200190816110149190615149565b508180548061102557611025615223565b600190038181906000526020600020016000611041919061457b565b905561105a565b8061105281614fac565b915050610f6b565b50336000908152600c602090815260408083206001600160a01b038816845290915281205490036110b1573360009081526009602090815260408083206001600160a01b03881684529091529020805460ff191690555b836001600160a01b0316336001600160a01b03167f42ce86fc65f9662ffd2726937c143668d2bf9b13032b5d04eff61e5883302bc885856040516110f6929190615262565b60405180910390a350505050565b6000546001600160a01b0316331461112e5760405162461bcd60e51b81526004016105fc90614fdb565b6001600160a01b0383166000908152600460205260409020600681015460ff1661116a5760405162461bcd60e51b81526004016105fc9061527e565b60068101805462ff00ff1916620100001790556007810161118c8385836152c1565b50611196846143f5565b836001600160a01b03167fb88d3b65fb21588e8792487a88d20d5d3870bd1330fd651c4924d048c15bdc7184846040516111d1929190615262565b60405180910390a250505050565b60606000600884846040516111f5929190615043565b908152604080516020928190038301902033600090815292529020805461121b90614f02565b80601f016020809104026020016040519081016040528092919081815260200182805461124790614f02565b80156112945780601f1061126957610100808354040283529160200191611294565b820191906000526020600020905b81548152906001019060200180831161127757829003601f168201915b5050505050905060008151116112f85760405162461bcd60e51b815260206004820152602360248201527f4e6f20656e63727970746564206b657920666f756e6420666f7220746869732060448201526210d25160ea1b60648201526084016105fc565b90505b92915050565b60608060023360009081526001602052604090205460ff16600281111561132a5761132a61469e565b146113475760405162461bcd60e51b81526004016105fc90614f3c565b600d80548060200260200160405190810160405280929190818152602001828054801561139d57602002820191906000526020600020905b81546001600160a01b0316815260019091019060200180831161137f575b5050600d5493955050506001600160401b0382111590506113c0576113c0614fc5565b6040519080825280602002602001820160405280156113f357816020015b60608152602001906001900390816113de5790505b50905060005b600d548110156114f75760036000600d838154811061141a5761141a614f80565b60009182526020808320909101546001600160a01b031683528201929092526040019020805461144990614f02565b80601f016020809104026020016040519081016040528092919081815260200182805461147590614f02565b80156114c25780601f10611497576101008083540402835291602001916114c2565b820191906000526020600020905b8154815290600101906020018083116114a557829003601f168201915b50505050508282815181106114d9576114d9614f80565b602002602001018190525080806114ef90614fac565b9150506113f9565b509091565b606060013360009081526001602052604090205460ff1660028111156115245761152461469e565b146115415760405162461bcd60e51b81526004016105fc90614ffe565b336000908152600a60209081526040808320805482518185028101850190935280835291929091908301828280156115a257602002820191906000526020600020905b81546001600160a01b03168152600190910190602001808311611584575b505050505090506000805b82518110156116285733600090815260096020526040812084519091908590849081106115dc576115dc614f80565b6020908102919091018101516001600160a01b031682528101919091526040016000205460ff1615611616578161161281614fac565b9250505b8061162081614fac565b9150506115ad565b506000816001600160401b0381111561164357611643614fc5565b60405190808252806020026020018201604052801561166c578160200160208202803683370190505b5090506000805b84518110156117395733600090815260096020526040812086519091908790849081106116a2576116a2614f80565b6020908102919091018101516001600160a01b031682528101919091526040016000205460ff1615611727578481815181106116e0576116e0614f80565b60200260200101518383806116f490614fac565b94508151811061170657611706614f80565b60200260200101906001600160a01b031690816001600160a01b0316815250505b8061173181614fac565b915050611673565b5090935050505090565b6000546001600160a01b0316331461176d5760405162461bcd60e51b81526004016105fc90614fdb565b6001600160a01b0381166000908152600460205260409020600681015460ff166117a95760405162461bcd60e51b81526004016105fc9061527e565b60068101805461ffff19166101001790556001600160a01b03821660009081526001602090815260408083208054600260ff19909116811790915590915290206117f66004830182615149565b506001600160a01b03821660009081526003602052604090206118198282615149565b50600680546001810182556000919091527ff652222313e28459528d920b65115c16c04f3efc82aaedc97be59f3f377c0d3f0180546001600160a01b0319166001600160a01b03841617905561186e826143f5565b816001600160a01b03167f35d45d664b551d0c83facbd3487cca32022a3ed9a515115791992136b270b4ae826000016040516118aa91906153f7565b60405180910390a2816001600160a01b03167f8e18574f8a7333e6a87112742a55853a643e2f0550f4e1a3a2c3f1bb2994441d60026040516118ec9190614987565b60405180910390a25050565b3360009081526001602052604081205460ff16600281111561191c5761191c61469e565b1461195e5760405162461bcd60e51b8152602060048201526012602482015271105b1c9958591e481c9959da5cdd195c995960721b60448201526064016105fc565b3360009081526004602052604090206006015460ff16156119915760405162461bcd60e51b81526004016105fc9061540a565b826119d55760405162461bcd60e51b81526020600482015260146024820152734e616d652063616e6e6f7420626520656d70747960601b60448201526064016105fc565b80611a225760405162461bcd60e51b815260206004820152601a60248201527f5075626c6963206b65792063616e6e6f7420626520656d70747900000000000060448201526064016105fc565b336000908152600160208181526040808420805460ff1916909317909255600290529020611a518284836152c1565b50336000908152600360205260409020611a6c8486836152c1565b50600d8054600181810183556000929092527fd7b6990105719101dabeb77144f2a3385c8033acd3af97e9423a695e81ad1eb50180546001600160a01b0319163390811790915560405190917f8e18574f8a7333e6a87112742a55853a643e2f0550f4e1a3a2c3f1bb2994441d916111d19190614987565b6001600160a01b03811660009081526004602052604081206006810154600782018054849384936060938493849384938493919260ff8083169361010084048216936201000090049091169185906001820190600283019060038401908590611b4c90614f02565b80601f0160208091040260200160405190810160405280929190818152602001828054611b7890614f02565b8015611bc55780601f10611b9a57610100808354040283529160200191611bc5565b820191906000526020600020905b815481529060010190602001808311611ba857829003601f168201915b50505050509450838054611bd890614f02565b80601f0160208091040260200160405190810160405280929190818152602001828054611c0490614f02565b8015611c515780601f10611c2657610100808354040283529160200191611c51565b820191906000526020600020905b815481529060010190602001808311611c3457829003601f168201915b50505050509350828054611c6490614f02565b80601f0160208091040260200160405190810160405280929190818152602001828054611c9090614f02565b8015611cdd5780601f10611cb257610100808354040283529160200191611cdd565b820191906000526020600020905b815481529060010190602001808311611cc057829003601f168201915b50505050509250818054611cf090614f02565b80601f0160208091040260200160405190810160405280929190818152602001828054611d1c90614f02565b8015611d695780601f10611d3e57610100808354040283529160200191611d69565b820191906000526020600020905b815481529060010190602001808311611d4c57829003601f168201915b50505050509150808054611d7c90614f02565b80601f0160208091040260200160405190810160405280929190818152602001828054611da890614f02565b8015611df55780601f10611dca57610100808354040283529160200191611df5565b820191906000526020600020905b815481529060010190602001808311611dd857829003601f168201915b505050505090509850985098509850985098509850985050919395975091939597565b6001600160a01b038116600090815260026020526040812080546060929190611e4090614f02565b80601f0160208091040260200160405190810160405280929190818152602001828054611e6c90614f02565b8015611eb95780601f10611e8e57610100808354040283529160200191611eb9565b820191906000526020600020905b815481529060010190602001808311611e9c57829003601f168201915b5050505050905060008151116112fb5760405162461bcd60e51b815260206004820152602960248201527f4e6f207075626c6963206b6579207265676973746572656420666f722074686960448201526873206164647265737360b81b60648201526084016105fc565b60013360009081526001602052604090205460ff166002811115611f4957611f4961469e565b14611f665760405162461bcd60e51b81526004016105fc90614ffe565b3360009081526009602090815260408083206001600160a01b038516845290915290205460ff16611fd95760405162461bcd60e51b815260206004820152601b60248201527f446f63746f7220646f6573206e6f74206861766520616363657373000000000060448201526064016105fc565b3360008181526009602090815260408083206001600160a01b03861684528252808320805460ff19169055928252600b9052908120905b815481101561208357600882828154811061202d5761202d614f80565b9060005260206000200160405161204491906150c6565b90815260408051602092819003830190206001600160a01b0386166000908152925281206120719161457b565b8061207b81614fac565b915050612010565b50336000908152600c602090815260408083206001600160a01b038616845290915281206120b0916145b8565b6040516001600160a01b0383169033907f825c8be24eb0df19500f63e86c29e7d0d951e73056b889b891d85e40938d9b6e90600090a35050565b60013360009081526001602052604090205460ff1660028111156121105761211061469e565b1461212d5760405162461bcd60e51b81526004016105fc90614ffe565b33600090815260076020526040902054811061218b5760405162461bcd60e51b815260206004820152601a60248201527f5265636f726420696e646578206f7574206f6620626f756e647300000000000060448201526064016105fc565b3360009081526007602052604081208054839081106121ac576121ac614f80565b6000918252602082206007909102019150600582015460ff1660028111156121d6576121d661469e565b1461221b5760405162461bcd60e51b81526020600482015260156024820152745265636f7264206973206e6f742070656e64696e6760581b60448201526064016105fc565b60058101805460ff1916600217905560405133907f67813150e12a88a933a212e01460fbb9da398d9f273927860439f64efac5538f906118ec908590859061544d565b60013360009081526001602052604090205460ff1660028111156122845761228461469e565b146122a15760405162461bcd60e51b81526004016105fc90614ffe565b3360009081526007602052604090205481106122ff5760405162461bcd60e51b815260206004820152601a60248201527f5265636f726420696e646578206f7574206f6620626f756e647300000000000060448201526064016105fc565b33600090815260076020526040812080548390811061232057612320614f80565b6000918252602082206007909102019150600582015460ff16600281111561234a5761234a61469e565b1461238f5760405162461bcd60e51b81526020600482015260156024820152745265636f7264206973206e6f742070656e64696e6760581b60448201526064016105fc565b60058101805460ff19166001908117909155336000908152600b6020908152604082208054938401815582529020016123c88282615149565b5033600090815260096020908152604080832060028501546001600160a01b0316845290915290205460ff16612462573360008181526009602090815260408083206002860180546001600160a01b039081168652918452828520805460ff19166001908117909155958552600a84529184209154825495860183559184529190922090920180546001600160a01b031916919092161790555b60405133907f24055d14743ca3f4c9f408d9ee74f1c45a082e250dca49cb8b49d7b7f697e809906118ec908590859061544d565b606060013360009081526001602052604090205460ff1660028111156124be576124be61469e565b146124db5760405162461bcd60e51b81526004016105fc90614ffe565b336000908152600b6020908152604080832080548251818502810185019093528083529193909284015b828210156125b157838290600052602060002001805461252490614f02565b80601f016020809104026020016040519081016040528092919081815260200182805461255090614f02565b801561259d5780601f106125725761010080835404028352916020019161259d565b820191906000526020600020905b81548152906001019060200180831161258057829003601f168201915b505050505081526020019060010190612505565b50505050905090565b600260205260009081526040902080546125d390614f02565b80601f01602080910402602001604051908101604052809291908181526020018280546125ff90614f02565b801561264c5780601f106126215761010080835404028352916020019161264c565b820191906000526020600020905b81548152906001019060200180831161262f57829003601f168201915b505050505081565b606060013360009081526001602052604090205460ff16600281111561267c5761267c61469e565b146126995760405162461bcd60e51b81526004016105fc90614ffe565b336000908152600c602090815260408083206001600160a01b0386168452825280832080548251818502810185019093528083529193909284015b828210156127805783829060005260206000200180546126f390614f02565b80601f016020809104026020016040519081016040528092919081815260200182805461271f90614f02565b801561276c5780601f106127415761010080835404028352916020019161276c565b820191906000526020600020905b81548152906001019060200180831161274f57829003601f168201915b5050505050815260200190600101906126d4565b505050509050919050565b60023360009081526001602052604090205460ff1660028111156127b1576127b161469e565b146127ce5760405162461bcd60e51b81526004016105fc90614f3c565b60016001600160a01b038a1660009081526001602052604090205460ff1660028111156127fd576127fd61469e565b146128555760405162461bcd60e51b815260206004820152602260248201527f546172676574206973206e6f74206120726567697374657265642070617469656044820152611b9d60f21b60648201526084016105fc565b866128985760405162461bcd60e51b81526020600482015260136024820152724349442063616e6e6f7420626520656d70747960681b60448201526064016105fc565b846128e55760405162461bcd60e51b815260206004820152601d60248201527f456e63727970746564206b65792063616e6e6f7420626520656d70747900000060448201526064016105fc565b826129325760405162461bcd60e51b815260206004820152601960248201527f46696c6520747970652063616e6e6f7420626520656d7074790000000000000060448201526064016105fc565b8061297f5760405162461bcd60e51b815260206004820152601960248201527f46696c65206e616d652063616e6e6f7420626520656d7074790000000000000060448201526064016105fc565b6001600160a01b03891660009081526007602090815260409182902080548351610100601f8d018590049094028101840190945260e084018b8152909391928291908d908d90819085018382808284376000920191909152505050908252506001600160a01b038d16602080830191909152336040808401919091528051601f8a01839004830281018301909152888152606090920191908990899081908401838280828437600092019190915250505090825250604080516020601f88018190048102820181019092528681529181019190879087908190840183828082843760009201829052509385525050602090920191508152426020918201528254600181018455600093845292208151919260070201908190612aa19082615466565b5060208201516001820180546001600160a01b039283166001600160a01b031991821617909155604084015160028401805491909316911617905560608201516003820190612af09082615466565b5060808201516004820190612b059082615466565b5060a082015160058201805460ff19166001836002811115612b2957612b2961469e565b021790555060c082015181600601555050868660088b8b604051612b4e929190615043565b90815260408051602092819003830190206001600160a01b038f1660009081529252902091612b7e9190836152c1565b50336001600160a01b03168a6001600160a01b03167f74f48835a36ac5fd7d7a1dc680b421425dcf650aba8cd1440817673d60c1483f8b8b8542604051612bc89493929190615519565b60405180910390a350505050505050505050565b600060013360009081526001602052604090205460ff166002811115612c0457612c0461469e565b14612c215760405162461bcd60e51b81526004016105fc90614ffe565b503360009081526007602052604090205490565b600060013360009081526001602052604090205460ff166002811115612c5d57612c5d61469e565b14612c7a5760405162461bcd60e51b81526004016105fc90614ffe565b33600090815260076020526040812090805b8254811015612cf6576000838281548110612ca957612ca9614f80565b600091825260209091206005600790920201015460ff166002811115612cd157612cd161469e565b03612ce45781612ce081614fac565b9250505b80612cee81614fac565b915050612c8c565b5091505090565b600360205260009081526040902080546125d390614f02565b60608060013360009081526001602052604090205460ff166002811115612d3f57612d3f61469e565b14612d5c5760405162461bcd60e51b81526004016105fc90614ffe565b33600090815260076020526040812090805b8254811015612dd8576000838281548110612d8b57612d8b614f80565b600091825260209091206005600790920201015460ff166002811115612db357612db361469e565b03612dc65781612dc281614fac565b9250505b80612dd081614fac565b915050612d6e565b506000816001600160401b03811115612df357612df3614fc5565b604051908082528060200260200182016040528015612e2c57816020015b612e19614500565b815260200190600190039081612e115790505b5090506000826001600160401b03811115612e4957612e49614fc5565b604051908082528060200260200182016040528015612e72578160200160208202803683370190505b5090506000805b8554811015613160576000868281548110612e9657612e96614f80565b600091825260209091206005600790920201015460ff166002811115612ebe57612ebe61469e565b0361314e57858181548110612ed557612ed5614f80565b90600052602060002090600702016040518060e0016040529081600082018054612efe90614f02565b80601f0160208091040260200160405190810160405280929190818152602001828054612f2a90614f02565b8015612f775780601f10612f4c57610100808354040283529160200191612f77565b820191906000526020600020905b815481529060010190602001808311612f5a57829003601f168201915b505050918352505060018201546001600160a01b0390811660208301526002830154166040820152600382018054606090920191612fb490614f02565b80601f0160208091040260200160405190810160405280929190818152602001828054612fe090614f02565b801561302d5780601f106130025761010080835404028352916020019161302d565b820191906000526020600020905b81548152906001019060200180831161301057829003601f168201915b5050505050815260200160048201805461304690614f02565b80601f016020809104026020016040519081016040528092919081815260200182805461307290614f02565b80156130bf5780601f10613094576101008083540402835291602001916130bf565b820191906000526020600020905b8154815290600101906020018083116130a257829003601f168201915b5050509183525050600582015460209091019060ff1660028111156130e6576130e661469e565b60028111156130f7576130f761469e565b815260200160068201548152505084838151811061311757613117614f80565b60200260200101819052508083838151811061313557613135614f80565b60209081029190910101528161314a81614fac565b9250505b8061315881614fac565b915050612e79565b5091955093505050509091565b3360009081526001602052604081205460ff1660028111156131915761319161469e565b146131d35760405162461bcd60e51b8152602060048201526012602482015271105b1c9958591e481c9959da5cdd195c995960721b60448201526064016105fc565b3360009081526004602052604090206006015460ff16156132065760405162461bcd60e51b81526004016105fc9061540a565b8861324a5760405162461bcd60e51b81526020600482015260146024820152734e616d652063616e6e6f7420626520656d70747960601b60448201526064016105fc565b866132975760405162461bcd60e51b815260206004820152601e60248201527f4c6963656e7365206e756d6265722063616e6e6f7420626520656d707479000060448201526064016105fc565b806132e45760405162461bcd60e51b815260206004820152601a60248201527f5075626c6963206b65792063616e6e6f7420626520656d70747900000000000060448201526064016105fc565b6040518061014001604052808b8b8080601f016020809104026020016040519081016040528093929190818152602001838380828437600092019190915250505090825250604080516020601f8c018190048102820181019092528a815291810191908b908b9081908401838280828437600092019190915250505090825250604080516020601f8a0181900481028201810190925288815291810191908990899081908401838280828437600092019190915250505090825250604080516020601f880181900481028201810190925286815291810191908790879081908401838280828437600092019190915250505090825250604080516020601f8601819004810282018101909252848152918101919085908590819084018382808284376000920182905250938552505042602080850191909152600160408086019190915260608501849052608085018490528051808301825284815260a090950194909452338352600490525020815181906134609082615466565b50602082015160018201906134759082615466565b506040820151600282019061348a9082615466565b506060820151600382019061349f9082615466565b50608082015160048201906134b49082615466565b5060a0820151600582015560c082015160068201805460e08501516101008087015161ffff1990931694151561ff001916949094179015159093029290921762ff000019166201000092151592909202919091179055610120820151600782019061351f9082615466565b5050600580546001810182556000919091527f036b6384b5eca791c62761152d0c79bb0604c104a5fb6f4eb0703f3154bb3db00180546001600160a01b031916339081179091556040519091507fa10fac549d353fda0c9e8727471521d618e71c7ad4bea1441e49cce316ce216b9061359f908d908d908d908d90615540565b60405180910390a250505050505050505050565b606060013360009081526001602052604090205460ff1660028111156135db576135db61469e565b146135f85760405162461bcd60e51b81526004016105fc90614ffe565b33600090815260076020526040812090805b825481101561367457600183828154811061362757613627614f80565b600091825260209091206005600790920201015460ff16600281111561364f5761364f61469e565b03613662578161365e81614fac565b9250505b8061366c81614fac565b91505061360a565b506000816001600160401b0381111561368f5761368f614fc5565b6040519080825280602002602001820160405280156136c857816020015b6136b5614500565b8152602001906001900390816136ad5790505b5090506000805b84548110156117395760018582815481106136ec576136ec614f80565b600091825260209091206005600790920201015460ff1660028111156137145761371461469e565b036139855784818154811061372b5761372b614f80565b90600052602060002090600702016040518060e001604052908160008201805461375490614f02565b80601f016020809104026020016040519081016040528092919081815260200182805461378090614f02565b80156137cd5780601f106137a2576101008083540402835291602001916137cd565b820191906000526020600020905b8154815290600101906020018083116137b057829003601f168201915b505050918352505060018201546001600160a01b039081166020830152600283015416604082015260038201805460609092019161380a90614f02565b80601f016020809104026020016040519081016040528092919081815260200182805461383690614f02565b80156138835780601f1061385857610100808354040283529160200191613883565b820191906000526020600020905b81548152906001019060200180831161386657829003601f168201915b5050505050815260200160048201805461389c90614f02565b80601f01602080910402602001604051908101604052809291908181526020018280546138c890614f02565b80156139155780601f106138ea57610100808354040283529160200191613915565b820191906000526020600020905b8154815290600101906020018083116138f857829003601f168201915b5050509183525050600582015460209091019060ff16600281111561393c5761393c61469e565b600281111561394d5761394d61469e565b815260200160068201548152505083838061396790614fac565b94508151811061397957613979614f80565b60200260200101819052505b8061398f81614fac565b9150506136cf565b6000546060906001600160a01b031633146139c45760405162461bcd60e51b81526004016105fc90614fdb565b6006546000906001600160401b038111156139e1576139e1614fc5565b604051908082528060200260200182016040528015613a1a57816020015b613a0761453c565b8152602001906001900390816139ff5790505b50905060005b600654811015610da657600060068281548110613a3f57613a3f614f80565b60009182526020808320909101546001600160a01b031680835260048252604092839020835160c08101909452818452805491945092918201908390613a8490614f02565b80601f0160208091040260200160405190810160405280929190818152602001828054613ab090614f02565b8015613afd5780601f10613ad257610100808354040283529160200191613afd565b820191906000526020600020905b815481529060010190602001808311613ae057829003601f168201915b50505050508152602001826001018054613b1690614f02565b80601f0160208091040260200160405190810160405280929190818152602001828054613b4290614f02565b8015613b8f5780601f10613b6457610100808354040283529160200191613b8f565b820191906000526020600020905b815481529060010190602001808311613b7257829003601f168201915b50505050508152602001826002018054613ba890614f02565b80601f0160208091040260200160405190810160405280929190818152602001828054613bd490614f02565b8015613c215780601f10613bf657610100808354040283529160200191613c21565b820191906000526020600020905b815481529060010190602001808311613c0457829003601f168201915b50505050508152602001826003018054613c3a90614f02565b80601f0160208091040260200160405190810160405280929190818152602001828054613c6690614f02565b8015613cb35780601f10613c8857610100808354040283529160200191613cb3565b820191906000526020600020905b815481529060010190602001808311613c9657829003601f168201915b505050505081526020018260050154815250848481518110613cd757613cd7614f80565b602002602001018190525050508080613cef90614fac565b915050613a20565b60013360009081526001602052604090205460ff166002811115613d1d57613d1d61469e565b14613d3a5760405162461bcd60e51b81526004016105fc90614ffe565b60026001600160a01b03861660009081526001602052604090205460ff166002811115613d6957613d6961469e565b14613dc05760405162461bcd60e51b815260206004820152602160248201527f546172676574206973206e6f742061207265676973746572656420646f63746f6044820152603960f91b60648201526084016105fc565b82613e035760405162461bcd60e51b81526020600482015260136024820152724349442063616e6e6f7420626520656d70747960681b60448201526064016105fc565b600060088585604051613e17929190615043565b9081526040805160209281900383019020336000908152925290208054613e3d90614f02565b905011613e8c5760405162461bcd60e51b815260206004820152601a60248201527f596f7520646f206e6f74206f776e2074686973207265636f726400000000000060448201526064016105fc565b3360009081526009602090815260408083206001600160a01b038916845290915290205460ff16613f14573360008181526009602090815260408083206001600160a01b038a16808552908352818420805460ff19166001908117909155948452600a8352908320805494850181558352912090910180546001600160a01b03191690911790555b818160088686604051613f28929190615043565b90815260408051602092819003830190206001600160a01b038a1660009081529252902091613f589190836152c1565b50336000908152600c602090815260408083206001600160a01b03891684529091528120815b8154811015613ff0578686604051613f97929190615043565b6040518091039020828281548110613fb157613fb1614f80565b90600052602060002001604051613fc891906150c6565b604051809103902003613fde5760019250613ff0565b80613fe881614fac565b915050613f7e565b5081614015578054600181018255600082815260209020016140138688836152c1565b505b866001600160a01b0316336001600160a01b03167fc7e5c007251689b9bc3cb624f55714afc5988f3e3b4e20cc6a606d7bad6faeca888860405161405a929190615262565b60405180910390a350505050505050565b60046020526000908152604090208054819061408690614f02565b80601f01602080910402602001604051908101604052809291908181526020018280546140b290614f02565b80156140ff5780601f106140d4576101008083540402835291602001916140ff565b820191906000526020600020905b8154815290600101906020018083116140e257829003601f168201915b50505050509080600101805461411490614f02565b80601f016020809104026020016040519081016040528092919081815260200182805461414090614f02565b801561418d5780601f106141625761010080835404028352916020019161418d565b820191906000526020600020905b81548152906001019060200180831161417057829003601f168201915b5050505050908060020180546141a290614f02565b80601f01602080910402602001604051908101604052809291908181526020018280546141ce90614f02565b801561421b5780601f106141f05761010080835404028352916020019161421b565b820191906000526020600020905b8154815290600101906020018083116141fe57829003601f168201915b50505050509080600301805461423090614f02565b80601f016020809104026020016040519081016040528092919081815260200182805461425c90614f02565b80156142a95780601f1061427e576101008083540402835291602001916142a9565b820191906000526020600020905b81548152906001019060200180831161428c57829003601f168201915b5050505050908060040180546142be90614f02565b80601f01602080910402602001604051908101604052809291908181526020018280546142ea90614f02565b80156143375780601f1061430c57610100808354040283529160200191614337565b820191906000526020600020905b81548152906001019060200180831161431a57829003601f168201915b50505050600583015460068401546007850180549495929460ff80841695506101008404811694620100009094041692919061437290614f02565b80601f016020809104026020016040519081016040528092919081815260200182805461439e90614f02565b80156143eb5780601f106143c0576101008083540402835291602001916143eb565b820191906000526020600020905b8154815290600101906020018083116143ce57829003601f168201915b505050505090508a565b60005b6005548110156144fc57816001600160a01b03166005828154811061441f5761441f614f80565b6000918252602090912001546001600160a01b0316036144ea5760058054614449906001906150d2565b8154811061445957614459614f80565b600091825260209091200154600580546001600160a01b03909216918390811061448557614485614f80565b9060005260206000200160006101000a8154816001600160a01b0302191690836001600160a01b0316021790555060058054806144c4576144c4615223565b600082815260209020810160001990810180546001600160a01b03191690550190555050565b806144f481614fac565b9150506143f8565b5050565b6040805160e081018252606080825260006020830181905292820183905280820181905260808201529060a08201908152602001600081525090565b6040518060c0016040528060006001600160a01b0316815260200160608152602001606081526020016060815260200160608152602001600081525090565b50805461458790614f02565b6000825580601f10614597575050565b601f0160209004906000526020600020908101906145b591906145d6565b50565b50805460008255906000526020600020908101906145b591906145ef565b5b808211156145eb57600081556001016145d7565b5090565b808211156145eb576000614603828261457b565b506001016145ef565b80356001600160a01b0381168114610a4157600080fd5b60006020828403121561463557600080fd5b61463e8261460c565b9392505050565b6000815180845260005b8181101561466b5760208185018101518683018201520161464f565b506000602082860101526020601f19601f83011685010191505092915050565b60208152600061463e6020830184614645565b634e487b7160e01b600052602160045260246000fd5b600381106145b557634e487b7160e01b600052602160045260246000fd5b6146db816146b4565b9052565b600082825180855260208086019550808260051b84010181860160005b848110156147af57601f19868403018952815160e0815181865261472282870182614645565b838801516001600160a01b03908116888a015260408086015190911690880152606080850151888303828a0152919350915061475e8382614645565b92505050608080830151868303828801526147798382614645565b9250505060a08083015161478f828801826146d2565b505060c091820151949091019390935297830197908301906001016146fc565b5090979650505050505050565b60208152600061463e60208301846146df565b60006020808301818452808551808352604092508286019150828160051b87010184880160005b8381101561489e57888303603f19018552815180516001600160a01b031684528781015160c08986018190529061482f82870182614645565b91505087820151858203898701526148478282614645565b915050606080830151868303828801526148618382614645565b925050506080808301518683038288015261487c8382614645565b60a09485015197909401969096525050948701949250908601906001016147f6565b509098975050505050505050565b60008083601f8401126148be57600080fd5b5081356001600160401b038111156148d557600080fd5b6020830191508360208285010111156148ed57600080fd5b9250929050565b60008060006040848603121561490957600080fd5b6149128461460c565b925060208401356001600160401b0381111561492d57600080fd5b614939868287016148ac565b9497909650939450505050565b6000806020838503121561495957600080fd5b82356001600160401b0381111561496f57600080fd5b61497b858286016148ac565b90969095509350505050565b60208101614994836146b4565b91905290565b600081518084526020808501945080840160005b838110156149d35781516001600160a01b0316875295820195908201906001016149ae565b509495945050505050565b600081518084526020808501808196508360051b8101915082860160005b85811015614a26578284038952614a14848351614645565b988501989350908401906001016149fc565b5091979650505050505050565b604081526000614a46604083018561499a565b8281036020840152614a5881856149de565b95945050505050565b60208152600061463e602083018461499a565b60008060408385031215614a8757600080fd5b614a908361460c565b9150614a9e6020840161460c565b90509250929050565b60008060008060408587031215614abd57600080fd5b84356001600160401b0380821115614ad457600080fd5b614ae0888389016148ac565b90965094506020870135915080821115614af957600080fd5b50614b06878288016148ac565b95989497509550505050565b60006101008a1515835289151560208401528815156040840152806060840152614b3e81840189614645565b90508281036080840152614b528188614645565b905082810360a0840152614b668187614645565b905082810360c0840152614b7a8186614645565b905082810360e0840152614b8e8185614645565b9b9a5050505050505050505050565b600060208284031215614baf57600080fd5b5035919050565b60208152600061463e60208301846149de565b600080600080600080600080600060a08a8c031215614be757600080fd5b614bf08a61460c565b985060208a01356001600160401b0380821115614c0c57600080fd5b614c188d838e016148ac565b909a50985060408c0135915080821115614c3157600080fd5b614c3d8d838e016148ac565b909850965060608c0135915080821115614c5657600080fd5b614c628d838e016148ac565b909650945060808c0135915080821115614c7b57600080fd5b50614c888c828d016148ac565b915080935050809150509295985092959850929598565b604081526000614cb260408301856146df565b82810360208481019190915284518083528582019282019060005b818110156147af57845183529383019391830191600101614ccd565b60008060008060008060008060008060a08b8d031215614d0857600080fd5b8a356001600160401b0380821115614d1f57600080fd5b614d2b8e838f016148ac565b909c509a5060208d0135915080821115614d4457600080fd5b614d508e838f016148ac565b909a50985060408d0135915080821115614d6957600080fd5b614d758e838f016148ac565b909850965060608d0135915080821115614d8e57600080fd5b614d9a8e838f016148ac565b909650945060808d0135915080821115614db357600080fd5b50614dc08d828e016148ac565b915080935050809150509295989b9194979a5092959850565b600080600080600060608688031215614df157600080fd5b614dfa8661460c565b945060208601356001600160401b0380821115614e1657600080fd5b614e2289838a016148ac565b90965094506040880135915080821115614e3b57600080fd5b50614e48888289016148ac565b969995985093965092949392505050565b6000610140808352614e6d8184018e614645565b90508281036020840152614e81818d614645565b90508281036040840152614e95818c614645565b90508281036060840152614ea9818b614645565b90508281036080840152614ebd818a614645565b90508760a084015286151560c084015285151560e0840152841515610100840152828103610120840152614ef18185614645565b9d9c50505050505050505050505050565b600181811c90821680614f1657607f821691505b602082108103614f3657634e487b7160e01b600052602260045260246000fd5b50919050565b60208082526024908201527f4f6e6c7920646f63746f72732063616e20706572666f726d20746869732061636040820152633a34b7b760e11b606082015260800190565b634e487b7160e01b600052603260045260246000fd5b634e487b7160e01b600052601160045260246000fd5b600060018201614fbe57614fbe614f96565b5060010190565b634e487b7160e01b600052604160045260246000fd5b6020808252600990820152682737ba1030b236b4b760b91b604082015260600190565b60208082526025908201527f4f6e6c792070617469656e74732063616e20706572666f726d2074686973206160408201526431ba34b7b760d91b606082015260800190565b8183823760009101908152919050565b6000815461506081614f02565b60018281168015615078576001811461508d576150bc565b60ff19841687528215158302870194506150bc565b8560005260208060002060005b858110156150b35781548a82015290840190820161509a565b50505082870194505b5050505092915050565b600061463e8284615053565b818103818111156112fb576112fb614f96565b601f82111561512f57600081815260208120601f850160051c8101602086101561510c5750805b601f850160051c820191505b8181101561512b57828155600101615118565b5050505b505050565b600019600383901b1c191660019190911b1790565b818103615154575050565b61515e8254614f02565b6001600160401b0381111561517557615175614fc5565b615189816151838454614f02565b846150e5565b6000601f8211600181146151b757600083156151a55750848201545b6151af8482615134565b85555061521c565b600085815260209020601f19841690600086815260209020845b838110156151f157828601548255600195860195909101906020016151d1565b508583101561520f5781850154600019600388901b60f8161c191681555b50505060018360011b0184555b5050505050565b634e487b7160e01b600052603160045260246000fd5b81835281816020850137506000828201602090810191909152601f909101601f19169091010190565b602081526000615276602083018486615239565b949350505050565b60208082526023908201527f4e6f2070656e64696e67207265717565737420666f722074686973206164647260408201526265737360e81b606082015260800190565b6001600160401b038311156152d8576152d8614fc5565b6152ec836152e68354614f02565b836150e5565b6000601f84116001811461531a57600085156153085750838201355b6153128682615134565b84555061521c565b600083815260209020601f19861690835b8281101561534b578685013582556020948501946001909201910161532b565b50868210156153685760001960f88860031b161c19848701351681555b505060018560011b0183555050505050565b6000815461538781614f02565b8085526020600183811680156153a457600181146153be576153ec565b60ff1985168884015283151560051b8801830195506153ec565b866000528260002060005b858110156153e45781548a82018601529083019084016153c9565b890184019650505b505050505092915050565b60208152600061463e602083018461537a565b60208082526023908201527f446f63746f7220766572696669636174696f6e20616c72656164792070656e64604082015262696e6760e81b606082015260800190565b828152604060208201526000615276604083018461537a565b81516001600160401b0381111561547f5761547f614fc5565b61548d816151838454614f02565b602080601f8311600181146154bc57600084156154aa5750858301515b6154b48582615134565b86555061512b565b600085815260208120601f198616915b828110156154eb578886015182559484019460019091019084016154cc565b50858210156155095787850151600019600388901b60f8161c191681555b5050505050600190811b01905550565b60608152600061552d606083018688615239565b6020830194909452506040015292915050565b604081526000615554604083018688615239565b8281036020840152615567818587615239565b97965050505050505056fea2646970667358221220f4e4dbcd06929e974d63920aabdaa309228f910309bdf5c12c243f01aed125b264736f6c63430008140033",
  "linkReferences": {},
  "deployedLinkReferences": {}
}