{
  "_format": "hh-sol-artifact-1",
  "contractName": "MedicalRecordVault",
  "sourceName": "contracts/MedicalRecordVault.sol",
  "abi": [
    {
      "inputs": [],
      "stateMutability": "nonpayable",
      "type": "constructor"
    },
    {
      "anonymous": false,
      "inputs": [
        {
          "indexed": true,
          "internalType": "address",
          "name": "patient",
          "type": "address"
        },
        {
          "indexed": true,
          "internalType": "address",
          "name": "doctor",
          "type": "address"
        },
        {
          "indexed": false,
          "internalType": "string",
          "name": "cid",
          "type": "string"
        }
      ],
      "name": "AccessGranted",
      "type": "event"
    },
    {
      "anonymous": false,
      "inputs": [
        {
          "indexed": true,
          "internalType": "address",
          "name": "patient",
          "type": "address"
        },
        {
          "indexed": true,
          "internalType": "address",
          "name": "doctor",
          "type": "address"
        }
      ],
      "name": "AccessRevoked",
      "type": "event"
    },
    {
      "anonymous": false,
      "inputs": [
        {
          "indexed": true,
          "internalType": "address",
          "name": "patient",
          "type": "address"
        },
        {
          "indexed": false,
          "internalType": "uint256",
          "name": "recordIndex",
          "type": "uint256"
        },
        {
          "indexed": false,
          "internalType": "string",
          "name": "cid",
          "type": "string"
        }
      ],
      "name": "RecordApproved",
      "type": "event"
    },
    {
      "anonymous": false,
      "inputs": [
        {
          "indexed": true,
          "internalType": "address",
          "name": "patient",
          "type": "address"
        },
        {
          "indexed": false,
          "internalType": "uint256",
          "name": "recordIndex",
          "type": "uint256"
        },
        {
          "indexed": false,
          "internalType": "string",
          "name": "cid",
          "type": "string"
        }
      ],
      "name": "RecordRejected",
      "type": "event"
    },
    {
      "anonymous": false,
      "inputs": [
        {
          "indexed": true,
          "internalType": "address",
          "name": "patient",
          "type": "address"
        },
        {
          "indexed": true,
          "internalType": "address",
          "name": "doctor",
          "type": "address"
        },
        {
          "indexed": false,
          "internalType": "string",
          "name": "cid",
          "type": "string"
        },
        {
          "indexed": false,
          "internalType": "uint256",
          "name": "recordIndex",
          "type": "uint256"
        },
        {
          "indexed": false,
          "internalType": "uint256",
          "name": "timestamp",
          "type": "uint256"
        }
      ],
      "name": "RecordSubmitted",
      "type": "event"
    },
    {
      "anonymous": false,
      "inputs": [
        {
          "indexed": true,
          "internalType": "address",
          "name": "user",
          "type": "address"
        },
        {
          "indexed": false,
          "internalType": "enum MedicalRecordVault.Role",
          "name": "role",
          "type": "uint8"
        }
      ],
      "name": "UserRegistered",
      "type": "event"
    },
    {
      "inputs": [
        {
          "internalType": "address",
          "name": "",
          "type": "address"
        },
        {
          "internalType": "address",
          "name": "",
          "type": "address"
        }
      ],
      "name": "accessList",
      "outputs": [
        {
          "internalType": "bool",
          "name": "",
          "type": "bool"
        }
      ],
      "stateMutability": "view",
      "type": "function"
    },
    {
      "inputs": [
        {
          "internalType": "uint256",
          "name": "_recordIndex",
          "type": "uint256"
        }
      ],
      "name": "approveRecord",
      "outputs": [],
      "stateMutability": "nonpayable",
      "type": "function"
    },
    {
      "inputs": [],
      "name": "getAuthorizedDoctors",
      "outputs": [
        {
          "internalType": "address[]",
          "name": "",
          "type": "address[]"
        }
      ],
      "stateMutability": "view",
      "type": "function"
    },
    {
      "inputs": [
        {
          "internalType": "string",
          "name": "_cid",
          "type": "string"
        }
      ],
      "name": "getEncryptedKey",
      "outputs": [
        {
          "internalType": "string",
          "name": "",
          "type": "string"
        }
      ],
      "stateMutability": "view",
      "type": "function"
    },
    {
      "inputs": [],
      "name": "getMyCids",
      "outputs": [
        {
          "internalType": "string[]",
          "name": "",
          "type": "string[]"
        }
      ],
      "stateMutability": "view",
      "type": "function"
    },
    {
      "inputs": [],
      "name": "getMyRecords",
      "outputs": [
        {
          "components": [
            {
              "internalType": "string",
              "name": "cid",
              "type": "string"
            },
            {
              "internalType": "address",
              "name": "patientAddress",
              "type": "address"
            },
            {
              "internalType": "address",
              "name": "doctorAddress",
              "type": "address"
            },
            {
              "internalType": "string",
              "name": "fileType",
              "type": "string"
            },
            {
              "internalType": "string",
              "name": "fileName",
              "type": "string"
            },
            {
              "internalType": "enum MedicalRecordVault.RecordStatus",
              "name": "status",
              "type": "uint8"
            },
            {
              "internalType": "uint256",
              "name": "timestamp",
              "type": "uint256"
            }
          ],
          "internalType": "struct MedicalRecordVault.Record[]",
          "name": "",
          "type": "tuple[]"
        }
      ],
      "stateMutability": "view",
      "type": "function"
    },
    {
      "inputs": [
        {
          "internalType": "address",
          "name": "_patient",
          "type": "address"
        }
      ],
      "name": "getPatientRecords",
      "outputs": [
        {
          "components": [
            {
              "internalType": "string",
              "name": "cid",
              "type": "string"
            },
            {
              "internalType": "address",
              "name": "patientAddress",
              "type": "address"
            },
            {
              "internalType": "address",
              "name": "doctorAddress",
              "type": "address"
            },
            {
              "internalType": "string",
              "name": "fileType",
              "type": "string"
            },
            {
              "internalType": "string",
              "name": "fileName",
              "type": "string"
            },
            {
              "internalType": "enum MedicalRecordVault.RecordStatus",
              "name": "status",
              "type": "uint8"
            },
            {
              "internalType": "uint256",
              "name": "timestamp",
              "type": "uint256"
            }
          ],
          "internalType": "struct MedicalRecordVault.Record[]",
          "name": "",
          "type": "tuple[]"
        }
      ],
      "stateMutability": "view",
      "type": "function"
    },
    {
      "inputs": [],
      "name": "getPendingCount",
      "outputs": [
        {
          "internalType": "uint256",
          "name": "",
          "type": "uint256"
        }
      ],
      "stateMutability": "view",
      "type": "function"
    },
    {
      "inputs": [],
      "name": "getPendingRecords",
      "outputs": [
        {
          "components": [
            {
              "internalType": "string",
              "name": "cid",
              "type": "string"
            },
            {
              "internalType": "address",
              "name": "patientAddress",
              "type": "address"
            },
            {
              "internalType": "address",
              "name": "doctorAddress",
              "type": "address"
            },
            {
              "internalType": "string",
              "name": "fileType",
              "type": "string"
            },
            {
              "internalType": "string",
              "name": "fileName",
              "type": "string"
            },
            {
              "internalType": "enum MedicalRecordVault.RecordStatus",
              "name": "status",
              "type": "uint8"
            },
            {
              "internalType": "uint256",
              "name": "timestamp",
              "type": "uint256"
            }
          ],
          "internalType": "struct MedicalRecordVault.Record[]",
          "name": "",
          "type": "tuple[]"
        },
        {
          "internalType": "uint256[]",
          "name": "",
          "type": "uint256[]"
        }
      ],
      "stateMutability": "view",
      "type": "function"
    },
    {
      "inputs": [
        {
          "internalType": "address",
          "name": "_account",
          "type": "address"
        }
      ],
      "name": "getPublicKey",
      "outputs": [
        {
          "internalType": "string",
          "name": "",
          "type": "string"
        }
      ],
      "stateMutability": "view",
      "type": "function"
    },
    {
      "inputs": [],
      "name": "getRecordCount",
      "outputs": [
        {
          "internalType": "uint256",
          "name": "",
          "type": "uint256"
        }
      ],
      "stateMutability": "view",
      "type": "function"
    },
    {
      "inputs": [
        {
          "internalType": "address",
          "name": "_account",
          "type": "address"
        }
      ],
      "name": "getRole",
      "outputs": [
        {
          "internalType": "enum MedicalRecordVault.Role",
          "name": "",
          "type": "uint8"
        }
      ],
      "stateMutability": "view",
      "type": "function"
    },
    {
      "inputs": [
        {
          "internalType": "address",
          "name": "_doctor",
          "type": "address"
        },
        {
          "internalType": "string",
          "name": "_cid",
          "type": "string"
        },
        {
          "internalType": "string",
          "name": "_encryptedKeyForDoctor",
          "type": "string"
        }
      ],
      "name": "grantAccess",
      "outputs": [],
      "stateMutability": "nonpayable",
      "type": "function"
    },
    {
      "inputs": [],
      "name": "owner",
      "outputs": [
        {
          "internalType": "address",
          "name": "",
          "type": "address"
        }
      ],
      "stateMutability": "view",
      "type": "function"
    },
    {
      "inputs": [
        {
          "internalType": "address",
          "name": "",
          "type": "address"
        }
      ],
      "name": "publicKeys",
      "outputs": [
        {
          "internalType": "string",
          "name": "",
          "type": "string"
        }
      ],
      "stateMutability": "view",
      "type": "function"
    },
    {
      "inputs": [
        {
          "internalType": "string",
          "name": "_publicKey",
          "type": "string"
        }
      ],
      "name": "registerAsDoctor",
      "outputs": [],
      "stateMutability": "nonpayable",
      "type": "function"
    },
    {
      "inputs": [
        {
          "internalType": "string",
          "name": "_publicKey",
          "type": "string"
        }
      ],
      "name": "registerAsPatient",
      "outputs": [],
      "stateMutability": "nonpayable",
      "type": "function"
    },
    {
      "inputs": [
        {
          "internalType": "uint256",
          "name": "_recordIndex",
          "type": "uint256"
        }
      ],
      "name": "rejectRecord",
      "outputs": [],
      "stateMutability": "nonpayable",
      "type": "function"
    },
    {
      "inputs": [
        {
          "internalType": "address",
          "name": "_doctor",
          "type": "address"
        }
      ],
      "name": "revokeAccess",
      "outputs": [],
      "stateMutability": "nonpayable",
      "type": "function"
    },
    {
      "inputs": [
        {
          "internalType": "address",
          "name": "",
          "type": "address"
        }
      ],
      "name": "roles",
      "outputs": [
        {
          "internalType": "enum MedicalRecordVault.Role",
          "name": "",
          "type": "uint8"
        }
      ],
      "stateMutability": "view",
      "type": "function"
    },
    {
      "inputs": [
        {
          "internalType": "address",
          "name": "_patient",
          "type": "address"
        },
        {
          "internalType": "string",
          "name": "_cid",
          "type": "string"
        },
        {
          "internalType": "string",
          "name": "_encryptedKeyForPatient",
          "type": "string"
        },
        {
          "internalType": "string",
          "name": "_fileType",
          "type": "string"
        },
        {
          "internalType": "string",
          "name": "_fileName",
          "type": "string"
        }
      ],
      "name": "submitRecord",
      "outputs": [],
      "stateMutability": "nonpayable",
      "type": "function"
    }
  ],
  "bytecode": "0x608060405234801561001057600080fd5b50600080546001600160a01b0319163317905561302f806100326000396000f3fe608060405234801561001057600080fd5b50600436106101375760003560e01c806399374642116100b8578063ca267f281161007c578063ca267f28146102fb578063d795ede114610311578063dc42929c14610319578063e08545671461032c578063e76637ce14610342578063f7d9e1571461034a57600080fd5b8063993746421461028a5780639e64b856146102ad578063a3d6f9a9146102c2578063a4a96072146102d5578063b8278dcf146102e857600080fd5b8063857cdbb8116100ff578063857cdbb81461021157806385e685311461022457806388c118a9146102395780638da5cb5b1461024c578063918c0c431461027757600080fd5b806318bd48471461013c5780633a6d50b614610165578063442767331461018557806350bd43dc146101be57806377814646146101d3575b600080fd5b61014f61014a366004612644565b61035d565b60405161015c91906127c6565b60405180910390f35b610178610173366004612822565b6107ef565b60405161015c9190612864565b6101b1610193366004612644565b6001600160a01b031660009081526001602052604090205460ff1690565b60405161015c9190612877565b6101c661090f565b60405161015c919061288a565b6102016101e13660046128d7565b600560209081526000928352604080842090915290825290205460ff1681565b604051901515815260200161015c565b61017861021f366004612644565b610b50565b610237610232366004612644565b610c61565b005b61023761024736600461290a565b610d6d565b60005461025f906001600160a01b031681565b6040516001600160a01b03909116815260200161015c565b61023761028536600461290a565b610eed565b6101b1610298366004612644565b60016020526000908152604090205460ff1681565b6102b5611125565b60405161015c9190612923565b6101786102d0366004612644565b611249565b6102376102e3366004612822565b6112e3565b6102376102f6366004612985565b611401565b61030361185a565b60405190815260200161015c565b6103036118b3565b610237610327366004612822565b61197b565b610334611a98565b60405161015c929190612a5c565b61014f611ef1565b610237610358366004612aa6565b6122d8565b606060023360009081526001602052604090205460ff166002811115610385576103856126a5565b146103ab5760405162461bcd60e51b81526004016103a290612b27565b60405180910390fd5b6001600160a01b038216600090815260056020908152604080832033845290915290205460ff166104375760405162461bcd60e51b815260206004820152603060248201527f596f7520646f206e6f7420686176652061636365737320746f2074686973207060448201526f617469656e742773207265636f72647360801b60648201526084016103a2565b6001600160a01b038216600090815260036020526040812090805b82548110156104bc57600183828154811061046f5761046f612b6b565b600091825260209091206005600790920201015460ff166002811115610497576104976126a5565b036104aa57816104a681612b81565b9250505b806104b481612b81565b915050610452565b5060008167ffffffffffffffff8111156104d8576104d8612ba8565b60405190808252806020026020018201604052801561051157816020015b6104fe6125f1565b8152602001906001900390816104f65790505b5090506000805b84548110156107e257600185828154811061053557610535612b6b565b600091825260209091206005600790920201015460ff16600281111561055d5761055d6126a5565b036107d05784818154811061057457610574612b6b565b90600052602060002090600702016040518060e001604052908160008201805461059d90612bbe565b80601f01602080910402602001604051908101604052809291908181526020018280546105c990612bbe565b80156106165780601f106105eb57610100808354040283529160200191610616565b820191906000526020600020905b8154815290600101906020018083116105f957829003601f168201915b505050918352505060018201546001600160a01b039081166020830152600283015416604082015260038201805460609092019161065390612bbe565b80601f016020809104026020016040519081016040528092919081815260200182805461067f90612bbe565b80156106cc5780601f106106a1576101008083540402835291602001916106cc565b820191906000526020600020905b8154815290600101906020018083116106af57829003601f168201915b505050505081526020016004820180546106e590612bbe565b80601f016020809104026020016040519081016040528092919081815260200182805461071190612bbe565b801561075e5780601f106107335761010080835404028352916020019161075e565b820191906000526020600020905b81548152906001019060200180831161074157829003601f168201915b5050509183525050600582015460209091019060ff166002811115610785576107856126a5565b6002811115610796576107966126a5565b81526020016006820154815250508383815181106107b6576107b6612b6b565b602002602001018190525081806107cc90612b81565b9250505b806107da81612b81565b915050610518565b509093505050505b919050565b6060600060048484604051610805929190612bf8565b908152604080516020928190038301902033600090815292529020805461082b90612bbe565b80601f016020809104026020016040519081016040528092919081815260200182805461085790612bbe565b80156108a45780601f10610879576101008083540402835291602001916108a4565b820191906000526020600020905b81548152906001019060200180831161088757829003601f168201915b5050505050905060008151116109085760405162461bcd60e51b815260206004820152602360248201527f4e6f20656e63727970746564206b657920666f756e6420666f7220746869732060448201526210d25160ea1b60648201526084016103a2565b9392505050565b606060013360009081526001602052604090205460ff166002811115610937576109376126a5565b146109545760405162461bcd60e51b81526004016103a290612c08565b336000908152600660209081526040808320805482518185028101850190935280835291929091908301828280156109b557602002820191906000526020600020905b81546001600160a01b03168152600190910190602001808311610997575b505050505090506000805b8251811015610a3b5733600090815260056020526040812084519091908590849081106109ef576109ef612b6b565b6020908102919091018101516001600160a01b031682528101919091526040016000205460ff1615610a295781610a2581612b81565b9250505b80610a3381612b81565b9150506109c0565b5060008167ffffffffffffffff811115610a5757610a57612ba8565b604051908082528060200260200182016040528015610a80578160200160208202803683370190505b5090506000805b8451811015610b46573360009081526005602052604081208651909190879084908110610ab657610ab6612b6b565b6020908102919091018101516001600160a01b031682528101919091526040016000205460ff1615610b3457848181518110610af457610af4612b6b565b6020026020010151838381518110610b0e57610b0e612b6b565b6001600160a01b039092166020928302919091019091015281610b3081612b81565b9250505b80610b3e81612b81565b915050610a87565b5090935050505090565b6001600160a01b038116600090815260026020526040812080546060929190610b7890612bbe565b80601f0160208091040260200160405190810160405280929190818152602001828054610ba490612bbe565b8015610bf15780601f10610bc657610100808354040283529160200191610bf1565b820191906000526020600020905b815481529060010190602001808311610bd457829003601f168201915b505050505090506000815111610c5b5760405162461bcd60e51b815260206004820152602960248201527f4e6f207075626c6963206b6579207265676973746572656420666f722074686960448201526873206164647265737360b81b60648201526084016103a2565b92915050565b60013360009081526001602052604090205460ff166002811115610c8757610c876126a5565b14610ca45760405162461bcd60e51b81526004016103a290612c08565b3360009081526005602090815260408083206001600160a01b038516845290915290205460ff16610d175760405162461bcd60e51b815260206004820152601b60248201527f446f63746f7220646f6573206e6f74206861766520616363657373000000000060448201526064016103a2565b3360008181526005602090815260408083206001600160a01b0386168085529252808320805460ff19169055519092917f825c8be24eb0df19500f63e86c29e7d0d951e73056b889b891d85e40938d9b6e91a350565b60013360009081526001602052604090205460ff166002811115610d9357610d936126a5565b14610db05760405162461bcd60e51b81526004016103a290612c08565b336000908152600360205260409020548110610e0e5760405162461bcd60e51b815260206004820152601a60248201527f5265636f726420696e646578206f7574206f6620626f756e647300000000000060448201526064016103a2565b336000908152600360205260408120805483908110610e2f57610e2f612b6b565b6000918252602082206007909102019150600582015460ff166002811115610e5957610e596126a5565b14610e9e5760405162461bcd60e51b81526020600482015260156024820152745265636f7264206973206e6f742070656e64696e6760581b60448201526064016103a2565b60058101805460ff1916600217905560405133907f67813150e12a88a933a212e01460fbb9da398d9f273927860439f64efac5538f90610ee19085908590612c4d565b60405180910390a25050565b60013360009081526001602052604090205460ff166002811115610f1357610f136126a5565b14610f305760405162461bcd60e51b81526004016103a290612c08565b336000908152600360205260409020548110610f8e5760405162461bcd60e51b815260206004820152601a60248201527f5265636f726420696e646578206f7574206f6620626f756e647300000000000060448201526064016103a2565b336000908152600360205260408120805483908110610faf57610faf612b6b565b6000918252602082206007909102019150600582015460ff166002811115610fd957610fd96126a5565b1461101e5760405162461bcd60e51b81526020600482015260156024820152745265636f7264206973206e6f742070656e64696e6760581b60448201526064016103a2565b60058101805460ff1916600190811790915533600090815260076020908152604082208054938401815582529020016110578282612d44565b5033600090815260056020908152604080832060028501546001600160a01b0316845290915290205460ff166110f1573360008181526005602090815260408083206002860180546001600160a01b039081168652918452828520805460ff19166001908117909155958552600684529184209154825495860183559184529190922090920180546001600160a01b031916919092161790555b60405133907f24055d14743ca3f4c9f408d9ee74f1c45a082e250dca49cb8b49d7b7f697e80990610ee19085908590612c4d565b606060013360009081526001602052604090205460ff16600281111561114d5761114d6126a5565b1461116a5760405162461bcd60e51b81526004016103a290612c08565b33600090815260076020908152604080832080548251818502810185019093528083529193909284015b828210156112405783829060005260206000200180546111b390612bbe565b80601f01602080910402602001604051908101604052809291908181526020018280546111df90612bbe565b801561122c5780601f106112015761010080835404028352916020019161122c565b820191906000526020600020905b81548152906001019060200180831161120f57829003601f168201915b505050505081526020019060010190611194565b50505050905090565b6002602052600090815260409020805461126290612bbe565b80601f016020809104026020016040519081016040528092919081815260200182805461128e90612bbe565b80156112db5780601f106112b0576101008083540402835291602001916112db565b820191906000526020600020905b8154815290600101906020018083116112be57829003601f168201915b505050505081565b3360009081526001602052604081205460ff166002811115611307576113076126a5565b146113495760405162461bcd60e51b8152602060048201526012602482015271105b1c9958591e481c9959da5cdd195c995960721b60448201526064016103a2565b806113965760405162461bcd60e51b815260206004820152601a60248201527f5075626c6963206b65792063616e6e6f7420626520656d70747900000000000060448201526064016103a2565b336000908152600160209081526040808320805460ff1916600290811790915590915290206113c6828483612e1f565b50336001600160a01b03167f8e18574f8a7333e6a87112742a55853a643e2f0550f4e1a3a2c3f1bb2994441d6002604051610ee19190612877565b60023360009081526001602052604090205460ff166002811115611427576114276126a5565b146114445760405162461bcd60e51b81526004016103a290612b27565b60016001600160a01b038a1660009081526001602052604090205460ff166002811115611473576114736126a5565b146114d35760405162461bcd60e51b815260206004820152602a60248201527f5461726765742061646472657373206973206e6f7420612072656769737465726044820152691959081c185d1a595b9d60b21b60648201526084016103a2565b866115165760405162461bcd60e51b81526020600482015260136024820152724349442063616e6e6f7420626520656d70747960681b60448201526064016103a2565b846115635760405162461bcd60e51b815260206004820152601d60248201527f456e63727970746564206b65792063616e6e6f7420626520656d70747900000060448201526064016103a2565b826115b05760405162461bcd60e51b815260206004820152601960248201527f46696c6520747970652063616e6e6f7420626520656d7074790000000000000060448201526064016103a2565b806115fd5760405162461bcd60e51b815260206004820152601960248201527f46696c65206e616d652063616e6e6f7420626520656d7074790000000000000060448201526064016103a2565b6001600160a01b03891660009081526003602090815260409182902080548351610100601f8d018590049094028101840190945260e084018b8152909391928291908d908d90819085018382808284376000920191909152505050908252506001600160a01b038d16602080830191909152336040808401919091528051601f8a01839004830281018301909152888152606090920191908990899081908401838280828437600092019190915250505090825250604080516020601f8801819004810282018101909252868152918101919087908790819084018382808284376000920182905250938552505060209092019150815242602091820152825460018101845560009384529220815191926007020190819061171f9082612ed9565b5060208201516001820180546001600160a01b039283166001600160a01b03199182161790915560408401516002840180549190931691161790556060820151600382019061176e9082612ed9565b50608082015160048201906117839082612ed9565b5060a082015160058201805460ff191660018360028111156117a7576117a76126a5565b021790555060c082015181600601555050868660048b8b6040516117cc929190612bf8565b90815260408051602092819003830190206001600160a01b038f16600090815292529020916117fc919083612e1f565b50336001600160a01b03168a6001600160a01b03167f74f48835a36ac5fd7d7a1dc680b421425dcf650aba8cd1440817673d60c1483f8b8b85426040516118469493929190612fb6565b60405180910390a350505050505050505050565b600060013360009081526001602052604090205460ff166002811115611882576118826126a5565b1461189f5760405162461bcd60e51b81526004016103a290612c08565b503360009081526003602052604090205490565b600060013360009081526001602052604090205460ff1660028111156118db576118db6126a5565b146118f85760405162461bcd60e51b81526004016103a290612c08565b33600090815260036020526040812090805b825481101561197457600083828154811061192757611927612b6b565b600091825260209091206005600790920201015460ff16600281111561194f5761194f6126a5565b03611962578161195e81612b81565b9250505b8061196c81612b81565b91505061190a565b5091505090565b3360009081526001602052604081205460ff16600281111561199f5761199f6126a5565b146119e15760405162461bcd60e51b8152602060048201526012602482015271105b1c9958591e481c9959da5cdd195c995960721b60448201526064016103a2565b80611a2e5760405162461bcd60e51b815260206004820152601a60248201527f5075626c6963206b65792063616e6e6f7420626520656d70747900000000000060448201526064016103a2565b336000908152600160208181526040808420805460ff1916909317909255600290529020611a5d828483612e1f565b50336001600160a01b03167f8e18574f8a7333e6a87112742a55853a643e2f0550f4e1a3a2c3f1bb2994441d6001604051610ee19190612877565b60608060013360009081526001602052604090205460ff166002811115611ac157611ac16126a5565b14611ade5760405162461bcd60e51b81526004016103a290612c08565b33600090815260036020526040812090805b8254811015611b5a576000838281548110611b0d57611b0d612b6b565b600091825260209091206005600790920201015460ff166002811115611b3557611b356126a5565b03611b485781611b4481612b81565b9250505b80611b5281612b81565b915050611af0565b5060008167ffffffffffffffff811115611b7657611b76612ba8565b604051908082528060200260200182016040528015611baf57816020015b611b9c6125f1565b815260200190600190039081611b945790505b50905060008267ffffffffffffffff811115611bcd57611bcd612ba8565b604051908082528060200260200182016040528015611bf6578160200160208202803683370190505b5090506000805b8554811015611ee4576000868281548110611c1a57611c1a612b6b565b600091825260209091206005600790920201015460ff166002811115611c4257611c426126a5565b03611ed257858181548110611c5957611c59612b6b565b90600052602060002090600702016040518060e0016040529081600082018054611c8290612bbe565b80601f0160208091040260200160405190810160405280929190818152602001828054611cae90612bbe565b8015611cfb5780601f10611cd057610100808354040283529160200191611cfb565b820191906000526020600020905b815481529060010190602001808311611cde57829003601f168201915b505050918352505060018201546001600160a01b0390811660208301526002830154166040820152600382018054606090920191611d3890612bbe565b80601f0160208091040260200160405190810160405280929190818152602001828054611d6490612bbe565b8015611db15780601f10611d8657610100808354040283529160200191611db1565b820191906000526020600020905b815481529060010190602001808311611d9457829003601f168201915b50505050508152602001600482018054611dca90612bbe565b80601f0160208091040260200160405190810160405280929190818152602001828054611df690612bbe565b8015611e435780601f10611e1857610100808354040283529160200191611e43565b820191906000526020600020905b815481529060010190602001808311611e2657829003601f168201915b5050509183525050600582015460209091019060ff166002811115611e6a57611e6a6126a5565b6002811115611e7b57611e7b6126a5565b8152602001600682015481525050848381518110611e9b57611e9b612b6b565b602002602001018190525080838381518110611eb957611eb9612b6b565b602090810291909101015281611ece81612b81565b9250505b80611edc81612b81565b915050611bfd565b5091955093505050509091565b606060013360009081526001602052604090205460ff166002811115611f1957611f196126a5565b14611f365760405162461bcd60e51b81526004016103a290612c08565b33600090815260036020526040812090805b8254811015611fb2576001838281548110611f6557611f65612b6b565b600091825260209091206005600790920201015460ff166002811115611f8d57611f8d6126a5565b03611fa05781611f9c81612b81565b9250505b80611faa81612b81565b915050611f48565b5060008167ffffffffffffffff811115611fce57611fce612ba8565b60405190808252806020026020018201604052801561200757816020015b611ff46125f1565b815260200190600190039081611fec5790505b5090506000805b8454811015610b4657600185828154811061202b5761202b612b6b565b600091825260209091206005600790920201015460ff166002811115612053576120536126a5565b036122c65784818154811061206a5761206a612b6b565b90600052602060002090600702016040518060e001604052908160008201805461209390612bbe565b80601f01602080910402602001604051908101604052809291908181526020018280546120bf90612bbe565b801561210c5780601f106120e15761010080835404028352916020019161210c565b820191906000526020600020905b8154815290600101906020018083116120ef57829003601f168201915b505050918352505060018201546001600160a01b039081166020830152600283015416604082015260038201805460609092019161214990612bbe565b80601f016020809104026020016040519081016040528092919081815260200182805461217590612bbe565b80156121c25780601f10612197576101008083540402835291602001916121c2565b820191906000526020600020905b8154815290600101906020018083116121a557829003601f168201915b505050505081526020016004820180546121db90612bbe565b80601f016020809104026020016040519081016040528092919081815260200182805461220790612bbe565b80156122545780601f1061222957610100808354040283529160200191612254565b820191906000526020600020905b81548152906001019060200180831161223757829003601f168201915b5050509183525050600582015460209091019060ff16600281111561227b5761227b6126a5565b600281111561228c5761228c6126a5565b81526020016006820154815250508383815181106122ac576122ac612b6b565b602002602001018190525081806122c290612b81565b9250505b806122d081612b81565b91505061200e565b60013360009081526001602052604090205460ff1660028111156122fe576122fe6126a5565b1461231b5760405162461bcd60e51b81526004016103a290612c08565b60026001600160a01b03861660009081526001602052604090205460ff16600281111561234a5761234a6126a5565b146123a95760405162461bcd60e51b815260206004820152602960248201527f5461726765742061646472657373206973206e6f74206120726567697374657260448201526832b2103237b1ba37b960b91b60648201526084016103a2565b826123ec5760405162461bcd60e51b81526020600482015260136024820152724349442063616e6e6f7420626520656d70747960681b60448201526064016103a2565b806124395760405162461bcd60e51b815260206004820152601d60248201527f456e63727970746564206b65792063616e6e6f7420626520656d70747900000060448201526064016103a2565b60006004858560405161244d929190612bf8565b908152604080516020928190038301902033600090815292529020805461247390612bbe565b9050116124d05760405162461bcd60e51b815260206004820152602560248201527f596f7520646f206e6f74206f776e2061207265636f72642077697468207468696044820152641cc810d25160da1b60648201526084016103a2565b3360009081526005602090815260408083206001600160a01b038916845290915290205460ff16612558573360008181526005602090815260408083206001600160a01b038a16808552908352818420805460ff1916600190811790915594845260068352908320805494850181558352912090910180546001600160a01b03191690911790555b81816004868660405161256c929190612bf8565b90815260408051602092819003830190206001600160a01b038a166000908152925290209161259c919083612e1f565b50846001600160a01b0316336001600160a01b03167fc7e5c007251689b9bc3cb624f55714afc5988f3e3b4e20cc6a606d7bad6faeca86866040516125e2929190612fdd565b60405180910390a35050505050565b6040805160e081018252606080825260006020830181905292820183905280820181905260808201529060a08201908152602001600081525090565b80356001600160a01b03811681146107ea57600080fd5b60006020828403121561265657600080fd5b6109088261262d565b6000815180845260005b8181101561268557602081850181015186830182015201612669565b506000602082860101526020601f19601f83011685010191505092915050565b634e487b7160e01b600052602160045260246000fd5b600381106126d957634e487b7160e01b600052602160045260246000fd5b50565b6126e5816126bb565b9052565b600082825180855260208086019550808260051b84010181860160005b848110156127b957601f19868403018952815160e0815181865261272c8287018261265f565b838801516001600160a01b03908116888a015260408086015190911690880152606080850151888303828a01529193509150612768838261265f565b9250505060808083015186830382880152612783838261265f565b9250505060a080830151612799828801826126dc565b505060c09182015194909101939093529783019790830190600101612706565b5090979650505050505050565b60208152600061090860208301846126e9565b60008083601f8401126127eb57600080fd5b50813567ffffffffffffffff81111561280357600080fd5b60208301915083602082850101111561281b57600080fd5b9250929050565b6000806020838503121561283557600080fd5b823567ffffffffffffffff81111561284c57600080fd5b612858858286016127d9565b90969095509350505050565b602081526000610908602083018461265f565b60208101612884836126bb565b91905290565b6020808252825182820181905260009190848201906040850190845b818110156128cb5783516001600160a01b0316835292840192918401916001016128a6565b50909695505050505050565b600080604083850312156128ea57600080fd5b6128f38361262d565b91506129016020840161262d565b90509250929050565b60006020828403121561291c57600080fd5b5035919050565b6000602080830181845280855180835260408601915060408160051b870101925083870160005b8281101561297857603f1988860301845261296685835161265f565b9450928501929085019060010161294a565b5092979650505050505050565b600080600080600080600080600060a08a8c0312156129a357600080fd5b6129ac8a61262d565b985060208a013567ffffffffffffffff808211156129c957600080fd5b6129d58d838e016127d9565b909a50985060408c01359150808211156129ee57600080fd5b6129fa8d838e016127d9565b909850965060608c0135915080821115612a1357600080fd5b612a1f8d838e016127d9565b909650945060808c0135915080821115612a3857600080fd5b50612a458c828d016127d9565b915080935050809150509295985092959850929598565b604081526000612a6f60408301856126e9565b82810360208481019190915284518083528582019282019060005b818110156127b957845183529383019391830191600101612a8a565b600080600080600060608688031215612abe57600080fd5b612ac78661262d565b9450602086013567ffffffffffffffff80821115612ae457600080fd5b612af089838a016127d9565b90965094506040880135915080821115612b0957600080fd5b50612b16888289016127d9565b969995985093965092949392505050565b60208082526024908201527f4f6e6c7920646f63746f72732063616e20706572666f726d20746869732061636040820152633a34b7b760e11b606082015260800190565b634e487b7160e01b600052603260045260246000fd5b600060018201612ba157634e487b7160e01b600052601160045260246000fd5b5060010190565b634e487b7160e01b600052604160045260246000fd5b600181811c90821680612bd257607f821691505b602082108103612bf257634e487b7160e01b600052602260045260246000fd5b50919050565b8183823760009101908152919050565b60208082526025908201527f4f6e6c792070617469656e74732063616e20706572666f726d2074686973206160408201526431ba34b7b760d91b606082015260800190565b8281526000602060408184015260008454612c6781612bbe565b8060408701526060600180841660008114612c895760018114612ca357612cd1565b60ff1985168984015283151560051b890183019550612cd1565b896000528660002060005b85811015612cc95781548b8201860152908301908801612cae565b8a0184019650505b50939998505050505050505050565b601f821115612d2a57600081815260208120601f850160051c81016020861015612d075750805b601f850160051c820191505b81811015612d2657828155600101612d13565b5050505b505050565b600019600383901b1c191660019190911b1790565b818103612d4f575050565b612d598254612bbe565b67ffffffffffffffff811115612d7157612d71612ba8565b612d8581612d7f8454612bbe565b84612ce0565b6000601f821160018114612db35760008315612da15750848201545b612dab8482612d2f565b855550612e18565b600085815260209020601f19841690600086815260209020845b83811015612ded5782860154825560019586019590910190602001612dcd565b5085831015612e0b5781850154600019600388901b60f8161c191681555b50505060018360011b0184555b5050505050565b67ffffffffffffffff831115612e3757612e37612ba8565b612e4b83612e458354612bbe565b83612ce0565b6000601f841160018114612e795760008515612e675750838201355b612e718682612d2f565b845550612e18565b600083815260209020601f19861690835b82811015612eaa5786850135825560209485019460019092019101612e8a565b5086821015612ec75760001960f88860031b161c19848701351681555b505060018560011b0183555050505050565b815167ffffffffffffffff811115612ef357612ef3612ba8565b612f0181612d7f8454612bbe565b602080601f831160018114612f305760008415612f1e5750858301515b612f288582612d2f565b865550612d26565b600085815260208120601f198616915b82811015612f5f57888601518255948401946001909101908401612f40565b5085821015612f7d5787850151600019600388901b60f8161c191681555b5050505050600190811b01905550565b81835281816020850137506000828201602090810191909152601f909101601f19169091010190565b606081526000612fca606083018688612f8d565b6020830194909452506040015292915050565b602081526000612ff1602083018486612f8d565b94935050505056fea264697066735822122016293b271132808f0c9d360474fff6b3548f38f93f1d4ab6704aa85cd6b9ff5764736f6c63430008140033",
  "linkReferences": {},
  "deployedLinkReferences": {}
}