{
  "_format": "hh-sol-artifact-1",
  "contractName": "MedicalRecordVault",
  "sourceName": "contracts/MedicalRecordVault.sol",
  "abi": [
    {
      "inputs": [],
      "stateMutability": "nonpayable",
      "type": "constructor"
    },
    {
      "anonymous": false,
      "inputs": [
        {
          "indexed": true,
          "internalType": "address",
          "name": "patient",
          "type": "address"
        },
        {
          "indexed": true,
          "internalType": "address",
          "name": "doctor",
          "type": "address"
        },
        {
          "indexed": false,
          "internalType": "string",
          "name": "cid",
          "type": "string"
        }
      ],
      "name": "AccessGranted",
      "type": "event"
    },
    {
      "anonymous": false,
      "inputs": [
        {
          "indexed": true,
          "internalType": "address",
          "name": "patient",
          "type": "address"
        },
        {
          "indexed": true,
          "internalType": "address",
          "name": "doctor",
          "type": "address"
        }
      ],
      "name": "AccessRevoked",
      "type": "event"
    },
    {
      "anonymous": false,
      "inputs": [
        {
          "indexed": true,
          "internalType": "address",
          "name": "patient",
          "type": "address"
        },
        {
          "indexed": true,
          "internalType": "address",
          "name": "doctor",
          "type": "address"
        },
        {
          "indexed": false,
          "internalType": "string",
          "name": "cid",
          "type": "string"
        }
      ],
      "name": "AccessRevokedForCid",
      "type": "event"
    },
    {
      "anonymous": false,
      "inputs": [
        {
          "indexed": true,
          "internalType": "address",
          "name": "doctor",
          "type": "address"
        },
        {
          "indexed": false,
          "internalType": "string",
          "name": "name",
          "type": "string"
        }
      ],
      "name": "DoctorApproved",
      "type": "event"
    },
    {
      "anonymous": false,
      "inputs": [
        {
          "indexed": true,
          "internalType": "address",
          "name": "doctor",
          "type": "address"
        },
        {
          "indexed": false,
          "internalType": "string",
          "name": "reason",
          "type": "string"
        }
      ],
      "name": "DoctorRejected",
      "type": "event"
    },
    {
      "anonymous": false,
      "inputs": [
        {
          "indexed": true,
          "internalType": "address",
          "name": "doctor",
          "type": "address"
        },
        {
          "indexed": false,
          "internalType": "string",
          "name": "name",
          "type": "string"
        },
        {
          "indexed": false,
          "internalType": "string",
          "name": "licenseNumber",
          "type": "string"
        }
      ],
      "name": "DoctorRequestSubmitted",
      "type": "event"
    },
    {
      "anonymous": false,
      "inputs": [
        {
          "indexed": true,
          "internalType": "address",
          "name": "patient",
          "type": "address"
        },
        {
          "indexed": false,
          "internalType": "uint256",
          "name": "recordIndex",
          "type": "uint256"
        },
        {
          "indexed": false,
          "internalType": "string",
          "name": "cid",
          "type": "string"
        }
      ],
      "name": "RecordApproved",
      "type": "event"
    },
    {
      "anonymous": false,
      "inputs": [
        {
          "indexed": true,
          "internalType": "address",
          "name": "patient",
          "type": "address"
        },
        {
          "indexed": false,
          "internalType": "uint256",
          "name": "recordIndex",
          "type": "uint256"
        },
        {
          "indexed": false,
          "internalType": "string",
          "name": "cid",
          "type": "string"
        }
      ],
      "name": "RecordRejected",
      "type": "event"
    },
    {
      "anonymous": false,
      "inputs": [
        {
          "indexed": true,
          "internalType": "address",
          "name": "patient",
          "type": "address"
        },
        {
          "indexed": true,
          "internalType": "address",
          "name": "doctor",
          "type": "address"
        },
        {
          "indexed": false,
          "internalType": "string",
          "name": "cid",
          "type": "string"
        },
        {
          "indexed": false,
          "internalType": "uint256",
          "name": "recordIndex",
          "type": "uint256"
        },
        {
          "indexed": false,
          "internalType": "uint256",
          "name": "timestamp",
          "type": "uint256"
        }
      ],
      "name": "RecordSubmitted",
      "type": "event"
    },
    {
      "anonymous": false,
      "inputs": [
        {
          "indexed": true,
          "internalType": "address",
          "name": "user",
          "type": "address"
        },
        {
          "indexed": false,
          "internalType": "enum MedicalRecordVault.Role",
          "name": "role",
          "type": "uint8"
        }
      ],
      "name": "UserRegistered",
      "type": "event"
    },
    {
      "inputs": [
        {
          "internalType": "address",
          "name": "",
          "type": "address"
        },
        {
          "internalType": "address",
          "name": "",
          "type": "address"
        }
      ],
      "name": "accessList",
      "outputs": [
        {
          "internalType": "bool",
          "name": "",
          "type": "bool"
        }
      ],
      "stateMutability": "view",
      "type": "function"
    },
    {
      "inputs": [
        {
          "internalType": "address",
          "name": "_doctor",
          "type": "address"
        }
      ],
      "name": "approveDoctor",
      "outputs": [],
      "stateMutability": "nonpayable",
      "type": "function"
    },
    {
      "inputs": [
        {
          "internalType": "uint256",
          "name": "_recordIndex",
          "type": "uint256"
        }
      ],
      "name": "approveRecord",
      "outputs": [],
      "stateMutability": "nonpayable",
      "type": "function"
    },
    {
      "inputs": [
        {
          "internalType": "address",
          "name": "",
          "type": "address"
        }
      ],
      "name": "displayNames",
      "outputs": [
        {
          "internalType": "string",
          "name": "",
          "type": "string"
        }
      ],
      "stateMutability": "view",
      "type": "function"
    },
    {
      "inputs": [
        {
          "internalType": "address",
          "name": "",
          "type": "address"
        }
      ],
      "name": "doctorRequests",
      "outputs": [
        {
          "internalType": "string",
          "name": "name",
          "type": "string"
        },
        {
          "internalType": "string",
          "name": "licenseNumber",
          "type": "string"
        },
        {
          "internalType": "string",
          "name": "specialization",
          "type": "string"
        },
        {
          "internalType": "string",
          "name": "hospital",
          "type": "string"
        },
        {
          "internalType": "string",
          "name": "ktpNumber",
          "type": "string"
        },
        {
          "internalType": "string",
          "name": "phoneNumber",
          "type": "string"
        },
        {
          "internalType": "string",
          "name": "photoCid",
          "type": "string"
        },
        {
          "internalType": "string",
          "name": "publicKey",
          "type": "string"
        },
        {
          "internalType": "uint256",
          "name": "requestedAt",
          "type": "uint256"
        },
        {
          "internalType": "bool",
          "name": "isPending",
          "type": "bool"
        },
        {
          "internalType": "bool",
          "name": "isApproved",
          "type": "bool"
        },
        {
          "internalType": "bool",
          "name": "isRejected",
          "type": "bool"
        },
        {
          "internalType": "string",
          "name": "rejectReason",
          "type": "string"
        }
      ],
      "stateMutability": "view",
      "type": "function"
    },
    {
      "inputs": [
        {
          "internalType": "address",
          "name": "_doctor",
          "type": "address"
        }
      ],
      "name": "getAccessibleCidsForDoctor",
      "outputs": [
        {
          "internalType": "string[]",
          "name": "",
          "type": "string[]"
        }
      ],
      "stateMutability": "view",
      "type": "function"
    },
    {
      "inputs": [],
      "name": "getApprovedDoctors",
      "outputs": [
        {
          "components": [
            {
              "internalType": "address",
              "name": "addr",
              "type": "address"
            },
            {
              "internalType": "string",
              "name": "name",
              "type": "string"
            },
            {
              "internalType": "string",
              "name": "licenseNumber",
              "type": "string"
            },
            {
              "internalType": "string",
              "name": "specialization",
              "type": "string"
            },
            {
              "internalType": "string",
              "name": "hospital",
              "type": "string"
            },
            {
              "internalType": "string",
              "name": "ktpNumber",
              "type": "string"
            },
            {
              "internalType": "string",
              "name": "phoneNumber",
              "type": "string"
            },
            {
              "internalType": "string",
              "name": "photoCid",
              "type": "string"
            },
            {
              "internalType": "uint256",
              "name": "requestedAt",
              "type": "uint256"
            }
          ],
          "internalType": "struct MedicalRecordVault.DoctorRequestView[]",
          "name": "",
          "type": "tuple[]"
        }
      ],
      "stateMutability": "view",
      "type": "function"
    },
    {
      "inputs": [],
      "name": "getAuthorizedDoctors",
      "outputs": [
        {
          "internalType": "address[]",
          "name": "",
          "type": "address[]"
        }
      ],
      "stateMutability": "view",
      "type": "function"
    },
    {
      "inputs": [
        {
          "internalType": "address",
          "name": "_account",
          "type": "address"
        }
      ],
      "name": "getDisplayName",
      "outputs": [
        {
          "internalType": "string",
          "name": "",
          "type": "string"
        }
      ],
      "stateMutability": "view",
      "type": "function"
    },
    {
      "inputs": [
        {
          "internalType": "address",
          "name": "_addr",
          "type": "address"
        }
      ],
      "name": "getDoctorRequest",
      "outputs": [
        {
          "internalType": "bool",
          "name": "isPending",
          "type": "bool"
        },
        {
          "internalType": "bool",
          "name": "isApproved",
          "type": "bool"
        },
        {
          "internalType": "bool",
          "name": "isRejected",
          "type": "bool"
        },
        {
          "internalType": "string",
          "name": "rejectReason",
          "type": "string"
        },
        {
          "internalType": "string",
          "name": "name",
          "type": "string"
        },
        {
          "internalType": "string",
          "name": "licenseNumber",
          "type": "string"
        },
        {
          "internalType": "string",
          "name": "specialization",
          "type": "string"
        },
        {
          "internalType": "string",
          "name": "hospital",
          "type": "string"
        },
        {
          "internalType": "string",
          "name": "ktpNumber",
          "type": "string"
        },
        {
          "internalType": "string",
          "name": "phoneNumber",
          "type": "string"
        },
        {
          "internalType": "string",
          "name": "photoCid",
          "type": "string"
        }
      ],
      "stateMutability": "view",
      "type": "function"
    },
    {
      "inputs": [
        {
          "internalType": "string",
          "name": "_cid",
          "type": "string"
        }
      ],
      "name": "getEncryptedKey",
      "outputs": [
        {
          "internalType": "string",
          "name": "",
          "type": "string"
        }
      ],
      "stateMutability": "view",
      "type": "function"
    },
    {
      "inputs": [],
      "name": "getMyCids",
      "outputs": [
        {
          "internalType": "string[]",
          "name": "",
          "type": "string[]"
        }
      ],
      "stateMutability": "view",
      "type": "function"
    },
    {
      "inputs": [],
      "name": "getMyRecords",
      "outputs": [
        {
          "components": [
            {
              "internalType": "string",
              "name": "cid",
              "type": "string"
            },
            {
              "internalType": "address",
              "name": "patientAddress",
              "type": "address"
            },
            {
              "internalType": "address",
              "name": "doctorAddress",
              "type": "address"
            },
            {
              "internalType": "string",
              "name": "fileType",
              "type": "string"
            },
            {
              "internalType": "string",
              "name": "fileName",
              "type": "string"
            },
            {
              "internalType": "string",
              "name": "notes",
              "type": "string"
            },
            {
              "internalType": "enum MedicalRecordVault.RecordStatus",
              "name": "status",
              "type": "uint8"
            },
            {
              "internalType": "uint256",
              "name": "timestamp",
              "type": "uint256"
            }
          ],
          "internalType": "struct MedicalRecordVault.Record[]",
          "name": "",
          "type": "tuple[]"
        }
      ],
      "stateMutability": "view",
      "type": "function"
    },
    {
      "inputs": [],
      "name": "getPatientList",
      "outputs": [
        {
          "internalType": "address[]",
          "name": "addrs",
          "type": "address[]"
        },
        {
          "internalType": "string[]",
          "name": "names",
          "type": "string[]"
        }
      ],
      "stateMutability": "view",
      "type": "function"
    },
    {
      "inputs": [
        {
          "internalType": "address",
          "name": "_patient",
          "type": "address"
        }
      ],
      "name": "getPatientRecords",
      "outputs": [
        {
          "components": [
            {
              "internalType": "string",
              "name": "cid",
              "type": "string"
            },
            {
              "internalType": "address",
              "name": "patientAddress",
              "type": "address"
            },
            {
              "internalType": "address",
              "name": "doctorAddress",
              "type": "address"
            },
            {
              "internalType": "string",
              "name": "fileType",
              "type": "string"
            },
            {
              "internalType": "string",
              "name": "fileName",
              "type": "string"
            },
            {
              "internalType": "string",
              "name": "notes",
              "type": "string"
            },
            {
              "internalType": "enum MedicalRecordVault.RecordStatus",
              "name": "status",
              "type": "uint8"
            },
            {
              "internalType": "uint256",
              "name": "timestamp",
              "type": "uint256"
            }
          ],
          "internalType": "struct MedicalRecordVault.Record[]",
          "name": "",
          "type": "tuple[]"
        }
      ],
      "stateMutability": "view",
      "type": "function"
    },
    {
      "inputs": [],
      "name": "getPendingCount",
      "outputs": [
        {
          "internalType": "uint256",
          "name": "",
          "type": "uint256"
        }
      ],
      "stateMutability": "view",
      "type": "function"
    },
    {
      "inputs": [],
      "name": "getPendingDoctorRequests",
      "outputs": [
        {
          "components": [
            {
              "internalType": "address",
              "name": "addr",
              "type": "address"
            },
            {
              "internalType": "string",
              "name": "name",
              "type": "string"
            },
            {
              "internalType": "string",
              "name": "licenseNumber",
              "type": "string"
            },
            {
              "internalType": "string",
              "name": "specialization",
              "type": "string"
            },
            {
              "internalType": "string",
              "name": "hospital",
              "type": "string"
            },
            {
              "internalType": "string",
              "name": "ktpNumber",
              "type": "string"
            },
            {
              "internalType": "string",
              "name": "phoneNumber",
              "type": "string"
            },
            {
              "internalType": "string",
              "name": "photoCid",
              "type": "string"
            },
            {
              "internalType": "uint256",
              "name": "requestedAt",
              "type": "uint256"
            }
          ],
          "internalType": "struct MedicalRecordVault.DoctorRequestView[]",
          "name": "",
          "type": "tuple[]"
        }
      ],
      "stateMutability": "view",
      "type": "function"
    },
    {
      "inputs": [],
      "name": "getPendingRecords",
      "outputs": [
        {
          "components": [
            {
              "internalType": "string",
              "name": "cid",
              "type": "string"
            },
            {
              "internalType": "address",
              "name": "patientAddress",
              "type": "address"
            },
            {
              "internalType": "address",
              "name": "doctorAddress",
              "type": "address"
            },
            {
              "internalType": "string",
              "name": "fileType",
              "type": "string"
            },
            {
              "internalType": "string",
              "name": "fileName",
              "type": "string"
            },
            {
              "internalType": "string",
              "name": "notes",
              "type": "string"
            },
            {
              "internalType": "enum MedicalRecordVault.RecordStatus",
              "name": "status",
              "type": "uint8"
            },
            {
              "internalType": "uint256",
              "name": "timestamp",
              "type": "uint256"
            }
          ],
          "internalType": "struct MedicalRecordVault.Record[]",
          "name": "",
          "type": "tuple[]"
        },
        {
          "internalType": "uint256[]",
          "name": "",
          "type": "uint256[]"
        }
      ],
      "stateMutability": "view",
      "type": "function"
    },
    {
      "inputs": [
        {
          "internalType": "address",
          "name": "_account",
          "type": "address"
        }
      ],
      "name": "getPublicKey",
      "outputs": [
        {
          "internalType": "string",
          "name": "",
          "type": "string"
        }
      ],
      "stateMutability": "view",
      "type": "function"
    },
    {
      "inputs": [],
      "name": "getRecordCount",
      "outputs": [
        {
          "internalType": "uint256",
          "name": "",
          "type": "uint256"
        }
      ],
      "stateMutability": "view",
      "type": "function"
    },
    {
      "inputs": [
        {
          "internalType": "address",
          "name": "_account",
          "type": "address"
        }
      ],
      "name": "getRole",
      "outputs": [
        {
          "internalType": "enum MedicalRecordVault.Role",
          "name": "",
          "type": "uint8"
        }
      ],
      "stateMutability": "view",
      "type": "function"
    },
    {
      "inputs": [
        {
          "internalType": "address",
          "name": "_doctor",
          "type": "address"
        },
        {
          "internalType": "string",
          "name": "_cid",
          "type": "string"
        },
        {
          "internalType": "string",
          "name": "_encryptedKeyForDoctor",
          "type": "string"
        }
      ],
      "name": "grantAccess",
      "outputs": [],
      "stateMutability": "nonpayable",
      "type": "function"
    },
    {
      "inputs": [],
      "name": "owner",
      "outputs": [
        {
          "internalType": "address",
          "name": "",
          "type": "address"
        }
      ],
      "stateMutability": "view",
      "type": "function"
    },
    {
      "inputs": [
        {
          "internalType": "address",
          "name": "",
          "type": "address"
        }
      ],
      "name": "publicKeys",
      "outputs": [
        {
          "internalType": "string",
          "name": "",
          "type": "string"
        }
      ],
      "stateMutability": "view",
      "type": "function"
    },
    {
      "inputs": [
        {
          "internalType": "string",
          "name": "_name",
          "type": "string"
        },
        {
          "internalType": "string",
          "name": "_publicKey",
          "type": "string"
        }
      ],
      "name": "registerAsPatient",
      "outputs": [],
      "stateMutability": "nonpayable",
      "type": "function"
    },
    {
      "inputs": [
        {
          "internalType": "address",
          "name": "_doctor",
          "type": "address"
        },
        {
          "internalType": "string",
          "name": "_reason",
          "type": "string"
        }
      ],
      "name": "rejectDoctor",
      "outputs": [],
      "stateMutability": "nonpayable",
      "type": "function"
    },
    {
      "inputs": [
        {
          "internalType": "uint256",
          "name": "_recordIndex",
          "type": "uint256"
        }
      ],
      "name": "rejectRecord",
      "outputs": [],
      "stateMutability": "nonpayable",
      "type": "function"
    },
    {
      "inputs": [
        {
          "internalType": "string",
          "name": "_name",
          "type": "string"
        },
        {
          "internalType": "string",
          "name": "_licenseNumber",
          "type": "string"
        },
        {
          "internalType": "string",
          "name": "_specialization",
          "type": "string"
        },
        {
          "internalType": "string",
          "name": "_hospital",
          "type": "string"
        },
        {
          "internalType": "string",
          "name": "_ktpNumber",
          "type": "string"
        },
        {
          "internalType": "string",
          "name": "_phoneNumber",
          "type": "string"
        },
        {
          "internalType": "string",
          "name": "_photoCid",
          "type": "string"
        },
        {
          "internalType": "string",
          "name": "_publicKey",
          "type": "string"
        }
      ],
      "name": "requestDoctorVerification",
      "outputs": [],
      "stateMutability": "nonpayable",
      "type": "function"
    },
    {
      "inputs": [
        {
          "internalType": "address",
          "name": "_doctor",
          "type": "address"
        }
      ],
      "name": "revokeAccess",
      "outputs": [],
      "stateMutability": "nonpayable",
      "type": "function"
    },
    {
      "inputs": [
        {
          "internalType": "address",
          "name": "_doctor",
          "type": "address"
        },
        {
          "internalType": "string",
          "name": "_cid",
          "type": "string"
        }
      ],
      "name": "revokeAccessForCid",
      "outputs": [],
      "stateMutability": "nonpayable",
      "type": "function"
    },
    {
      "inputs": [
        {
          "internalType": "address",
          "name": "",
          "type": "address"
        }
      ],
      "name": "roles",
      "outputs": [
        {
          "internalType": "enum MedicalRecordVault.Role",
          "name": "",
          "type": "uint8"
        }
      ],
      "stateMutability": "view",
      "type": "function"
    },
    {
      "inputs": [
        {
          "internalType": "address",
          "name": "_patient",
          "type": "address"
        },
        {
          "internalType": "string",
          "name": "_cid",
          "type": "string"
        },
        {
          "internalType": "string",
          "name": "_encryptedKeyForPatient",
          "type": "string"
        },
        {
          "internalType": "string",
          "name": "_fileType",
          "type": "string"
        },
        {
          "internalType": "string",
          "name": "_fileName",
          "type": "string"
        },
        {
          "internalType": "string",
          "name": "_notes",
          "type": "string"
        }
      ],
      "name": "submitRecord",
      "outputs": [],
      "stateMutability": "nonpayable",
      "type": "function"
    }
  ],
  "bytecode": "0x6080806040523461002857600080546001600160a01b0319163317905561449b908161002e8239f35b600080fdfe61012080604052600436101561001457600080fd5b60003560e01c9081631042876d146135cc5750806318bd48471461342457806319c2ea86146132fd5780632ca4862b1461301157806330ab126a14612f6d5780633a6d50b614612e9d57806344276733146119af578063503b135414612d7c57806350bd43dc14612be95780636160a5c214612a7a5780637781464614612a205780637c2e811a1461289f5780637dff0044146126cf578063857cdbb81461261857806385e685311461243357806388c118a91461237057806389a82c2914611b955780638da5cb5b14611b6c578063918c0c43146119f557806399374642146119af5780639e64b85614611907578063a3d6f9a9146118c3578063b3826156146117ff578063c696f00c14610c6c578063ca267f2814610c22578063d795ede114610b83578063dc86638114610b2b578063e085456714610974578063e76637ce14610851578063eb056845146106da578063f7d9e157146103935763f7e7bd901461018057600080fd5b3461038e57602036600319011261038e576001600160a01b036101a161360c565b1660005260046020526040600020604051806101bd81846139b6565b036101c89082613a84565b60405191826101da81600184016139b6565b036101e59084613a84565b604051806101f681600285016139b6565b036102019082613a84565b604051908161021381600386016139b6565b0361021e9083613a84565b6040518061022f81600487016139b6565b0361023a9082613a84565b6040518061024b81600588016139b6565b036102569082613a84565b604051908161026881600689016139b6565b036102739083613a84565b60405192836102858160078a016139b6565b036102909085613a84565b60088701549560098801549560405180600a819b01906102af916139b6565b036102ba908a613a84565b6040519a8b9a6101a0808d528c016102d191613622565b8b810360208d01526102e291613622565b8a810360408c01526102f391613622565b89810360608b015261030491613622565b88810360808a015261031591613622565b87810360a089015261032691613622565b86810360c088015261033791613622565b85810360e087015261034891613622565b9161010085015260ff811615156101208501528060081c60ff16151561014085015260101c60ff16151561016084015282810361018084015261038a91613622565b0390f35b600080fd5b3461038e57606036600319011261038e576103ac61360c565b6001600160401b0360243581811161038e576103cc903690600401613873565b909160443590811161038e576103e6903690600401613873565b929092336000526001906020948286526104128360ff6040600020541661040c81613662565b146140a9565b60018060a01b0387169687600052838752600260ff6040600020541661043781613662565b0361068b5761044786151561404b565b604051868682378781888101600881520301902033600052875261046f60406000205461397c565b1561064657906104c192913360005260098852604060002089600052885260ff6040600020541615610608575b5060405186868237878188810160088152030190208860005287526040600020613c2b565b600033600052600c8552604060002086600052855260406000206000918154925b8381106105b1575b5015610531575b5050507fc7e5c007251689b9bc3cb624f55714afc5988f3e3b4e20cc6a606d7bad6faeca9161052c6040519283928684523396840191613dbf565b0390a3005b600160401b82101561059b5761054a9282018155613d1f565b9290926105855761057d81837fc7e5c007251689b9bc3cb624f55714afc5988f3e3b4e20cc6a606d7bad6faeca95613c2b565b9185806104f1565b634e487b7160e01b600052600060045260246000fd5b634e487b7160e01b600052604160045260246000fd5b6105ce6105d56105c18386613d1f565b50604051928380926139b6565b0382613a84565b8881519101206105e6368989613d79565b898151910120146105ff576105fa90613f46565b6104e2565b505082886104ea565b61064090336000526009895260406000208a600052895260406000208660ff1982541617905533600052600a89526040600020613d37565b8861049c565b60405162461bcd60e51b815260048101889052601a60248201527f596f7520646f206e6f74206f776e2074686973207265636f72640000000000006044820152606490fd5b60405162461bcd60e51b815260048101889052602160248201527f546172676574206973206e6f742061207265676973746572656420646f63746f6044820152603960f91b6064820152608490fd5b3461038e57600036600319011261038e576000546001600160a01b03906107049082163314613de0565b6006805490610712826143d9565b9260005b83811061072b576040518061038a8782613765565b808261084c927ff652222313e28459528d920b65115c16c04f3efc82aaedc97be59f3f377c0d3f015416806000526020600481528561082660406000206008810154936040519561077b87613a4c565b8652604051906107968261078f81866139b6565b0383613a84565b8601526040516107ad816105ce81600186016139b6565b60408601526040516107c6816105ce81600286016139b6565b60608601526040516107df816105ce81600386016139b6565b60808601526040516107f8816105ce81600486016139b6565b60a0860152604051610811816105ce81600586016139b6565b60c08601526105ce60405180948193016139b6565b60e083015261010082015261083b82886142d4565b5261084681876142d4565b50613f46565b610716565b3461038e57600036600319011261038e573360005260018060205260ff61088382826040600020541661040c81613662565b33600052600760205260406000206000916000928254935b84811061093057506108ac9061424e565b9360009160005b8581106108d0576040516020808252819061038a9082018a613682565b80838360066108e26108f9958a61408d565b500154166108ef81613662565b146108fe57613f46565b6108b3565b61084661090b828861408d565b509561091f61091982613f46565b976142e8565b610929828c6142d4565b52896142d4565b8583600661093e848861408d565b5001541661094b81613662565b1461095f575b61095a90613f46565b61089b565b9061096c61095a91613f46565b919050610951565b3461038e57600036600319011261038e5733600052600160209080825260ff906109a981836040600020541661040c81613662565b33600052600783526040600020926000808554905b818110610add57506109cf8261424e565b946109f26109dc84614237565b936109ea6040519586613a84565b808552614237565b8385019790601f190136893760009160005b848110610a5957505050505081610a2660405195604087526040870190613682565b9185830382870152519182815201949160005b828110610a465785870386f35b8351875295810195928101928401610a39565b816006610a6c83869d9b9d9a999a61408d565b50015416610a7981613662565b15610a93575b610a8890613f46565b989698959495610a04565b92610ad5610a8891610aae610aa8878761408d565b506142e8565b610ab8828d6142d4565b52610ac3818c6142d4565b5085610acf828b6142d4565b52613f46565b939050610a7f565b856006610aef838a989a97969761408d565b50015416610afc81613662565b15610b16575b610b0b90613f46565b9593959291926109be565b92610b23610b0b91613f46565b939050610b02565b3461038e57602036600319011261038e576001600160a01b03610b4c61360c565b16600052600360205261038a6105ce610b6f6040600020604051928380926139b6565b604051918291602083526020830190613622565b3461038e57600036600319011261038e5733600052600160205260ff610bb56001826040600020541661040c81613662565b33600052600760205260406000206000916000918054925b838110610bdf57602085604051908152f35b826006610bec838561408d565b50015416610bf981613662565b15610c0d575b610c0890613f46565b610bcd565b93610c1a610c0891613f46565b949050610bff565b3461038e57600036600319011261038e57336000526001602052610c53600160ff6040600020541661040c81613662565b3360005260076020526020604060002054604051908152f35b3461038e5761010036600319011261038e576004356001600160401b03811161038e57610c9d903690600401613873565b60805260e0526024356001600160401b03811161038e57610cc2903690600401613873565b60a05260c0526044356001600160401b03811161038e57610ce7903690600401613873565b906064356001600160401b03811161038e57610d07903690600401613873565b6084939193356001600160401b03811161038e57610d29903690600401613873565b93909260a4356001600160401b03811161038e57610d4b903690600401613873565b91906001600160401b0360c4351161038e57610d6c3660c435600401613873565b93909460e4356001600160401b03811161038e57610d8e903690600401613873565b989099336000526001602052610db560ff60406000205416610daf81613662565b15613aa5565b336000526004602052610dd360ff6009604060002001541615613ae6565b610de06080511515613b3e565b60a051156117ba57610df38a1515613b81565b604051958661010052866101a08101106001600160401b036101a08901111761059b57610eb19c610ea29a610e66610e8496610e75946101a0610e939c01604052610e433660805160e051613d79565b6101005152610e573660a05160c051613d79565b60206101005101523691613d79565b60406101005101523691613d79565b60606101005101523691613d79565b60806101005101523691613d79565b60a06101005101523691613d79565b60c06101005101523691613d79565b60e06101005101524261010080510152600161012061010051015260006101406101005101526000610160610100510152604051602081018181106001600160401b0382111761059b5760405260008152610180610100510152336000526004602052604060002061010051518051906001600160401b03821161059b578190610f4582610f3f865461397c565b86613be4565b602090601f831160011461174e57600092611743575b50508160011b916000199060031b1c19161781555b60206101005101518051906001600160401b03821161059b578190610fa582610f9c600187015461397c565b60018701613be4565b602090601f83116001146116d1576000926116c6575b50508160011b916000199060031b1c19161760018201555b60406101005101518051906001600160401b03821161059b57819061100882610fff600287015461397c565b60028701613be4565b602090601f831160011461165457600092611649575b50508160011b916000199060031b1c19161760028201555b60606101005101518051906001600160401b03821161059b57819061106b82611062600387015461397c565b60038701613be4565b602090601f83116001146115d7576000926115cc575b50508160011b916000199060031b1c19161760038201555b60806101005101518051906001600160401b03821161059b5781906110ce826110c5600487015461397c565b60048701613be4565b602090601f831160011461155a5760009261154f575b50508160011b916000199060031b1c19161760048201555b60a06101005101518051906001600160401b03821161059b57819061113182611128600587015461397c565b60058701613be4565b602090601f83116001146114dd576000926114d2575b50508160011b916000199060031b1c19161760058201555b60c06101005101518051906001600160401b03821161059b5781906111948261118b600687015461397c565b60068701613be4565b602090601f831160011461146057600092611455575b50508160011b916000199060031b1c19161760068201555b60e06101005101518051906001600160401b03821161059b5781906111f7826111ee600787015461397c565b60078701613be4565b602090601f83116001146113e3576000926113d8575b50508160011b916000199060031b1c19161760078201555b610180600a61010051926101008401516008820155600981016101208501511515815461ff00610140880151151560081b169060ff62ff00006101608a0151151560101b1693169062ffffff19161717179055019101519081516001600160401b03811161059b576112a18161129b845461397c565b84613be4565b602092601f82116001146113745792819293600092611369575b50508160011b916000199060031b1c19161790555b600554600160401b81101561059b576112f28160016113109301600555613ce8565b81546001600160a01b0360039290921b91821b19163390911b179055565b604051604081527fa10fac549d353fda0c9e8727471521d618e71c7ad4bea1441e49cce316ce216b61134a6040830160805160e051613dbf565b91808303602082015280611364339460a05160c051613dbf565b0390a2005b0151905083806112bb565b601f198216938360005260206000209160005b8681106113c057508360019596106113a7575b505050811b0190556112d0565b015160001960f88460031b161c1916905583808061139a565b91926020600181928685015181550194019201611387565b01519050838061120d565b9250600784016000526020600020906000935b601f198416851061143a576001945083601f19811610611421575b505050811b016007820155611225565b015160001960f88460031b161c19169055838080611411565b818101518355602094850194600190930192909101906113f6565b0151905083806111aa565b9250600684016000526020600020906000935b601f19841685106114b7576001945083601f1981161061149e575b505050811b0160068201556111c2565b015160001960f88460031b161c1916905583808061148e565b81810151835560209485019460019093019290910190611473565b015190508380611147565b9250600584016000526020600020906000935b601f1984168510611534576001945083601f1981161061151b575b505050811b01600582015561115f565b015160001960f88460031b161c1916905583808061150b565b818101518355602094850194600190930192909101906114f0565b0151905083806110e4565b9250600484016000526020600020906000935b601f19841685106115b1576001945083601f19811610611598575b505050811b0160048201556110fc565b015160001960f88460031b161c19169055838080611588565b8181015183556020948501946001909301929091019061156d565b015190508380611081565b9250600384016000526020600020906000935b601f198416851061162e576001945083601f19811610611615575b505050811b016003820155611099565b015160001960f88460031b161c19169055838080611605565b818101518355602094850194600190930192909101906115ea565b01519050838061101e565b9250600284016000526020600020906000935b601f19841685106116ab576001945083601f19811610611692575b505050811b016002820155611036565b015160001960f88460031b161c19169055838080611682565b81810151835560209485019460019093019290910190611667565b015190508380610fbb565b9250600184016000526020600020906000935b601f1984168510611728576001945083601f1981161061170f575b505050811b016001820155610fd3565b015160001960f88460031b161c191690558380806116ff565b818101518355602094850194600190930192909101906116e4565b015190508380610f5b565b9250836000526020600020906000935b601f198416851061179f576001945083601f19811610611786575b505050811b018155610f70565b015160001960f88460031b161c19169055838080611779565b8181015183556020948501946001909301929091019061175e565b60405162461bcd60e51b815260206004820152601e60248201527f4c6963656e7365206e756d6265722063616e6e6f7420626520656d70747900006044820152606490fd5b3461038e5760208060031936011261038e5761181961360c565b903360005260019182825261183a8360ff6040600020541661040c81613662565b33600052600c825260406000209060018060a01b03166000528152604060002091825461186681614237565b936118746040519586613a84565b8185526000908152838120848087015b84841061189e576040518281528061038a8185018b613920565b859182916040516118b3816105ce81896139b6565b8152019201920191908590611884565b3461038e57602036600319011261038e576001600160a01b036118e461360c565b16600052600260205261038a6105ce610b6f6040600020604051928380926139b6565b3461038e57600036600319011261038e5733600052600160208181526119398260ff6040600020541661040c81613662565b33600052600b8152604060002091825461195281614237565b936119606040519586613a84565b8185526000908152838120848087015b84841061198a576040518281528061038a8185018b613920565b8591829160405161199f816105ce81896139b6565b8152019201920191908590611970565b3461038e57602036600319011261038e576001600160a01b036119d061360c565b166000526001602052602060ff60406000205416604051906119f181613662565b8152f35b3461038e5760208060031936011261038e57600435903360005260018152611a2a600160ff6040600020541661040c81613662565b3360005260078152611a426040600020548310614103565b3360005260078152611a5882604060002061408d565b509160068301805490611a7760ff8316611a7181613662565b1561414f565b600160ff1980931617905533600052600b8352604060002092835491600160401b83101561059b57611adc86611ad6857f24055d14743ca3f4c9f408d9ee74f1c45a082e250dca49cb8b49d7b7f697e809986001604098018155613d1f565b90614193565b33600052600982528260002090600287019060018060a01b0390818354169384600052855260ff86600020541615611b2b575b50505050815192835282015280611364339460408301906139b6565b611b63933360005260098652866000209060005285526001866000209182541617905533600052600a84528460002091541690613d37565b85808080611b0f565b3461038e57600036600319011261038e576000546040516001600160a01b039091168152602090f35b3461038e5760c036600319011261038e57611bae61360c565b6024356001600160401b03811161038e57611bcd903690600401613873565b6044356001600160401b03811161038e57611bec903690600401613873565b6064939193356001600160401b03811161038e57611c0e903690600401613873565b9190946084356001600160401b03811161038e57611c30903690600401613873565b9060a4356001600160401b03811161038e57611c50903690600401613873565b9091336000526001602052611c78600260ff60406000205416611c7281613662565b14613ff3565b60018060a01b038b166000526001602052600160ff60406000205416611c9d81613662565b0361232057611cad89151561404b565b85156122db57861561229657831561225157600160a01b600190038b16600052600760205260406000209384549a60405198611ce88a613a68565b611cf3368d8d613d79565b8a526001600160a01b038e1660208b01523360408b0152611d1691369190613d79565b60608901523690611d2692613d79565b60808701523690611d3692613d79565b60a0850152600060c08501524260e0850152600160401b87101561059b5786611d649160018201815561408d565b6105855783518051906001600160401b03821161059b578190611d8b82610f3f865461397c565b602090601f83116001146121e5576000926121da575b50508160011b916000199060031b1c19161781555b60208401516001820180546001600160a01b039283166001600160a01b031991821617909155604086015160028401805491909316911617905560608401518051906001600160401b03821161059b578190611e1982611062600387015461397c565b602090601f83116001146121685760009261215d575b50508160011b916000199060031b1c19161760038201555b60808401518051906001600160401b03821161059b578190611e70826110c5600487015461397c565b602090601f83116001146120eb576000926120e0575b50508160011b916000199060031b1c19161760048201555b60a08401518051906001600160401b03821161059b57611ece82611ec5600586015461397c565b60058601613be4565b602090601f83116001146120435792827f74f48835a36ac5fd7d7a1dc680b421425dcf650aba8cd1440817673d60c1483f99989693611fcf989693611f9096600092612038575b50508160011b916000199060031b1c19161760058201555b600760e0600683019660c081015197611f4589613662565b611f4e89613662565b60ff199860ff8a8354169116179055015191015560405187868237602081898101600881520301902060018060a01b038b166000526020526040600020613c2b565b33600052600e602052604060002060018060a01b03881660005260205260ff6040600020541615611ff0575b5060405192606084526060840191613dbf565b602082019390935242604082015233936001600160a01b03169281900390a3005b33600052600e602052604060002060018060a01b038816600052602052600160406000209182541617905533600052600d602052612032866040600020613d37565b86611fbc565b015190508d80611f15565b906005840160005260206000209160005b601f19851681106120c8575083611fcf989693611f9096936001937f74f48835a36ac5fd7d7a1dc680b421425dcf650aba8cd1440817673d60c1483f9d9c9a97601f198116106120af575b505050811b016005820155611f2d565b015160001960f88460031b161c191690558d808061209f565b91926020600181928685015181550194019201612054565b015190508a80611e86565b9250600484016000526020600020906000935b601f1984168510612142576001945083601f19811610612129575b505050811b016004820155611e9e565b015160001960f88460031b161c191690558a8080612119565b818101518355602094850194600190930192909101906120fe565b015190508a80611e2f565b9250600384016000526020600020906000935b601f19841685106121bf576001945083601f198116106121a6575b505050811b016003820155611e47565b015160001960f88460031b161c191690558a8080612196565b8181015183556020948501946001909301929091019061217b565b015190508a80611da1565b9250836000526020600020906000935b601f1984168510612236576001945083601f1981161061221d575b505050811b018155611db6565b015160001960f88460031b161c191690558a8080612210565b818101518355602094850194600190930192909101906121f5565b60405162461bcd60e51b815260206004820152601960248201527f46696c65206e616d652063616e6e6f7420626520656d707479000000000000006044820152606490fd5b60405162461bcd60e51b815260206004820152601960248201527f46696c6520747970652063616e6e6f7420626520656d707479000000000000006044820152606490fd5b60405162461bcd60e51b815260206004820152601d60248201527f456e63727970746564206b65792063616e6e6f7420626520656d7074790000006044820152606490fd5b60405162461bcd60e51b815260206004820152602260248201527f546172676574206973206e6f74206120726567697374657265642070617469656044820152611b9d60f21b6064820152608490fd5b3461038e57602036600319011261038e576004353360005260016020526123a4600160ff6040600020541661040c81613662565b3360005260076020526123bd6040600020548210614103565b3360005260076020527f67813150e12a88a933a212e01460fbb9da398d9f273927860439f64efac5538f6123f582604060002061408d565b5091600683016002815461240f60ff8216611a7181613662565b60ff19161790556040519081526040602082015280611364339460408301906139b6565b3461038e5760208060031936011261038e5761244d61360c565b903360005260019081815261246e8260ff6040600020541661040c81613662565b336000526009815260406000209260018060a01b03169283600052815261249c60ff604060002054166141a2565b33600052600981526040600020836000528152604060002060ff199081815416905533600052600b8252828060406000206000925b612552575b5050505033600052600c815260406000208360005281526040600020908154916000815582612529575b84337f825c8be24eb0df19500f63e86c29e7d0d951e73056b889b891d85e40938d9b6e600080a3005b600052600020908101905b8181106125415780612500565b8061254c84926141ee565b01612534565b8054831015612613576125658382613d1f565b50926040518660009580549061257a8261397c565b918988821691826000146125fd5750506001146125c3575b5050818660086125bb96979852030190208860005286526125b660406000206141ee565b613f46565b9190816124d1565b9150955060005286806000206000905b8782106125e957505094810194816125bb612592565b8054848301528a968a9390920191016125d3565b16855250508015150282019550816125bb612592565b6124d6565b3461038e57602036600319011261038e576001600160a01b0361263961360c565b1660005260026020526105ce6126596040600020604051928380926139b6565b8051156126785761038a90604051918291602083526020830190613622565b60405162461bcd60e51b815260206004820152602960248201527f4e6f207075626c6963206b6579207265676973746572656420666f722074686960448201526873206164647265737360b81b6064820152608490fd5b3461038e57602036600319011261038e576001600160a01b036126f061360c565b16600052600460205260406000206009810154604051918280600a830190612717916139b6565b036127229084613a84565b6040518061273081846139b6565b0361273b9082613a84565b6040518061274c81600186016139b6565b036127579082613a84565b6040518061276881600287016139b6565b036127739082613a84565b604051908161278581600388016139b6565b036127909083613a84565b60405192836127a281600489016139b6565b036127ad9085613a84565b60405194856127bf8160058a016139b6565b036127ca9087613a84565b604051806006819901906127dd916139b6565b036127e89088613a84565b604051988860ff8b9a1615158a528060081c60ff16151560208b015260101c60ff16151560408a01526101608060608b0152890161282591613622565b88810360808a015261283691613622565b87810360a089015261284791613622565b86810360c088015261285891613622565b85810360e087015261286991613622565b84810361010086015261287b91613622565b83810361012085015261288d91613622565b82810361014084015261038a91613622565b3461038e57604036600319011261038e576001600160401b0360043581811161038e576128d0903690600401613873565b60249291923591821161038e5761296e926128f2612980933690600401613873565b949094336000526020956001875261291560ff60406000205416610daf81613662565b336000526004875261293260ff6009604060002001541615613ae6565b61293d851515613b3e565b612948821515613b81565b33600052600187526040600020600160ff19825416179055600287526040600020613c2b565b33600052600384526040600020613c2b565b600f54600160401b81101561059b576001810180600f55811015612a0a57600f6000527f8d1108e10bcb7c27dddfc02ed9d693a074039d026cf4ea4240b40f7d581ac80201336bffffffffffffffffffffffff60a01b8254161790557f8e18574f8a7333e6a87112742a55853a643e2f0550f4e1a3a2c3f1bb2994441d60405191600183523392a2005b634e487b7160e01b600052603260045260246000fd5b3461038e57604036600319011261038e57612a3961360c565b6001600160a01b03602435818116929083900361038e57166000526009602052604060002090600052602052602060ff604060002054166040519015158152f35b3461038e5760208060031936011261038e57612a9461360c565b6000546001600160a01b0390612aad9082163314613de0565b81169182600052600481526040600020600981016101008154612ad260ff8216613e18565b61ffff191617905583600052600182526040600020600260ff1982541617905560028252612b07600782016040600020613e70565b8360005260038252612b1d816040600020613e70565b600654600160401b81101561059b576001810180600655811015612a0a57612bdc8592612bca7f8e18574f8a7333e6a87112742a55853a643e2f0550f4e1a3a2c3f1bb2994441d967f35d45d664b551d0c83facbd3487cca32022a3ed9a515115791992136b270b4ae9460066000527ff652222313e28459528d920b65115c16c04f3efc82aaedc97be59f3f377c0d3f01866bffffffffffffffffffffffff60a01b825416179055613f55565b604051918291868352868301906139b6565b0390a260405160028152a2005b3461038e57600036600319011261038e5733600052612c3c600160209080825260ff612c2082826040600020541661040c81613662565b33600052600a8352612c43604060002060405195868092614393565b0385613a84565b60009384835b612d13575b50612c5885614237565b94612c666040519687613a84565b808652612c75601f1991614237565b01368587013760009182845b612c99575b6040518681528061038a8189018a6138e3565b8251811015612d0e573360009081526009875260409020612ce291906001600160a01b039081612cc984886142d4565b511660005288528360406000205416612ce85750613f46565b84612c81565b612cf282866142d4565b5116612d07612d0087613f46565b968a6142d4565b5288610846565b612c86565b8151811015612d775733600090815260098652604090206001600160a01b03612d3c83856142d4565b511660005285528260406000205416612d60575b612d5a8491613f46565b90612c49565b94612d5a612d6e8592613f46565b96915050612d50565b612c4e565b3461038e57600036600319011261038e5733600052602060018152612dae600260ff60406000205416611c7281613662565b33600052600d8152604060002060405190612dcd8261078f8184614393565b8054612dd881614237565b91612de66040519384613a84565b818352601f19612df583614237565b018560005b828110612e8e5750505060005b828110612e3857612e2b8561038a88876040519485946040865260408601906138e3565b9184830390850152613920565b80612e46612e899284613d1f565b90549060039160018060a01b0391831b1c1660005287526105ce612e746040600020604051928380926139b6565b612e7e82876142d4565b5261084681866142d4565b612e07565b60608682018301528101612dfa565b3461038e5760208060031936011261038e57600435906001600160401b03821161038e5780612ed361078f933690600401613873565b919082604051938492833781016008815203019020336000528152612f026040600020604051938480926139b6565b815115612f1d5761038a604051928284938452830190613622565b6084906040519062461bcd60e51b82526004820152602360248201527f4e6f20656e63727970746564206b657920666f756e6420666f7220746869732060448201526210d25160ea1b6064820152fd5b3461038e577fb88d3b65fb21588e8792487a88d20d5d3870bd1330fd651c4924d048c15bdc71612f9c366138a0565b612ffa60018060a09695961b03612fb881600054163314613de0565b851694856000526004602052612ff58385600a604060002060098101620100008154612fe660ff8216613e18565b62ff00ff191617905501613c2b565b613f55565b611364604051928392602084526020840191613dbf565b3461038e5761301f366138a0565b336000526001916020918383526130428460ff6040600020541661040c81613662565b336000526009835260406000209460018060a01b03169485600052835261307060ff604060002054166141a2565b604051818382378381838101600881520301902085600052835261309860406000205461397c565b156132a55760409392935181838237848183810160088152030190208560005284526130c760406000206141ee565b33600052600c845260406000208560005284526040600020836000905b613168575b50507f42ce86fc65f9662ffd2726937c143668d2bf9b13032b5d04eff61e5883302bc8925033600052600c8452604060002085600052845260406000205415613143575b61052c6040519283928684523396840191613dbf565b33600052600984526040600020856000528452604060002060ff19815416905561312d565b81548082101561329f576105ce6131826105c18486613d1f565b878151910120613193368688613d79565b888151910120146131b55750906131ac85969592613f46565b909194956130e4565b6000199181830191821161328957611ad66131d36131db9386613d1f565b509185613d1f565b815480156132735701906131ef8282613d1f565b95909561058557856132227f42ce86fc65f9662ffd2726937c143668d2bf9b13032b5d04eff61e5883302bc8975461397c565b80613233575b5050505585806130e9565b600092601f80831160011461324f57505050555b878080613228565b839161326c9186949585528c8520950160051c8501908501613bcd565b5555613247565b634e487b7160e01b600052603160045260246000fd5b634e487b7160e01b600052601160045260246000fd5b506130e9565b60405162461bcd60e51b815260048101849052602a60248201527f446f63746f7220646f6573206e6f7420686176652061636365737320746f20746044820152691a1a5cc81c9958dbdc9960b21b6064820152608490fd5b3461038e57600036600319011261038e576000546001600160a01b03906133279082163314613de0565b600590815490613336826143d9565b9260005b83811061334f576040518061038a8782613765565b808361335d61341f93613ce8565b919054600392831b1c1690816000526006610826602092600484526105ce6133ee604060002092600884015496604051986133978a613a4c565b8952604051906133ab8261078f81896139b6565b8901526040516133c2816105ce81600189016139b6565b60408901526040516133db816105ce81600289016139b6565b60608901526040519283809286016139b6565b6080860152604051613407816105ce81600486016139b6565b60a0860152604051610811816105ce818c86016139b6565b61333a565b3461038e5760208060031936011261038e5761343e61360c565b903360005260019182825260ff9061346260028360406000205416611c7281613662565b6001600160a01b03166000818152600984526040808220338352855290205482161561356e576000526007825260406000206000916000928254935b84811061352a57506134af9061424e565b9460009160005b8581106134d0576040518781528061038a818a018b613682565b80838360066134e26134f9958a61408d565b500154166134ef81613662565b146134fe57613f46565b6134b6565b61084661350b828861408d565b509561351961091982613f46565b613523828d6142d4565b528a6142d4565b86836006613538848861408d565b5001541661354581613662565b14613559575b61355490613f46565b61349e565b9061356661355491613f46565b91905061354b565b60405162461bcd60e51b815260048101849052603060248201527f596f7520646f206e6f7420686176652061636365737320746f2074686973207060448201526f617469656e742773207265636f72647360801b6064820152608490fd5b3461038e57602036600319011261038e5761038a906001600160a01b036135f161360c565b166000526003602052610b6f816105ce8160406000206139b6565b600435906001600160a01b038216820361038e57565b919082519283825260005b84811061364e575050826000602080949584010152601f8019910116010190565b60208183018101518483018201520161362d565b6003111561366c57565b634e487b7160e01b600052602160045260246000fd5b908082519081815260208091019281808460051b8301019501936000915b8483106136b05750505050505090565b9091929394958480600192601f198582030186528951906137386137256137126136e38551610100808752860190613622565b888060a01b03808888015116888701526040908188015116908601526060808701519086830390870152613622565b6080808601519085830390860152613622565b60a0808501519084830390850152613622565b9160c0808201519061374982613662565b83015260e08091015191015298019301930191949392906136a0565b602080820190808352835180925260409283810182858560051b8401019601946000925b85841061379a575050505050505090565b909192939495968580600192603f198582030187528a5190848060a01b03825116815261385761384461383161381e61380b6137f86137e689890151610120808c8b0152890190613622565b8d808a015190898303908a0152613622565b6060808901519088830390890152613622565b6080808801519087830390880152613622565b60a0808701519086830390870152613622565b60c0808601519085830390860152613622565b60e0808501519084830390850152613622565b9161010080910151910152990194019401929594939190613789565b9181601f8401121561038e578235916001600160401b03831161038e576020838186019501011161038e57565b90604060031983011261038e576004356001600160a01b038116810361038e5791602435906001600160401b03821161038e576138df91600401613873565b9091565b90815180825260208080930193019160005b828110613903575050505090565b83516001600160a01b0316855293810193928101926001016138f5565b908082519081815260208091019281808460051b8301019501936000915b84831061394e5750505050505090565b909192939495848061396c600193601f198682030187528a51613622565b980193019301919493929061393e565b90600182811c921680156139ac575b602083101461399657565b634e487b7160e01b600052602260045260246000fd5b91607f169161398b565b90600092918054916139c78361397c565b918282526001938481169081600014613a2957506001146139e9575b50505050565b90919394506000526020928360002092846000945b838610613a155750505050010190388080806139e3565b8054858701830152940193859082016139fe565b9294505050602093945060ff191683830152151560051b010190388080806139e3565b61012081019081106001600160401b0382111761059b57604052565b61010081019081106001600160401b0382111761059b57604052565b90601f801991011681019081106001600160401b0382111761059b57604052565b15613aac57565b60405162461bcd60e51b8152602060048201526012602482015271105b1c9958591e481c9959da5cdd195c995960721b6044820152606490fd5b15613aed57565b60405162461bcd60e51b815260206004820152602360248201527f446f63746f7220766572696669636174696f6e20616c72656164792070656e64604482015262696e6760e81b6064820152608490fd5b15613b4557565b60405162461bcd60e51b81526020600482015260146024820152734e616d652063616e6e6f7420626520656d70747960601b6044820152606490fd5b15613b8857565b60405162461bcd60e51b815260206004820152601a60248201527f5075626c6963206b65792063616e6e6f7420626520656d7074790000000000006044820152606490fd5b818110613bd8575050565b60008155600101613bcd565b9190601f8111613bf357505050565b613c1f926000526020600020906020601f840160051c83019310613c21575b601f0160051c0190613bcd565b565b9091508190613c12565b9092916001600160401b03811161059b57613c4a8161129b845461397c565b6000601f8211600114613c845781929394600092613c79575b50508160011b916000199060031b1c1916179055565b013590503880613c63565b601f198216948382526020918281209281905b888210613cd057505083600195969710613cb6575b505050811b019055565b0135600019600384901b60f8161c19169055388080613cac565b80600184968294958701358155019501920190613c97565b600554811015612a0a5760056000527f036b6384b5eca791c62761152d0c79bb0604c104a5fb6f4eb0703f3154bb3db00190600090565b8054821015612a0a5760005260206000200190600090565b90815491600160401b83101561059b5782613d5a916001613c1f95018155613d1f565b90919082549060031b9160018060a01b03809116831b921b1916179055565b9291926001600160401b03821161059b5760405191613da2601f8201601f191660200184613a84565b82948184528183011161038e578281602093846000960137010152565b908060209392818452848401376000828201840152601f01601f1916010190565b15613de757565b60405162461bcd60e51b81526020600482015260096024820152682737ba1030b236b4b760b91b6044820152606490fd5b15613e1f57565b60405162461bcd60e51b815260206004820152602360248201527f4e6f2070656e64696e67207265717565737420666f722074686973206164647260448201526265737360e81b6064820152608490fd5b90808214613f4257613e82815461397c565b906001600160401b03821161059b578190613ea182610f3f865461397c565b600090601f8311600114613ed757600092613ecc5750508160011b916000199060031b1c1916179055565b015490503880613c63565b81526020808220858352818320935090601f1985169083905b828210613f29575050908460019594939210613f1057505050811b019055565b015460001960f88460031b161c19169055388080613cac565b8495819295850154815560018091019601940190613ef0565b5050565b60001981146132895760010190565b6000905b600591825492838210156139e357613f7082613ce8565b90546003956001600160a01b0392909190871b1c821685831614613fa257505050613f9c919250613f46565b90613f59565b91935091600019918281019190821161328957613d5a84613fc5613fd294613ce8565b905490891b1c1691613ce8565b82548015613273570192613fe584613ce8565b81939154921b1b1916905555565b15613ffa57565b60405162461bcd60e51b8152602060048201526024808201527f4f6e6c7920646f63746f72732063616e20706572666f726d20746869732061636044820152633a34b7b760e11b6064820152608490fd5b1561405257565b60405162461bcd60e51b81526020600482015260136024820152724349442063616e6e6f7420626520656d70747960681b6044820152606490fd5b8054821015612a0a5760005260206000209060031b0190600090565b156140b057565b60405162461bcd60e51b815260206004820152602560248201527f4f6e6c792070617469656e74732063616e20706572666f726d2074686973206160448201526431ba34b7b760d91b6064820152608490fd5b1561410a57565b60405162461bcd60e51b815260206004820152601a60248201527f5265636f726420696e646578206f7574206f6620626f756e64730000000000006044820152606490fd5b1561415657565b60405162461bcd60e51b81526020600482015260156024820152745265636f7264206973206e6f742070656e64696e6760581b6044820152606490fd5b919061058557613c1f91613e70565b156141a957565b60405162461bcd60e51b815260206004820152601b60248201527f446f63746f7220646f6573206e6f7420686176652061636365737300000000006044820152606490fd5b6141f8815461397c565b9081614202575050565b81601f60009311600114614214575055565b908083918252614233601f60208420940160051c840160018501613bcd565b5555565b6001600160401b03811161059b5760051b60200190565b9061425882614237565b60409061426782519182613a84565b8381528093614278601f1991614237565b019160005b83811061428a5750505050565b602090825161429881613a68565b60608082528390600082840152600086840152808084015280608084015260a0830152600060c0830152600060e083015282860101520161427d565b8051821015612a0a5760209160051b010190565b9060409160e060078451926142fc84613a68565b8395805161430e816105ce81866139b6565b855260018201546001600160a01b039081166020870152600283015416818601528051614342816105ce81600387016139b6565b6060860152805161435a816105ce81600487016139b6565b608086015251614371816105ce81600586016139b6565b60a085015260ff60068201541661438781613662565b60c08501520154910152565b90815480825260208092019260005281600020916000905b8282106143b9575050505090565b83546001600160a01b0316855293840193600193840193909101906143ab565b906143e382614237565b6040906143f282519182613a84565b8381528093614403601f1991614237565b0191600091825b848110614418575050505050565b602090835161442681613a4c565b858152606083908082840152808784015280808401528060808401528060a08401528060c084015260e08301528661010083015282850101520161440a56fea2646970667358221220ee14de23f167cee6bd43640c23bdf39be23511d2db5362b7668bcde536d15e8d64736f6c63430008140033",
  "linkReferences": {},
  "deployedLinkReferences": {}
}