{
  "_format": "hh-sol-artifact-1",
  "contractName": "MedicalRecordVault",
  "sourceName": "contracts/MedicalRecordVault.sol",
  "abi": [
    {
      "inputs": [],
      "stateMutability": "nonpayable",
      "type": "constructor"
    },
    {
      "anonymous": false,
      "inputs": [
        {
          "indexed": true,
          "internalType": "address",
          "name": "patient",
          "type": "address"
        },
        {
          "indexed": true,
          "internalType": "address",
          "name": "doctor",
          "type": "address"
        },
        {
          "indexed": false,
          "internalType": "string",
          "name": "cid",
          "type": "string"
        }
      ],
      "name": "AccessGranted",
      "type": "event"
    },
    {
      "anonymous": false,
      "inputs": [
        {
          "indexed": true,
          "internalType": "address",
          "name": "patient",
          "type": "address"
        },
        {
          "indexed": true,
          "internalType": "address",
          "name": "doctor",
          "type": "address"
        }
      ],
      "name": "AccessRevoked",
      "type": "event"
    },
    {
      "anonymous": false,
      "inputs": [
        {
          "indexed": true,
          "internalType": "address",
          "name": "patient",
          "type": "address"
        },
        {
          "indexed": true,
          "internalType": "address",
          "name": "doctor",
          "type": "address"
        },
        {
          "indexed": false,
          "internalType": "string",
          "name": "cid",
          "type": "string"
        }
      ],
      "name": "AccessRevokedForCid",
      "type": "event"
    },
    {
      "anonymous": false,
      "inputs": [
        {
          "indexed": true,
          "internalType": "address",
          "name": "doctor",
          "type": "address"
        },
        {
          "indexed": false,
          "internalType": "string",
          "name": "name",
          "type": "string"
        }
      ],
      "name": "DoctorApproved",
      "type": "event"
    },
    {
      "anonymous": false,
      "inputs": [
        {
          "indexed": true,
          "internalType": "address",
          "name": "doctor",
          "type": "address"
        },
        {
          "indexed": false,
          "internalType": "string",
          "name": "reason",
          "type": "string"
        }
      ],
      "name": "DoctorRejected",
      "type": "event"
    },
    {
      "anonymous": false,
      "inputs": [
        {
          "indexed": true,
          "internalType": "address",
          "name": "doctor",
          "type": "address"
        },
        {
          "indexed": false,
          "internalType": "string",
          "name": "name",
          "type": "string"
        },
        {
          "indexed": false,
          "internalType": "string",
          "name": "licenseNumber",
          "type": "string"
        }
      ],
      "name": "DoctorRequestSubmitted",
      "type": "event"
    },
    {
      "anonymous": false,
      "inputs": [
        {
          "indexed": true,
          "internalType": "address",
          "name": "patient",
          "type": "address"
        },
        {
          "indexed": false,
          "internalType": "uint256",
          "name": "recordIndex",
          "type": "uint256"
        },
        {
          "indexed": false,
          "internalType": "string",
          "name": "cid",
          "type": "string"
        }
      ],
      "name": "RecordApproved",
      "type": "event"
    },
    {
      "anonymous": false,
      "inputs": [
        {
          "indexed": true,
          "internalType": "address",
          "name": "patient",
          "type": "address"
        },
        {
          "indexed": false,
          "internalType": "uint256",
          "name": "recordIndex",
          "type": "uint256"
        },
        {
          "indexed": false,
          "internalType": "string",
          "name": "cid",
          "type": "string"
        }
      ],
      "name": "RecordRejected",
      "type": "event"
    },
    {
      "anonymous": false,
      "inputs": [
        {
          "indexed": true,
          "internalType": "address",
          "name": "patient",
          "type": "address"
        },
        {
          "indexed": true,
          "internalType": "address",
          "name": "doctor",
          "type": "address"
        },
        {
          "indexed": false,
          "internalType": "string",
          "name": "cid",
          "type": "string"
        },
        {
          "indexed": false,
          "internalType": "uint256",
          "name": "recordIndex",
          "type": "uint256"
        },
        {
          "indexed": false,
          "internalType": "uint256",
          "name": "timestamp",
          "type": "uint256"
        }
      ],
      "name": "RecordSubmitted",
      "type": "event"
    },
    {
      "anonymous": false,
      "inputs": [
        {
          "indexed": true,
          "internalType": "address",
          "name": "user",
          "type": "address"
        },
        {
          "indexed": false,
          "internalType": "enum MedicalRecordVault.Role",
          "name": "role",
          "type": "uint8"
        }
      ],
      "name": "UserRegistered",
      "type": "event"
    },
    {
      "inputs": [
        {
          "internalType": "address",
          "name": "",
          "type": "address"
        },
        {
          "internalType": "address",
          "name": "",
          "type": "address"
        }
      ],
      "name": "accessList",
      "outputs": [
        {
          "internalType": "bool",
          "name": "",
          "type": "bool"
        }
      ],
      "stateMutability": "view",
      "type": "function"
    },
    {
      "inputs": [
        {
          "internalType": "address",
          "name": "_doctor",
          "type": "address"
        }
      ],
      "name": "approveDoctor",
      "outputs": [],
      "stateMutability": "nonpayable",
      "type": "function"
    },
    {
      "inputs": [
        {
          "internalType": "uint256",
          "name": "_recordIndex",
          "type": "uint256"
        }
      ],
      "name": "approveRecord",
      "outputs": [],
      "stateMutability": "nonpayable",
      "type": "function"
    },
    {
      "inputs": [
        {
          "internalType": "address",
          "name": "",
          "type": "address"
        }
      ],
      "name": "displayNames",
      "outputs": [
        {
          "internalType": "string",
          "name": "",
          "type": "string"
        }
      ],
      "stateMutability": "view",
      "type": "function"
    },
    {
      "inputs": [
        {
          "internalType": "address",
          "name": "",
          "type": "address"
        }
      ],
      "name": "doctorRequests",
      "outputs": [
        {
          "internalType": "string",
          "name": "name",
          "type": "string"
        },
        {
          "internalType": "string",
          "name": "licenseNumber",
          "type": "string"
        },
        {
          "internalType": "string",
          "name": "specialization",
          "type": "string"
        },
        {
          "internalType": "string",
          "name": "hospital",
          "type": "string"
        },
        {
          "internalType": "string",
          "name": "ktpNumber",
          "type": "string"
        },
        {
          "internalType": "string",
          "name": "phoneNumber",
          "type": "string"
        },
        {
          "internalType": "string",
          "name": "photoCid",
          "type": "string"
        },
        {
          "internalType": "string",
          "name": "publicKey",
          "type": "string"
        },
        {
          "internalType": "uint256",
          "name": "requestedAt",
          "type": "uint256"
        },
        {
          "internalType": "bool",
          "name": "isPending",
          "type": "bool"
        },
        {
          "internalType": "bool",
          "name": "isApproved",
          "type": "bool"
        },
        {
          "internalType": "bool",
          "name": "isRejected",
          "type": "bool"
        },
        {
          "internalType": "string",
          "name": "rejectReason",
          "type": "string"
        }
      ],
      "stateMutability": "view",
      "type": "function"
    },
    {
      "inputs": [
        {
          "internalType": "address",
          "name": "_doctor",
          "type": "address"
        }
      ],
      "name": "getAccessibleCidsForDoctor",
      "outputs": [
        {
          "internalType": "string[]",
          "name": "",
          "type": "string[]"
        }
      ],
      "stateMutability": "view",
      "type": "function"
    },
    {
      "inputs": [],
      "name": "getApprovedDoctors",
      "outputs": [
        {
          "components": [
            {
              "internalType": "address",
              "name": "addr",
              "type": "address"
            },
            {
              "internalType": "string",
              "name": "name",
              "type": "string"
            },
            {
              "internalType": "string",
              "name": "licenseNumber",
              "type": "string"
            },
            {
              "internalType": "string",
              "name": "specialization",
              "type": "string"
            },
            {
              "internalType": "string",
              "name": "hospital",
              "type": "string"
            },
            {
              "internalType": "string",
              "name": "ktpNumber",
              "type": "string"
            },
            {
              "internalType": "string",
              "name": "phoneNumber",
              "type": "string"
            },
            {
              "internalType": "string",
              "name": "photoCid",
              "type": "string"
            },
            {
              "internalType": "uint256",
              "name": "requestedAt",
              "type": "uint256"
            }
          ],
          "internalType": "struct MedicalRecordVault.DoctorRequestView[]",
          "name": "",
          "type": "tuple[]"
        }
      ],
      "stateMutability": "view",
      "type": "function"
    },
    {
      "inputs": [],
      "name": "getAuthorizedDoctors",
      "outputs": [
        {
          "internalType": "address[]",
          "name": "",
          "type": "address[]"
        }
      ],
      "stateMutability": "view",
      "type": "function"
    },
    {
      "inputs": [
        {
          "internalType": "address",
          "name": "_account",
          "type": "address"
        }
      ],
      "name": "getDisplayName",
      "outputs": [
        {
          "internalType": "string",
          "name": "",
          "type": "string"
        }
      ],
      "stateMutability": "view",
      "type": "function"
    },
    {
      "inputs": [
        {
          "internalType": "address",
          "name": "_addr",
          "type": "address"
        }
      ],
      "name": "getDoctorRequest",
      "outputs": [
        {
          "internalType": "bool",
          "name": "isPending",
          "type": "bool"
        },
        {
          "internalType": "bool",
          "name": "isApproved",
          "type": "bool"
        },
        {
          "internalType": "bool",
          "name": "isRejected",
          "type": "bool"
        },
        {
          "internalType": "string",
          "name": "rejectReason",
          "type": "string"
        },
        {
          "internalType": "string",
          "name": "name",
          "type": "string"
        },
        {
          "internalType": "string",
          "name": "licenseNumber",
          "type": "string"
        },
        {
          "internalType": "string",
          "name": "specialization",
          "type": "string"
        },
        {
          "internalType": "string",
          "name": "hospital",
          "type": "string"
        },
        {
          "internalType": "string",
          "name": "ktpNumber",
          "type": "string"
        },
        {
          "internalType": "string",
          "name": "phoneNumber",
          "type": "string"
        },
        {
          "internalType": "string",
          "name": "photoCid",
          "type": "string"
        }
      ],
      "stateMutability": "view",
      "type": "function"
    },
    {
      "inputs": [
        {
          "internalType": "string",
          "name": "_cid",
          "type": "string"
        }
      ],
      "name": "getEncryptedKey",
      "outputs": [
        {
          "internalType": "string",
          "name": "",
          "type": "string"
        }
      ],
      "stateMutability": "view",
      "type": "function"
    },
    {
      "inputs": [],
      "name": "getMyCids",
      "outputs": [
        {
          "internalType": "string[]",
          "name": "",
          "type": "string[]"
        }
      ],
      "stateMutability": "view",
      "type": "function"
    },
    {
      "inputs": [],
      "name": "getMyRecords",
      "outputs": [
        {
          "components": [
            {
              "internalType": "string",
              "name": "cid",
              "type": "string"
            },
            {
              "internalType": "address",
              "name": "patientAddress",
              "type": "address"
            },
            {
              "internalType": "address",
              "name": "doctorAddress",
              "type": "address"
            },
            {
              "internalType": "string",
              "name": "fileType",
              "type": "string"
            },
            {
              "internalType": "string",
              "name": "fileName",
              "type": "string"
            },
            {
              "internalType": "enum MedicalRecordVault.RecordStatus",
              "name": "status",
              "type": "uint8"
            },
            {
              "internalType": "uint256",
              "name": "timestamp",
              "type": "uint256"
            }
          ],
          "internalType": "struct MedicalRecordVault.Record[]",
          "name": "",
          "type": "tuple[]"
        }
      ],
      "stateMutability": "view",
      "type": "function"
    },
    {
      "inputs": [],
      "name": "getPatientList",
      "outputs": [
        {
          "internalType": "address[]",
          "name": "addrs",
          "type": "address[]"
        },
        {
          "internalType": "string[]",
          "name": "names",
          "type": "string[]"
        }
      ],
      "stateMutability": "view",
      "type": "function"
    },
    {
      "inputs": [
        {
          "internalType": "address",
          "name": "_patient",
          "type": "address"
        }
      ],
      "name": "getPatientRecords",
      "outputs": [
        {
          "components": [
            {
              "internalType": "string",
              "name": "cid",
              "type": "string"
            },
            {
              "internalType": "address",
              "name": "patientAddress",
              "type": "address"
            },
            {
              "internalType": "address",
              "name": "doctorAddress",
              "type": "address"
            },
            {
              "internalType": "string",
              "name": "fileType",
              "type": "string"
            },
            {
              "internalType": "string",
              "name": "fileName",
              "type": "string"
            },
            {
              "internalType": "enum MedicalRecordVault.RecordStatus",
              "name": "status",
              "type": "uint8"
            },
            {
              "internalType": "uint256",
              "name": "timestamp",
              "type": "uint256"
            }
          ],
          "internalType": "struct MedicalRecordVault.Record[]",
          "name": "",
          "type": "tuple[]"
        }
      ],
      "stateMutability": "view",
      "type": "function"
    },
    {
      "inputs": [],
      "name": "getPendingCount",
      "outputs": [
        {
          "internalType": "uint256",
          "name": "",
          "type": "uint256"
        }
      ],
      "stateMutability": "view",
      "type": "function"
    },
    {
      "inputs": [],
      "name": "getPendingDoctorRequests",
      "outputs": [
        {
          "components": [
            {
              "internalType": "address",
              "name": "addr",
              "type": "address"
            },
            {
              "internalType": "string",
              "name": "name",
              "type": "string"
            },
            {
              "internalType": "string",
              "name": "licenseNumber",
              "type": "string"
            },
            {
              "internalType": "string",
              "name": "specialization",
              "type": "string"
            },
            {
              "internalType": "string",
              "name": "hospital",
              "type": "string"
            },
            {
              "internalType": "string",
              "name": "ktpNumber",
              "type": "string"
            },
            {
              "internalType": "string",
              "name": "phoneNumber",
              "type": "string"
            },
            {
              "internalType": "string",
              "name": "photoCid",
              "type": "string"
            },
            {
              "internalType": "uint256",
              "name": "requestedAt",
              "type": "uint256"
            }
          ],
          "internalType": "struct MedicalRecordVault.DoctorRequestView[]",
          "name": "",
          "type": "tuple[]"
        }
      ],
      "stateMutability": "view",
      "type": "function"
    },
    {
      "inputs": [],
      "name": "getPendingRecords",
      "outputs": [
        {
          "components": [
            {
              "internalType": "string",
              "name": "cid",
              "type": "string"
            },
            {
              "internalType": "address",
              "name": "patientAddress",
              "type": "address"
            },
            {
              "internalType": "address",
              "name": "doctorAddress",
              "type": "address"
            },
            {
              "internalType": "string",
              "name": "fileType",
              "type": "string"
            },
            {
              "internalType": "string",
              "name": "fileName",
              "type": "string"
            },
            {
              "internalType": "enum MedicalRecordVault.RecordStatus",
              "name": "status",
              "type": "uint8"
            },
            {
              "internalType": "uint256",
              "name": "timestamp",
              "type": "uint256"
            }
          ],
          "internalType": "struct MedicalRecordVault.Record[]",
          "name": "",
          "type": "tuple[]"
        },
        {
          "internalType": "uint256[]",
          "name": "",
          "type": "uint256[]"
        }
      ],
      "stateMutability": "view",
      "type": "function"
    },
    {
      "inputs": [
        {
          "internalType": "address",
          "name": "_account",
          "type": "address"
        }
      ],
      "name": "getPublicKey",
      "outputs": [
        {
          "internalType": "string",
          "name": "",
          "type": "string"
        }
      ],
      "stateMutability": "view",
      "type": "function"
    },
    {
      "inputs": [],
      "name": "getRecordCount",
      "outputs": [
        {
          "internalType": "uint256",
          "name": "",
          "type": "uint256"
        }
      ],
      "stateMutability": "view",
      "type": "function"
    },
    {
      "inputs": [
        {
          "internalType": "address",
          "name": "_account",
          "type": "address"
        }
      ],
      "name": "getRole",
      "outputs": [
        {
          "internalType": "enum MedicalRecordVault.Role",
          "name": "",
          "type": "uint8"
        }
      ],
      "stateMutability": "view",
      "type": "function"
    },
    {
      "inputs": [
        {
          "internalType": "address",
          "name": "_doctor",
          "type": "address"
        },
        {
          "internalType": "string",
          "name": "_cid",
          "type": "string"
        },
        {
          "internalType": "string",
          "name": "_encryptedKeyForDoctor",
          "type": "string"
        }
      ],
      "name": "grantAccess",
      "outputs": [],
      "stateMutability": "nonpayable",
      "type": "function"
    },
    {
      "inputs": [],
      "name": "owner",
      "outputs": [
        {
          "internalType": "address",
          "name": "",
          "type": "address"
        }
      ],
      "stateMutability": "view",
      "type": "function"
    },
    {
      "inputs": [
        {
          "internalType": "address",
          "name": "",
          "type": "address"
        }
      ],
      "name": "publicKeys",
      "outputs": [
        {
          "internalType": "string",
          "name": "",
          "type": "string"
        }
      ],
      "stateMutability": "view",
      "type": "function"
    },
    {
      "inputs": [
        {
          "internalType": "string",
          "name": "_name",
          "type": "string"
        },
        {
          "internalType": "string",
          "name": "_publicKey",
          "type": "string"
        }
      ],
      "name": "registerAsPatient",
      "outputs": [],
      "stateMutability": "nonpayable",
      "type": "function"
    },
    {
      "inputs": [
        {
          "internalType": "address",
          "name": "_doctor",
          "type": "address"
        },
        {
          "internalType": "string",
          "name": "_reason",
          "type": "string"
        }
      ],
      "name": "rejectDoctor",
      "outputs": [],
      "stateMutability": "nonpayable",
      "type": "function"
    },
    {
      "inputs": [
        {
          "internalType": "uint256",
          "name": "_recordIndex",
          "type": "uint256"
        }
      ],
      "name": "rejectRecord",
      "outputs": [],
      "stateMutability": "nonpayable",
      "type": "function"
    },
    {
      "inputs": [
        {
          "internalType": "string",
          "name": "_name",
          "type": "string"
        },
        {
          "internalType": "string",
          "name": "_licenseNumber",
          "type": "string"
        },
        {
          "internalType": "string",
          "name": "_specialization",
          "type": "string"
        },
        {
          "internalType": "string",
          "name": "_hospital",
          "type": "string"
        },
        {
          "internalType": "string",
          "name": "_ktpNumber",
          "type": "string"
        },
        {
          "internalType": "string",
          "name": "_phoneNumber",
          "type": "string"
        },
        {
          "internalType": "string",
          "name": "_photoCid",
          "type": "string"
        },
        {
          "internalType": "string",
          "name": "_publicKey",
          "type": "string"
        }
      ],
      "name": "requestDoctorVerification",
      "outputs": [],
      "stateMutability": "nonpayable",
      "type": "function"
    },
    {
      "inputs": [
        {
          "internalType": "address",
          "name": "_doctor",
          "type": "address"
        }
      ],
      "name": "revokeAccess",
      "outputs": [],
      "stateMutability": "nonpayable",
      "type": "function"
    },
    {
      "inputs": [
        {
          "internalType": "address",
          "name": "_doctor",
          "type": "address"
        },
        {
          "internalType": "string",
          "name": "_cid",
          "type": "string"
        }
      ],
      "name": "revokeAccessForCid",
      "outputs": [],
      "stateMutability": "nonpayable",
      "type": "function"
    },
    {
      "inputs": [
        {
          "internalType": "address",
          "name": "",
          "type": "address"
        }
      ],
      "name": "roles",
      "outputs": [
        {
          "internalType": "enum MedicalRecordVault.Role",
          "name": "",
          "type": "uint8"
        }
      ],
      "stateMutability": "view",
      "type": "function"
    },
    {
      "inputs": [
        {
          "internalType": "address",
          "name": "_patient",
          "type": "address"
        },
        {
          "internalType": "string",
          "name": "_cid",
          "type": "string"
        },
        {
          "internalType": "string",
          "name": "_encryptedKeyForPatient",
          "type": "string"
        },
        {
          "internalType": "string",
          "name": "_fileType",
          "type": "string"
        },
        {
          "internalType": "string",
          "name": "_fileName",
          "type": "string"
        }
      ],
      "name": "submitRecord",
      "outputs": [],
      "stateMutability": "nonpayable",
      "type": "function"
    }
  ],
  "bytecode": "0x6080806040523461002857600080546001600160a01b03191633179055614331908161002e8239f35b600080fdfe61012080604052600436101561001457600080fd5b60003560e01c9081631042876d146134de5750806318bd48471461333657806319c2ea861461320f5780632ca4862b14612f2357806330ab126a14612e7f5780633a6d50b614612daf5780634427673314612001578063503b135414612c2c57806350bd43dc14612a605780636160a5c2146128f157806377814646146128975780637c2e811a146127165780637dff004414612546578063857cdbb81461248f57806385e68531146122aa57806388c118a9146121e75780638da5cb5b146121be578063918c0c431461204757806399374642146120015780639e64b85614611f59578063a3d6f9a914611f15578063b382615614611e51578063b8278dcf146117ec578063c696f00c14610c6c578063ca267f2814610c22578063d795ede114610b83578063dc86638114610b2b578063e085456714610974578063e76637ce14610851578063eb056845146106da578063f7d9e157146103935763f7e7bd901461018057600080fd5b3461038e57602036600319011261038e576001600160a01b036101a161351e565b1660005260046020526040600020604051806101bd81846138b1565b036101c8908261397e565b60405191826101da81600184016138b1565b036101e5908461397e565b604051806101f681600285016138b1565b03610201908261397e565b604051908161021381600386016138b1565b0361021e908361397e565b6040518061022f81600487016138b1565b0361023a908261397e565b6040518061024b81600588016138b1565b03610256908261397e565b604051908161026881600689016138b1565b03610273908361397e565b60405192836102858160078a016138b1565b03610290908561397e565b60088701549560098801549560405180600a819b01906102af916138b1565b036102ba908a61397e565b6040519a8b9a6101a0808d528c016102d191613534565b8b810360208d01526102e291613534565b8a810360408c01526102f391613534565b89810360608b015261030491613534565b88810360808a015261031591613534565b87810360a089015261032691613534565b86810360c088015261033791613534565b85810360e087015261034891613534565b9161010085015260ff811615156101208501528060081c60ff16151561014085015260101c60ff16151561016084015282810361018084015261038a91613534565b0390f35b600080fd5b3461038e57606036600319011261038e576103ac61351e565b6001600160401b0360243581811161038e576103cc90369060040161376e565b909160443590811161038e576103e690369060040161376e565b929092336000526001906020948286526104128360ff6040600020541661040c81613574565b14613fa3565b60018060a01b0387169687600052838752600260ff6040600020541661043781613574565b0361068b57610447861515613f45565b604051868682378781888101600881520301902033600052875261046f604060002054613877565b1561064657906104c192913360005260098852604060002089600052885260ff6040600020541615610608575b5060405186868237878188810160088152030190208860005287526040600020613b25565b600033600052600c8552604060002086600052855260406000206000918154925b8381106105b1575b5015610531575b5050507fc7e5c007251689b9bc3cb624f55714afc5988f3e3b4e20cc6a606d7bad6faeca9161052c6040519283928684523396840191613cb9565b0390a3005b600160401b82101561059b5761054a9282018155613c19565b9290926105855761057d81837fc7e5c007251689b9bc3cb624f55714afc5988f3e3b4e20cc6a606d7bad6faeca95613b25565b9185806104f1565b634e487b7160e01b600052600060045260246000fd5b634e487b7160e01b600052604160045260246000fd5b6105ce6105d56105c18386613c19565b50604051928380926138b1565b038261397e565b8881519101206105e6368989613c73565b898151910120146105ff576105fa90613e40565b6104e2565b505082886104ea565b61064090336000526009895260406000208a600052895260406000208660ff1982541617905533600052600a89526040600020613c31565b8861049c565b60405162461bcd60e51b815260048101889052601a60248201527f596f7520646f206e6f74206f776e2074686973207265636f72640000000000006044820152606490fd5b60405162461bcd60e51b815260048101889052602160248201527f546172676574206973206e6f742061207265676973746572656420646f63746f6044820152603960f91b6064820152608490fd5b3461038e57600036600319011261038e576000546001600160a01b03906107049082163314613cda565b60068054906107128261426f565b9260005b83811061072b576040518061038a8782613660565b808261084c927ff652222313e28459528d920b65115c16c04f3efc82aaedc97be59f3f377c0d3f015416806000526020600481528561082660406000206008810154936040519561077b87613947565b8652604051906107968261078f81866138b1565b038361397e565b8601526040516107ad816105ce81600186016138b1565b60408601526040516107c6816105ce81600286016138b1565b60608601526040516107df816105ce81600386016138b1565b60808601526040516107f8816105ce81600486016138b1565b60a0860152604051610811816105ce81600586016138b1565b60c08601526105ce60405180948193016138b1565b60e083015261010082015261083b82886141c8565b5261084681876141c8565b50613e40565b610716565b3461038e57600036600319011261038e573360005260018060205260ff61088382826040600020541661040c81613574565b33600052600760205260406000206000916000928254935b84811061093057506108ac90614148565b9360009160005b8581106108d0576040516020808252819061038a9082018a613594565b80838360056108e26108f9958a613f87565b500154166108ef81613574565b146108fe57613e40565b6108b3565b61084661090b8288613f87565b509561091f61091982613e40565b976141dc565b610929828c6141c8565b52896141c8565b8583600561093e8488613f87565b5001541661094b81613574565b1461095f575b61095a90613e40565b61089b565b9061096c61095a91613e40565b919050610951565b3461038e57600036600319011261038e5733600052600160209080825260ff906109a981836040600020541661040c81613574565b33600052600783526040600020926000808554905b818110610add57506109cf82614148565b946109f26109dc84614131565b936109ea604051958661397e565b808552614131565b8385019790601f190136893760009160005b848110610a5957505050505081610a2660405195604087526040870190613594565b9185830382870152519182815201949160005b828110610a465785870386f35b8351875295810195928101928401610a39565b816005610a6c83869d9b9d9a999a613f87565b50015416610a7981613574565b15610a93575b610a8890613e40565b989698959495610a04565b92610ad5610a8891610aae610aa88787613f87565b506141dc565b610ab8828d6141c8565b52610ac3818c6141c8565b5085610acf828b6141c8565b52613e40565b939050610a7f565b856005610aef838a989a979697613f87565b50015416610afc81613574565b15610b16575b610b0b90613e40565b9593959291926109be565b92610b23610b0b91613e40565b939050610b02565b3461038e57602036600319011261038e576001600160a01b03610b4c61351e565b16600052600360205261038a6105ce610b6f6040600020604051928380926138b1565b604051918291602083526020830190613534565b3461038e57600036600319011261038e5733600052600160205260ff610bb56001826040600020541661040c81613574565b33600052600760205260406000206000916000918054925b838110610bdf57602085604051908152f35b826005610bec8385613f87565b50015416610bf981613574565b15610c0d575b610c0890613e40565b610bcd565b93610c1a610c0891613e40565b949050610bff565b3461038e57600036600319011261038e57336000526001602052610c53600160ff6040600020541661040c81613574565b3360005260076020526020604060002054604051908152f35b3461038e5761010036600319011261038e576004356001600160401b03811161038e57610c9d90369060040161376e565b60e05260c0526024356001600160401b03811161038e57610cc290369060040161376e565b610100526080526044356001600160401b03811161038e57610ce890369060040161376e565b906064356001600160401b03811161038e57610d0890369060040161376e565b6084939193356001600160401b03811161038e57610d2a90369060040161376e565b93909260a4356001600160401b03811161038e57610d4c90369060040161376e565b919060c4356001600160401b03811161038e57610d6d90369060040161376e565b93909460e4356001600160401b03811161038e57610d8f90369060040161376e565b989099336000526001602052610db660ff60406000205416610db081613574565b1561399f565b336000526004602052610dd460ff60096040600020015416156139e0565b610de160e0511515613a38565b61010051156117a757610df58a1515613a7b565b604051958660a052866101a08101106001600160401b036101a08901111761059b57610eab9c610e9d9a610e66610e8296610e74946101a0610e909c01604052610e443660e05160c051613c73565b60a05152610e583661010051608051613c73565b602060a05101523691613c73565b604060a05101523691613c73565b606060a05101523691613c73565b608060a05101523691613c73565b60a0805101523691613c73565b60c060a05101523691613c73565b60e060a05101524261010060a0510152600161012060a0510152600061014060a0510152600061016060a0510152604051602081018181106001600160401b0382111761059b576040526000815261018060a0510152336000526004602052604060002060a051518051906001600160401b03821161059b578190610f3a82610f348654613877565b86613ade565b602090601f831160011461173b57600092611730575b50508160011b916000199060031b1c19161781555b602060a05101518051906001600160401b03821161059b578190610f9982610f906001870154613877565b60018701613ade565b602090601f83116001146116be576000926116b3575b50508160011b916000199060031b1c19161760018201555b604060a05101518051906001600160401b03821161059b578190610ffb82610ff26002870154613877565b60028701613ade565b602090601f831160011461164157600092611636575b50508160011b916000199060031b1c19161760028201555b606060a05101518051906001600160401b03821161059b57819061105d826110546003870154613877565b60038701613ade565b602090601f83116001146115c4576000926115b9575b50508160011b916000199060031b1c19161760038201555b608060a05101518051906001600160401b03821161059b5781906110bf826110b66004870154613877565b60048701613ade565b602090601f83116001146115475760009261153c575b50508160011b916000199060031b1c19161760048201555b60a0805101518051906001600160401b03821161059b578190611120826111176005870154613877565b60058701613ade565b602090601f83116001146114ca576000926114bf575b50508160011b916000199060031b1c19161760058201555b60c060a05101518051906001600160401b03821161059b578190611182826111796006870154613877565b60068701613ade565b602090601f831160011461144d57600092611442575b50508160011b916000199060031b1c19161760068201555b60e060a05101518051906001600160401b03821161059b5781906111e4826111db6007870154613877565b60078701613ade565b602090601f83116001146113d0576000926113c5575b50508160011b916000199060031b1c19161760078201555b610180600a60a051926101008401516008820155600981016101208501511515815461ff00610140880151151560081b169060ff62ff00006101608a0151151560101b1693169062ffffff19161717179055019101519081516001600160401b03811161059b5761128d816112878454613877565b84613ade565b602092601f82116001146113615792819293600092611356575b50508160011b916000199060031b1c19161790555b600554600160401b81101561059b576112de8160016112fc9301600555613be2565b81546001600160a01b0360039290921b91821b19163390911b179055565b604051604081527fa10fac549d353fda0c9e8727471521d618e71c7ad4bea1441e49cce316ce216b6113366040830160e05160c051613cb9565b91808303602082015280611351339461010051608051613cb9565b0390a2005b0151905083806112a7565b601f198216938360005260206000209160005b8681106113ad5750836001959610611394575b505050811b0190556112bc565b015160001960f88460031b161c19169055838080611387565b91926020600181928685015181550194019201611374565b0151905083806111fa565b9250600784016000526020600020906000935b601f1984168510611427576001945083601f1981161061140e575b505050811b016007820155611212565b015160001960f88460031b161c191690558380806113fe565b818101518355602094850194600190930192909101906113e3565b015190508380611198565b9250600684016000526020600020906000935b601f19841685106114a4576001945083601f1981161061148b575b505050811b0160068201556111b0565b015160001960f88460031b161c1916905583808061147b565b81810151835560209485019460019093019290910190611460565b015190508380611136565b9250600584016000526020600020906000935b601f1984168510611521576001945083601f19811610611508575b505050811b01600582015561114e565b015160001960f88460031b161c191690558380806114f8565b818101518355602094850194600190930192909101906114dd565b0151905083806110d5565b9250600484016000526020600020906000935b601f198416851061159e576001945083601f19811610611585575b505050811b0160048201556110ed565b015160001960f88460031b161c19169055838080611575565b8181015183556020948501946001909301929091019061155a565b015190508380611073565b9250600384016000526020600020906000935b601f198416851061161b576001945083601f19811610611602575b505050811b01600382015561108b565b015160001960f88460031b161c191690558380806115f2565b818101518355602094850194600190930192909101906115d7565b015190508380611011565b9250600284016000526020600020906000935b601f1984168510611698576001945083601f1981161061167f575b505050811b016002820155611029565b015160001960f88460031b161c1916905583808061166f565b81810151835560209485019460019093019290910190611654565b015190508380610faf565b9250600184016000526020600020906000935b601f1984168510611715576001945083601f198116106116fc575b505050811b016001820155610fc7565b015160001960f88460031b161c191690558380806116ec565b818101518355602094850194600190930192909101906116d1565b015190508380610f50565b9250836000526020600020906000935b601f198416851061178c576001945083601f19811610611773575b505050811b018155610f65565b015160001960f88460031b161c19169055838080611766565b8181015183556020948501946001909301929091019061174b565b60405162461bcd60e51b815260206004820152601e60248201527f4c6963656e7365206e756d6265722063616e6e6f7420626520656d70747900006044820152606490fd5b3461038e5760a036600319011261038e5761180561351e565b6024356001600160401b03811161038e5761182490369060040161376e565b6044356001600160401b03811161038e5761184390369060040161376e565b6064939193356001600160401b03811161038e5761186590369060040161376e565b6084959195356001600160401b03811161038e5761188790369060040161376e565b903360005260016020526118ae600260ff604060002054166118a881613574565b14613eed565b60018060a01b0389166000526001602052600160ff604060002054166118d381613574565b03611e01576118e3871515613f45565b8415611dbc578215611d77578115611d32576119589060018060a01b038a16600052600760205260406000209261194c84549a6040519661192388613963565b61192e368d8d613c73565b88526001600160a01b038e1660208901523360408901523691613c73565b60608601523691613c73565b6080830152600060a08301524260c0830152600160401b87101561059b578661198691600182018155613f87565b9190916105855780518051906001600160401b03821161059b5781906119b6826119b08754613877565b87613ade565b602090601f8311600114611cc657600092611cbb575b50508160011b916000199060031b1c19161782555b60208101516001830180546001600160a01b039283166001600160a01b031991821617909155604083015160028501805491909316911617905560608101518051906001600160401b03821161059b578190611a4d82611a446003880154613877565b60038801613ade565b602090601f8311600114611c4957600092611c3e575b50508160011b916000199060031b1c19161760038301555b60808101518051906001600160401b03821161059b57611aa2826110b66004870154613877565b602090601f8311600114611b9d5760c0611b719794847f74f48835a36ac5fd7d7a1dc680b421425dcf650aba8cd1440817673d60c1483f9b9a9895611b5f9895600695600092611b92575b50508160011b916000199060031b1c19161760048501555b6005840160a0820151611b1781613574565b611b2081613574565b60ff80198354169116179055015191015560405186858237602081888101600881520301902060018060a01b038a166000526020526040600020613b25565b60405192606084526060840191613cb9565b602082019390935242604082015233936001600160a01b03169281900390a3005b015190508f80611aed565b906004850160005260206000209160005b601f1985168110611c265750611b719794600185611b5f989560069560c0957f74f48835a36ac5fd7d7a1dc680b421425dcf650aba8cd1440817673d60c1483f9f9e9c99601f19811610611c0d575b505050811b016004850155611b05565b015160001960f88460031b161c191690558f8080611bfd565b91926020600181928685015181550194019201611bae565b015190508a80611a63565b9250600385016000526020600020906000935b601f1984168510611ca0576001945083601f19811610611c87575b505050811b016003830155611a7b565b015160001960f88460031b161c191690558a8080611c77565b81810151835560209485019460019093019290910190611c5c565b015190508a806119cc565b9250846000526020600020906000935b601f1984168510611d17576001945083601f19811610611cfe575b505050811b0182556119e1565b015160001960f88460031b161c191690558a8080611cf1565b81810151835560209485019460019093019290910190611cd6565b60405162461bcd60e51b815260206004820152601960248201527f46696c65206e616d652063616e6e6f7420626520656d707479000000000000006044820152606490fd5b60405162461bcd60e51b815260206004820152601960248201527f46696c6520747970652063616e6e6f7420626520656d707479000000000000006044820152606490fd5b60405162461bcd60e51b815260206004820152601d60248201527f456e63727970746564206b65792063616e6e6f7420626520656d7074790000006044820152606490fd5b60405162461bcd60e51b815260206004820152602260248201527f546172676574206973206e6f74206120726567697374657265642070617469656044820152611b9d60f21b6064820152608490fd5b3461038e5760208060031936011261038e57611e6b61351e565b9033600052600191828252611e8c8360ff6040600020541661040c81613574565b33600052600c825260406000209060018060a01b031660005281526040600020918254611eb881614131565b93611ec6604051958661397e565b8185526000908152838120848087015b848410611ef0576040518281528061038a8185018b61381b565b85918291604051611f05816105ce81896138b1565b8152019201920191908590611ed6565b3461038e57602036600319011261038e576001600160a01b03611f3661351e565b16600052600260205261038a6105ce610b6f6040600020604051928380926138b1565b3461038e57600036600319011261038e573360005260016020818152611f8b8260ff6040600020541661040c81613574565b33600052600b81526040600020918254611fa481614131565b93611fb2604051958661397e565b8185526000908152838120848087015b848410611fdc576040518281528061038a8185018b61381b565b85918291604051611ff1816105ce81896138b1565b8152019201920191908590611fc2565b3461038e57602036600319011261038e576001600160a01b0361202261351e565b166000526001602052602060ff604060002054166040519061204381613574565b8152f35b3461038e5760208060031936011261038e5760043590336000526001815261207c600160ff6040600020541661040c81613574565b33600052600781526120946040600020548310613ffd565b33600052600781526120aa826040600020613f87565b5091600583018054906120c960ff83166120c381613574565b15614049565b600160ff1980931617905533600052600b8352604060002092835491600160401b83101561059b5761212e86612128857f24055d14743ca3f4c9f408d9ee74f1c45a082e250dca49cb8b49d7b7f697e809986001604098018155613c19565b9061408d565b33600052600982528260002090600287019060018060a01b0390818354169384600052855260ff8660002054161561217d575b50505050815192835282015280611351339460408301906138b1565b6121b5933360005260098652866000209060005285526001866000209182541617905533600052600a84528460002091541690613c31565b85808080612161565b3461038e57600036600319011261038e576000546040516001600160a01b039091168152602090f35b3461038e57602036600319011261038e5760043533600052600160205261221b600160ff6040600020541661040c81613574565b3360005260076020526122346040600020548210613ffd565b3360005260076020527f67813150e12a88a933a212e01460fbb9da398d9f273927860439f64efac5538f61226c826040600020613f87565b5091600583016002815461228660ff82166120c381613574565b60ff19161790556040519081526040602082015280611351339460408301906138b1565b3461038e5760208060031936011261038e576122c461351e565b90336000526001908181526122e58260ff6040600020541661040c81613574565b336000526009815260406000209260018060a01b03169283600052815261231360ff6040600020541661409c565b33600052600981526040600020836000528152604060002060ff199081815416905533600052600b8252828060406000206000925b6123c9575b5050505033600052600c8152604060002083600052815260406000209081549160008155826123a0575b84337f825c8be24eb0df19500f63e86c29e7d0d951e73056b889b891d85e40938d9b6e600080a3005b600052600020908101905b8181106123b85780612377565b806123c384926140e8565b016123ab565b805483101561248a576123dc8382613c19565b5092604051866000958054906123f182613877565b9189888216918260001461247457505060011461243a575b505081866008612432969798520301902088600052865261242d60406000206140e8565b613e40565b919081612348565b9150955060005286806000206000905b8782106124605750509481019481612432612409565b8054848301528a968a93909201910161244a565b1685525050801515028201955081612432612409565b61234d565b3461038e57602036600319011261038e576001600160a01b036124b061351e565b1660005260026020526105ce6124d06040600020604051928380926138b1565b8051156124ef5761038a90604051918291602083526020830190613534565b60405162461bcd60e51b815260206004820152602960248201527f4e6f207075626c6963206b6579207265676973746572656420666f722074686960448201526873206164647265737360b81b6064820152608490fd5b3461038e57602036600319011261038e576001600160a01b0361256761351e565b16600052600460205260406000206009810154604051918280600a83019061258e916138b1565b03612599908461397e565b604051806125a781846138b1565b036125b2908261397e565b604051806125c381600186016138b1565b036125ce908261397e565b604051806125df81600287016138b1565b036125ea908261397e565b60405190816125fc81600388016138b1565b03612607908361397e565b604051928361261981600489016138b1565b03612624908561397e565b60405194856126368160058a016138b1565b03612641908761397e565b60405180600681990190612654916138b1565b0361265f908861397e565b604051988860ff8b9a1615158a528060081c60ff16151560208b015260101c60ff16151560408a01526101608060608b0152890161269c91613534565b88810360808a01526126ad91613534565b87810360a08901526126be91613534565b86810360c08801526126cf91613534565b85810360e08701526126e091613534565b8481036101008601526126f291613534565b83810361012085015261270491613534565b82810361014084015261038a91613534565b3461038e57604036600319011261038e576001600160401b0360043581811161038e5761274790369060040161376e565b60249291923591821161038e576127e5926127696127f793369060040161376e565b949094336000526020956001875261278c60ff60406000205416610db081613574565b33600052600487526127a960ff60096040600020015416156139e0565b6127b4851515613a38565b6127bf821515613a7b565b33600052600187526040600020600160ff19825416179055600287526040600020613b25565b33600052600384526040600020613b25565b600d54600160401b81101561059b576001810180600d5581101561288157600d6000527fd7b6990105719101dabeb77144f2a3385c8033acd3af97e9423a695e81ad1eb501336bffffffffffffffffffffffff60a01b8254161790557f8e18574f8a7333e6a87112742a55853a643e2f0550f4e1a3a2c3f1bb2994441d60405191600183523392a2005b634e487b7160e01b600052603260045260246000fd5b3461038e57604036600319011261038e576128b061351e565b6001600160a01b03602435818116929083900361038e57166000526009602052604060002090600052602052602060ff604060002054166040519015158152f35b3461038e5760208060031936011261038e5761290b61351e565b6000546001600160a01b03906129249082163314613cda565b8116918260005260048152604060002060098101610100815461294960ff8216613d12565b61ffff191617905583600052600182526040600020600260ff198254161790556002825261297e600782016040600020613d6a565b8360005260038252612994816040600020613d6a565b600654600160401b81101561059b57600181018060065581101561288157612a538592612a417f8e18574f8a7333e6a87112742a55853a643e2f0550f4e1a3a2c3f1bb2994441d967f35d45d664b551d0c83facbd3487cca32022a3ed9a515115791992136b270b4ae9460066000527ff652222313e28459528d920b65115c16c04f3efc82aaedc97be59f3f377c0d3f01866bffffffffffffffffffffffff60a01b825416179055613e4f565b604051918291868352868301906138b1565b0390a260405160028152a2005b3461038e57600036600319011261038e57336000526001602081815260ff91612a9481846040600020541661040c81613574565b33600052600a8252604060002092604051808585829754938481520190600052856000209260005b8688838310612c0e5750505050612ad59250038561397e565b60009384835b612ba5575b50612aea85614131565b94612af8604051968761397e565b808652612b07601f1991614131565b01368587013760009182845b612b2b575b6040518681528061038a8189018a6137de565b8251811015612ba0573360009081526009875260409020612b7491906001600160a01b039081612b5b84886141c8565b511660005288528360406000205416612b7a5750613e40565b84612b13565b612b8482866141c8565b5116612b99612b9287613e40565b968a6141c8565b5288610846565b612b18565b8151811015612c095733600090815260098652604090206001600160a01b03612bce83856141c8565b511660005285528260406000205416612bf2575b612bec8491613e40565b90612adb565b94612bec612c008592613e40565b96915050612be2565b612ae0565b86546001600160a01b03168552958101958a95509093019201612abc565b3461038e57600036600319011261038e57336000526001602090808252612c60600260ff604060002054166118a881613574565b60405180918284600d549384815201600d6000527fd7b6990105719101dabeb77144f2a3385c8033acd3af97e9423a695e81ad1eb59260005b87868210612d9057505050612cb09250038361397e565b612cb981614131565b90612cc7604051928361397e565b808252601f19612cd682614131565b018460005b828110612d815750505060005b818110612d1957612d0c8461038a87866040519485946040865260408601906137de565b918483039085015261381b565b612d7c9060018060a01b03817fd7b6990105719101dabeb77144f2a3385c8033acd3af97e9423a695e81ad1eb5015416600052600386526105ce612d676040600020604051928380926138b1565b612d7182866141c8565b5261084681856141c8565b612ce8565b60608582018301528101612cdb565b85546001600160a01b0316845294820194879450909201918101612c99565b3461038e5760208060031936011261038e57600435906001600160401b03821161038e5780612de561078f93369060040161376e565b919082604051938492833781016008815203019020336000528152612e146040600020604051938480926138b1565b815115612e2f5761038a604051928284938452830190613534565b6084906040519062461bcd60e51b82526004820152602360248201527f4e6f20656e63727970746564206b657920666f756e6420666f7220746869732060448201526210d25160ea1b6064820152fd5b3461038e577fb88d3b65fb21588e8792487a88d20d5d3870bd1330fd651c4924d048c15bdc71612eae3661379b565b612f0c60018060a09695961b03612eca81600054163314613cda565b851694856000526004602052612f078385600a604060002060098101620100008154612ef860ff8216613d12565b62ff00ff191617905501613b25565b613e4f565b611351604051928392602084526020840191613cb9565b3461038e57612f313661379b565b33600052600191602091838352612f548460ff6040600020541661040c81613574565b336000526009835260406000209460018060a01b031694856000528352612f8260ff6040600020541661409c565b6040518183823783818381016008815203019020856000528352612faa604060002054613877565b156131b7576040939293518183823784818381016008815203019020856000528452612fd960406000206140e8565b33600052600c845260406000208560005284526040600020836000905b61307a575b50507f42ce86fc65f9662ffd2726937c143668d2bf9b13032b5d04eff61e5883302bc8925033600052600c8452604060002085600052845260406000205415613055575b61052c6040519283928684523396840191613cb9565b33600052600984526040600020856000528452604060002060ff19815416905561303f565b8154808210156131b1576105ce6130946105c18486613c19565b8781519101206130a5368688613c73565b888151910120146130c75750906130be85969592613e40565b90919495612ff6565b6000199181830191821161319b576121286130e56130ed9386613c19565b509185613c19565b815480156131855701906131018282613c19565b95909561058557856131347f42ce86fc65f9662ffd2726937c143668d2bf9b13032b5d04eff61e5883302bc89754613877565b80613145575b505050558580612ffb565b600092601f80831160011461316157505050555b87808061313a565b839161317e9186949585528c8520950160051c8501908501613ac7565b5555613159565b634e487b7160e01b600052603160045260246000fd5b634e487b7160e01b600052601160045260246000fd5b50612ffb565b60405162461bcd60e51b815260048101849052602a60248201527f446f63746f7220646f6573206e6f7420686176652061636365737320746f20746044820152691a1a5cc81c9958dbdc9960b21b6064820152608490fd5b3461038e57600036600319011261038e576000546001600160a01b03906132399082163314613cda565b6005908154906132488261426f565b9260005b838110613261576040518061038a8782613660565b808361326f61333193613be2565b919054600392831b1c1690816000526006610826602092600484526105ce613300604060002092600884015496604051986132a98a613947565b8952604051906132bd8261078f81896138b1565b8901526040516132d4816105ce81600189016138b1565b60408901526040516132ed816105ce81600289016138b1565b60608901526040519283809286016138b1565b6080860152604051613319816105ce81600486016138b1565b60a0860152604051610811816105ce818c86016138b1565b61324c565b3461038e5760208060031936011261038e5761335061351e565b903360005260019182825260ff90613374600283604060002054166118a881613574565b6001600160a01b031660008181526009845260408082203383528552902054821615613480576000526007825260406000206000916000928254935b84811061343c57506133c190614148565b9460009160005b8581106133e2576040518781528061038a818a018b613594565b80838360056133f461340b958a613f87565b5001541661340181613574565b1461341057613e40565b6133c8565b61084661341d8288613f87565b509561342b61091982613e40565b613435828d6141c8565b528a6141c8565b8683600561344a8488613f87565b5001541661345781613574565b1461346b575b61346690613e40565b6133b0565b9061347861346691613e40565b91905061345d565b60405162461bcd60e51b815260048101849052603060248201527f596f7520646f206e6f7420686176652061636365737320746f2074686973207060448201526f617469656e742773207265636f72647360801b6064820152608490fd5b3461038e57602036600319011261038e5761038a906001600160a01b0361350361351e565b166000526003602052610b6f816105ce8160406000206138b1565b600435906001600160a01b038216820361038e57565b919082519283825260005b848110613560575050826000602080949584010152601f8019910116010190565b60208183018101518483018201520161353f565b6003111561357e57565b634e487b7160e01b600052602160045260246000fd5b908082519081815260208091019281808460051b8301019501936000915b8483106135c25750505050505090565b9091929394958480600192601f198582030186528951906136336136206135f1845160e0808652850190613534565b878060a01b03808787015116878601526040908187015116908501526060808601519085830390860152613534565b6080808501519084830390850152613534565b9160a0808201519061364482613574565b83015260c08091015191015298019301930191949392906135b2565b602080820190808352835180925260409283810182858560051b8401019601946000925b858410613695575050505050505090565b909192939495968580600192603f198582030187528a5190848060a01b03825116815261375261373f61372c6137196137066136f36136e189890151610120808c8b0152890190613534565b8d808a015190898303908a0152613534565b6060808901519088830390890152613534565b6080808801519087830390880152613534565b60a0808701519086830390870152613534565b60c0808601519085830390860152613534565b60e0808501519084830390850152613534565b9161010080910151910152990194019401929594939190613684565b9181601f8401121561038e578235916001600160401b03831161038e576020838186019501011161038e57565b90604060031983011261038e576004356001600160a01b038116810361038e5791602435906001600160401b03821161038e576137da9160040161376e565b9091565b90815180825260208080930193019160005b8281106137fe575050505090565b83516001600160a01b0316855293810193928101926001016137f0565b908082519081815260208091019281808460051b8301019501936000915b8483106138495750505050505090565b9091929394958480613867600193601f198682030187528a51613534565b9801930193019194939290613839565b90600182811c921680156138a7575b602083101461389157565b634e487b7160e01b600052602260045260246000fd5b91607f1691613886565b90600092918054916138c283613877565b91828252600193848116908160001461392457506001146138e4575b50505050565b90919394506000526020928360002092846000945b8386106139105750505050010190388080806138de565b8054858701830152940193859082016138f9565b9294505050602093945060ff191683830152151560051b010190388080806138de565b61012081019081106001600160401b0382111761059b57604052565b60e081019081106001600160401b0382111761059b57604052565b90601f801991011681019081106001600160401b0382111761059b57604052565b156139a657565b60405162461bcd60e51b8152602060048201526012602482015271105b1c9958591e481c9959da5cdd195c995960721b6044820152606490fd5b156139e757565b60405162461bcd60e51b815260206004820152602360248201527f446f63746f7220766572696669636174696f6e20616c72656164792070656e64604482015262696e6760e81b6064820152608490fd5b15613a3f57565b60405162461bcd60e51b81526020600482015260146024820152734e616d652063616e6e6f7420626520656d70747960601b6044820152606490fd5b15613a8257565b60405162461bcd60e51b815260206004820152601a60248201527f5075626c6963206b65792063616e6e6f7420626520656d7074790000000000006044820152606490fd5b818110613ad2575050565b60008155600101613ac7565b9190601f8111613aed57505050565b613b19926000526020600020906020601f840160051c83019310613b1b575b601f0160051c0190613ac7565b565b9091508190613b0c565b9092916001600160401b03811161059b57613b44816112878454613877565b6000601f8211600114613b7e5781929394600092613b73575b50508160011b916000199060031b1c1916179055565b013590503880613b5d565b601f198216948382526020918281209281905b888210613bca57505083600195969710613bb0575b505050811b019055565b0135600019600384901b60f8161c19169055388080613ba6565b80600184968294958701358155019501920190613b91565b6005548110156128815760056000527f036b6384b5eca791c62761152d0c79bb0604c104a5fb6f4eb0703f3154bb3db00190600090565b80548210156128815760005260206000200190600090565b90815491600160401b83101561059b5782613c54916001613b1995018155613c19565b90919082549060031b9160018060a01b03809116831b921b1916179055565b9291926001600160401b03821161059b5760405191613c9c601f8201601f19166020018461397e565b82948184528183011161038e578281602093846000960137010152565b908060209392818452848401376000828201840152601f01601f1916010190565b15613ce157565b60405162461bcd60e51b81526020600482015260096024820152682737ba1030b236b4b760b91b6044820152606490fd5b15613d1957565b60405162461bcd60e51b815260206004820152602360248201527f4e6f2070656e64696e67207265717565737420666f722074686973206164647260448201526265737360e81b6064820152608490fd5b90808214613e3c57613d7c8154613877565b906001600160401b03821161059b578190613d9b82610f348654613877565b600090601f8311600114613dd157600092613dc65750508160011b916000199060031b1c1916179055565b015490503880613b5d565b81526020808220858352818320935090601f1985169083905b828210613e23575050908460019594939210613e0a57505050811b019055565b015460001960f88460031b161c19169055388080613ba6565b8495819295850154815560018091019601940190613dea565b5050565b600019811461319b5760010190565b6000905b600591825492838210156138de57613e6a82613be2565b90546003956001600160a01b0392909190871b1c821685831614613e9c57505050613e96919250613e40565b90613e53565b91935091600019918281019190821161319b57613c5484613ebf613ecc94613be2565b905490891b1c1691613be2565b82548015613185570192613edf84613be2565b81939154921b1b1916905555565b15613ef457565b60405162461bcd60e51b8152602060048201526024808201527f4f6e6c7920646f63746f72732063616e20706572666f726d20746869732061636044820152633a34b7b760e11b6064820152608490fd5b15613f4c57565b60405162461bcd60e51b81526020600482015260136024820152724349442063616e6e6f7420626520656d70747960681b6044820152606490fd5b8054821015612881576000526007602060002091020190600090565b15613faa57565b60405162461bcd60e51b815260206004820152602560248201527f4f6e6c792070617469656e74732063616e20706572666f726d2074686973206160448201526431ba34b7b760d91b6064820152608490fd5b1561400457565b60405162461bcd60e51b815260206004820152601a60248201527f5265636f726420696e646578206f7574206f6620626f756e64730000000000006044820152606490fd5b1561405057565b60405162461bcd60e51b81526020600482015260156024820152745265636f7264206973206e6f742070656e64696e6760581b6044820152606490fd5b919061058557613b1991613d6a565b156140a357565b60405162461bcd60e51b815260206004820152601b60248201527f446f63746f7220646f6573206e6f7420686176652061636365737300000000006044820152606490fd5b6140f28154613877565b90816140fc575050565b81601f6000931160011461410e575055565b90808391825261412d601f60208420940160051c840160018501613ac7565b5555565b6001600160401b03811161059b5760051b60200190565b9061415282614131565b6040906141618251918261397e565b8381528093614172601f1991614131565b019160005b8381106141845750505050565b602090825161419281613963565b6060808252839060008284015260008684015280808401526080830152600060a0830152600060c0830152828601015201614177565b80518210156128815760209160051b010190565b906040516141e981613963565b60c060068294604051614200816105ce81856138b1565b845260018060a01b038060018301541660208601526002820154166040850152604051614234816105ce81600386016138b1565b606085015260405161424d816105ce81600486016138b1565b608085015260ff60058201541661426381613574565b60a08501520154910152565b9061427982614131565b6040906142888251918261397e565b8381528093614299601f1991614131565b0191600091825b8481106142ae575050505050565b60209083516142bc81613947565b858152606083908082840152808784015280808401528060808401528060a08401528060c084015260e0830152866101008301528285010152016142a056fea2646970667358221220f9422df1f83242cfdaf13a5faae38b03b54b1cd3e6259a1650226d2c7189f5fa64736f6c63430008140033",
  "linkReferences": {},
  "deployedLinkReferences": {}
}