{
  "_format": "hh-sol-artifact-1",
  "contractName": "MedicalRecordVault",
  "sourceName": "contracts/MedicalRecordVault.sol",
  "abi": [
    {
      "inputs": [],
      "stateMutability": "nonpayable",
      "type": "constructor"
    },
    {
      "anonymous": false,
      "inputs": [
        {
          "indexed": true,
          "internalType": "address",
          "name": "patient",
          "type": "address"
        },
        {
          "indexed": true,
          "internalType": "address",
          "name": "doctor",
          "type": "address"
        },
        {
          "indexed": false,
          "internalType": "string",
          "name": "cid",
          "type": "string"
        }
      ],
      "name": "AccessGranted",
      "type": "event"
    },
    {
      "anonymous": false,
      "inputs": [
        {
          "indexed": true,
          "internalType": "address",
          "name": "patient",
          "type": "address"
        },
        {
          "indexed": true,
          "internalType": "address",
          "name": "doctor",
          "type": "address"
        }
      ],
      "name": "AccessRevoked",
      "type": "event"
    },
    {
      "anonymous": false,
      "inputs": [
        {
          "indexed": true,
          "internalType": "address",
          "name": "doctor",
          "type": "address"
        },
        {
          "indexed": false,
          "internalType": "string",
          "name": "name",
          "type": "string"
        }
      ],
      "name": "DoctorApproved",
      "type": "event"
    },
    {
      "anonymous": false,
      "inputs": [
        {
          "indexed": true,
          "internalType": "address",
          "name": "doctor",
          "type": "address"
        },
        {
          "indexed": false,
          "internalType": "string",
          "name": "reason",
          "type": "string"
        }
      ],
      "name": "DoctorRejected",
      "type": "event"
    },
    {
      "anonymous": false,
      "inputs": [
        {
          "indexed": true,
          "internalType": "address",
          "name": "doctor",
          "type": "address"
        },
        {
          "indexed": false,
          "internalType": "string",
          "name": "name",
          "type": "string"
        },
        {
          "indexed": false,
          "internalType": "string",
          "name": "licenseNumber",
          "type": "string"
        }
      ],
      "name": "DoctorRequestSubmitted",
      "type": "event"
    },
    {
      "anonymous": false,
      "inputs": [
        {
          "indexed": true,
          "internalType": "address",
          "name": "patient",
          "type": "address"
        },
        {
          "indexed": false,
          "internalType": "uint256",
          "name": "recordIndex",
          "type": "uint256"
        },
        {
          "indexed": false,
          "internalType": "string",
          "name": "cid",
          "type": "string"
        }
      ],
      "name": "RecordApproved",
      "type": "event"
    },
    {
      "anonymous": false,
      "inputs": [
        {
          "indexed": true,
          "internalType": "address",
          "name": "patient",
          "type": "address"
        },
        {
          "indexed": false,
          "internalType": "uint256",
          "name": "recordIndex",
          "type": "uint256"
        },
        {
          "indexed": false,
          "internalType": "string",
          "name": "cid",
          "type": "string"
        }
      ],
      "name": "RecordRejected",
      "type": "event"
    },
    {
      "anonymous": false,
      "inputs": [
        {
          "indexed": true,
          "internalType": "address",
          "name": "patient",
          "type": "address"
        },
        {
          "indexed": true,
          "internalType": "address",
          "name": "doctor",
          "type": "address"
        },
        {
          "indexed": false,
          "internalType": "string",
          "name": "cid",
          "type": "string"
        },
        {
          "indexed": false,
          "internalType": "uint256",
          "name": "recordIndex",
          "type": "uint256"
        },
        {
          "indexed": false,
          "internalType": "uint256",
          "name": "timestamp",
          "type": "uint256"
        }
      ],
      "name": "RecordSubmitted",
      "type": "event"
    },
    {
      "anonymous": false,
      "inputs": [
        {
          "indexed": true,
          "internalType": "address",
          "name": "user",
          "type": "address"
        },
        {
          "indexed": false,
          "internalType": "enum MedicalRecordVault.Role",
          "name": "role",
          "type": "uint8"
        }
      ],
      "name": "UserRegistered",
      "type": "event"
    },
    {
      "inputs": [
        {
          "internalType": "address",
          "name": "",
          "type": "address"
        },
        {
          "internalType": "address",
          "name": "",
          "type": "address"
        }
      ],
      "name": "accessList",
      "outputs": [
        {
          "internalType": "bool",
          "name": "",
          "type": "bool"
        }
      ],
      "stateMutability": "view",
      "type": "function"
    },
    {
      "inputs": [
        {
          "internalType": "address",
          "name": "_doctor",
          "type": "address"
        }
      ],
      "name": "approveDoctor",
      "outputs": [],
      "stateMutability": "nonpayable",
      "type": "function"
    },
    {
      "inputs": [
        {
          "internalType": "uint256",
          "name": "_recordIndex",
          "type": "uint256"
        }
      ],
      "name": "approveRecord",
      "outputs": [],
      "stateMutability": "nonpayable",
      "type": "function"
    },
    {
      "inputs": [
        {
          "internalType": "address",
          "name": "",
          "type": "address"
        }
      ],
      "name": "displayNames",
      "outputs": [
        {
          "internalType": "string",
          "name": "",
          "type": "string"
        }
      ],
      "stateMutability": "view",
      "type": "function"
    },
    {
      "inputs": [
        {
          "internalType": "address",
          "name": "",
          "type": "address"
        }
      ],
      "name": "doctorRequests",
      "outputs": [
        {
          "internalType": "string",
          "name": "name",
          "type": "string"
        },
        {
          "internalType": "string",
          "name": "licenseNumber",
          "type": "string"
        },
        {
          "internalType": "string",
          "name": "specialization",
          "type": "string"
        },
        {
          "internalType": "string",
          "name": "hospital",
          "type": "string"
        },
        {
          "internalType": "string",
          "name": "publicKey",
          "type": "string"
        },
        {
          "internalType": "uint256",
          "name": "requestedAt",
          "type": "uint256"
        },
        {
          "internalType": "bool",
          "name": "isPending",
          "type": "bool"
        },
        {
          "internalType": "bool",
          "name": "isApproved",
          "type": "bool"
        },
        {
          "internalType": "bool",
          "name": "isRejected",
          "type": "bool"
        },
        {
          "internalType": "string",
          "name": "rejectReason",
          "type": "string"
        }
      ],
      "stateMutability": "view",
      "type": "function"
    },
    {
      "inputs": [],
      "name": "getApprovedDoctors",
      "outputs": [
        {
          "components": [
            {
              "internalType": "address",
              "name": "addr",
              "type": "address"
            },
            {
              "internalType": "string",
              "name": "name",
              "type": "string"
            },
            {
              "internalType": "string",
              "name": "licenseNumber",
              "type": "string"
            },
            {
              "internalType": "string",
              "name": "specialization",
              "type": "string"
            },
            {
              "internalType": "string",
              "name": "hospital",
              "type": "string"
            },
            {
              "internalType": "uint256",
              "name": "requestedAt",
              "type": "uint256"
            }
          ],
          "internalType": "struct MedicalRecordVault.DoctorRequestView[]",
          "name": "",
          "type": "tuple[]"
        }
      ],
      "stateMutability": "view",
      "type": "function"
    },
    {
      "inputs": [],
      "name": "getAuthorizedDoctors",
      "outputs": [
        {
          "internalType": "address[]",
          "name": "",
          "type": "address[]"
        }
      ],
      "stateMutability": "view",
      "type": "function"
    },
    {
      "inputs": [
        {
          "internalType": "address",
          "name": "_account",
          "type": "address"
        }
      ],
      "name": "getDisplayName",
      "outputs": [
        {
          "internalType": "string",
          "name": "",
          "type": "string"
        }
      ],
      "stateMutability": "view",
      "type": "function"
    },
    {
      "inputs": [
        {
          "internalType": "address",
          "name": "_addr",
          "type": "address"
        }
      ],
      "name": "getDoctorRequest",
      "outputs": [
        {
          "internalType": "bool",
          "name": "isPending",
          "type": "bool"
        },
        {
          "internalType": "bool",
          "name": "isApproved",
          "type": "bool"
        },
        {
          "internalType": "bool",
          "name": "isRejected",
          "type": "bool"
        },
        {
          "internalType": "string",
          "name": "rejectReason",
          "type": "string"
        },
        {
          "internalType": "string",
          "name": "name",
          "type": "string"
        },
        {
          "internalType": "string",
          "name": "licenseNumber",
          "type": "string"
        },
        {
          "internalType": "string",
          "name": "specialization",
          "type": "string"
        },
        {
          "internalType": "string",
          "name": "hospital",
          "type": "string"
        }
      ],
      "stateMutability": "view",
      "type": "function"
    },
    {
      "inputs": [
        {
          "internalType": "string",
          "name": "_cid",
          "type": "string"
        }
      ],
      "name": "getEncryptedKey",
      "outputs": [
        {
          "internalType": "string",
          "name": "",
          "type": "string"
        }
      ],
      "stateMutability": "view",
      "type": "function"
    },
    {
      "inputs": [],
      "name": "getMyCids",
      "outputs": [
        {
          "internalType": "string[]",
          "name": "",
          "type": "string[]"
        }
      ],
      "stateMutability": "view",
      "type": "function"
    },
    {
      "inputs": [],
      "name": "getMyRecords",
      "outputs": [
        {
          "components": [
            {
              "internalType": "string",
              "name": "cid",
              "type": "string"
            },
            {
              "internalType": "address",
              "name": "patientAddress",
              "type": "address"
            },
            {
              "internalType": "address",
              "name": "doctorAddress",
              "type": "address"
            },
            {
              "internalType": "string",
              "name": "fileType",
              "type": "string"
            },
            {
              "internalType": "string",
              "name": "fileName",
              "type": "string"
            },
            {
              "internalType": "enum MedicalRecordVault.RecordStatus",
              "name": "status",
              "type": "uint8"
            },
            {
              "internalType": "uint256",
              "name": "timestamp",
              "type": "uint256"
            }
          ],
          "internalType": "struct MedicalRecordVault.Record[]",
          "name": "",
          "type": "tuple[]"
        }
      ],
      "stateMutability": "view",
      "type": "function"
    },
    {
      "inputs": [
        {
          "internalType": "address",
          "name": "_patient",
          "type": "address"
        }
      ],
      "name": "getPatientRecords",
      "outputs": [
        {
          "components": [
            {
              "internalType": "string",
              "name": "cid",
              "type": "string"
            },
            {
              "internalType": "address",
              "name": "patientAddress",
              "type": "address"
            },
            {
              "internalType": "address",
              "name": "doctorAddress",
              "type": "address"
            },
            {
              "internalType": "string",
              "name": "fileType",
              "type": "string"
            },
            {
              "internalType": "string",
              "name": "fileName",
              "type": "string"
            },
            {
              "internalType": "enum MedicalRecordVault.RecordStatus",
              "name": "status",
              "type": "uint8"
            },
            {
              "internalType": "uint256",
              "name": "timestamp",
              "type": "uint256"
            }
          ],
          "internalType": "struct MedicalRecordVault.Record[]",
          "name": "",
          "type": "tuple[]"
        }
      ],
      "stateMutability": "view",
      "type": "function"
    },
    {
      "inputs": [],
      "name": "getPendingCount",
      "outputs": [
        {
          "internalType": "uint256",
          "name": "",
          "type": "uint256"
        }
      ],
      "stateMutability": "view",
      "type": "function"
    },
    {
      "inputs": [],
      "name": "getPendingDoctorRequests",
      "outputs": [
        {
          "components": [
            {
              "internalType": "address",
              "name": "addr",
              "type": "address"
            },
            {
              "internalType": "string",
              "name": "name",
              "type": "string"
            },
            {
              "internalType": "string",
              "name": "licenseNumber",
              "type": "string"
            },
            {
              "internalType": "string",
              "name": "specialization",
              "type": "string"
            },
            {
              "internalType": "string",
              "name": "hospital",
              "type": "string"
            },
            {
              "internalType": "uint256",
              "name": "requestedAt",
              "type": "uint256"
            }
          ],
          "internalType": "struct MedicalRecordVault.DoctorRequestView[]",
          "name": "",
          "type": "tuple[]"
        }
      ],
      "stateMutability": "view",
      "type": "function"
    },
    {
      "inputs": [],
      "name": "getPendingRecords",
      "outputs": [
        {
          "components": [
            {
              "internalType": "string",
              "name": "cid",
              "type": "string"
            },
            {
              "internalType": "address",
              "name": "patientAddress",
              "type": "address"
            },
            {
              "internalType": "address",
              "name": "doctorAddress",
              "type": "address"
            },
            {
              "internalType": "string",
              "name": "fileType",
              "type": "string"
            },
            {
              "internalType": "string",
              "name": "fileName",
              "type": "string"
            },
            {
              "internalType": "enum MedicalRecordVault.RecordStatus",
              "name": "status",
              "type": "uint8"
            },
            {
              "internalType": "uint256",
              "name": "timestamp",
              "type": "uint256"
            }
          ],
          "internalType": "struct MedicalRecordVault.Record[]",
          "name": "",
          "type": "tuple[]"
        },
        {
          "internalType": "uint256[]",
          "name": "",
          "type": "uint256[]"
        }
      ],
      "stateMutability": "view",
      "type": "function"
    },
    {
      "inputs": [
        {
          "internalType": "address",
          "name": "_account",
          "type": "address"
        }
      ],
      "name": "getPublicKey",
      "outputs": [
        {
          "internalType": "string",
          "name": "",
          "type": "string"
        }
      ],
      "stateMutability": "view",
      "type": "function"
    },
    {
      "inputs": [],
      "name": "getRecordCount",
      "outputs": [
        {
          "internalType": "uint256",
          "name": "",
          "type": "uint256"
        }
      ],
      "stateMutability": "view",
      "type": "function"
    },
    {
      "inputs": [
        {
          "internalType": "address",
          "name": "_account",
          "type": "address"
        }
      ],
      "name": "getRole",
      "outputs": [
        {
          "internalType": "enum MedicalRecordVault.Role",
          "name": "",
          "type": "uint8"
        }
      ],
      "stateMutability": "view",
      "type": "function"
    },
    {
      "inputs": [
        {
          "internalType": "address",
          "name": "_doctor",
          "type": "address"
        },
        {
          "internalType": "string",
          "name": "_cid",
          "type": "string"
        },
        {
          "internalType": "string",
          "name": "_encryptedKeyForDoctor",
          "type": "string"
        }
      ],
      "name": "grantAccess",
      "outputs": [],
      "stateMutability": "nonpayable",
      "type": "function"
    },
    {
      "inputs": [],
      "name": "owner",
      "outputs": [
        {
          "internalType": "address",
          "name": "",
          "type": "address"
        }
      ],
      "stateMutability": "view",
      "type": "function"
    },
    {
      "inputs": [
        {
          "internalType": "address",
          "name": "",
          "type": "address"
        }
      ],
      "name": "publicKeys",
      "outputs": [
        {
          "internalType": "string",
          "name": "",
          "type": "string"
        }
      ],
      "stateMutability": "view",
      "type": "function"
    },
    {
      "inputs": [
        {
          "internalType": "string",
          "name": "_name",
          "type": "string"
        },
        {
          "internalType": "string",
          "name": "_publicKey",
          "type": "string"
        }
      ],
      "name": "registerAsPatient",
      "outputs": [],
      "stateMutability": "nonpayable",
      "type": "function"
    },
    {
      "inputs": [
        {
          "internalType": "address",
          "name": "_doctor",
          "type": "address"
        },
        {
          "internalType": "string",
          "name": "_reason",
          "type": "string"
        }
      ],
      "name": "rejectDoctor",
      "outputs": [],
      "stateMutability": "nonpayable",
      "type": "function"
    },
    {
      "inputs": [
        {
          "internalType": "uint256",
          "name": "_recordIndex",
          "type": "uint256"
        }
      ],
      "name": "rejectRecord",
      "outputs": [],
      "stateMutability": "nonpayable",
      "type": "function"
    },
    {
      "inputs": [
        {
          "internalType": "string",
          "name": "_name",
          "type": "string"
        },
        {
          "internalType": "string",
          "name": "_licenseNumber",
          "type": "string"
        },
        {
          "internalType": "string",
          "name": "_specialization",
          "type": "string"
        },
        {
          "internalType": "string",
          "name": "_hospital",
          "type": "string"
        },
        {
          "internalType": "string",
          "name": "_publicKey",
          "type": "string"
        }
      ],
      "name": "requestDoctorVerification",
      "outputs": [],
      "stateMutability": "nonpayable",
      "type": "function"
    },
    {
      "inputs": [
        {
          "internalType": "address",
          "name": "_doctor",
          "type": "address"
        }
      ],
      "name": "revokeAccess",
      "outputs": [],
      "stateMutability": "nonpayable",
      "type": "function"
    },
    {
      "inputs": [
        {
          "internalType": "address",
          "name": "",
          "type": "address"
        }
      ],
      "name": "roles",
      "outputs": [
        {
          "internalType": "enum MedicalRecordVault.Role",
          "name": "",
          "type": "uint8"
        }
      ],
      "stateMutability": "view",
      "type": "function"
    },
    {
      "inputs": [
        {
          "internalType": "address",
          "name": "_patient",
          "type": "address"
        },
        {
          "internalType": "string",
          "name": "_cid",
          "type": "string"
        },
        {
          "internalType": "string",
          "name": "_encryptedKeyForPatient",
          "type": "string"
        },
        {
          "internalType": "string",
          "name": "_fileType",
          "type": "string"
        },
        {
          "internalType": "string",
          "name": "_fileName",
          "type": "string"
        }
      ],
      "name": "submitRecord",
      "outputs": [],
      "stateMutability": "nonpayable",
      "type": "function"
    }
  ],
  "bytecode": "0x608060405234801561001057600080fd5b50600080546001600160a01b03191633179055614bc0806100326000396000f3fe608060405234801561001057600080fd5b50600436106101cf5760003560e01c80638da5cb5b11610104578063d795ede1116100a2578063e76637ce11610071578063e76637ce14610462578063eb0568451461046a578063f7d9e15714610472578063f7e7bd901461048557600080fd5b8063d795ede11461041e578063dc86638114610426578063e085456714610439578063e6a5210a1461044f57600080fd5b80639e64b856116100de5780639e64b856146103cd578063a3d6f9a9146103e2578063b8278dcf146103f5578063ca267f281461040857600080fd5b80638da5cb5b1461036c578063918c0c431461039757806399374642146103aa57600080fd5b80636160a5c2116101715780637dff00441161014b5780637dff00441461030c578063857cdbb81461033357806385e685311461034657806388c118a91461035957600080fd5b80636160a5c2146102a857806377814646146102bb5780637c2e811a146102f957600080fd5b806330ab126a116101ad57806330ab126a146102325780633a6d50b614610247578063442767331461025a57806350bd43dc1461029357600080fd5b80631042876d146101d457806318bd4847146101fd57806319c2ea861461021d575b600080fd5b6101e76101e2366004613cf5565b6104ae565b6040516101f49190613d5c565b60405180910390f35b61021061020b366004613cf5565b61055a565b6040516101f49190613e90565b6102256109e9565b6040516101f49190613ea3565b610245610240366004613fc8565b610d4f565b005b6101e761025536600461401a565b610e2a565b610286610268366004613cf5565b6001600160a01b031660009081526001602052604090205460ff1690565b6040516101f4919061405b565b61029b610f4c565b6040516101f4919061406e565b6102456102b6366004613cf5565b611193565b6102e96102c93660046140bb565b600960209081526000928352604080842090915290825290205460ff1681565b60405190151581526020016101f4565b6102456103073660046140ee565b611348565b61031f61031a366004613cf5565b6114f7565b6040516101f4989796959493929190614159565b6101e7610341366004613cf5565b61182b565b610245610354366004613cf5565b611936565b6102456103673660046141e4565b611a42565b60005461037f906001600160a01b031681565b6040516001600160a01b0390911681526020016101f4565b6102456103a53660046141e4565b611bb6565b6102866103b8366004613cf5565b60016020526000908152604090205460ff1681565b6103d5611dee565b6040516101f491906141fd565b6101e76103f0366004613cf5565b611f12565b61024561040336600461425f565b611fac565b6104106123fd565b6040519081526020016101f4565b610410612456565b6101e7610434366004613cf5565b61251e565b610441612537565b6040516101f4929190614335565b61024561045d36600461437f565b61298e565b610210612dd4565b6102256131b8565b61024561048036600461446f565b613518565b610498610493366004613cf5565b6137ce565b6040516101f49a999897969594939291906144ef565b6001600160a01b03811660009081526003602052604090208054606091906104d59061459e565b80601f01602080910402602001604051908101604052809291908181526020018280546105019061459e565b801561054e5780601f106105235761010080835404028352916020019161054e565b820191906000526020600020905b81548152906001019060200180831161053157829003601f168201915b50505050509050919050565b606060023360009081526001602052604090205460ff16600281111561058257610582613d6f565b146105a85760405162461bcd60e51b815260040161059f906145d8565b60405180910390fd5b6001600160a01b038216600090815260096020908152604080832033845290915290205460ff166106345760405162461bcd60e51b815260206004820152603060248201527f596f7520646f206e6f7420686176652061636365737320746f2074686973207060448201526f617469656e742773207265636f72647360801b606482015260840161059f565b6001600160a01b038216600090815260076020526040812090805b82548110156106b957600183828154811061066c5761066c61461c565b600091825260209091206005600790920201015460ff16600281111561069457610694613d6f565b036106a757816106a381614648565b9250505b806106b181614648565b91505061064f565b506000816001600160401b038111156106d4576106d4614661565b60405190808252806020026020018201604052801561070d57816020015b6106fa613c63565b8152602001906001900390816106f25790505b5090506000805b84548110156109dc5760018582815481106107315761073161461c565b600091825260209091206005600790920201015460ff16600281111561075957610759613d6f565b036109ca578481815481106107705761077061461c565b90600052602060002090600702016040518060e00160405290816000820180546107999061459e565b80601f01602080910402602001604051908101604052809291908181526020018280546107c59061459e565b80156108125780601f106107e757610100808354040283529160200191610812565b820191906000526020600020905b8154815290600101906020018083116107f557829003601f168201915b505050918352505060018201546001600160a01b039081166020830152600283015416604082015260038201805460609092019161084f9061459e565b80601f016020809104026020016040519081016040528092919081815260200182805461087b9061459e565b80156108c85780601f1061089d576101008083540402835291602001916108c8565b820191906000526020600020905b8154815290600101906020018083116108ab57829003601f168201915b505050505081526020016004820180546108e19061459e565b80601f016020809104026020016040519081016040528092919081815260200182805461090d9061459e565b801561095a5780601f1061092f5761010080835404028352916020019161095a565b820191906000526020600020905b81548152906001019060200180831161093d57829003601f168201915b5050509183525050600582015460209091019060ff16600281111561098157610981613d6f565b600281111561099257610992613d6f565b81526020016006820154815250508383806109ac90614648565b9450815181106109be576109be61461c565b60200260200101819052505b806109d481614648565b915050610714565b509093505050505b919050565b6000546060906001600160a01b03163314610a165760405162461bcd60e51b815260040161059f90614677565b6005546000906001600160401b03811115610a3357610a33614661565b604051908082528060200260200182016040528015610a6c57816020015b610a59613c9f565b815260200190600190039081610a515790505b50905060005b600554811015610d4957600060058281548110610a9157610a9161461c565b60009182526020808320909101546001600160a01b031680835260048252604092839020835160c08101909452818452805491945092918201908390610ad69061459e565b80601f0160208091040260200160405190810160405280929190818152602001828054610b029061459e565b8015610b4f5780601f10610b2457610100808354040283529160200191610b4f565b820191906000526020600020905b815481529060010190602001808311610b3257829003601f168201915b50505050508152602001826001018054610b689061459e565b80601f0160208091040260200160405190810160405280929190818152602001828054610b949061459e565b8015610be15780601f10610bb657610100808354040283529160200191610be1565b820191906000526020600020905b815481529060010190602001808311610bc457829003601f168201915b50505050508152602001826002018054610bfa9061459e565b80601f0160208091040260200160405190810160405280929190818152602001828054610c269061459e565b8015610c735780601f10610c4857610100808354040283529160200191610c73565b820191906000526020600020905b815481529060010190602001808311610c5657829003601f168201915b50505050508152602001826003018054610c8c9061459e565b80601f0160208091040260200160405190810160405280929190818152602001828054610cb89061459e565b8015610d055780601f10610cda57610100808354040283529160200191610d05565b820191906000526020600020905b815481529060010190602001808311610ce857829003601f168201915b505050505081526020018260050154815250848481518110610d2957610d2961461c565b602002602001018190525050508080610d4190614648565b915050610a72565b50905090565b6000546001600160a01b03163314610d795760405162461bcd60e51b815260040161059f90614677565b6001600160a01b0383166000908152600460205260409020600681015460ff16610db55760405162461bcd60e51b815260040161059f9061469a565b60068101805462ff00ff19166201000017905560078101610dd7838583614741565b50610de184613b58565b836001600160a01b03167fb88d3b65fb21588e8792487a88d20d5d3870bd1330fd651c4924d048c15bdc718484604051610e1c929190614824565b60405180910390a250505050565b6060600060088484604051610e40929190614840565b9081526040805160209281900383019020336000908152925290208054610e669061459e565b80601f0160208091040260200160405190810160405280929190818152602001828054610e929061459e565b8015610edf5780601f10610eb457610100808354040283529160200191610edf565b820191906000526020600020905b815481529060010190602001808311610ec257829003601f168201915b505050505090506000815111610f435760405162461bcd60e51b815260206004820152602360248201527f4e6f20656e63727970746564206b657920666f756e6420666f7220746869732060448201526210d25160ea1b606482015260840161059f565b90505b92915050565b606060013360009081526001602052604090205460ff166002811115610f7457610f74613d6f565b14610f915760405162461bcd60e51b815260040161059f90614850565b336000908152600a6020908152604080832080548251818502810185019093528083529192909190830182828015610ff257602002820191906000526020600020905b81546001600160a01b03168152600190910190602001808311610fd4575b505050505090506000805b825181101561107857336000908152600960205260408120845190919085908490811061102c5761102c61461c565b6020908102919091018101516001600160a01b031682528101919091526040016000205460ff1615611066578161106281614648565b9250505b8061107081614648565b915050610ffd565b506000816001600160401b0381111561109357611093614661565b6040519080825280602002602001820160405280156110bc578160200160208202803683370190505b5090506000805b84518110156111895733600090815260096020526040812086519091908790849081106110f2576110f261461c565b6020908102919091018101516001600160a01b031682528101919091526040016000205460ff1615611177578481815181106111305761113061461c565b602002602001015183838061114490614648565b9450815181106111565761115661461c565b60200260200101906001600160a01b031690816001600160a01b0316815250505b8061118181614648565b9150506110c3565b5090935050505090565b6000546001600160a01b031633146111bd5760405162461bcd60e51b815260040161059f90614677565b6001600160a01b0381166000908152600460205260409020600681015460ff166111f95760405162461bcd60e51b815260040161059f9061469a565b60068101805461ffff19166101001790556001600160a01b03821660009081526001602090815260408083208054600260ff19909116811790915590915290206112466004830182614895565b506001600160a01b03821660009081526003602052604090206112698282614895565b50600680546001810182556000919091527ff652222313e28459528d920b65115c16c04f3efc82aaedc97be59f3f377c0d3f0180546001600160a01b0319166001600160a01b0384161790556112be82613b58565b816001600160a01b03167f35d45d664b551d0c83facbd3487cca32022a3ed9a515115791992136b270b4ae826000016040516112fa91906149e8565b60405180910390a2816001600160a01b03167f8e18574f8a7333e6a87112742a55853a643e2f0550f4e1a3a2c3f1bb2994441d600260405161133c919061405b565b60405180910390a25050565b3360009081526001602052604081205460ff16600281111561136c5761136c613d6f565b146113ae5760405162461bcd60e51b8152602060048201526012602482015271105b1c9958591e481c9959da5cdd195c995960721b604482015260640161059f565b3360009081526004602052604090206006015460ff16156113e15760405162461bcd60e51b815260040161059f906149fb565b826114255760405162461bcd60e51b81526020600482015260146024820152734e616d652063616e6e6f7420626520656d70747960601b604482015260640161059f565b806114725760405162461bcd60e51b815260206004820152601a60248201527f5075626c6963206b65792063616e6e6f7420626520656d707479000000000000604482015260640161059f565b336000908152600160208181526040808420805460ff19169093179092556002905290206114a1828483614741565b503360009081526003602052604090206114bc848683614741565b50336001600160a01b03167f8e18574f8a7333e6a87112742a55853a643e2f0550f4e1a3a2c3f1bb2994441d6001604051610e1c919061405b565b6001600160a01b03811660009081526004602052604081206006810154600782018054849384936060938493849384938493919260ff808316936101008404821693620100009004909116918590600182019060028301906003840190859061155f9061459e565b80601f016020809104026020016040519081016040528092919081815260200182805461158b9061459e565b80156115d85780601f106115ad576101008083540402835291602001916115d8565b820191906000526020600020905b8154815290600101906020018083116115bb57829003601f168201915b505050505094508380546115eb9061459e565b80601f01602080910402602001604051908101604052809291908181526020018280546116179061459e565b80156116645780601f1061163957610100808354040283529160200191611664565b820191906000526020600020905b81548152906001019060200180831161164757829003601f168201915b505050505093508280546116779061459e565b80601f01602080910402602001604051908101604052809291908181526020018280546116a39061459e565b80156116f05780601f106116c5576101008083540402835291602001916116f0565b820191906000526020600020905b8154815290600101906020018083116116d357829003601f168201915b505050505092508180546117039061459e565b80601f016020809104026020016040519081016040528092919081815260200182805461172f9061459e565b801561177c5780601f106117515761010080835404028352916020019161177c565b820191906000526020600020905b81548152906001019060200180831161175f57829003601f168201915b5050505050915080805461178f9061459e565b80601f01602080910402602001604051908101604052809291908181526020018280546117bb9061459e565b80156118085780601f106117dd57610100808354040283529160200191611808565b820191906000526020600020905b8154815290600101906020018083116117eb57829003601f168201915b505050505090509850985098509850985098509850985050919395975091939597565b6001600160a01b0381166000908152600260205260408120805460609291906118539061459e565b80601f016020809104026020016040519081016040528092919081815260200182805461187f9061459e565b80156118cc5780601f106118a1576101008083540402835291602001916118cc565b820191906000526020600020905b8154815290600101906020018083116118af57829003601f168201915b505050505090506000815111610f465760405162461bcd60e51b815260206004820152602960248201527f4e6f207075626c6963206b6579207265676973746572656420666f722074686960448201526873206164647265737360b81b606482015260840161059f565b60013360009081526001602052604090205460ff16600281111561195c5761195c613d6f565b146119795760405162461bcd60e51b815260040161059f90614850565b3360009081526009602090815260408083206001600160a01b038516845290915290205460ff166119ec5760405162461bcd60e51b815260206004820152601b60248201527f446f63746f7220646f6573206e6f742068617665206163636573730000000000604482015260640161059f565b3360008181526009602090815260408083206001600160a01b0386168085529252808320805460ff19169055519092917f825c8be24eb0df19500f63e86c29e7d0d951e73056b889b891d85e40938d9b6e91a350565b60013360009081526001602052604090205460ff166002811115611a6857611a68613d6f565b14611a855760405162461bcd60e51b815260040161059f90614850565b336000908152600760205260409020548110611ae35760405162461bcd60e51b815260206004820152601a60248201527f5265636f726420696e646578206f7574206f6620626f756e6473000000000000604482015260640161059f565b336000908152600760205260408120805483908110611b0457611b0461461c565b6000918252602082206007909102019150600582015460ff166002811115611b2e57611b2e613d6f565b14611b735760405162461bcd60e51b81526020600482015260156024820152745265636f7264206973206e6f742070656e64696e6760581b604482015260640161059f565b60058101805460ff1916600217905560405133907f67813150e12a88a933a212e01460fbb9da398d9f273927860439f64efac5538f9061133c9085908590614a3e565b60013360009081526001602052604090205460ff166002811115611bdc57611bdc613d6f565b14611bf95760405162461bcd60e51b815260040161059f90614850565b336000908152600760205260409020548110611c575760405162461bcd60e51b815260206004820152601a60248201527f5265636f726420696e646578206f7574206f6620626f756e6473000000000000604482015260640161059f565b336000908152600760205260408120805483908110611c7857611c7861461c565b6000918252602082206007909102019150600582015460ff166002811115611ca257611ca2613d6f565b14611ce75760405162461bcd60e51b81526020600482015260156024820152745265636f7264206973206e6f742070656e64696e6760581b604482015260640161059f565b60058101805460ff19166001908117909155336000908152600b602090815260408220805493840181558252902001611d208282614895565b5033600090815260096020908152604080832060028501546001600160a01b0316845290915290205460ff16611dba573360008181526009602090815260408083206002860180546001600160a01b039081168652918452828520805460ff19166001908117909155958552600a84529184209154825495860183559184529190922090920180546001600160a01b031916919092161790555b60405133907f24055d14743ca3f4c9f408d9ee74f1c45a082e250dca49cb8b49d7b7f697e8099061133c9085908590614a3e565b606060013360009081526001602052604090205460ff166002811115611e1657611e16613d6f565b14611e335760405162461bcd60e51b815260040161059f90614850565b336000908152600b6020908152604080832080548251818502810185019093528083529193909284015b82821015611f09578382906000526020600020018054611e7c9061459e565b80601f0160208091040260200160405190810160405280929190818152602001828054611ea89061459e565b8015611ef55780601f10611eca57610100808354040283529160200191611ef5565b820191906000526020600020905b815481529060010190602001808311611ed857829003601f168201915b505050505081526020019060010190611e5d565b50505050905090565b60026020526000908152604090208054611f2b9061459e565b80601f0160208091040260200160405190810160405280929190818152602001828054611f579061459e565b8015611fa45780601f10611f7957610100808354040283529160200191611fa4565b820191906000526020600020905b815481529060010190602001808311611f8757829003601f168201915b505050505081565b60023360009081526001602052604090205460ff166002811115611fd257611fd2613d6f565b14611fef5760405162461bcd60e51b815260040161059f906145d8565b60016001600160a01b038a1660009081526001602052604090205460ff16600281111561201e5761201e613d6f565b146120765760405162461bcd60e51b815260206004820152602260248201527f546172676574206973206e6f74206120726567697374657265642070617469656044820152611b9d60f21b606482015260840161059f565b866120b95760405162461bcd60e51b81526020600482015260136024820152724349442063616e6e6f7420626520656d70747960681b604482015260640161059f565b846121065760405162461bcd60e51b815260206004820152601d60248201527f456e63727970746564206b65792063616e6e6f7420626520656d707479000000604482015260640161059f565b826121535760405162461bcd60e51b815260206004820152601960248201527f46696c6520747970652063616e6e6f7420626520656d70747900000000000000604482015260640161059f565b806121a05760405162461bcd60e51b815260206004820152601960248201527f46696c65206e616d652063616e6e6f7420626520656d70747900000000000000604482015260640161059f565b6001600160a01b03891660009081526007602090815260409182902080548351610100601f8d018590049094028101840190945260e084018b8152909391928291908d908d90819085018382808284376000920191909152505050908252506001600160a01b038d16602080830191909152336040808401919091528051601f8a01839004830281018301909152888152606090920191908990899081908401838280828437600092019190915250505090825250604080516020601f880181900481028201810190925286815291810191908790879081908401838280828437600092018290525093855250506020909201915081524260209182015282546001810184556000938452922081519192600702019081906122c29082614a57565b5060208201516001820180546001600160a01b039283166001600160a01b0319918216179091556040840151600284018054919093169116179055606082015160038201906123119082614a57565b50608082015160048201906123269082614a57565b5060a082015160058201805460ff1916600183600281111561234a5761234a613d6f565b021790555060c082015181600601555050868660088b8b60405161236f929190614840565b90815260408051602092819003830190206001600160a01b038f166000908152925290209161239f919083614741565b50336001600160a01b03168a6001600160a01b03167f74f48835a36ac5fd7d7a1dc680b421425dcf650aba8cd1440817673d60c1483f8b8b85426040516123e99493929190614b08565b60405180910390a350505050505050505050565b600060013360009081526001602052604090205460ff16600281111561242557612425613d6f565b146124425760405162461bcd60e51b815260040161059f90614850565b503360009081526007602052604090205490565b600060013360009081526001602052604090205460ff16600281111561247e5761247e613d6f565b1461249b5760405162461bcd60e51b815260040161059f90614850565b33600090815260076020526040812090805b82548110156125175760008382815481106124ca576124ca61461c565b600091825260209091206005600790920201015460ff1660028111156124f2576124f2613d6f565b03612505578161250181614648565b9250505b8061250f81614648565b9150506124ad565b5091505090565b60036020526000908152604090208054611f2b9061459e565b60608060013360009081526001602052604090205460ff16600281111561256057612560613d6f565b1461257d5760405162461bcd60e51b815260040161059f90614850565b33600090815260076020526040812090805b82548110156125f95760008382815481106125ac576125ac61461c565b600091825260209091206005600790920201015460ff1660028111156125d4576125d4613d6f565b036125e757816125e381614648565b9250505b806125f181614648565b91505061258f565b506000816001600160401b0381111561261457612614614661565b60405190808252806020026020018201604052801561264d57816020015b61263a613c63565b8152602001906001900390816126325790505b5090506000826001600160401b0381111561266a5761266a614661565b604051908082528060200260200182016040528015612693578160200160208202803683370190505b5090506000805b85548110156129815760008682815481106126b7576126b761461c565b600091825260209091206005600790920201015460ff1660028111156126df576126df613d6f565b0361296f578581815481106126f6576126f661461c565b90600052602060002090600702016040518060e001604052908160008201805461271f9061459e565b80601f016020809104026020016040519081016040528092919081815260200182805461274b9061459e565b80156127985780601f1061276d57610100808354040283529160200191612798565b820191906000526020600020905b81548152906001019060200180831161277b57829003601f168201915b505050918352505060018201546001600160a01b03908116602083015260028301541660408201526003820180546060909201916127d59061459e565b80601f01602080910402602001604051908101604052809291908181526020018280546128019061459e565b801561284e5780601f106128235761010080835404028352916020019161284e565b820191906000526020600020905b81548152906001019060200180831161283157829003601f168201915b505050505081526020016004820180546128679061459e565b80601f01602080910402602001604051908101604052809291908181526020018280546128939061459e565b80156128e05780601f106128b5576101008083540402835291602001916128e0565b820191906000526020600020905b8154815290600101906020018083116128c357829003601f168201915b5050509183525050600582015460209091019060ff16600281111561290757612907613d6f565b600281111561291857612918613d6f565b81526020016006820154815250508483815181106129385761293861461c565b6020026020010181905250808383815181106129565761295661461c565b60209081029190910101528161296b81614648565b9250505b8061297981614648565b91505061269a565b5091955093505050509091565b3360009081526001602052604081205460ff1660028111156129b2576129b2613d6f565b146129f45760405162461bcd60e51b8152602060048201526012602482015271105b1c9958591e481c9959da5cdd195c995960721b604482015260640161059f565b3360009081526004602052604090206006015460ff1615612a275760405162461bcd60e51b815260040161059f906149fb565b88612a6b5760405162461bcd60e51b81526020600482015260146024820152734e616d652063616e6e6f7420626520656d70747960601b604482015260640161059f565b86612ab85760405162461bcd60e51b815260206004820152601e60248201527f4c6963656e7365206e756d6265722063616e6e6f7420626520656d7074790000604482015260640161059f565b80612b055760405162461bcd60e51b815260206004820152601a60248201527f5075626c6963206b65792063616e6e6f7420626520656d707479000000000000604482015260640161059f565b6040518061014001604052808b8b8080601f016020809104026020016040519081016040528093929190818152602001838380828437600092019190915250505090825250604080516020601f8c018190048102820181019092528a815291810191908b908b9081908401838280828437600092019190915250505090825250604080516020601f8a0181900481028201810190925288815291810191908990899081908401838280828437600092019190915250505090825250604080516020601f880181900481028201810190925286815291810191908790879081908401838280828437600092019190915250505090825250604080516020601f8601819004810282018101909252848152918101919085908590819084018382808284376000920182905250938552505042602080850191909152600160408086019190915260608501849052608085018490528051808301825284815260a09095019490945233835260049052502081518190612c819082614a57565b5060208201516001820190612c969082614a57565b5060408201516002820190612cab9082614a57565b5060608201516003820190612cc09082614a57565b5060808201516004820190612cd59082614a57565b5060a0820151600582015560c082015160068201805460e08501516101008087015161ffff1990931694151561ff001916949094179015159093029290921762ff0000191662010000921515929092029190911790556101208201516007820190612d409082614a57565b5050600580546001810182556000919091527f036b6384b5eca791c62761152d0c79bb0604c104a5fb6f4eb0703f3154bb3db00180546001600160a01b031916339081179091556040519091507fa10fac549d353fda0c9e8727471521d618e71c7ad4bea1441e49cce316ce216b90612dc0908d908d908d908d90614b2f565b60405180910390a250505050505050505050565b606060013360009081526001602052604090205460ff166002811115612dfc57612dfc613d6f565b14612e195760405162461bcd60e51b815260040161059f90614850565b33600090815260076020526040812090805b8254811015612e95576001838281548110612e4857612e4861461c565b600091825260209091206005600790920201015460ff166002811115612e7057612e70613d6f565b03612e835781612e7f81614648565b9250505b80612e8d81614648565b915050612e2b565b506000816001600160401b03811115612eb057612eb0614661565b604051908082528060200260200182016040528015612ee957816020015b612ed6613c63565b815260200190600190039081612ece5790505b5090506000805b8454811015611189576001858281548110612f0d57612f0d61461c565b600091825260209091206005600790920201015460ff166002811115612f3557612f35613d6f565b036131a657848181548110612f4c57612f4c61461c565b90600052602060002090600702016040518060e0016040529081600082018054612f759061459e565b80601f0160208091040260200160405190810160405280929190818152602001828054612fa19061459e565b8015612fee5780601f10612fc357610100808354040283529160200191612fee565b820191906000526020600020905b815481529060010190602001808311612fd157829003601f168201915b505050918352505060018201546001600160a01b039081166020830152600283015416604082015260038201805460609092019161302b9061459e565b80601f01602080910402602001604051908101604052809291908181526020018280546130579061459e565b80156130a45780601f10613079576101008083540402835291602001916130a4565b820191906000526020600020905b81548152906001019060200180831161308757829003601f168201915b505050505081526020016004820180546130bd9061459e565b80601f01602080910402602001604051908101604052809291908181526020018280546130e99061459e565b80156131365780601f1061310b57610100808354040283529160200191613136565b820191906000526020600020905b81548152906001019060200180831161311957829003601f168201915b5050509183525050600582015460209091019060ff16600281111561315d5761315d613d6f565b600281111561316e5761316e613d6f565b815260200160068201548152505083838061318890614648565b94508151811061319a5761319a61461c565b60200260200101819052505b806131b081614648565b915050612ef0565b6000546060906001600160a01b031633146131e55760405162461bcd60e51b815260040161059f90614677565b6006546000906001600160401b0381111561320257613202614661565b60405190808252806020026020018201604052801561323b57816020015b613228613c9f565b8152602001906001900390816132205790505b50905060005b600654811015610d49576000600682815481106132605761326061461c565b60009182526020808320909101546001600160a01b031680835260048252604092839020835160c081019094528184528054919450929182019083906132a59061459e565b80601f01602080910402602001604051908101604052809291908181526020018280546132d19061459e565b801561331e5780601f106132f35761010080835404028352916020019161331e565b820191906000526020600020905b81548152906001019060200180831161330157829003601f168201915b505050505081526020018260010180546133379061459e565b80601f01602080910402602001604051908101604052809291908181526020018280546133639061459e565b80156133b05780601f10613385576101008083540402835291602001916133b0565b820191906000526020600020905b81548152906001019060200180831161339357829003601f168201915b505050505081526020018260020180546133c99061459e565b80601f01602080910402602001604051908101604052809291908181526020018280546133f59061459e565b80156134425780601f1061341757610100808354040283529160200191613442565b820191906000526020600020905b81548152906001019060200180831161342557829003601f168201915b5050505050815260200182600301805461345b9061459e565b80601f01602080910402602001604051908101604052809291908181526020018280546134879061459e565b80156134d45780601f106134a9576101008083540402835291602001916134d4565b820191906000526020600020905b8154815290600101906020018083116134b757829003601f168201915b5050505050815260200182600501548152508484815181106134f8576134f861461c565b60200260200101819052505050808061351090614648565b915050613241565b60013360009081526001602052604090205460ff16600281111561353e5761353e613d6f565b1461355b5760405162461bcd60e51b815260040161059f90614850565b60026001600160a01b03861660009081526001602052604090205460ff16600281111561358a5761358a613d6f565b146135e15760405162461bcd60e51b815260206004820152602160248201527f546172676574206973206e6f742061207265676973746572656420646f63746f6044820152603960f91b606482015260840161059f565b826136245760405162461bcd60e51b81526020600482015260136024820152724349442063616e6e6f7420626520656d70747960681b604482015260640161059f565b600060088585604051613638929190614840565b908152604080516020928190038301902033600090815292529020805461365e9061459e565b9050116136ad5760405162461bcd60e51b815260206004820152601a60248201527f596f7520646f206e6f74206f776e2074686973207265636f7264000000000000604482015260640161059f565b3360009081526009602090815260408083206001600160a01b038916845290915290205460ff16613735573360008181526009602090815260408083206001600160a01b038a16808552908352818420805460ff19166001908117909155948452600a8352908320805494850181558352912090910180546001600160a01b03191690911790555b818160088686604051613749929190614840565b90815260408051602092819003830190206001600160a01b038a1660009081529252902091613779919083614741565b50846001600160a01b0316336001600160a01b03167fc7e5c007251689b9bc3cb624f55714afc5988f3e3b4e20cc6a606d7bad6faeca86866040516137bf929190614824565b60405180910390a35050505050565b6004602052600090815260409020805481906137e99061459e565b80601f01602080910402602001604051908101604052809291908181526020018280546138159061459e565b80156138625780601f1061383757610100808354040283529160200191613862565b820191906000526020600020905b81548152906001019060200180831161384557829003601f168201915b5050505050908060010180546138779061459e565b80601f01602080910402602001604051908101604052809291908181526020018280546138a39061459e565b80156138f05780601f106138c5576101008083540402835291602001916138f0565b820191906000526020600020905b8154815290600101906020018083116138d357829003601f168201915b5050505050908060020180546139059061459e565b80601f01602080910402602001604051908101604052809291908181526020018280546139319061459e565b801561397e5780601f106139535761010080835404028352916020019161397e565b820191906000526020600020905b81548152906001019060200180831161396157829003601f168201915b5050505050908060030180546139939061459e565b80601f01602080910402602001604051908101604052809291908181526020018280546139bf9061459e565b8015613a0c5780601f106139e157610100808354040283529160200191613a0c565b820191906000526020600020905b8154815290600101906020018083116139ef57829003601f168201915b505050505090806004018054613a219061459e565b80601f0160208091040260200160405190810160405280929190818152602001828054613a4d9061459e565b8015613a9a5780601f10613a6f57610100808354040283529160200191613a9a565b820191906000526020600020905b815481529060010190602001808311613a7d57829003601f168201915b50505050600583015460068401546007850180549495929460ff808416955061010084048116946201000090940416929190613ad59061459e565b80601f0160208091040260200160405190810160405280929190818152602001828054613b019061459e565b8015613b4e5780601f10613b2357610100808354040283529160200191613b4e565b820191906000526020600020905b815481529060010190602001808311613b3157829003601f168201915b505050505090508a565b60005b600554811015613c5f57816001600160a01b031660058281548110613b8257613b8261461c565b6000918252602090912001546001600160a01b031603613c4d5760058054613bac90600190614b61565b81548110613bbc57613bbc61461c565b600091825260209091200154600580546001600160a01b039092169183908110613be857613be861461c565b9060005260206000200160006101000a8154816001600160a01b0302191690836001600160a01b031602179055506005805480613c2757613c27614b74565b600082815260209020810160001990810180546001600160a01b03191690550190555050565b80613c5781614648565b915050613b5b565b5050565b6040805160e081018252606080825260006020830181905292820183905280820181905260808201529060a08201908152602001600081525090565b6040518060c0016040528060006001600160a01b0316815260200160608152602001606081526020016060815260200160608152602001600081525090565b80356001600160a01b03811681146109e457600080fd5b600060208284031215613d0757600080fd5b613d1082613cde565b9392505050565b60008151808452602060005b82811015613d3e578481018201518682018301528101613d23565b506000858301820152601f909101601f191690930190920192915050565b602081526000613d106020830184613d17565b634e487b7160e01b600052602160045260246000fd5b60038110613da357634e487b7160e01b600052602160045260246000fd5b50565b613daf81613d85565b9052565b600082825180855260208086019550808260051b84010181860160005b84811015613e8357601f19868403018952815160e08151818652613df682870182613d17565b838801516001600160a01b03908116888a015260408086015190911690880152606080850151888303828a01529193509150613e328382613d17565b9250505060808083015186830382880152613e4d8382613d17565b9250505060a080830151613e6382880182613da6565b505060c09182015194909101939093529783019790830190600101613dd0565b5090979650505050505050565b602081526000613d106020830184613db3565b60006020808301818452808551808352604092508286019150828160051b87010184880160005b83811015613f7257888303603f19018552815180516001600160a01b031684528781015160c089860181905290613f0382870182613d17565b9150508782015185820389870152613f1b8282613d17565b91505060608083015186830382880152613f358382613d17565b9250505060808083015186830382880152613f508382613d17565b60a0948501519790940196909652505094870194925090860190600101613eca565b509098975050505050505050565b60008083601f840112613f9257600080fd5b5081356001600160401b03811115613fa957600080fd5b602083019150836020828501011115613fc157600080fd5b9250929050565b600080600060408486031215613fdd57600080fd5b613fe684613cde565b925060208401356001600160401b0381111561400157600080fd5b61400d86828701613f80565b9497909650939450505050565b6000806020838503121561402d57600080fd5b82356001600160401b0381111561404357600080fd5b61404f85828601613f80565b90969095509350505050565b6020810161406883613d85565b91905290565b6020808252825182820181905260009190848201906040850190845b818110156140af5783516001600160a01b03168352928401929184019160010161408a565b50909695505050505050565b600080604083850312156140ce57600080fd5b6140d783613cde565b91506140e560208401613cde565b90509250929050565b6000806000806040858703121561410457600080fd5b84356001600160401b038082111561411b57600080fd5b61412788838901613f80565b9096509450602087013591508082111561414057600080fd5b5061414d87828801613f80565b95989497509550505050565b60006101008a151583528915156020840152881515604084015280606084015261418581840189613d17565b905082810360808401526141998188613d17565b905082810360a08401526141ad8187613d17565b905082810360c08401526141c18186613d17565b905082810360e08401526141d58185613d17565b9b9a5050505050505050505050565b6000602082840312156141f657600080fd5b5035919050565b6000602080830181845280855180835260408601915060408160051b870101925083870160005b8281101561425257603f19888603018452614240858351613d17565b94509285019290850190600101614224565b5092979650505050505050565b600080600080600080600080600060a08a8c03121561427d57600080fd5b6142868a613cde565b985060208a01356001600160401b03808211156142a257600080fd5b6142ae8d838e01613f80565b909a50985060408c01359150808211156142c757600080fd5b6142d38d838e01613f80565b909850965060608c01359150808211156142ec57600080fd5b6142f88d838e01613f80565b909650945060808c013591508082111561431157600080fd5b5061431e8c828d01613f80565b915080935050809150509295985092959850929598565b6040815260006143486040830185613db3565b82810360208481019190915284518083528582019282019060005b81811015613e8357845183529383019391830191600101614363565b60008060008060008060008060008060a08b8d03121561439e57600080fd5b8a356001600160401b03808211156143b557600080fd5b6143c18e838f01613f80565b909c509a5060208d01359150808211156143da57600080fd5b6143e68e838f01613f80565b909a50985060408d01359150808211156143ff57600080fd5b61440b8e838f01613f80565b909850965060608d013591508082111561442457600080fd5b6144308e838f01613f80565b909650945060808d013591508082111561444957600080fd5b506144568d828e01613f80565b915080935050809150509295989b9194979a5092959850565b60008060008060006060868803121561448757600080fd5b61449086613cde565b945060208601356001600160401b03808211156144ac57600080fd5b6144b889838a01613f80565b909650945060408801359150808211156144d157600080fd5b506144de88828901613f80565b969995985093965092949392505050565b60006101408083526145038184018e613d17565b90508281036020840152614517818d613d17565b9050828103604084015261452b818c613d17565b9050828103606084015261453f818b613d17565b90508281036080840152614553818a613d17565b90508760a084015286151560c084015285151560e084015261457a61010084018615159052565b82810361012084015261458d8185613d17565b9d9c50505050505050505050505050565b600181811c908216806145b257607f821691505b6020821081036145d257634e487b7160e01b600052602260045260246000fd5b50919050565b60208082526024908201527f4f6e6c7920646f63746f72732063616e20706572666f726d20746869732061636040820152633a34b7b760e11b606082015260800190565b634e487b7160e01b600052603260045260246000fd5b634e487b7160e01b600052601160045260246000fd5b60006001820161465a5761465a614632565b5060010190565b634e487b7160e01b600052604160045260246000fd5b6020808252600990820152682737ba1030b236b4b760b91b604082015260600190565b60208082526023908201527f4e6f2070656e64696e67207265717565737420666f722074686973206164647260408201526265737360e81b606082015260800190565b601f82111561472757600081815260208120601f850160051c810160208610156147045750805b601f850160051c820191505b8181101561472357828155600101614710565b5050505b505050565b600019600383901b1c191660019190911b1790565b6001600160401b0383111561475857614758614661565b61476c83614766835461459e565b836146dd565b6000601f84116001811461479a57600085156147885750838201355b614792868261472c565b8455506147f4565b600083815260209020601f19861690835b828110156147cb57868501358255602094850194600190920191016147ab565b50868210156147e85760001960f88860031b161c19848701351681555b505060018560011b0183555b5050505050565b81835281816020850137506000828201602090810191909152601f909101601f19169091010190565b6020815260006148386020830184866147fb565b949350505050565b8183823760009101908152919050565b60208082526025908201527f4f6e6c792070617469656e74732063616e20706572666f726d2074686973206160408201526431ba34b7b760d91b606082015260800190565b8181036148a0575050565b6148aa825461459e565b6001600160401b038111156148c1576148c1614661565b6148d5816148cf845461459e565b846146dd565b6000601f82116001811461490357600083156148f15750848201545b6148fb848261472c565b8555506147f4565b600085815260209020601f19841690600086815260209020845b8381101561493d578286015482556001958601959091019060200161491d565b508583101561495b5781850154600019600388901b60f8161c191681555b5050505050600190811b01905550565b600081546149788161459e565b80855260206001838116801561499557600181146149af576149dd565b60ff1985168884015283151560051b8801830195506149dd565b866000528260002060005b858110156149d55781548a82018601529083019084016149ba565b890184019650505b505050505092915050565b602081526000613d10602083018461496b565b60208082526023908201527f446f63746f7220766572696669636174696f6e20616c72656164792070656e64604082015262696e6760e81b606082015260800190565b828152604060208201526000614838604083018461496b565b81516001600160401b03811115614a7057614a70614661565b614a7e816148cf845461459e565b602080601f831160018114614aad5760008415614a9b5750858301515b614aa5858261472c565b865550614723565b600085815260208120601f198616915b82811015614adc57888601518255948401946001909101908401614abd565b508582101561495b57939096015160001960f8600387901b161c19169092555050600190811b01905550565b606081526000614b1c6060830186886147fb565b6020830194909452506040015292915050565b604081526000614b436040830186886147fb565b8281036020840152614b568185876147fb565b979650505050505050565b81810381811115610f4657610f46614632565b634e487b7160e01b600052603160045260246000fdfea26469706673582212208ebca34ae9db09fd5195275e2ad63ba44f693d6608f097f3388e3d8d2463bd1c64736f6c63430008140033",
  "linkReferences": {},
  "deployedLinkReferences": {}
}