{
  "_format": "hh-sol-artifact-1",
  "contractName": "MedicalRecordVault",
  "sourceName": "contracts/MedicalRecordVault.sol",
  "abi": [
    {
      "inputs": [],
      "stateMutability": "nonpayable",
      "type": "constructor"
    },
    {
      "anonymous": false,
      "inputs": [
        {
          "indexed": true,
          "internalType": "address",
          "name": "patient",
          "type": "address"
        },
        {
          "indexed": true,
          "internalType": "address",
          "name": "doctor",
          "type": "address"
        },
        {
          "indexed": false,
          "internalType": "string",
          "name": "cid",
          "type": "string"
        }
      ],
      "name": "AccessGranted",
      "type": "event"
    },
    {
      "anonymous": false,
      "inputs": [
        {
          "indexed": true,
          "internalType": "address",
          "name": "patient",
          "type": "address"
        },
        {
          "indexed": true,
          "internalType": "address",
          "name": "doctor",
          "type": "address"
        }
      ],
      "name": "AccessRevoked",
      "type": "event"
    },
    {
      "anonymous": false,
      "inputs": [
        {
          "indexed": true,
          "internalType": "address",
          "name": "patient",
          "type": "address"
        },
        {
          "indexed": true,
          "internalType": "address",
          "name": "doctor",
          "type": "address"
        },
        {
          "indexed": false,
          "internalType": "string",
          "name": "cid",
          "type": "string"
        }
      ],
      "name": "AccessRevokedForCid",
      "type": "event"
    },
    {
      "anonymous": false,
      "inputs": [
        {
          "indexed": true,
          "internalType": "address",
          "name": "doctor",
          "type": "address"
        },
        {
          "indexed": false,
          "internalType": "string",
          "name": "name",
          "type": "string"
        }
      ],
      "name": "DoctorApproved",
      "type": "event"
    },
    {
      "anonymous": false,
      "inputs": [
        {
          "indexed": true,
          "internalType": "address",
          "name": "doctor",
          "type": "address"
        },
        {
          "indexed": false,
          "internalType": "string",
          "name": "reason",
          "type": "string"
        }
      ],
      "name": "DoctorRejected",
      "type": "event"
    },
    {
      "anonymous": false,
      "inputs": [
        {
          "indexed": true,
          "internalType": "address",
          "name": "doctor",
          "type": "address"
        },
        {
          "indexed": false,
          "internalType": "string",
          "name": "name",
          "type": "string"
        },
        {
          "indexed": false,
          "internalType": "string",
          "name": "licenseNumber",
          "type": "string"
        }
      ],
      "name": "DoctorRequestSubmitted",
      "type": "event"
    },
    {
      "anonymous": false,
      "inputs": [
        {
          "indexed": true,
          "internalType": "address",
          "name": "patient",
          "type": "address"
        },
        {
          "indexed": false,
          "internalType": "uint256",
          "name": "recordIndex",
          "type": "uint256"
        },
        {
          "indexed": false,
          "internalType": "string",
          "name": "cid",
          "type": "string"
        }
      ],
      "name": "RecordApproved",
      "type": "event"
    },
    {
      "anonymous": false,
      "inputs": [
        {
          "indexed": true,
          "internalType": "address",
          "name": "patient",
          "type": "address"
        },
        {
          "indexed": false,
          "internalType": "uint256",
          "name": "recordIndex",
          "type": "uint256"
        },
        {
          "indexed": false,
          "internalType": "string",
          "name": "cid",
          "type": "string"
        }
      ],
      "name": "RecordRejected",
      "type": "event"
    },
    {
      "anonymous": false,
      "inputs": [
        {
          "indexed": true,
          "internalType": "address",
          "name": "patient",
          "type": "address"
        },
        {
          "indexed": true,
          "internalType": "address",
          "name": "doctor",
          "type": "address"
        },
        {
          "indexed": false,
          "internalType": "string",
          "name": "cid",
          "type": "string"
        },
        {
          "indexed": false,
          "internalType": "uint256",
          "name": "recordIndex",
          "type": "uint256"
        },
        {
          "indexed": false,
          "internalType": "uint256",
          "name": "timestamp",
          "type": "uint256"
        }
      ],
      "name": "RecordSubmitted",
      "type": "event"
    },
    {
      "anonymous": false,
      "inputs": [
        {
          "indexed": true,
          "internalType": "address",
          "name": "user",
          "type": "address"
        },
        {
          "indexed": false,
          "internalType": "enum MedicalRecordVault.Role",
          "name": "role",
          "type": "uint8"
        }
      ],
      "name": "UserRegistered",
      "type": "event"
    },
    {
      "inputs": [
        {
          "internalType": "address",
          "name": "",
          "type": "address"
        },
        {
          "internalType": "address",
          "name": "",
          "type": "address"
        }
      ],
      "name": "accessList",
      "outputs": [
        {
          "internalType": "bool",
          "name": "",
          "type": "bool"
        }
      ],
      "stateMutability": "view",
      "type": "function"
    },
    {
      "inputs": [
        {
          "internalType": "address",
          "name": "_doctor",
          "type": "address"
        }
      ],
      "name": "approveDoctor",
      "outputs": [],
      "stateMutability": "nonpayable",
      "type": "function"
    },
    {
      "inputs": [
        {
          "internalType": "uint256",
          "name": "_recordIndex",
          "type": "uint256"
        }
      ],
      "name": "approveRecord",
      "outputs": [],
      "stateMutability": "nonpayable",
      "type": "function"
    },
    {
      "inputs": [
        {
          "internalType": "address",
          "name": "",
          "type": "address"
        }
      ],
      "name": "displayNames",
      "outputs": [
        {
          "internalType": "string",
          "name": "",
          "type": "string"
        }
      ],
      "stateMutability": "view",
      "type": "function"
    },
    {
      "inputs": [
        {
          "internalType": "address",
          "name": "",
          "type": "address"
        }
      ],
      "name": "doctorRequests",
      "outputs": [
        {
          "internalType": "string",
          "name": "name",
          "type": "string"
        },
        {
          "internalType": "string",
          "name": "licenseNumber",
          "type": "string"
        },
        {
          "internalType": "string",
          "name": "specialization",
          "type": "string"
        },
        {
          "internalType": "string",
          "name": "hospital",
          "type": "string"
        },
        {
          "internalType": "string",
          "name": "ktpNumber",
          "type": "string"
        },
        {
          "internalType": "string",
          "name": "phoneNumber",
          "type": "string"
        },
        {
          "internalType": "string",
          "name": "photoCid",
          "type": "string"
        },
        {
          "internalType": "string",
          "name": "publicKey",
          "type": "string"
        },
        {
          "internalType": "uint256",
          "name": "requestedAt",
          "type": "uint256"
        },
        {
          "internalType": "bool",
          "name": "isPending",
          "type": "bool"
        },
        {
          "internalType": "bool",
          "name": "isApproved",
          "type": "bool"
        },
        {
          "internalType": "bool",
          "name": "isRejected",
          "type": "bool"
        },
        {
          "internalType": "string",
          "name": "rejectReason",
          "type": "string"
        }
      ],
      "stateMutability": "view",
      "type": "function"
    },
    {
      "inputs": [
        {
          "internalType": "address",
          "name": "_doctor",
          "type": "address"
        }
      ],
      "name": "getAccessibleCidsForDoctor",
      "outputs": [
        {
          "internalType": "string[]",
          "name": "",
          "type": "string[]"
        }
      ],
      "stateMutability": "view",
      "type": "function"
    },
    {
      "inputs": [],
      "name": "getApprovedDoctors",
      "outputs": [
        {
          "components": [
            {
              "internalType": "address",
              "name": "addr",
              "type": "address"
            },
            {
              "internalType": "string",
              "name": "name",
              "type": "string"
            },
            {
              "internalType": "string",
              "name": "licenseNumber",
              "type": "string"
            },
            {
              "internalType": "string",
              "name": "specialization",
              "type": "string"
            },
            {
              "internalType": "string",
              "name": "hospital",
              "type": "string"
            },
            {
              "internalType": "string",
              "name": "ktpNumber",
              "type": "string"
            },
            {
              "internalType": "string",
              "name": "phoneNumber",
              "type": "string"
            },
            {
              "internalType": "string",
              "name": "photoCid",
              "type": "string"
            },
            {
              "internalType": "uint256",
              "name": "requestedAt",
              "type": "uint256"
            }
          ],
          "internalType": "struct MedicalRecordVault.DoctorRequestView[]",
          "name": "",
          "type": "tuple[]"
        }
      ],
      "stateMutability": "view",
      "type": "function"
    },
    {
      "inputs": [],
      "name": "getAuthorizedDoctors",
      "outputs": [
        {
          "internalType": "address[]",
          "name": "",
          "type": "address[]"
        }
      ],
      "stateMutability": "view",
      "type": "function"
    },
    {
      "inputs": [
        {
          "internalType": "address",
          "name": "_account",
          "type": "address"
        }
      ],
      "name": "getDisplayName",
      "outputs": [
        {
          "internalType": "string",
          "name": "",
          "type": "string"
        }
      ],
      "stateMutability": "view",
      "type": "function"
    },
    {
      "inputs": [
        {
          "internalType": "address",
          "name": "_addr",
          "type": "address"
        }
      ],
      "name": "getDoctorRequest",
      "outputs": [
        {
          "internalType": "bool",
          "name": "isPending",
          "type": "bool"
        },
        {
          "internalType": "bool",
          "name": "isApproved",
          "type": "bool"
        },
        {
          "internalType": "bool",
          "name": "isRejected",
          "type": "bool"
        },
        {
          "internalType": "string",
          "name": "rejectReason",
          "type": "string"
        },
        {
          "internalType": "string",
          "name": "name",
          "type": "string"
        },
        {
          "internalType": "string",
          "name": "licenseNumber",
          "type": "string"
        },
        {
          "internalType": "string",
          "name": "specialization",
          "type": "string"
        },
        {
          "internalType": "string",
          "name": "hospital",
          "type": "string"
        },
        {
          "internalType": "string",
          "name": "ktpNumber",
          "type": "string"
        },
        {
          "internalType": "string",
          "name": "phoneNumber",
          "type": "string"
        },
        {
          "internalType": "string",
          "name": "photoCid",
          "type": "string"
        }
      ],
      "stateMutability": "view",
      "type": "function"
    },
    {
      "inputs": [
        {
          "internalType": "string",
          "name": "_cid",
          "type": "string"
        }
      ],
      "name": "getEncryptedKey",
      "outputs": [
        {
          "internalType": "string",
          "name": "",
          "type": "string"
        }
      ],
      "stateMutability": "view",
      "type": "function"
    },
    {
      "inputs": [],
      "name": "getMyCids",
      "outputs": [
        {
          "internalType": "string[]",
          "name": "",
          "type": "string[]"
        }
      ],
      "stateMutability": "view",
      "type": "function"
    },
    {
      "inputs": [],
      "name": "getMyRecords",
      "outputs": [
        {
          "components": [
            {
              "internalType": "string",
              "name": "cid",
              "type": "string"
            },
            {
              "internalType": "address",
              "name": "patientAddress",
              "type": "address"
            },
            {
              "internalType": "address",
              "name": "doctorAddress",
              "type": "address"
            },
            {
              "internalType": "string",
              "name": "fileType",
              "type": "string"
            },
            {
              "internalType": "string",
              "name": "fileName",
              "type": "string"
            },
            {
              "internalType": "string",
              "name": "notes",
              "type": "string"
            },
            {
              "internalType": "enum MedicalRecordVault.RecordStatus",
              "name": "status",
              "type": "uint8"
            },
            {
              "internalType": "uint256",
              "name": "timestamp",
              "type": "uint256"
            }
          ],
          "internalType": "struct MedicalRecordVault.Record[]",
          "name": "",
          "type": "tuple[]"
        }
      ],
      "stateMutability": "view",
      "type": "function"
    },
    {
      "inputs": [],
      "name": "getPatientList",
      "outputs": [
        {
          "internalType": "address[]",
          "name": "addrs",
          "type": "address[]"
        },
        {
          "internalType": "string[]",
          "name": "names",
          "type": "string[]"
        }
      ],
      "stateMutability": "view",
      "type": "function"
    },
    {
      "inputs": [
        {
          "internalType": "address",
          "name": "_patient",
          "type": "address"
        }
      ],
      "name": "getPatientRecords",
      "outputs": [
        {
          "components": [
            {
              "internalType": "string",
              "name": "cid",
              "type": "string"
            },
            {
              "internalType": "address",
              "name": "patientAddress",
              "type": "address"
            },
            {
              "internalType": "address",
              "name": "doctorAddress",
              "type": "address"
            },
            {
              "internalType": "string",
              "name": "fileType",
              "type": "string"
            },
            {
              "internalType": "string",
              "name": "fileName",
              "type": "string"
            },
            {
              "internalType": "string",
              "name": "notes",
              "type": "string"
            },
            {
              "internalType": "enum MedicalRecordVault.RecordStatus",
              "name": "status",
              "type": "uint8"
            },
            {
              "internalType": "uint256",
              "name": "timestamp",
              "type": "uint256"
            }
          ],
          "internalType": "struct MedicalRecordVault.Record[]",
          "name": "",
          "type": "tuple[]"
        }
      ],
      "stateMutability": "view",
      "type": "function"
    },
    {
      "inputs": [],
      "name": "getPendingCount",
      "outputs": [
        {
          "internalType": "uint256",
          "name": "",
          "type": "uint256"
        }
      ],
      "stateMutability": "view",
      "type": "function"
    },
    {
      "inputs": [],
      "name": "getPendingDoctorRequests",
      "outputs": [
        {
          "components": [
            {
              "internalType": "address",
              "name": "addr",
              "type": "address"
            },
            {
              "internalType": "string",
              "name": "name",
              "type": "string"
            },
            {
              "internalType": "string",
              "name": "licenseNumber",
              "type": "string"
            },
            {
              "internalType": "string",
              "name": "specialization",
              "type": "string"
            },
            {
              "internalType": "string",
              "name": "hospital",
              "type": "string"
            },
            {
              "internalType": "string",
              "name": "ktpNumber",
              "type": "string"
            },
            {
              "internalType": "string",
              "name": "phoneNumber",
              "type": "string"
            },
            {
              "internalType": "string",
              "name": "photoCid",
              "type": "string"
            },
            {
              "internalType": "uint256",
              "name": "requestedAt",
              "type": "uint256"
            }
          ],
          "internalType": "struct MedicalRecordVault.DoctorRequestView[]",
          "name": "",
          "type": "tuple[]"
        }
      ],
      "stateMutability": "view",
      "type": "function"
    },
    {
      "inputs": [],
      "name": "getPendingRecords",
      "outputs": [
        {
          "components": [
            {
              "internalType": "string",
              "name": "cid",
              "type": "string"
            },
            {
              "internalType": "address",
              "name": "patientAddress",
              "type": "address"
            },
            {
              "internalType": "address",
              "name": "doctorAddress",
              "type": "address"
            },
            {
              "internalType": "string",
              "name": "fileType",
              "type": "string"
            },
            {
              "internalType": "string",
              "name": "fileName",
              "type": "string"
            },
            {
              "internalType": "string",
              "name": "notes",
              "type": "string"
            },
            {
              "internalType": "enum MedicalRecordVault.RecordStatus",
              "name": "status",
              "type": "uint8"
            },
            {
              "internalType": "uint256",
              "name": "timestamp",
              "type": "uint256"
            }
          ],
          "internalType": "struct MedicalRecordVault.Record[]",
          "name": "",
          "type": "tuple[]"
        },
        {
          "internalType": "uint256[]",
          "name": "",
          "type": "uint256[]"
        }
      ],
      "stateMutability": "view",
      "type": "function"
    },
    {
      "inputs": [
        {
          "internalType": "address",
          "name": "_account",
          "type": "address"
        }
      ],
      "name": "getPublicKey",
      "outputs": [
        {
          "internalType": "string",
          "name": "",
          "type": "string"
        }
      ],
      "stateMutability": "view",
      "type": "function"
    },
    {
      "inputs": [],
      "name": "getRecordCount",
      "outputs": [
        {
          "internalType": "uint256",
          "name": "",
          "type": "uint256"
        }
      ],
      "stateMutability": "view",
      "type": "function"
    },
    {
      "inputs": [
        {
          "internalType": "address",
          "name": "_account",
          "type": "address"
        }
      ],
      "name": "getRole",
      "outputs": [
        {
          "internalType": "enum MedicalRecordVault.Role",
          "name": "",
          "type": "uint8"
        }
      ],
      "stateMutability": "view",
      "type": "function"
    },
    {
      "inputs": [
        {
          "internalType": "address",
          "name": "_doctor",
          "type": "address"
        },
        {
          "internalType": "string",
          "name": "_cid",
          "type": "string"
        },
        {
          "internalType": "string",
          "name": "_encryptedKeyForDoctor",
          "type": "string"
        }
      ],
      "name": "grantAccess",
      "outputs": [],
      "stateMutability": "nonpayable",
      "type": "function"
    },
    {
      "inputs": [],
      "name": "owner",
      "outputs": [
        {
          "internalType": "address",
          "name": "",
          "type": "address"
        }
      ],
      "stateMutability": "view",
      "type": "function"
    },
    {
      "inputs": [
        {
          "internalType": "address",
          "name": "",
          "type": "address"
        }
      ],
      "name": "publicKeys",
      "outputs": [
        {
          "internalType": "string",
          "name": "",
          "type": "string"
        }
      ],
      "stateMutability": "view",
      "type": "function"
    },
    {
      "inputs": [
        {
          "internalType": "string",
          "name": "_name",
          "type": "string"
        },
        {
          "internalType": "string",
          "name": "_publicKey",
          "type": "string"
        }
      ],
      "name": "registerAsPatient",
      "outputs": [],
      "stateMutability": "nonpayable",
      "type": "function"
    },
    {
      "inputs": [
        {
          "internalType": "address",
          "name": "_doctor",
          "type": "address"
        },
        {
          "internalType": "string",
          "name": "_reason",
          "type": "string"
        }
      ],
      "name": "rejectDoctor",
      "outputs": [],
      "stateMutability": "nonpayable",
      "type": "function"
    },
    {
      "inputs": [
        {
          "internalType": "uint256",
          "name": "_recordIndex",
          "type": "uint256"
        }
      ],
      "name": "rejectRecord",
      "outputs": [],
      "stateMutability": "nonpayable",
      "type": "function"
    },
    {
      "inputs": [
        {
          "internalType": "string",
          "name": "_name",
          "type": "string"
        },
        {
          "internalType": "string",
          "name": "_licenseNumber",
          "type": "string"
        },
        {
          "internalType": "string",
          "name": "_specialization",
          "type": "string"
        },
        {
          "internalType": "string",
          "name": "_hospital",
          "type": "string"
        },
        {
          "internalType": "string",
          "name": "_ktpNumber",
          "type": "string"
        },
        {
          "internalType": "string",
          "name": "_phoneNumber",
          "type": "string"
        },
        {
          "internalType": "string",
          "name": "_photoCid",
          "type": "string"
        },
        {
          "internalType": "string",
          "name": "_publicKey",
          "type": "string"
        }
      ],
      "name": "requestDoctorVerification",
      "outputs": [],
      "stateMutability": "nonpayable",
      "type": "function"
    },
    {
      "inputs": [
        {
          "internalType": "address",
          "name": "_doctor",
          "type": "address"
        }
      ],
      "name": "revokeAccess",
      "outputs": [],
      "stateMutability": "nonpayable",
      "type": "function"
    },
    {
      "inputs": [
        {
          "internalType": "address",
          "name": "_doctor",
          "type": "address"
        },
        {
          "internalType": "string",
          "name": "_cid",
          "type": "string"
        }
      ],
      "name": "revokeAccessForCid",
      "outputs": [],
      "stateMutability": "nonpayable",
      "type": "function"
    },
    {
      "inputs": [
        {
          "internalType": "address",
          "name": "",
          "type": "address"
        }
      ],
      "name": "roles",
      "outputs": [
        {
          "internalType": "enum MedicalRecordVault.Role",
          "name": "",
          "type": "uint8"
        }
      ],
      "stateMutability": "view",
      "type": "function"
    },
    {
      "inputs": [
        {
          "internalType": "address",
          "name": "_patient",
          "type": "address"
        },
        {
          "internalType": "string",
          "name": "_cid",
          "type": "string"
        },
        {
          "internalType": "string",
          "name": "_encryptedKeyForPatient",
          "type": "string"
        },
        {
          "internalType": "string",
          "name": "_fileType",
          "type": "string"
        },
        {
          "internalType": "string",
          "name": "_fileName",
          "type": "string"
        },
        {
          "internalType": "string",
          "name": "_notes",
          "type": "string"
        }
      ],
      "name": "submitRecord",
      "outputs": [],
      "stateMutability": "nonpayable",
      "type": "function"
    }
  ],
  "bytecode": "0x6080806040523461002857600080546001600160a01b03191633179055614479908161002e8239f35b600080fdfe61012080604052600436101561001457600080fd5b60003560e01c9081631042876d146135f05750806318bd48471461344857806319c2ea86146133215780632ca4862b1461303557806330ab126a14612f915780633a6d50b614612ec1578063442767331461199c578063503b135414612d3e57806350bd43dc14612b725780636160a5c214612a0357806377814646146129a95780637c2e811a146128285780637dff004414612658578063857cdbb8146125a157806385e68531146123bc57806388c118a9146122f957806389a82c2914611b825780638da5cb5b14611b59578063918c0c43146119e2578063993746421461199c5780639e64b856146118f4578063a3d6f9a9146118b0578063b3826156146117ec578063c696f00c14610c6c578063ca267f2814610c22578063d795ede114610b83578063dc86638114610b2b578063e085456714610974578063e76637ce14610851578063eb056845146106da578063f7d9e157146103935763f7e7bd901461018057600080fd5b3461038e57602036600319011261038e576001600160a01b036101a1613630565b1660005260046020526040600020604051806101bd81846139da565b036101c89082613aa8565b60405191826101da81600184016139da565b036101e59084613aa8565b604051806101f681600285016139da565b036102019082613aa8565b604051908161021381600386016139da565b0361021e9083613aa8565b6040518061022f81600487016139da565b0361023a9082613aa8565b6040518061024b81600588016139da565b036102569082613aa8565b604051908161026881600689016139da565b036102739083613aa8565b60405192836102858160078a016139da565b036102909085613aa8565b60088701549560098801549560405180600a819b01906102af916139da565b036102ba908a613aa8565b6040519a8b9a6101a0808d528c016102d191613646565b8b810360208d01526102e291613646565b8a810360408c01526102f391613646565b89810360608b015261030491613646565b88810360808a015261031591613646565b87810360a089015261032691613646565b86810360c088015261033791613646565b85810360e087015261034891613646565b9161010085015260ff811615156101208501528060081c60ff16151561014085015260101c60ff16151561016084015282810361018084015261038a91613646565b0390f35b600080fd5b3461038e57606036600319011261038e576103ac613630565b6001600160401b0360243581811161038e576103cc903690600401613897565b909160443590811161038e576103e6903690600401613897565b929092336000526001906020948286526104128360ff6040600020541661040c81613686565b146140cd565b60018060a01b0387169687600052838752600260ff6040600020541661043781613686565b0361068b5761044786151561406f565b604051868682378781888101600881520301902033600052875261046f6040600020546139a0565b1561064657906104c192913360005260098852604060002089600052885260ff6040600020541615610608575b5060405186868237878188810160088152030190208860005287526040600020613c4f565b600033600052600c8552604060002086600052855260406000206000918154925b8381106105b1575b5015610531575b5050507fc7e5c007251689b9bc3cb624f55714afc5988f3e3b4e20cc6a606d7bad6faeca9161052c6040519283928684523396840191613de3565b0390a3005b600160401b82101561059b5761054a9282018155613d43565b9290926105855761057d81837fc7e5c007251689b9bc3cb624f55714afc5988f3e3b4e20cc6a606d7bad6faeca95613c4f565b9185806104f1565b634e487b7160e01b600052600060045260246000fd5b634e487b7160e01b600052604160045260246000fd5b6105ce6105d56105c18386613d43565b50604051928380926139da565b0382613aa8565b8881519101206105e6368989613d9d565b898151910120146105ff576105fa90613f6a565b6104e2565b505082886104ea565b61064090336000526009895260406000208a600052895260406000208660ff1982541617905533600052600a89526040600020613d5b565b8861049c565b60405162461bcd60e51b815260048101889052601a60248201527f596f7520646f206e6f74206f776e2074686973207265636f72640000000000006044820152606490fd5b60405162461bcd60e51b815260048101889052602160248201527f546172676574206973206e6f742061207265676973746572656420646f63746f6044820152603960f91b6064820152608490fd5b3461038e57600036600319011261038e576000546001600160a01b03906107049082163314613e04565b6006805490610712826143b7565b9260005b83811061072b576040518061038a8782613789565b808261084c927ff652222313e28459528d920b65115c16c04f3efc82aaedc97be59f3f377c0d3f015416806000526020600481528561082660406000206008810154936040519561077b87613a70565b8652604051906107968261078f81866139da565b0383613aa8565b8601526040516107ad816105ce81600186016139da565b60408601526040516107c6816105ce81600286016139da565b60608601526040516107df816105ce81600386016139da565b60808601526040516107f8816105ce81600486016139da565b60a0860152604051610811816105ce81600586016139da565b60c08601526105ce60405180948193016139da565b60e083015261010082015261083b82886142f8565b5261084681876142f8565b50613f6a565b610716565b3461038e57600036600319011261038e573360005260018060205260ff61088382826040600020541661040c81613686565b33600052600760205260406000206000916000928254935b84811061093057506108ac90614272565b9360009160005b8581106108d0576040516020808252819061038a9082018a6136a6565b80838360066108e26108f9958a6140b1565b500154166108ef81613686565b146108fe57613f6a565b6108b3565b61084661090b82886140b1565b509561091f61091982613f6a565b9761430c565b610929828c6142f8565b52896142f8565b8583600661093e84886140b1565b5001541661094b81613686565b1461095f575b61095a90613f6a565b61089b565b9061096c61095a91613f6a565b919050610951565b3461038e57600036600319011261038e5733600052600160209080825260ff906109a981836040600020541661040c81613686565b33600052600783526040600020926000808554905b818110610add57506109cf82614272565b946109f26109dc8461425b565b936109ea6040519586613aa8565b80855261425b565b8385019790601f190136893760009160005b848110610a5957505050505081610a26604051956040875260408701906136a6565b9185830382870152519182815201949160005b828110610a465785870386f35b8351875295810195928101928401610a39565b816006610a6c83869d9b9d9a999a6140b1565b50015416610a7981613686565b15610a93575b610a8890613f6a565b989698959495610a04565b92610ad5610a8891610aae610aa887876140b1565b5061430c565b610ab8828d6142f8565b52610ac3818c6142f8565b5085610acf828b6142f8565b52613f6a565b939050610a7f565b856006610aef838a989a9796976140b1565b50015416610afc81613686565b15610b16575b610b0b90613f6a565b9593959291926109be565b92610b23610b0b91613f6a565b939050610b02565b3461038e57602036600319011261038e576001600160a01b03610b4c613630565b16600052600360205261038a6105ce610b6f6040600020604051928380926139da565b604051918291602083526020830190613646565b3461038e57600036600319011261038e5733600052600160205260ff610bb56001826040600020541661040c81613686565b33600052600760205260406000206000916000918054925b838110610bdf57602085604051908152f35b826006610bec83856140b1565b50015416610bf981613686565b15610c0d575b610c0890613f6a565b610bcd565b93610c1a610c0891613f6a565b949050610bff565b3461038e57600036600319011261038e57336000526001602052610c53600160ff6040600020541661040c81613686565b3360005260076020526020604060002054604051908152f35b3461038e5761010036600319011261038e576004356001600160401b03811161038e57610c9d903690600401613897565b610100526080526024356001600160401b03811161038e57610cc3903690600401613897565b60e05260a0526044356001600160401b03811161038e57610ce8903690600401613897565b906064356001600160401b03811161038e57610d08903690600401613897565b6084939193356001600160401b03811161038e57610d2a903690600401613897565b93909260a4356001600160401b03811161038e57610d4c903690600401613897565b919060c4356001600160401b03811161038e57610d6d903690600401613897565b93909460e4356001600160401b03811161038e57610d8f903690600401613897565b989099336000526001602052610db660ff60406000205416610db081613686565b15613ac9565b336000526004602052610dd460ff6009604060002001541615613b0a565b610de2610100511515613b62565b60e051156117a757610df58a1515613ba5565b604051958660c052866101a08101106001600160401b036101a08901111761059b57610eab9c610e9e9a610e66610e8296610e74946101a0610e909c01604052610e453661010051608051613d9d565b60c05152610e583660e05160a051613d9d565b602060c05101523691613d9d565b604060c05101523691613d9d565b606060c05101523691613d9d565b608060c05101523691613d9d565b60a060c05101523691613d9d565b60c0805101523691613d9d565b60e060c05101524261010060c0510152600161012060c0510152600061014060c0510152600061016060c0510152604051602081018181106001600160401b0382111761059b576040526000815261018060c0510152336000526004602052604060002060c051518051906001600160401b03821161059b578190610f3a82610f3486546139a0565b86613c08565b602090601f831160011461173b57600092611730575b50508160011b916000199060031b1c19161781555b602060c05101518051906001600160401b03821161059b578190610f9982610f9060018701546139a0565b60018701613c08565b602090601f83116001146116be576000926116b3575b50508160011b916000199060031b1c19161760018201555b604060c05101518051906001600160401b03821161059b578190610ffb82610ff260028701546139a0565b60028701613c08565b602090601f831160011461164157600092611636575b50508160011b916000199060031b1c19161760028201555b606060c05101518051906001600160401b03821161059b57819061105d8261105460038701546139a0565b60038701613c08565b602090601f83116001146115c4576000926115b9575b50508160011b916000199060031b1c19161760038201555b608060c05101518051906001600160401b03821161059b5781906110bf826110b660048701546139a0565b60048701613c08565b602090601f83116001146115475760009261153c575b50508160011b916000199060031b1c19161760048201555b60a060c05101518051906001600160401b03821161059b5781906111218261111860058701546139a0565b60058701613c08565b602090601f83116001146114ca576000926114bf575b50508160011b916000199060031b1c19161760058201555b60c0805101518051906001600160401b03821161059b5781906111828261117960068701546139a0565b60068701613c08565b602090601f831160011461144d57600092611442575b50508160011b916000199060031b1c19161760068201555b60e060c05101518051906001600160401b03821161059b5781906111e4826111db60078701546139a0565b60078701613c08565b602090601f83116001146113d0576000926113c5575b50508160011b916000199060031b1c19161760078201555b610180600a60c051926101008401516008820155600981016101208501511515815461ff00610140880151151560081b169060ff62ff00006101608a0151151560101b1693169062ffffff19161717179055019101519081516001600160401b03811161059b5761128d8161128784546139a0565b84613c08565b602092601f82116001146113615792819293600092611356575b50508160011b916000199060031b1c19161790555b600554600160401b81101561059b576112de8160016112fc9301600555613d0c565b81546001600160a01b0360039290921b91821b19163390911b179055565b604051604081527fa10fac549d353fda0c9e8727471521d618e71c7ad4bea1441e49cce316ce216b6113376040830161010051608051613de3565b91808303602082015280611351339460e05160a051613de3565b0390a2005b0151905083806112a7565b601f198216938360005260206000209160005b8681106113ad5750836001959610611394575b505050811b0190556112bc565b015160001960f88460031b161c19169055838080611387565b91926020600181928685015181550194019201611374565b0151905083806111fa565b9250600784016000526020600020906000935b601f1984168510611427576001945083601f1981161061140e575b505050811b016007820155611212565b015160001960f88460031b161c191690558380806113fe565b818101518355602094850194600190930192909101906113e3565b015190508380611198565b9250600684016000526020600020906000935b601f19841685106114a4576001945083601f1981161061148b575b505050811b0160068201556111b0565b015160001960f88460031b161c1916905583808061147b565b81810151835560209485019460019093019290910190611460565b015190508380611137565b9250600584016000526020600020906000935b601f1984168510611521576001945083601f19811610611508575b505050811b01600582015561114f565b015160001960f88460031b161c191690558380806114f8565b818101518355602094850194600190930192909101906114dd565b0151905083806110d5565b9250600484016000526020600020906000935b601f198416851061159e576001945083601f19811610611585575b505050811b0160048201556110ed565b015160001960f88460031b161c19169055838080611575565b8181015183556020948501946001909301929091019061155a565b015190508380611073565b9250600384016000526020600020906000935b601f198416851061161b576001945083601f19811610611602575b505050811b01600382015561108b565b015160001960f88460031b161c191690558380806115f2565b818101518355602094850194600190930192909101906115d7565b015190508380611011565b9250600284016000526020600020906000935b601f1984168510611698576001945083601f1981161061167f575b505050811b016002820155611029565b015160001960f88460031b161c1916905583808061166f565b81810151835560209485019460019093019290910190611654565b015190508380610faf565b9250600184016000526020600020906000935b601f1984168510611715576001945083601f198116106116fc575b505050811b016001820155610fc7565b015160001960f88460031b161c191690558380806116ec565b818101518355602094850194600190930192909101906116d1565b015190508380610f50565b9250836000526020600020906000935b601f198416851061178c576001945083601f19811610611773575b505050811b018155610f65565b015160001960f88460031b161c19169055838080611766565b8181015183556020948501946001909301929091019061174b565b60405162461bcd60e51b815260206004820152601e60248201527f4c6963656e7365206e756d6265722063616e6e6f7420626520656d70747900006044820152606490fd5b3461038e5760208060031936011261038e57611806613630565b90336000526001918282526118278360ff6040600020541661040c81613686565b33600052600c825260406000209060018060a01b0316600052815260406000209182546118538161425b565b936118616040519586613aa8565b8185526000908152838120848087015b84841061188b576040518281528061038a8185018b613944565b859182916040516118a0816105ce81896139da565b8152019201920191908590611871565b3461038e57602036600319011261038e576001600160a01b036118d1613630565b16600052600260205261038a6105ce610b6f6040600020604051928380926139da565b3461038e57600036600319011261038e5733600052600160208181526119268260ff6040600020541661040c81613686565b33600052600b8152604060002091825461193f8161425b565b9361194d6040519586613aa8565b8185526000908152838120848087015b848410611977576040518281528061038a8185018b613944565b8591829160405161198c816105ce81896139da565b815201920192019190859061195d565b3461038e57602036600319011261038e576001600160a01b036119bd613630565b166000526001602052602060ff60406000205416604051906119de81613686565b8152f35b3461038e5760208060031936011261038e57600435903360005260018152611a17600160ff6040600020541661040c81613686565b3360005260078152611a2f6040600020548310614127565b3360005260078152611a458260406000206140b1565b509160068301805490611a6460ff8316611a5e81613686565b15614173565b600160ff1980931617905533600052600b8352604060002092835491600160401b83101561059b57611ac986611ac3857f24055d14743ca3f4c9f408d9ee74f1c45a082e250dca49cb8b49d7b7f697e809986001604098018155613d43565b906141b7565b33600052600982528260002090600287019060018060a01b0390818354169384600052855260ff86600020541615611b18575b50505050815192835282015280611351339460408301906139da565b611b50933360005260098652866000209060005285526001866000209182541617905533600052600a84528460002091541690613d5b565b85808080611afc565b3461038e57600036600319011261038e576000546040516001600160a01b039091168152602090f35b3461038e5760c036600319011261038e57611b9b613630565b6024356001600160401b03811161038e57611bba903690600401613897565b6044356001600160401b03811161038e57611bd9903690600401613897565b6064939193356001600160401b03811161038e57611bfb903690600401613897565b6084959195356001600160401b03811161038e57611c1d903690600401613897565b9060a4356001600160401b03811161038e57611c3d903690600401613897565b9091336000526001602052611c65600260ff60406000205416611c5f81613686565b14614017565b60018060a01b038b166000526001602052600160ff60406000205416611c8a81613686565b036122a957611c9a89151561406f565b861561226457841561221f5783156121da57600160a01b600190038b16600052600760205260406000209384549a60405196611cd588613a8c565b611ce0368d8d613d9d565b88526001600160a01b038e166020890152336040890152611d0391369190613d9d565b60608701523690611d1392613d9d565b60808501523690611d2392613d9d565b60a0830152600060c08301524260e0830152600160401b87101561059b5786611d51916001820181556140b1565b9190916105855780518051906001600160401b03821161059b578190611d8182611d7b87546139a0565b87613c08565b602090601f831160011461216e57600092612163575b50508160011b916000199060031b1c19161782555b60208101516001830180546001600160a01b039283166001600160a01b031991821617909155604083015160028501805491909316911617905560608101518051906001600160401b03821161059b578190611e1882611e0f60038801546139a0565b60038801613c08565b602090601f83116001146120f1576000926120e6575b50508160011b916000199060031b1c19161760038301555b60808101518051906001600160401b03821161059b578190611e7882611e6f60048801546139a0565b60048801613c08565b602090601f831160011461207457600092612069575b50508160011b916000199060031b1c19161760048301555b60a08101518051906001600160401b03821161059b57611ecd8261111860058701546139a0565b602090601f8311600114611fc85760e0611f9c9794847f74f48835a36ac5fd7d7a1dc680b421425dcf650aba8cd1440817673d60c1483f9b9a9895611f8a9895600795600092611fbd575b50508160011b916000199060031b1c19161760058501555b6006840160c0820151611f4281613686565b611f4b81613686565b60ff80198354169116179055015191015560405186858237602081888101600881520301902060018060a01b038a166000526020526040600020613c4f565b60405192606084526060840191613de3565b602082019390935242604082015233936001600160a01b03169281900390a3005b015190508f80611f18565b906005850160005260206000209160005b601f19851681106120515750611f9c9794600185611f8a989560079560e0957f74f48835a36ac5fd7d7a1dc680b421425dcf650aba8cd1440817673d60c1483f9f9e9c99601f19811610612038575b505050811b016005850155611f30565b015160001960f88460031b161c191690558f8080612028565b91926020600181928685015181550194019201611fd9565b015190508a80611e8e565b9250600485016000526020600020906000935b601f19841685106120cb576001945083601f198116106120b2575b505050811b016004830155611ea6565b015160001960f88460031b161c191690558a80806120a2565b81810151835560209485019460019093019290910190612087565b015190508a80611e2e565b9250600385016000526020600020906000935b601f1984168510612148576001945083601f1981161061212f575b505050811b016003830155611e46565b015160001960f88460031b161c191690558a808061211f565b81810151835560209485019460019093019290910190612104565b015190508a80611d97565b9250846000526020600020906000935b601f19841685106121bf576001945083601f198116106121a6575b505050811b018255611dac565b015160001960f88460031b161c191690558a8080612199565b8181015183556020948501946001909301929091019061217e565b60405162461bcd60e51b815260206004820152601960248201527f46696c65206e616d652063616e6e6f7420626520656d707479000000000000006044820152606490fd5b60405162461bcd60e51b815260206004820152601960248201527f46696c6520747970652063616e6e6f7420626520656d707479000000000000006044820152606490fd5b60405162461bcd60e51b815260206004820152601d60248201527f456e63727970746564206b65792063616e6e6f7420626520656d7074790000006044820152606490fd5b60405162461bcd60e51b815260206004820152602260248201527f546172676574206973206e6f74206120726567697374657265642070617469656044820152611b9d60f21b6064820152608490fd5b3461038e57602036600319011261038e5760043533600052600160205261232d600160ff6040600020541661040c81613686565b3360005260076020526123466040600020548210614127565b3360005260076020527f67813150e12a88a933a212e01460fbb9da398d9f273927860439f64efac5538f61237e8260406000206140b1565b5091600683016002815461239860ff8216611a5e81613686565b60ff19161790556040519081526040602082015280611351339460408301906139da565b3461038e5760208060031936011261038e576123d6613630565b90336000526001908181526123f78260ff6040600020541661040c81613686565b336000526009815260406000209260018060a01b03169283600052815261242560ff604060002054166141c6565b33600052600981526040600020836000528152604060002060ff199081815416905533600052600b8252828060406000206000925b6124db575b5050505033600052600c8152604060002083600052815260406000209081549160008155826124b2575b84337f825c8be24eb0df19500f63e86c29e7d0d951e73056b889b891d85e40938d9b6e600080a3005b600052600020908101905b8181106124ca5780612489565b806124d58492614212565b016124bd565b805483101561259c576124ee8382613d43565b509260405186600095805490612503826139a0565b9189888216918260001461258657505060011461254c575b505081866008612544969798520301902088600052865261253f6040600020614212565b613f6a565b91908161245a565b9150955060005286806000206000905b878210612572575050948101948161254461251b565b8054848301528a968a93909201910161255c565b168552505080151502820195508161254461251b565b61245f565b3461038e57602036600319011261038e576001600160a01b036125c2613630565b1660005260026020526105ce6125e26040600020604051928380926139da565b8051156126015761038a90604051918291602083526020830190613646565b60405162461bcd60e51b815260206004820152602960248201527f4e6f207075626c6963206b6579207265676973746572656420666f722074686960448201526873206164647265737360b81b6064820152608490fd5b3461038e57602036600319011261038e576001600160a01b03612679613630565b16600052600460205260406000206009810154604051918280600a8301906126a0916139da565b036126ab9084613aa8565b604051806126b981846139da565b036126c49082613aa8565b604051806126d581600186016139da565b036126e09082613aa8565b604051806126f181600287016139da565b036126fc9082613aa8565b604051908161270e81600388016139da565b036127199083613aa8565b604051928361272b81600489016139da565b036127369085613aa8565b60405194856127488160058a016139da565b036127539087613aa8565b60405180600681990190612766916139da565b036127719088613aa8565b604051988860ff8b9a1615158a528060081c60ff16151560208b015260101c60ff16151560408a01526101608060608b015289016127ae91613646565b88810360808a01526127bf91613646565b87810360a08901526127d091613646565b86810360c08801526127e191613646565b85810360e08701526127f291613646565b84810361010086015261280491613646565b83810361012085015261281691613646565b82810361014084015261038a91613646565b3461038e57604036600319011261038e576001600160401b0360043581811161038e57612859903690600401613897565b60249291923591821161038e576128f79261287b612909933690600401613897565b949094336000526020956001875261289e60ff60406000205416610db081613686565b33600052600487526128bb60ff6009604060002001541615613b0a565b6128c6851515613b62565b6128d1821515613ba5565b33600052600187526040600020600160ff19825416179055600287526040600020613c4f565b33600052600384526040600020613c4f565b600d54600160401b81101561059b576001810180600d5581101561299357600d6000527fd7b6990105719101dabeb77144f2a3385c8033acd3af97e9423a695e81ad1eb501336bffffffffffffffffffffffff60a01b8254161790557f8e18574f8a7333e6a87112742a55853a643e2f0550f4e1a3a2c3f1bb2994441d60405191600183523392a2005b634e487b7160e01b600052603260045260246000fd5b3461038e57604036600319011261038e576129c2613630565b6001600160a01b03602435818116929083900361038e57166000526009602052604060002090600052602052602060ff604060002054166040519015158152f35b3461038e5760208060031936011261038e57612a1d613630565b6000546001600160a01b0390612a369082163314613e04565b81169182600052600481526040600020600981016101008154612a5b60ff8216613e3c565b61ffff191617905583600052600182526040600020600260ff1982541617905560028252612a90600782016040600020613e94565b8360005260038252612aa6816040600020613e94565b600654600160401b81101561059b57600181018060065581101561299357612b658592612b537f8e18574f8a7333e6a87112742a55853a643e2f0550f4e1a3a2c3f1bb2994441d967f35d45d664b551d0c83facbd3487cca32022a3ed9a515115791992136b270b4ae9460066000527ff652222313e28459528d920b65115c16c04f3efc82aaedc97be59f3f377c0d3f01866bffffffffffffffffffffffff60a01b825416179055613f79565b604051918291868352868301906139da565b0390a260405160028152a2005b3461038e57600036600319011261038e57336000526001602081815260ff91612ba681846040600020541661040c81613686565b33600052600a8252604060002092604051808585829754938481520190600052856000209260005b8688838310612d205750505050612be792500385613aa8565b60009384835b612cb7575b50612bfc8561425b565b94612c0a6040519687613aa8565b808652612c19601f199161425b565b01368587013760009182845b612c3d575b6040518681528061038a8189018a613907565b8251811015612cb2573360009081526009875260409020612c8691906001600160a01b039081612c6d84886142f8565b511660005288528360406000205416612c8c5750613f6a565b84612c25565b612c9682866142f8565b5116612cab612ca487613f6a565b968a6142f8565b5288610846565b612c2a565b8151811015612d1b5733600090815260098652604090206001600160a01b03612ce083856142f8565b511660005285528260406000205416612d04575b612cfe8491613f6a565b90612bed565b94612cfe612d128592613f6a565b96915050612cf4565b612bf2565b86546001600160a01b03168552958101958a95509093019201612bce565b3461038e57600036600319011261038e57336000526001602090808252612d72600260ff60406000205416611c5f81613686565b60405180918284600d549384815201600d6000527fd7b6990105719101dabeb77144f2a3385c8033acd3af97e9423a695e81ad1eb59260005b87868210612ea257505050612dc292500383613aa8565b612dcb8161425b565b90612dd96040519283613aa8565b808252601f19612de88261425b565b018460005b828110612e935750505060005b818110612e2b57612e1e8461038a8786604051948594604086526040860190613907565b9184830390850152613944565b612e8e9060018060a01b03817fd7b6990105719101dabeb77144f2a3385c8033acd3af97e9423a695e81ad1eb5015416600052600386526105ce612e796040600020604051928380926139da565b612e8382866142f8565b5261084681856142f8565b612dfa565b60608582018301528101612ded565b85546001600160a01b0316845294820194879450909201918101612dab565b3461038e5760208060031936011261038e57600435906001600160401b03821161038e5780612ef761078f933690600401613897565b919082604051938492833781016008815203019020336000528152612f266040600020604051938480926139da565b815115612f415761038a604051928284938452830190613646565b6084906040519062461bcd60e51b82526004820152602360248201527f4e6f20656e63727970746564206b657920666f756e6420666f7220746869732060448201526210d25160ea1b6064820152fd5b3461038e577fb88d3b65fb21588e8792487a88d20d5d3870bd1330fd651c4924d048c15bdc71612fc0366138c4565b61301e60018060a09695961b03612fdc81600054163314613e04565b8516948560005260046020526130198385600a60406000206009810162010000815461300a60ff8216613e3c565b62ff00ff191617905501613c4f565b613f79565b611351604051928392602084526020840191613de3565b3461038e57613043366138c4565b336000526001916020918383526130668460ff6040600020541661040c81613686565b336000526009835260406000209460018060a01b03169485600052835261309460ff604060002054166141c6565b60405181838237838183810160088152030190208560005283526130bc6040600020546139a0565b156132c95760409392935181838237848183810160088152030190208560005284526130eb6040600020614212565b33600052600c845260406000208560005284526040600020836000905b61318c575b50507f42ce86fc65f9662ffd2726937c143668d2bf9b13032b5d04eff61e5883302bc8925033600052600c8452604060002085600052845260406000205415613167575b61052c6040519283928684523396840191613de3565b33600052600984526040600020856000528452604060002060ff198154169055613151565b8154808210156132c3576105ce6131a66105c18486613d43565b8781519101206131b7368688613d9d565b888151910120146131d95750906131d085969592613f6a565b90919495613108565b600019918183019182116132ad57611ac36131f76131ff9386613d43565b509185613d43565b815480156132975701906132138282613d43565b95909561058557856132467f42ce86fc65f9662ffd2726937c143668d2bf9b13032b5d04eff61e5883302bc897546139a0565b80613257575b50505055858061310d565b600092601f80831160011461327357505050555b87808061324c565b83916132909186949585528c8520950160051c8501908501613bf1565b555561326b565b634e487b7160e01b600052603160045260246000fd5b634e487b7160e01b600052601160045260246000fd5b5061310d565b60405162461bcd60e51b815260048101849052602a60248201527f446f63746f7220646f6573206e6f7420686176652061636365737320746f20746044820152691a1a5cc81c9958dbdc9960b21b6064820152608490fd5b3461038e57600036600319011261038e576000546001600160a01b039061334b9082163314613e04565b60059081549061335a826143b7565b9260005b838110613373576040518061038a8782613789565b808361338161344393613d0c565b919054600392831b1c1690816000526006610826602092600484526105ce613412604060002092600884015496604051986133bb8a613a70565b8952604051906133cf8261078f81896139da565b8901526040516133e6816105ce81600189016139da565b60408901526040516133ff816105ce81600289016139da565b60608901526040519283809286016139da565b608086015260405161342b816105ce81600486016139da565b60a0860152604051610811816105ce818c86016139da565b61335e565b3461038e5760208060031936011261038e57613462613630565b903360005260019182825260ff9061348660028360406000205416611c5f81613686565b6001600160a01b031660008181526009845260408082203383528552902054821615613592576000526007825260406000206000916000928254935b84811061354e57506134d390614272565b9460009160005b8581106134f4576040518781528061038a818a018b6136a6565b808383600661350661351d958a6140b1565b5001541661351381613686565b1461352257613f6a565b6134da565b61084661352f82886140b1565b509561353d61091982613f6a565b613547828d6142f8565b528a6142f8565b8683600661355c84886140b1565b5001541661356981613686565b1461357d575b61357890613f6a565b6134c2565b9061358a61357891613f6a565b91905061356f565b60405162461bcd60e51b815260048101849052603060248201527f596f7520646f206e6f7420686176652061636365737320746f2074686973207060448201526f617469656e742773207265636f72647360801b6064820152608490fd5b3461038e57602036600319011261038e5761038a906001600160a01b03613615613630565b166000526003602052610b6f816105ce8160406000206139da565b600435906001600160a01b038216820361038e57565b919082519283825260005b848110613672575050826000602080949584010152601f8019910116010190565b602081830181015184830182015201613651565b6003111561369057565b634e487b7160e01b600052602160045260246000fd5b908082519081815260208091019281808460051b8301019501936000915b8483106136d45750505050505090565b9091929394958480600192601f1985820301865289519061375c6137496137366137078551610100808752860190613646565b888060a01b03808888015116888701526040908188015116908601526060808701519086830390870152613646565b6080808601519085830390860152613646565b60a0808501519084830390850152613646565b9160c0808201519061376d82613686565b83015260e08091015191015298019301930191949392906136c4565b602080820190808352835180925260409283810182858560051b8401019601946000925b8584106137be575050505050505090565b909192939495968580600192603f198582030187528a5190848060a01b03825116815261387b61386861385561384261382f61381c61380a89890151610120808c8b0152890190613646565b8d808a015190898303908a0152613646565b6060808901519088830390890152613646565b6080808801519087830390880152613646565b60a0808701519086830390870152613646565b60c0808601519085830390860152613646565b60e0808501519084830390850152613646565b91610100809101519101529901940194019295949391906137ad565b9181601f8401121561038e578235916001600160401b03831161038e576020838186019501011161038e57565b90604060031983011261038e576004356001600160a01b038116810361038e5791602435906001600160401b03821161038e5761390391600401613897565b9091565b90815180825260208080930193019160005b828110613927575050505090565b83516001600160a01b031685529381019392810192600101613919565b908082519081815260208091019281808460051b8301019501936000915b8483106139725750505050505090565b9091929394958480613990600193601f198682030187528a51613646565b9801930193019194939290613962565b90600182811c921680156139d0575b60208310146139ba57565b634e487b7160e01b600052602260045260246000fd5b91607f16916139af565b90600092918054916139eb836139a0565b918282526001938481169081600014613a4d5750600114613a0d575b50505050565b90919394506000526020928360002092846000945b838610613a39575050505001019038808080613a07565b805485870183015294019385908201613a22565b9294505050602093945060ff191683830152151560051b01019038808080613a07565b61012081019081106001600160401b0382111761059b57604052565b61010081019081106001600160401b0382111761059b57604052565b90601f801991011681019081106001600160401b0382111761059b57604052565b15613ad057565b60405162461bcd60e51b8152602060048201526012602482015271105b1c9958591e481c9959da5cdd195c995960721b6044820152606490fd5b15613b1157565b60405162461bcd60e51b815260206004820152602360248201527f446f63746f7220766572696669636174696f6e20616c72656164792070656e64604482015262696e6760e81b6064820152608490fd5b15613b6957565b60405162461bcd60e51b81526020600482015260146024820152734e616d652063616e6e6f7420626520656d70747960601b6044820152606490fd5b15613bac57565b60405162461bcd60e51b815260206004820152601a60248201527f5075626c6963206b65792063616e6e6f7420626520656d7074790000000000006044820152606490fd5b818110613bfc575050565b60008155600101613bf1565b9190601f8111613c1757505050565b613c43926000526020600020906020601f840160051c83019310613c45575b601f0160051c0190613bf1565b565b9091508190613c36565b9092916001600160401b03811161059b57613c6e8161128784546139a0565b6000601f8211600114613ca85781929394600092613c9d575b50508160011b916000199060031b1c1916179055565b013590503880613c87565b601f198216948382526020918281209281905b888210613cf457505083600195969710613cda575b505050811b019055565b0135600019600384901b60f8161c19169055388080613cd0565b80600184968294958701358155019501920190613cbb565b6005548110156129935760056000527f036b6384b5eca791c62761152d0c79bb0604c104a5fb6f4eb0703f3154bb3db00190600090565b80548210156129935760005260206000200190600090565b90815491600160401b83101561059b5782613d7e916001613c4395018155613d43565b90919082549060031b9160018060a01b03809116831b921b1916179055565b9291926001600160401b03821161059b5760405191613dc6601f8201601f191660200184613aa8565b82948184528183011161038e578281602093846000960137010152565b908060209392818452848401376000828201840152601f01601f1916010190565b15613e0b57565b60405162461bcd60e51b81526020600482015260096024820152682737ba1030b236b4b760b91b6044820152606490fd5b15613e4357565b60405162461bcd60e51b815260206004820152602360248201527f4e6f2070656e64696e67207265717565737420666f722074686973206164647260448201526265737360e81b6064820152608490fd5b90808214613f6657613ea681546139a0565b906001600160401b03821161059b578190613ec582610f3486546139a0565b600090601f8311600114613efb57600092613ef05750508160011b916000199060031b1c1916179055565b015490503880613c87565b81526020808220858352818320935090601f1985169083905b828210613f4d575050908460019594939210613f3457505050811b019055565b015460001960f88460031b161c19169055388080613cd0565b8495819295850154815560018091019601940190613f14565b5050565b60001981146132ad5760010190565b6000905b60059182549283821015613a0757613f9482613d0c565b90546003956001600160a01b0392909190871b1c821685831614613fc657505050613fc0919250613f6a565b90613f7d565b9193509160001991828101919082116132ad57613d7e84613fe9613ff694613d0c565b905490891b1c1691613d0c565b8254801561329757019261400984613d0c565b81939154921b1b1916905555565b1561401e57565b60405162461bcd60e51b8152602060048201526024808201527f4f6e6c7920646f63746f72732063616e20706572666f726d20746869732061636044820152633a34b7b760e11b6064820152608490fd5b1561407657565b60405162461bcd60e51b81526020600482015260136024820152724349442063616e6e6f7420626520656d70747960681b6044820152606490fd5b80548210156129935760005260206000209060031b0190600090565b156140d457565b60405162461bcd60e51b815260206004820152602560248201527f4f6e6c792070617469656e74732063616e20706572666f726d2074686973206160448201526431ba34b7b760d91b6064820152608490fd5b1561412e57565b60405162461bcd60e51b815260206004820152601a60248201527f5265636f726420696e646578206f7574206f6620626f756e64730000000000006044820152606490fd5b1561417a57565b60405162461bcd60e51b81526020600482015260156024820152745265636f7264206973206e6f742070656e64696e6760581b6044820152606490fd5b919061058557613c4391613e94565b156141cd57565b60405162461bcd60e51b815260206004820152601b60248201527f446f63746f7220646f6573206e6f7420686176652061636365737300000000006044820152606490fd5b61421c81546139a0565b9081614226575050565b81601f60009311600114614238575055565b908083918252614257601f60208420940160051c840160018501613bf1565b5555565b6001600160401b03811161059b5760051b60200190565b9061427c8261425b565b60409061428b82519182613aa8565b838152809361429c601f199161425b565b019160005b8381106142ae5750505050565b60209082516142bc81613a8c565b60608082528390600082840152600086840152808084015280608084015260a0830152600060c0830152600060e08301528286010152016142a1565b80518210156129935760209160051b010190565b9060409160e0600784519261432084613a8c565b83958051614332816105ce81866139da565b855260018201546001600160a01b039081166020870152600283015416818601528051614366816105ce81600387016139da565b6060860152805161437e816105ce81600487016139da565b608086015251614395816105ce81600586016139da565b60a085015260ff6006820154166143ab81613686565b60c08501520154910152565b906143c18261425b565b6040906143d082519182613aa8565b83815280936143e1601f199161425b565b0191600091825b8481106143f6575050505050565b602090835161440481613a70565b858152606083908082840152808784015280808401528060808401528060a08401528060c084015260e0830152866101008301528285010152016143e856fea2646970667358221220737bab431d62b969c6f8e47bf09374f41a788d1a5a3d90dac6ad69e75bd82c9e64736f6c63430008140033",
  "linkReferences": {},
  "deployedLinkReferences": {}
}