{
  "_format": "hh-sol-artifact-1",
  "contractName": "MedicalRecordVault",
  "sourceName": "contracts/MedicalRecordVault.sol",
  "abi": [
    {
      "inputs": [],
      "stateMutability": "nonpayable",
      "type": "constructor"
    },
    {
      "anonymous": false,
      "inputs": [
        {
          "indexed": true,
          "internalType": "address",
          "name": "patient",
          "type": "address"
        },
        {
          "indexed": true,
          "internalType": "address",
          "name": "doctor",
          "type": "address"
        },
        {
          "indexed": false,
          "internalType": "string",
          "name": "cid",
          "type": "string"
        }
      ],
      "name": "AccessGranted",
      "type": "event"
    },
    {
      "anonymous": false,
      "inputs": [
        {
          "indexed": true,
          "internalType": "address",
          "name": "patient",
          "type": "address"
        },
        {
          "indexed": true,
          "internalType": "address",
          "name": "doctor",
          "type": "address"
        }
      ],
      "name": "AccessRevoked",
      "type": "event"
    },
    {
      "anonymous": false,
      "inputs": [
        {
          "indexed": true,
          "internalType": "address",
          "name": "doctor",
          "type": "address"
        },
        {
          "indexed": false,
          "internalType": "string",
          "name": "name",
          "type": "string"
        }
      ],
      "name": "DoctorApproved",
      "type": "event"
    },
    {
      "anonymous": false,
      "inputs": [
        {
          "indexed": true,
          "internalType": "address",
          "name": "doctor",
          "type": "address"
        },
        {
          "indexed": false,
          "internalType": "string",
          "name": "reason",
          "type": "string"
        }
      ],
      "name": "DoctorRejected",
      "type": "event"
    },
    {
      "anonymous": false,
      "inputs": [
        {
          "indexed": true,
          "internalType": "address",
          "name": "doctor",
          "type": "address"
        },
        {
          "indexed": false,
          "internalType": "string",
          "name": "name",
          "type": "string"
        },
        {
          "indexed": false,
          "internalType": "string",
          "name": "licenseNumber",
          "type": "string"
        }
      ],
      "name": "DoctorRequestSubmitted",
      "type": "event"
    },
    {
      "anonymous": false,
      "inputs": [
        {
          "indexed": true,
          "internalType": "address",
          "name": "patient",
          "type": "address"
        },
        {
          "indexed": false,
          "internalType": "uint256",
          "name": "recordIndex",
          "type": "uint256"
        },
        {
          "indexed": false,
          "internalType": "string",
          "name": "cid",
          "type": "string"
        }
      ],
      "name": "RecordApproved",
      "type": "event"
    },
    {
      "anonymous": false,
      "inputs": [
        {
          "indexed": true,
          "internalType": "address",
          "name": "patient",
          "type": "address"
        },
        {
          "indexed": false,
          "internalType": "uint256",
          "name": "recordIndex",
          "type": "uint256"
        },
        {
          "indexed": false,
          "internalType": "string",
          "name": "cid",
          "type": "string"
        }
      ],
      "name": "RecordRejected",
      "type": "event"
    },
    {
      "anonymous": false,
      "inputs": [
        {
          "indexed": true,
          "internalType": "address",
          "name": "patient",
          "type": "address"
        },
        {
          "indexed": true,
          "internalType": "address",
          "name": "doctor",
          "type": "address"
        },
        {
          "indexed": false,
          "internalType": "string",
          "name": "cid",
          "type": "string"
        },
        {
          "indexed": false,
          "internalType": "uint256",
          "name": "recordIndex",
          "type": "uint256"
        },
        {
          "indexed": false,
          "internalType": "uint256",
          "name": "timestamp",
          "type": "uint256"
        }
      ],
      "name": "RecordSubmitted",
      "type": "event"
    },
    {
      "anonymous": false,
      "inputs": [
        {
          "indexed": true,
          "internalType": "address",
          "name": "user",
          "type": "address"
        },
        {
          "indexed": false,
          "internalType": "enum MedicalRecordVault.Role",
          "name": "role",
          "type": "uint8"
        }
      ],
      "name": "UserRegistered",
      "type": "event"
    },
    {
      "inputs": [
        {
          "internalType": "address",
          "name": "",
          "type": "address"
        },
        {
          "internalType": "address",
          "name": "",
          "type": "address"
        }
      ],
      "name": "accessList",
      "outputs": [
        {
          "internalType": "bool",
          "name": "",
          "type": "bool"
        }
      ],
      "stateMutability": "view",
      "type": "function"
    },
    {
      "inputs": [
        {
          "internalType": "address",
          "name": "_doctor",
          "type": "address"
        }
      ],
      "name": "approveDoctor",
      "outputs": [],
      "stateMutability": "nonpayable",
      "type": "function"
    },
    {
      "inputs": [
        {
          "internalType": "uint256",
          "name": "_recordIndex",
          "type": "uint256"
        }
      ],
      "name": "approveRecord",
      "outputs": [],
      "stateMutability": "nonpayable",
      "type": "function"
    },
    {
      "inputs": [
        {
          "internalType": "address",
          "name": "",
          "type": "address"
        }
      ],
      "name": "displayNames",
      "outputs": [
        {
          "internalType": "string",
          "name": "",
          "type": "string"
        }
      ],
      "stateMutability": "view",
      "type": "function"
    },
    {
      "inputs": [
        {
          "internalType": "address",
          "name": "",
          "type": "address"
        }
      ],
      "name": "doctorRequests",
      "outputs": [
        {
          "internalType": "string",
          "name": "name",
          "type": "string"
        },
        {
          "internalType": "string",
          "name": "licenseNumber",
          "type": "string"
        },
        {
          "internalType": "string",
          "name": "specialization",
          "type": "string"
        },
        {
          "internalType": "string",
          "name": "hospital",
          "type": "string"
        },
        {
          "internalType": "string",
          "name": "publicKey",
          "type": "string"
        },
        {
          "internalType": "uint256",
          "name": "requestedAt",
          "type": "uint256"
        },
        {
          "internalType": "bool",
          "name": "isPending",
          "type": "bool"
        },
        {
          "internalType": "bool",
          "name": "isApproved",
          "type": "bool"
        },
        {
          "internalType": "bool",
          "name": "isRejected",
          "type": "bool"
        },
        {
          "internalType": "string",
          "name": "rejectReason",
          "type": "string"
        }
      ],
      "stateMutability": "view",
      "type": "function"
    },
    {
      "inputs": [],
      "name": "getApprovedDoctors",
      "outputs": [
        {
          "components": [
            {
              "internalType": "address",
              "name": "addr",
              "type": "address"
            },
            {
              "internalType": "string",
              "name": "name",
              "type": "string"
            },
            {
              "internalType": "string",
              "name": "licenseNumber",
              "type": "string"
            },
            {
              "internalType": "string",
              "name": "specialization",
              "type": "string"
            },
            {
              "internalType": "string",
              "name": "hospital",
              "type": "string"
            },
            {
              "internalType": "uint256",
              "name": "requestedAt",
              "type": "uint256"
            }
          ],
          "internalType": "struct MedicalRecordVault.DoctorRequestView[]",
          "name": "",
          "type": "tuple[]"
        }
      ],
      "stateMutability": "view",
      "type": "function"
    },
    {
      "inputs": [],
      "name": "getAuthorizedDoctors",
      "outputs": [
        {
          "internalType": "address[]",
          "name": "",
          "type": "address[]"
        }
      ],
      "stateMutability": "view",
      "type": "function"
    },
    {
      "inputs": [
        {
          "internalType": "address",
          "name": "_account",
          "type": "address"
        }
      ],
      "name": "getDisplayName",
      "outputs": [
        {
          "internalType": "string",
          "name": "",
          "type": "string"
        }
      ],
      "stateMutability": "view",
      "type": "function"
    },
    {
      "inputs": [
        {
          "internalType": "address",
          "name": "_addr",
          "type": "address"
        }
      ],
      "name": "getDoctorRequest",
      "outputs": [
        {
          "internalType": "bool",
          "name": "isPending",
          "type": "bool"
        },
        {
          "internalType": "bool",
          "name": "isApproved",
          "type": "bool"
        },
        {
          "internalType": "bool",
          "name": "isRejected",
          "type": "bool"
        },
        {
          "internalType": "string",
          "name": "rejectReason",
          "type": "string"
        },
        {
          "internalType": "string",
          "name": "name",
          "type": "string"
        },
        {
          "internalType": "string",
          "name": "licenseNumber",
          "type": "string"
        },
        {
          "internalType": "string",
          "name": "specialization",
          "type": "string"
        },
        {
          "internalType": "string",
          "name": "hospital",
          "type": "string"
        }
      ],
      "stateMutability": "view",
      "type": "function"
    },
    {
      "inputs": [
        {
          "internalType": "string",
          "name": "_cid",
          "type": "string"
        }
      ],
      "name": "getEncryptedKey",
      "outputs": [
        {
          "internalType": "string",
          "name": "",
          "type": "string"
        }
      ],
      "stateMutability": "view",
      "type": "function"
    },
    {
      "inputs": [],
      "name": "getMyCids",
      "outputs": [
        {
          "internalType": "string[]",
          "name": "",
          "type": "string[]"
        }
      ],
      "stateMutability": "view",
      "type": "function"
    },
    {
      "inputs": [],
      "name": "getMyRecords",
      "outputs": [
        {
          "components": [
            {
              "internalType": "string",
              "name": "cid",
              "type": "string"
            },
            {
              "internalType": "address",
              "name": "patientAddress",
              "type": "address"
            },
            {
              "internalType": "address",
              "name": "doctorAddress",
              "type": "address"
            },
            {
              "internalType": "string",
              "name": "fileType",
              "type": "string"
            },
            {
              "internalType": "string",
              "name": "fileName",
              "type": "string"
            },
            {
              "internalType": "enum MedicalRecordVault.RecordStatus",
              "name": "status",
              "type": "uint8"
            },
            {
              "internalType": "uint256",
              "name": "timestamp",
              "type": "uint256"
            }
          ],
          "internalType": "struct MedicalRecordVault.Record[]",
          "name": "",
          "type": "tuple[]"
        }
      ],
      "stateMutability": "view",
      "type": "function"
    },
    {
      "inputs": [
        {
          "internalType": "address",
          "name": "_patient",
          "type": "address"
        }
      ],
      "name": "getPatientRecords",
      "outputs": [
        {
          "components": [
            {
              "internalType": "string",
              "name": "cid",
              "type": "string"
            },
            {
              "internalType": "address",
              "name": "patientAddress",
              "type": "address"
            },
            {
              "internalType": "address",
              "name": "doctorAddress",
              "type": "address"
            },
            {
              "internalType": "string",
              "name": "fileType",
              "type": "string"
            },
            {
              "internalType": "string",
              "name": "fileName",
              "type": "string"
            },
            {
              "internalType": "enum MedicalRecordVault.RecordStatus",
              "name": "status",
              "type": "uint8"
            },
            {
              "internalType": "uint256",
              "name": "timestamp",
              "type": "uint256"
            }
          ],
          "internalType": "struct MedicalRecordVault.Record[]",
          "name": "",
          "type": "tuple[]"
        }
      ],
      "stateMutability": "view",
      "type": "function"
    },
    {
      "inputs": [],
      "name": "getPendingCount",
      "outputs": [
        {
          "internalType": "uint256",
          "name": "",
          "type": "uint256"
        }
      ],
      "stateMutability": "view",
      "type": "function"
    },
    {
      "inputs": [],
      "name": "getPendingDoctorRequests",
      "outputs": [
        {
          "components": [
            {
              "internalType": "address",
              "name": "addr",
              "type": "address"
            },
            {
              "internalType": "string",
              "name": "name",
              "type": "string"
            },
            {
              "internalType": "string",
              "name": "licenseNumber",
              "type": "string"
            },
            {
              "internalType": "string",
              "name": "specialization",
              "type": "string"
            },
            {
              "internalType": "string",
              "name": "hospital",
              "type": "string"
            },
            {
              "internalType": "uint256",
              "name": "requestedAt",
              "type": "uint256"
            }
          ],
          "internalType": "struct MedicalRecordVault.DoctorRequestView[]",
          "name": "",
          "type": "tuple[]"
        }
      ],
      "stateMutability": "view",
      "type": "function"
    },
    {
      "inputs": [],
      "name": "getPendingRecords",
      "outputs": [
        {
          "components": [
            {
              "internalType": "string",
              "name": "cid",
              "type": "string"
            },
            {
              "internalType": "address",
              "name": "patientAddress",
              "type": "address"
            },
            {
              "internalType": "address",
              "name": "doctorAddress",
              "type": "address"
            },
            {
              "internalType": "string",
              "name": "fileType",
              "type": "string"
            },
            {
              "internalType": "string",
              "name": "fileName",
              "type": "string"
            },
            {
              "internalType": "enum MedicalRecordVault.RecordStatus",
              "name": "status",
              "type": "uint8"
            },
            {
              "internalType": "uint256",
              "name": "timestamp",
              "type": "uint256"
            }
          ],
          "internalType": "struct MedicalRecordVault.Record[]",
          "name": "",
          "type": "tuple[]"
        },
        {
          "internalType": "uint256[]",
          "name": "",
          "type": "uint256[]"
        }
      ],
      "stateMutability": "view",
      "type": "function"
    },
    {
      "inputs": [
        {
          "internalType": "address",
          "name": "_account",
          "type": "address"
        }
      ],
      "name": "getPublicKey",
      "outputs": [
        {
          "internalType": "string",
          "name": "",
          "type": "string"
        }
      ],
      "stateMutability": "view",
      "type": "function"
    },
    {
      "inputs": [],
      "name": "getRecordCount",
      "outputs": [
        {
          "internalType": "uint256",
          "name": "",
          "type": "uint256"
        }
      ],
      "stateMutability": "view",
      "type": "function"
    },
    {
      "inputs": [
        {
          "internalType": "address",
          "name": "_account",
          "type": "address"
        }
      ],
      "name": "getRole",
      "outputs": [
        {
          "internalType": "enum MedicalRecordVault.Role",
          "name": "",
          "type": "uint8"
        }
      ],
      "stateMutability": "view",
      "type": "function"
    },
    {
      "inputs": [
        {
          "internalType": "address",
          "name": "_doctor",
          "type": "address"
        },
        {
          "internalType": "string",
          "name": "_cid",
          "type": "string"
        },
        {
          "internalType": "string",
          "name": "_encryptedKeyForDoctor",
          "type": "string"
        }
      ],
      "name": "grantAccess",
      "outputs": [],
      "stateMutability": "nonpayable",
      "type": "function"
    },
    {
      "inputs": [],
      "name": "owner",
      "outputs": [
        {
          "internalType": "address",
          "name": "",
          "type": "address"
        }
      ],
      "stateMutability": "view",
      "type": "function"
    },
    {
      "inputs": [
        {
          "internalType": "address",
          "name": "",
          "type": "address"
        }
      ],
      "name": "publicKeys",
      "outputs": [
        {
          "internalType": "string",
          "name": "",
          "type": "string"
        }
      ],
      "stateMutability": "view",
      "type": "function"
    },
    {
      "inputs": [
        {
          "internalType": "string",
          "name": "_name",
          "type": "string"
        },
        {
          "internalType": "string",
          "name": "_publicKey",
          "type": "string"
        }
      ],
      "name": "registerAsPatient",
      "outputs": [],
      "stateMutability": "nonpayable",
      "type": "function"
    },
    {
      "inputs": [
        {
          "internalType": "address",
          "name": "_doctor",
          "type": "address"
        },
        {
          "internalType": "string",
          "name": "_reason",
          "type": "string"
        }
      ],
      "name": "rejectDoctor",
      "outputs": [],
      "stateMutability": "nonpayable",
      "type": "function"
    },
    {
      "inputs": [
        {
          "internalType": "uint256",
          "name": "_recordIndex",
          "type": "uint256"
        }
      ],
      "name": "rejectRecord",
      "outputs": [],
      "stateMutability": "nonpayable",
      "type": "function"
    },
    {
      "inputs": [
        {
          "internalType": "string",
          "name": "_name",
          "type": "string"
        },
        {
          "internalType": "string",
          "name": "_licenseNumber",
          "type": "string"
        },
        {
          "internalType": "string",
          "name": "_specialization",
          "type": "string"
        },
        {
          "internalType": "string",
          "name": "_hospital",
          "type": "string"
        },
        {
          "internalType": "string",
          "name": "_publicKey",
          "type": "string"
        }
      ],
      "name": "requestDoctorVerification",
      "outputs": [],
      "stateMutability": "nonpayable",
      "type": "function"
    },
    {
      "inputs": [
        {
          "internalType": "address",
          "name": "_doctor",
          "type": "address"
        }
      ],
      "name": "revokeAccess",
      "outputs": [],
      "stateMutability": "nonpayable",
      "type": "function"
    },
    {
      "inputs": [
        {
          "internalType": "address",
          "name": "",
          "type": "address"
        }
      ],
      "name": "roles",
      "outputs": [
        {
          "internalType": "enum MedicalRecordVault.Role",
          "name": "",
          "type": "uint8"
        }
      ],
      "stateMutability": "view",
      "type": "function"
    },
    {
      "inputs": [
        {
          "internalType": "address",
          "name": "_patient",
          "type": "address"
        },
        {
          "internalType": "string",
          "name": "_cid",
          "type": "string"
        },
        {
          "internalType": "string",
          "name": "_encryptedKeyForPatient",
          "type": "string"
        },
        {
          "internalType": "string",
          "name": "_fileType",
          "type": "string"
        },
        {
          "internalType": "string",
          "name": "_fileName",
          "type": "string"
        }
      ],
      "name": "submitRecord",
      "outputs": [],
      "stateMutability": "nonpayable",
      "type": "function"
    }
  ],
  "bytecode": "0x608060405234801561001057600080fd5b50600080546001600160a01b03191633179055614d13806100326000396000f3fe608060405234801561001057600080fd5b50600436106101cf5760003560e01c80638da5cb5b11610104578063d795ede1116100a2578063e76637ce11610071578063e76637ce14610462578063eb0568451461046a578063f7d9e15714610472578063f7e7bd901461048557600080fd5b8063d795ede11461041e578063dc86638114610426578063e085456714610439578063e6a5210a1461044f57600080fd5b80639e64b856116100de5780639e64b856146103cd578063a3d6f9a9146103e2578063b8278dcf146103f5578063ca267f281461040857600080fd5b80638da5cb5b1461036c578063918c0c431461039757806399374642146103aa57600080fd5b80636160a5c2116101715780637dff00441161014b5780637dff00441461030c578063857cdbb81461033357806385e685311461034657806388c118a91461035957600080fd5b80636160a5c2146102a857806377814646146102bb5780637c2e811a146102f957600080fd5b806330ab126a116101ad57806330ab126a146102325780633a6d50b614610247578063442767331461025a57806350bd43dc1461029357600080fd5b80631042876d146101d457806318bd4847146101fd57806319c2ea861461021d575b600080fd5b6101e76101e2366004613dda565b6104ae565b6040516101f49190613e42565b60405180910390f35b61021061020b366004613dda565b61055a565b6040516101f49190613f73565b6102256109e9565b6040516101f49190613f86565b6102456102403660046140ab565b610d4f565b005b6101e76102553660046140fd565b610e2a565b610286610268366004613dda565b6001600160a01b031660009081526001602052604090205460ff1690565b6040516101f4919061413e565b61029b610f4c565b6040516101f49190614151565b6102456102b6366004613dda565b611193565b6102e96102c936600461419e565b600960209081526000928352604080842090915290825290205460ff1681565b60405190151581526020016101f4565b6102456103073660046141d1565b611348565b61031f61031a366004613dda565b6114f7565b6040516101f498979695949392919061423c565b6101e7610341366004613dda565b61182b565b610245610354366004613dda565b611936565b6102456103673660046142c7565b611ad1565b60005461037f906001600160a01b031681565b6040516001600160a01b0390911681526020016101f4565b6102456103a53660046142c7565b611c45565b6102866103b8366004613dda565b60016020526000908152604090205460ff1681565b6103d5611e7d565b6040516101f491906142e0565b6101e76103f0366004613dda565b611fa1565b610245610403366004614342565b61203b565b61041061248c565b6040519081526020016101f4565b6104106124e5565b6101e7610434366004613dda565b6125ad565b6104416125c6565b6040516101f4929190614418565b61024561045d366004614462565b612a1d565b610210612e63565b610225613247565b610245610480366004614552565b6135a7565b610498610493366004613dda565b61385d565b6040516101f49a999897969594939291906145d2565b6001600160a01b03811660009081526003602052604090208054606091906104d59061467b565b80601f01602080910402602001604051908101604052809291908181526020018280546105019061467b565b801561054e5780601f106105235761010080835404028352916020019161054e565b820191906000526020600020905b81548152906001019060200180831161053157829003601f168201915b50505050509050919050565b606060023360009081526001602052604090205460ff16600281111561058257610582613e55565b146105a85760405162461bcd60e51b815260040161059f906146b5565b60405180910390fd5b6001600160a01b038216600090815260096020908152604080832033845290915290205460ff166106345760405162461bcd60e51b815260206004820152603060248201527f596f7520646f206e6f7420686176652061636365737320746f2074686973207060448201526f617469656e742773207265636f72647360801b606482015260840161059f565b6001600160a01b038216600090815260076020526040812090805b82548110156106b957600183828154811061066c5761066c6146f9565b600091825260209091206005600790920201015460ff16600281111561069457610694613e55565b036106a757816106a381614725565b9250505b806106b181614725565b91505061064f565b506000816001600160401b038111156106d4576106d461473e565b60405190808252806020026020018201604052801561070d57816020015b6106fa613cf2565b8152602001906001900390816106f25790505b5090506000805b84548110156109dc576001858281548110610731576107316146f9565b600091825260209091206005600790920201015460ff16600281111561075957610759613e55565b036109ca57848181548110610770576107706146f9565b90600052602060002090600702016040518060e00160405290816000820180546107999061467b565b80601f01602080910402602001604051908101604052809291908181526020018280546107c59061467b565b80156108125780601f106107e757610100808354040283529160200191610812565b820191906000526020600020905b8154815290600101906020018083116107f557829003601f168201915b505050918352505060018201546001600160a01b039081166020830152600283015416604082015260038201805460609092019161084f9061467b565b80601f016020809104026020016040519081016040528092919081815260200182805461087b9061467b565b80156108c85780601f1061089d576101008083540402835291602001916108c8565b820191906000526020600020905b8154815290600101906020018083116108ab57829003601f168201915b505050505081526020016004820180546108e19061467b565b80601f016020809104026020016040519081016040528092919081815260200182805461090d9061467b565b801561095a5780601f1061092f5761010080835404028352916020019161095a565b820191906000526020600020905b81548152906001019060200180831161093d57829003601f168201915b5050509183525050600582015460209091019060ff16600281111561098157610981613e55565b600281111561099257610992613e55565b81526020016006820154815250508383806109ac90614725565b9450815181106109be576109be6146f9565b60200260200101819052505b806109d481614725565b915050610714565b509093505050505b919050565b6000546060906001600160a01b03163314610a165760405162461bcd60e51b815260040161059f90614754565b6005546000906001600160401b03811115610a3357610a3361473e565b604051908082528060200260200182016040528015610a6c57816020015b610a59613d2e565b815260200190600190039081610a515790505b50905060005b600554811015610d4957600060058281548110610a9157610a916146f9565b60009182526020808320909101546001600160a01b031680835260048252604092839020835160c08101909452818452805491945092918201908390610ad69061467b565b80601f0160208091040260200160405190810160405280929190818152602001828054610b029061467b565b8015610b4f5780601f10610b2457610100808354040283529160200191610b4f565b820191906000526020600020905b815481529060010190602001808311610b3257829003601f168201915b50505050508152602001826001018054610b689061467b565b80601f0160208091040260200160405190810160405280929190818152602001828054610b949061467b565b8015610be15780601f10610bb657610100808354040283529160200191610be1565b820191906000526020600020905b815481529060010190602001808311610bc457829003601f168201915b50505050508152602001826002018054610bfa9061467b565b80601f0160208091040260200160405190810160405280929190818152602001828054610c269061467b565b8015610c735780601f10610c4857610100808354040283529160200191610c73565b820191906000526020600020905b815481529060010190602001808311610c5657829003601f168201915b50505050508152602001826003018054610c8c9061467b565b80601f0160208091040260200160405190810160405280929190818152602001828054610cb89061467b565b8015610d055780601f10610cda57610100808354040283529160200191610d05565b820191906000526020600020905b815481529060010190602001808311610ce857829003601f168201915b505050505081526020018260050154815250848481518110610d2957610d296146f9565b602002602001018190525050508080610d4190614725565b915050610a72565b50905090565b6000546001600160a01b03163314610d795760405162461bcd60e51b815260040161059f90614754565b6001600160a01b0383166000908152600460205260409020600681015460ff16610db55760405162461bcd60e51b815260040161059f90614777565b60068101805462ff00ff19166201000017905560078101610dd783858361481e565b50610de184613be7565b836001600160a01b03167fb88d3b65fb21588e8792487a88d20d5d3870bd1330fd651c4924d048c15bdc718484604051610e1c929190614901565b60405180910390a250505050565b6060600060088484604051610e4092919061491d565b9081526040805160209281900383019020336000908152925290208054610e669061467b565b80601f0160208091040260200160405190810160405280929190818152602001828054610e929061467b565b8015610edf5780601f10610eb457610100808354040283529160200191610edf565b820191906000526020600020905b815481529060010190602001808311610ec257829003601f168201915b505050505090506000815111610f435760405162461bcd60e51b815260206004820152602360248201527f4e6f20656e63727970746564206b657920666f756e6420666f7220746869732060448201526210d25160ea1b606482015260840161059f565b90505b92915050565b606060013360009081526001602052604090205460ff166002811115610f7457610f74613e55565b14610f915760405162461bcd60e51b815260040161059f9061492d565b336000908152600a6020908152604080832080548251818502810185019093528083529192909190830182828015610ff257602002820191906000526020600020905b81546001600160a01b03168152600190910190602001808311610fd4575b505050505090506000805b825181101561107857336000908152600960205260408120845190919085908490811061102c5761102c6146f9565b6020908102919091018101516001600160a01b031682528101919091526040016000205460ff1615611066578161106281614725565b9250505b8061107081614725565b915050610ffd565b506000816001600160401b038111156110935761109361473e565b6040519080825280602002602001820160405280156110bc578160200160208202803683370190505b5090506000805b84518110156111895733600090815260096020526040812086519091908790849081106110f2576110f26146f9565b6020908102919091018101516001600160a01b031682528101919091526040016000205460ff161561117757848181518110611130576111306146f9565b602002602001015183838061114490614725565b945081518110611156576111566146f9565b60200260200101906001600160a01b031690816001600160a01b0316815250505b8061118181614725565b9150506110c3565b5090935050505090565b6000546001600160a01b031633146111bd5760405162461bcd60e51b815260040161059f90614754565b6001600160a01b0381166000908152600460205260409020600681015460ff166111f95760405162461bcd60e51b815260040161059f90614777565b60068101805461ffff19166101001790556001600160a01b03821660009081526001602090815260408083208054600260ff19909116811790915590915290206112466004830182614972565b506001600160a01b03821660009081526003602052604090206112698282614972565b50600680546001810182556000919091527ff652222313e28459528d920b65115c16c04f3efc82aaedc97be59f3f377c0d3f0180546001600160a01b0319166001600160a01b0384161790556112be82613be7565b816001600160a01b03167f35d45d664b551d0c83facbd3487cca32022a3ed9a515115791992136b270b4ae826000016040516112fa9190614ac5565b60405180910390a2816001600160a01b03167f8e18574f8a7333e6a87112742a55853a643e2f0550f4e1a3a2c3f1bb2994441d600260405161133c919061413e565b60405180910390a25050565b3360009081526001602052604081205460ff16600281111561136c5761136c613e55565b146113ae5760405162461bcd60e51b8152602060048201526012602482015271105b1c9958591e481c9959da5cdd195c995960721b604482015260640161059f565b3360009081526004602052604090206006015460ff16156113e15760405162461bcd60e51b815260040161059f90614ad8565b826114255760405162461bcd60e51b81526020600482015260146024820152734e616d652063616e6e6f7420626520656d70747960601b604482015260640161059f565b806114725760405162461bcd60e51b815260206004820152601a60248201527f5075626c6963206b65792063616e6e6f7420626520656d707479000000000000604482015260640161059f565b336000908152600160208181526040808420805460ff19169093179092556002905290206114a182848361481e565b503360009081526003602052604090206114bc84868361481e565b50336001600160a01b03167f8e18574f8a7333e6a87112742a55853a643e2f0550f4e1a3a2c3f1bb2994441d6001604051610e1c919061413e565b6001600160a01b03811660009081526004602052604081206006810154600782018054849384936060938493849384938493919260ff808316936101008404821693620100009004909116918590600182019060028301906003840190859061155f9061467b565b80601f016020809104026020016040519081016040528092919081815260200182805461158b9061467b565b80156115d85780601f106115ad576101008083540402835291602001916115d8565b820191906000526020600020905b8154815290600101906020018083116115bb57829003601f168201915b505050505094508380546115eb9061467b565b80601f01602080910402602001604051908101604052809291908181526020018280546116179061467b565b80156116645780601f1061163957610100808354040283529160200191611664565b820191906000526020600020905b81548152906001019060200180831161164757829003601f168201915b505050505093508280546116779061467b565b80601f01602080910402602001604051908101604052809291908181526020018280546116a39061467b565b80156116f05780601f106116c5576101008083540402835291602001916116f0565b820191906000526020600020905b8154815290600101906020018083116116d357829003601f168201915b505050505092508180546117039061467b565b80601f016020809104026020016040519081016040528092919081815260200182805461172f9061467b565b801561177c5780601f106117515761010080835404028352916020019161177c565b820191906000526020600020905b81548152906001019060200180831161175f57829003601f168201915b5050505050915080805461178f9061467b565b80601f01602080910402602001604051908101604052809291908181526020018280546117bb9061467b565b80156118085780601f106117dd57610100808354040283529160200191611808565b820191906000526020600020905b8154815290600101906020018083116117eb57829003601f168201915b505050505090509850985098509850985098509850985050919395975091939597565b6001600160a01b0381166000908152600260205260408120805460609291906118539061467b565b80601f016020809104026020016040519081016040528092919081815260200182805461187f9061467b565b80156118cc5780601f106118a1576101008083540402835291602001916118cc565b820191906000526020600020905b8154815290600101906020018083116118af57829003601f168201915b505050505090506000815111610f465760405162461bcd60e51b815260206004820152602960248201527f4e6f207075626c6963206b6579207265676973746572656420666f722074686960448201526873206164647265737360b81b606482015260840161059f565b60013360009081526001602052604090205460ff16600281111561195c5761195c613e55565b146119795760405162461bcd60e51b815260040161059f9061492d565b3360009081526009602090815260408083206001600160a01b038516845290915290205460ff166119ec5760405162461bcd60e51b815260206004820152601b60248201527f446f63746f7220646f6573206e6f742068617665206163636573730000000000604482015260640161059f565b3360008181526009602090815260408083206001600160a01b03861684528252808320805460ff19169055928252600b9052908120905b8154811015611a96576008828281548110611a4057611a406146f9565b90600052602060002001604051611a579190614b1b565b90815260408051602092819003830190206001600160a01b038616600090815292528120611a8491613d6d565b80611a8e81614725565b915050611a23565b506040516001600160a01b0383169033907f825c8be24eb0df19500f63e86c29e7d0d951e73056b889b891d85e40938d9b6e90600090a35050565b60013360009081526001602052604090205460ff166002811115611af757611af7613e55565b14611b145760405162461bcd60e51b815260040161059f9061492d565b336000908152600760205260409020548110611b725760405162461bcd60e51b815260206004820152601a60248201527f5265636f726420696e646578206f7574206f6620626f756e6473000000000000604482015260640161059f565b336000908152600760205260408120805483908110611b9357611b936146f9565b6000918252602082206007909102019150600582015460ff166002811115611bbd57611bbd613e55565b14611c025760405162461bcd60e51b81526020600482015260156024820152745265636f7264206973206e6f742070656e64696e6760581b604482015260640161059f565b60058101805460ff1916600217905560405133907f67813150e12a88a933a212e01460fbb9da398d9f273927860439f64efac5538f9061133c9085908590614b91565b60013360009081526001602052604090205460ff166002811115611c6b57611c6b613e55565b14611c885760405162461bcd60e51b815260040161059f9061492d565b336000908152600760205260409020548110611ce65760405162461bcd60e51b815260206004820152601a60248201527f5265636f726420696e646578206f7574206f6620626f756e6473000000000000604482015260640161059f565b336000908152600760205260408120805483908110611d0757611d076146f9565b6000918252602082206007909102019150600582015460ff166002811115611d3157611d31613e55565b14611d765760405162461bcd60e51b81526020600482015260156024820152745265636f7264206973206e6f742070656e64696e6760581b604482015260640161059f565b60058101805460ff19166001908117909155336000908152600b602090815260408220805493840181558252902001611daf8282614972565b5033600090815260096020908152604080832060028501546001600160a01b0316845290915290205460ff16611e49573360008181526009602090815260408083206002860180546001600160a01b039081168652918452828520805460ff19166001908117909155958552600a84529184209154825495860183559184529190922090920180546001600160a01b031916919092161790555b60405133907f24055d14743ca3f4c9f408d9ee74f1c45a082e250dca49cb8b49d7b7f697e8099061133c9085908590614b91565b606060013360009081526001602052604090205460ff166002811115611ea557611ea5613e55565b14611ec25760405162461bcd60e51b815260040161059f9061492d565b336000908152600b6020908152604080832080548251818502810185019093528083529193909284015b82821015611f98578382906000526020600020018054611f0b9061467b565b80601f0160208091040260200160405190810160405280929190818152602001828054611f379061467b565b8015611f845780601f10611f5957610100808354040283529160200191611f84565b820191906000526020600020905b815481529060010190602001808311611f6757829003601f168201915b505050505081526020019060010190611eec565b50505050905090565b60026020526000908152604090208054611fba9061467b565b80601f0160208091040260200160405190810160405280929190818152602001828054611fe69061467b565b80156120335780601f1061200857610100808354040283529160200191612033565b820191906000526020600020905b81548152906001019060200180831161201657829003601f168201915b505050505081565b60023360009081526001602052604090205460ff16600281111561206157612061613e55565b1461207e5760405162461bcd60e51b815260040161059f906146b5565b60016001600160a01b038a1660009081526001602052604090205460ff1660028111156120ad576120ad613e55565b146121055760405162461bcd60e51b815260206004820152602260248201527f546172676574206973206e6f74206120726567697374657265642070617469656044820152611b9d60f21b606482015260840161059f565b866121485760405162461bcd60e51b81526020600482015260136024820152724349442063616e6e6f7420626520656d70747960681b604482015260640161059f565b846121955760405162461bcd60e51b815260206004820152601d60248201527f456e63727970746564206b65792063616e6e6f7420626520656d707479000000604482015260640161059f565b826121e25760405162461bcd60e51b815260206004820152601960248201527f46696c6520747970652063616e6e6f7420626520656d70747900000000000000604482015260640161059f565b8061222f5760405162461bcd60e51b815260206004820152601960248201527f46696c65206e616d652063616e6e6f7420626520656d70747900000000000000604482015260640161059f565b6001600160a01b03891660009081526007602090815260409182902080548351610100601f8d018590049094028101840190945260e084018b8152909391928291908d908d90819085018382808284376000920191909152505050908252506001600160a01b038d16602080830191909152336040808401919091528051601f8a01839004830281018301909152888152606090920191908990899081908401838280828437600092019190915250505090825250604080516020601f880181900481028201810190925286815291810191908790879081908401838280828437600092018290525093855250506020909201915081524260209182015282546001810184556000938452922081519192600702019081906123519082614baa565b5060208201516001820180546001600160a01b039283166001600160a01b0319918216179091556040840151600284018054919093169116179055606082015160038201906123a09082614baa565b50608082015160048201906123b59082614baa565b5060a082015160058201805460ff191660018360028111156123d9576123d9613e55565b021790555060c082015181600601555050868660088b8b6040516123fe92919061491d565b90815260408051602092819003830190206001600160a01b038f166000908152925290209161242e91908361481e565b50336001600160a01b03168a6001600160a01b03167f74f48835a36ac5fd7d7a1dc680b421425dcf650aba8cd1440817673d60c1483f8b8b85426040516124789493929190614c5b565b60405180910390a350505050505050505050565b600060013360009081526001602052604090205460ff1660028111156124b4576124b4613e55565b146124d15760405162461bcd60e51b815260040161059f9061492d565b503360009081526007602052604090205490565b600060013360009081526001602052604090205460ff16600281111561250d5761250d613e55565b1461252a5760405162461bcd60e51b815260040161059f9061492d565b33600090815260076020526040812090805b82548110156125a6576000838281548110612559576125596146f9565b600091825260209091206005600790920201015460ff16600281111561258157612581613e55565b03612594578161259081614725565b9250505b8061259e81614725565b91505061253c565b5091505090565b60036020526000908152604090208054611fba9061467b565b60608060013360009081526001602052604090205460ff1660028111156125ef576125ef613e55565b1461260c5760405162461bcd60e51b815260040161059f9061492d565b33600090815260076020526040812090805b825481101561268857600083828154811061263b5761263b6146f9565b600091825260209091206005600790920201015460ff16600281111561266357612663613e55565b03612676578161267281614725565b9250505b8061268081614725565b91505061261e565b506000816001600160401b038111156126a3576126a361473e565b6040519080825280602002602001820160405280156126dc57816020015b6126c9613cf2565b8152602001906001900390816126c15790505b5090506000826001600160401b038111156126f9576126f961473e565b604051908082528060200260200182016040528015612722578160200160208202803683370190505b5090506000805b8554811015612a10576000868281548110612746576127466146f9565b600091825260209091206005600790920201015460ff16600281111561276e5761276e613e55565b036129fe57858181548110612785576127856146f9565b90600052602060002090600702016040518060e00160405290816000820180546127ae9061467b565b80601f01602080910402602001604051908101604052809291908181526020018280546127da9061467b565b80156128275780601f106127fc57610100808354040283529160200191612827565b820191906000526020600020905b81548152906001019060200180831161280a57829003601f168201915b505050918352505060018201546001600160a01b03908116602083015260028301541660408201526003820180546060909201916128649061467b565b80601f01602080910402602001604051908101604052809291908181526020018280546128909061467b565b80156128dd5780601f106128b2576101008083540402835291602001916128dd565b820191906000526020600020905b8154815290600101906020018083116128c057829003601f168201915b505050505081526020016004820180546128f69061467b565b80601f01602080910402602001604051908101604052809291908181526020018280546129229061467b565b801561296f5780601f106129445761010080835404028352916020019161296f565b820191906000526020600020905b81548152906001019060200180831161295257829003601f168201915b5050509183525050600582015460209091019060ff16600281111561299657612996613e55565b60028111156129a7576129a7613e55565b81526020016006820154815250508483815181106129c7576129c76146f9565b6020026020010181905250808383815181106129e5576129e56146f9565b6020908102919091010152816129fa81614725565b9250505b80612a0881614725565b915050612729565b5091955093505050509091565b3360009081526001602052604081205460ff166002811115612a4157612a41613e55565b14612a835760405162461bcd60e51b8152602060048201526012602482015271105b1c9958591e481c9959da5cdd195c995960721b604482015260640161059f565b3360009081526004602052604090206006015460ff1615612ab65760405162461bcd60e51b815260040161059f90614ad8565b88612afa5760405162461bcd60e51b81526020600482015260146024820152734e616d652063616e6e6f7420626520656d70747960601b604482015260640161059f565b86612b475760405162461bcd60e51b815260206004820152601e60248201527f4c6963656e7365206e756d6265722063616e6e6f7420626520656d7074790000604482015260640161059f565b80612b945760405162461bcd60e51b815260206004820152601a60248201527f5075626c6963206b65792063616e6e6f7420626520656d707479000000000000604482015260640161059f565b6040518061014001604052808b8b8080601f016020809104026020016040519081016040528093929190818152602001838380828437600092019190915250505090825250604080516020601f8c018190048102820181019092528a815291810191908b908b9081908401838280828437600092019190915250505090825250604080516020601f8a0181900481028201810190925288815291810191908990899081908401838280828437600092019190915250505090825250604080516020601f880181900481028201810190925286815291810191908790879081908401838280828437600092019190915250505090825250604080516020601f8601819004810282018101909252848152918101919085908590819084018382808284376000920182905250938552505042602080850191909152600160408086019190915260608501849052608085018490528051808301825284815260a09095019490945233835260049052502081518190612d109082614baa565b5060208201516001820190612d259082614baa565b5060408201516002820190612d3a9082614baa565b5060608201516003820190612d4f9082614baa565b5060808201516004820190612d649082614baa565b5060a0820151600582015560c082015160068201805460e08501516101008087015161ffff1990931694151561ff001916949094179015159093029290921762ff0000191662010000921515929092029190911790556101208201516007820190612dcf9082614baa565b5050600580546001810182556000919091527f036b6384b5eca791c62761152d0c79bb0604c104a5fb6f4eb0703f3154bb3db00180546001600160a01b031916339081179091556040519091507fa10fac549d353fda0c9e8727471521d618e71c7ad4bea1441e49cce316ce216b90612e4f908d908d908d908d90614c82565b60405180910390a250505050505050505050565b606060013360009081526001602052604090205460ff166002811115612e8b57612e8b613e55565b14612ea85760405162461bcd60e51b815260040161059f9061492d565b33600090815260076020526040812090805b8254811015612f24576001838281548110612ed757612ed76146f9565b600091825260209091206005600790920201015460ff166002811115612eff57612eff613e55565b03612f125781612f0e81614725565b9250505b80612f1c81614725565b915050612eba565b506000816001600160401b03811115612f3f57612f3f61473e565b604051908082528060200260200182016040528015612f7857816020015b612f65613cf2565b815260200190600190039081612f5d5790505b5090506000805b8454811015611189576001858281548110612f9c57612f9c6146f9565b600091825260209091206005600790920201015460ff166002811115612fc457612fc4613e55565b0361323557848181548110612fdb57612fdb6146f9565b90600052602060002090600702016040518060e00160405290816000820180546130049061467b565b80601f01602080910402602001604051908101604052809291908181526020018280546130309061467b565b801561307d5780601f106130525761010080835404028352916020019161307d565b820191906000526020600020905b81548152906001019060200180831161306057829003601f168201915b505050918352505060018201546001600160a01b03908116602083015260028301541660408201526003820180546060909201916130ba9061467b565b80601f01602080910402602001604051908101604052809291908181526020018280546130e69061467b565b80156131335780601f1061310857610100808354040283529160200191613133565b820191906000526020600020905b81548152906001019060200180831161311657829003601f168201915b5050505050815260200160048201805461314c9061467b565b80601f01602080910402602001604051908101604052809291908181526020018280546131789061467b565b80156131c55780601f1061319a576101008083540402835291602001916131c5565b820191906000526020600020905b8154815290600101906020018083116131a857829003601f168201915b5050509183525050600582015460209091019060ff1660028111156131ec576131ec613e55565b60028111156131fd576131fd613e55565b815260200160068201548152505083838061321790614725565b945081518110613229576132296146f9565b60200260200101819052505b8061323f81614725565b915050612f7f565b6000546060906001600160a01b031633146132745760405162461bcd60e51b815260040161059f90614754565b6006546000906001600160401b038111156132915761329161473e565b6040519080825280602002602001820160405280156132ca57816020015b6132b7613d2e565b8152602001906001900390816132af5790505b50905060005b600654811015610d49576000600682815481106132ef576132ef6146f9565b60009182526020808320909101546001600160a01b031680835260048252604092839020835160c081019094528184528054919450929182019083906133349061467b565b80601f01602080910402602001604051908101604052809291908181526020018280546133609061467b565b80156133ad5780601f10613382576101008083540402835291602001916133ad565b820191906000526020600020905b81548152906001019060200180831161339057829003601f168201915b505050505081526020018260010180546133c69061467b565b80601f01602080910402602001604051908101604052809291908181526020018280546133f29061467b565b801561343f5780601f106134145761010080835404028352916020019161343f565b820191906000526020600020905b81548152906001019060200180831161342257829003601f168201915b505050505081526020018260020180546134589061467b565b80601f01602080910402602001604051908101604052809291908181526020018280546134849061467b565b80156134d15780601f106134a6576101008083540402835291602001916134d1565b820191906000526020600020905b8154815290600101906020018083116134b457829003601f168201915b505050505081526020018260030180546134ea9061467b565b80601f01602080910402602001604051908101604052809291908181526020018280546135169061467b565b80156135635780601f1061353857610100808354040283529160200191613563565b820191906000526020600020905b81548152906001019060200180831161354657829003601f168201915b505050505081526020018260050154815250848481518110613587576135876146f9565b60200260200101819052505050808061359f90614725565b9150506132d0565b60013360009081526001602052604090205460ff1660028111156135cd576135cd613e55565b146135ea5760405162461bcd60e51b815260040161059f9061492d565b60026001600160a01b03861660009081526001602052604090205460ff16600281111561361957613619613e55565b146136705760405162461bcd60e51b815260206004820152602160248201527f546172676574206973206e6f742061207265676973746572656420646f63746f6044820152603960f91b606482015260840161059f565b826136b35760405162461bcd60e51b81526020600482015260136024820152724349442063616e6e6f7420626520656d70747960681b604482015260640161059f565b6000600885856040516136c792919061491d565b90815260408051602092819003830190203360009081529252902080546136ed9061467b565b90501161373c5760405162461bcd60e51b815260206004820152601a60248201527f596f7520646f206e6f74206f776e2074686973207265636f7264000000000000604482015260640161059f565b3360009081526009602090815260408083206001600160a01b038916845290915290205460ff166137c4573360008181526009602090815260408083206001600160a01b038a16808552908352818420805460ff19166001908117909155948452600a8352908320805494850181558352912090910180546001600160a01b03191690911790555b8181600886866040516137d892919061491d565b90815260408051602092819003830190206001600160a01b038a166000908152925290209161380891908361481e565b50846001600160a01b0316336001600160a01b03167fc7e5c007251689b9bc3cb624f55714afc5988f3e3b4e20cc6a606d7bad6faeca868660405161384e929190614901565b60405180910390a35050505050565b6004602052600090815260409020805481906138789061467b565b80601f01602080910402602001604051908101604052809291908181526020018280546138a49061467b565b80156138f15780601f106138c6576101008083540402835291602001916138f1565b820191906000526020600020905b8154815290600101906020018083116138d457829003601f168201915b5050505050908060010180546139069061467b565b80601f01602080910402602001604051908101604052809291908181526020018280546139329061467b565b801561397f5780601f106139545761010080835404028352916020019161397f565b820191906000526020600020905b81548152906001019060200180831161396257829003601f168201915b5050505050908060020180546139949061467b565b80601f01602080910402602001604051908101604052809291908181526020018280546139c09061467b565b8015613a0d5780601f106139e257610100808354040283529160200191613a0d565b820191906000526020600020905b8154815290600101906020018083116139f057829003601f168201915b505050505090806003018054613a229061467b565b80601f0160208091040260200160405190810160405280929190818152602001828054613a4e9061467b565b8015613a9b5780601f10613a7057610100808354040283529160200191613a9b565b820191906000526020600020905b815481529060010190602001808311613a7e57829003601f168201915b505050505090806004018054613ab09061467b565b80601f0160208091040260200160405190810160405280929190818152602001828054613adc9061467b565b8015613b295780601f10613afe57610100808354040283529160200191613b29565b820191906000526020600020905b815481529060010190602001808311613b0c57829003601f168201915b50505050600583015460068401546007850180549495929460ff808416955061010084048116946201000090940416929190613b649061467b565b80601f0160208091040260200160405190810160405280929190818152602001828054613b909061467b565b8015613bdd5780601f10613bb257610100808354040283529160200191613bdd565b820191906000526020600020905b815481529060010190602001808311613bc057829003601f168201915b505050505090508a565b60005b600554811015613cee57816001600160a01b031660058281548110613c1157613c116146f9565b6000918252602090912001546001600160a01b031603613cdc5760058054613c3b90600190614cb4565b81548110613c4b57613c4b6146f9565b600091825260209091200154600580546001600160a01b039092169183908110613c7757613c776146f9565b9060005260206000200160006101000a8154816001600160a01b0302191690836001600160a01b031602179055506005805480613cb657613cb6614cc7565b600082815260209020810160001990810180546001600160a01b03191690550190555050565b80613ce681614725565b915050613bea565b5050565b6040805160e081018252606080825260006020830181905292820183905280820181905260808201529060a08201908152602001600081525090565b6040518060c0016040528060006001600160a01b0316815260200160608152602001606081526020016060815260200160608152602001600081525090565b508054613d799061467b565b6000825580601f10613d89575050565b601f016020900490600052602060002090810190613da79190613daa565b50565b5b80821115613dbf5760008155600101613dab565b5090565b80356001600160a01b03811681146109e457600080fd5b600060208284031215613dec57600080fd5b613df582613dc3565b9392505050565b6000815180845260005b81811015613e2257602081850181015186830182015201613e06565b506000602082860101526020601f19601f83011685010191505092915050565b602081526000613df56020830184613dfc565b634e487b7160e01b600052602160045260246000fd5b60038110613da757634e487b7160e01b600052602160045260246000fd5b613e9281613e6b565b9052565b600082825180855260208086019550808260051b84010181860160005b84811015613f6657601f19868403018952815160e08151818652613ed982870182613dfc565b838801516001600160a01b03908116888a015260408086015190911690880152606080850151888303828a01529193509150613f158382613dfc565b9250505060808083015186830382880152613f308382613dfc565b9250505060a080830151613f4682880182613e89565b505060c09182015194909101939093529783019790830190600101613eb3565b5090979650505050505050565b602081526000613df56020830184613e96565b60006020808301818452808551808352604092508286019150828160051b87010184880160005b8381101561405557888303603f19018552815180516001600160a01b031684528781015160c089860181905290613fe682870182613dfc565b9150508782015185820389870152613ffe8282613dfc565b915050606080830151868303828801526140188382613dfc565b92505050608080830151868303828801526140338382613dfc565b60a0948501519790940196909652505094870194925090860190600101613fad565b509098975050505050505050565b60008083601f84011261407557600080fd5b5081356001600160401b0381111561408c57600080fd5b6020830191508360208285010111156140a457600080fd5b9250929050565b6000806000604084860312156140c057600080fd5b6140c984613dc3565b925060208401356001600160401b038111156140e457600080fd5b6140f086828701614063565b9497909650939450505050565b6000806020838503121561411057600080fd5b82356001600160401b0381111561412657600080fd5b61413285828601614063565b90969095509350505050565b6020810161414b83613e6b565b91905290565b6020808252825182820181905260009190848201906040850190845b818110156141925783516001600160a01b03168352928401929184019160010161416d565b50909695505050505050565b600080604083850312156141b157600080fd5b6141ba83613dc3565b91506141c860208401613dc3565b90509250929050565b600080600080604085870312156141e757600080fd5b84356001600160401b03808211156141fe57600080fd5b61420a88838901614063565b9096509450602087013591508082111561422357600080fd5b5061423087828801614063565b95989497509550505050565b60006101008a151583528915156020840152881515604084015280606084015261426881840189613dfc565b9050828103608084015261427c8188613dfc565b905082810360a08401526142908187613dfc565b905082810360c08401526142a48186613dfc565b905082810360e08401526142b88185613dfc565b9b9a5050505050505050505050565b6000602082840312156142d957600080fd5b5035919050565b6000602080830181845280855180835260408601915060408160051b870101925083870160005b8281101561433557603f19888603018452614323858351613dfc565b94509285019290850190600101614307565b5092979650505050505050565b600080600080600080600080600060a08a8c03121561436057600080fd5b6143698a613dc3565b985060208a01356001600160401b038082111561438557600080fd5b6143918d838e01614063565b909a50985060408c01359150808211156143aa57600080fd5b6143b68d838e01614063565b909850965060608c01359150808211156143cf57600080fd5b6143db8d838e01614063565b909650945060808c01359150808211156143f457600080fd5b506144018c828d01614063565b915080935050809150509295985092959850929598565b60408152600061442b6040830185613e96565b82810360208481019190915284518083528582019282019060005b81811015613f6657845183529383019391830191600101614446565b60008060008060008060008060008060a08b8d03121561448157600080fd5b8a356001600160401b038082111561449857600080fd5b6144a48e838f01614063565b909c509a5060208d01359150808211156144bd57600080fd5b6144c98e838f01614063565b909a50985060408d01359150808211156144e257600080fd5b6144ee8e838f01614063565b909850965060608d013591508082111561450757600080fd5b6145138e838f01614063565b909650945060808d013591508082111561452c57600080fd5b506145398d828e01614063565b915080935050809150509295989b9194979a5092959850565b60008060008060006060868803121561456a57600080fd5b61457386613dc3565b945060208601356001600160401b038082111561458f57600080fd5b61459b89838a01614063565b909650945060408801359150808211156145b457600080fd5b506145c188828901614063565b969995985093965092949392505050565b60006101408083526145e68184018e613dfc565b905082810360208401526145fa818d613dfc565b9050828103604084015261460e818c613dfc565b90508281036060840152614622818b613dfc565b90508281036080840152614636818a613dfc565b90508760a084015286151560c084015285151560e084015284151561010084015282810361012084015261466a8185613dfc565b9d9c50505050505050505050505050565b600181811c9082168061468f57607f821691505b6020821081036146af57634e487b7160e01b600052602260045260246000fd5b50919050565b60208082526024908201527f4f6e6c7920646f63746f72732063616e20706572666f726d20746869732061636040820152633a34b7b760e11b606082015260800190565b634e487b7160e01b600052603260045260246000fd5b634e487b7160e01b600052601160045260246000fd5b6000600182016147375761473761470f565b5060010190565b634e487b7160e01b600052604160045260246000fd5b6020808252600990820152682737ba1030b236b4b760b91b604082015260600190565b60208082526023908201527f4e6f2070656e64696e67207265717565737420666f722074686973206164647260408201526265737360e81b606082015260800190565b601f82111561480457600081815260208120601f850160051c810160208610156147e15750805b601f850160051c820191505b81811015614800578281556001016147ed565b5050505b505050565b600019600383901b1c191660019190911b1790565b6001600160401b038311156148355761483561473e565b61484983614843835461467b565b836147ba565b6000601f84116001811461487757600085156148655750838201355b61486f8682614809565b8455506148d1565b600083815260209020601f19861690835b828110156148a85786850135825560209485019460019092019101614888565b50868210156148c55760001960f88860031b161c19848701351681555b505060018560011b0183555b5050505050565b81835281816020850137506000828201602090810191909152601f909101601f19169091010190565b6020815260006149156020830184866148d8565b949350505050565b8183823760009101908152919050565b60208082526025908201527f4f6e6c792070617469656e74732063616e20706572666f726d2074686973206160408201526431ba34b7b760d91b606082015260800190565b81810361497d575050565b614987825461467b565b6001600160401b0381111561499e5761499e61473e565b6149b2816149ac845461467b565b846147ba565b6000601f8211600181146149e057600083156149ce5750848201545b6149d88482614809565b8555506148d1565b600085815260209020601f19841690600086815260209020845b83811015614a1a57828601548255600195860195909101906020016149fa565b5085831015614a385781850154600019600388901b60f8161c191681555b5050505050600190811b01905550565b60008154614a558161467b565b808552602060018381168015614a725760018114614a8c57614aba565b60ff1985168884015283151560051b880183019550614aba565b866000528260002060005b85811015614ab25781548a8201860152908301908401614a97565b890184019650505b505050505092915050565b602081526000613df56020830184614a48565b60208082526023908201527f446f63746f7220766572696669636174696f6e20616c72656164792070656e64604082015262696e6760e81b606082015260800190565b6000808354614b298161467b565b60018281168015614b415760018114614b5657614b85565b60ff1984168752821515830287019450614b85565b8760005260208060002060005b85811015614b7c5781548a820152908401908201614b63565b50505082870194505b50929695505050505050565b8281526040602082015260006149156040830184614a48565b81516001600160401b03811115614bc357614bc361473e565b614bd1816149ac845461467b565b602080601f831160018114614c005760008415614bee5750858301515b614bf88582614809565b865550614800565b600085815260208120601f198616915b82811015614c2f57888601518255948401946001909101908401614c10565b5085821015614a3857939096015160001960f8600387901b161c19169092555050600190811b01905550565b606081526000614c6f6060830186886148d8565b6020830194909452506040015292915050565b604081526000614c966040830186886148d8565b8281036020840152614ca98185876148d8565b979650505050505050565b81810381811115610f4657610f4661470f565b634e487b7160e01b600052603160045260246000fdfea2646970667358221220b04cc970d461caf6d149c882706a55f131f29e14aa81c5b812ed6774ff047c1164736f6c63430008140033",
  "linkReferences": {},
  "deployedLinkReferences": {}
}