{
  "_format": "hh-sol-artifact-1",
  "contractName": "MedicalRecordVault",
  "sourceName": "contracts/MedicalRecordVault.sol",
  "abi": [
    {
      "inputs": [],
      "stateMutability": "nonpayable",
      "type": "constructor"
    },
    {
      "anonymous": false,
      "inputs": [
        {
          "indexed": true,
          "internalType": "address",
          "name": "patient",
          "type": "address"
        },
        {
          "indexed": true,
          "internalType": "address",
          "name": "doctor",
          "type": "address"
        },
        {
          "indexed": false,
          "internalType": "string",
          "name": "cid",
          "type": "string"
        }
      ],
      "name": "AccessGranted",
      "type": "event"
    },
    {
      "anonymous": false,
      "inputs": [
        {
          "indexed": true,
          "internalType": "address",
          "name": "patient",
          "type": "address"
        },
        {
          "indexed": true,
          "internalType": "address",
          "name": "doctor",
          "type": "address"
        }
      ],
      "name": "AccessRevoked",
      "type": "event"
    },
    {
      "anonymous": false,
      "inputs": [
        {
          "indexed": true,
          "internalType": "address",
          "name": "patient",
          "type": "address"
        },
        {
          "indexed": true,
          "internalType": "address",
          "name": "doctor",
          "type": "address"
        },
        {
          "indexed": false,
          "internalType": "string",
          "name": "cid",
          "type": "string"
        }
      ],
      "name": "AccessRevokedForCid",
      "type": "event"
    },
    {
      "anonymous": false,
      "inputs": [
        {
          "indexed": true,
          "internalType": "address",
          "name": "doctor",
          "type": "address"
        },
        {
          "indexed": false,
          "internalType": "string",
          "name": "name",
          "type": "string"
        }
      ],
      "name": "DoctorApproved",
      "type": "event"
    },
    {
      "anonymous": false,
      "inputs": [
        {
          "indexed": true,
          "internalType": "address",
          "name": "doctor",
          "type": "address"
        },
        {
          "indexed": false,
          "internalType": "string",
          "name": "reason",
          "type": "string"
        }
      ],
      "name": "DoctorRejected",
      "type": "event"
    },
    {
      "anonymous": false,
      "inputs": [
        {
          "indexed": true,
          "internalType": "address",
          "name": "doctor",
          "type": "address"
        },
        {
          "indexed": false,
          "internalType": "string",
          "name": "name",
          "type": "string"
        },
        {
          "indexed": false,
          "internalType": "string",
          "name": "licenseNumber",
          "type": "string"
        }
      ],
      "name": "DoctorRequestSubmitted",
      "type": "event"
    },
    {
      "anonymous": false,
      "inputs": [
        {
          "indexed": true,
          "internalType": "address",
          "name": "patient",
          "type": "address"
        },
        {
          "indexed": false,
          "internalType": "uint256",
          "name": "recordIndex",
          "type": "uint256"
        },
        {
          "indexed": false,
          "internalType": "string",
          "name": "cid",
          "type": "string"
        }
      ],
      "name": "RecordApproved",
      "type": "event"
    },
    {
      "anonymous": false,
      "inputs": [
        {
          "indexed": true,
          "internalType": "address",
          "name": "patient",
          "type": "address"
        },
        {
          "indexed": false,
          "internalType": "uint256",
          "name": "recordIndex",
          "type": "uint256"
        },
        {
          "indexed": false,
          "internalType": "string",
          "name": "cid",
          "type": "string"
        }
      ],
      "name": "RecordRejected",
      "type": "event"
    },
    {
      "anonymous": false,
      "inputs": [
        {
          "indexed": true,
          "internalType": "address",
          "name": "patient",
          "type": "address"
        },
        {
          "indexed": true,
          "internalType": "address",
          "name": "doctor",
          "type": "address"
        },
        {
          "indexed": false,
          "internalType": "string",
          "name": "cid",
          "type": "string"
        },
        {
          "indexed": false,
          "internalType": "uint256",
          "name": "recordIndex",
          "type": "uint256"
        },
        {
          "indexed": false,
          "internalType": "uint256",
          "name": "timestamp",
          "type": "uint256"
        }
      ],
      "name": "RecordSubmitted",
      "type": "event"
    },
    {
      "anonymous": false,
      "inputs": [
        {
          "indexed": true,
          "internalType": "address",
          "name": "user",
          "type": "address"
        },
        {
          "indexed": false,
          "internalType": "enum MedicalRecordVault.Role",
          "name": "role",
          "type": "uint8"
        }
      ],
      "name": "UserRegistered",
      "type": "event"
    },
    {
      "inputs": [
        {
          "internalType": "address",
          "name": "",
          "type": "address"
        },
        {
          "internalType": "address",
          "name": "",
          "type": "address"
        }
      ],
      "name": "accessList",
      "outputs": [
        {
          "internalType": "bool",
          "name": "",
          "type": "bool"
        }
      ],
      "stateMutability": "view",
      "type": "function"
    },
    {
      "inputs": [
        {
          "internalType": "address",
          "name": "_doctor",
          "type": "address"
        }
      ],
      "name": "approveDoctor",
      "outputs": [],
      "stateMutability": "nonpayable",
      "type": "function"
    },
    {
      "inputs": [
        {
          "internalType": "uint256",
          "name": "_recordIndex",
          "type": "uint256"
        }
      ],
      "name": "approveRecord",
      "outputs": [],
      "stateMutability": "nonpayable",
      "type": "function"
    },
    {
      "inputs": [
        {
          "internalType": "address",
          "name": "",
          "type": "address"
        }
      ],
      "name": "displayNames",
      "outputs": [
        {
          "internalType": "string",
          "name": "",
          "type": "string"
        }
      ],
      "stateMutability": "view",
      "type": "function"
    },
    {
      "inputs": [
        {
          "internalType": "address",
          "name": "",
          "type": "address"
        }
      ],
      "name": "doctorRequests",
      "outputs": [
        {
          "internalType": "string",
          "name": "name",
          "type": "string"
        },
        {
          "internalType": "string",
          "name": "licenseNumber",
          "type": "string"
        },
        {
          "internalType": "string",
          "name": "specialization",
          "type": "string"
        },
        {
          "internalType": "string",
          "name": "hospital",
          "type": "string"
        },
        {
          "internalType": "string",
          "name": "ktpNumber",
          "type": "string"
        },
        {
          "internalType": "string",
          "name": "phoneNumber",
          "type": "string"
        },
        {
          "internalType": "string",
          "name": "photoCid",
          "type": "string"
        },
        {
          "internalType": "string",
          "name": "publicKey",
          "type": "string"
        },
        {
          "internalType": "uint256",
          "name": "requestedAt",
          "type": "uint256"
        },
        {
          "internalType": "bool",
          "name": "isPending",
          "type": "bool"
        },
        {
          "internalType": "bool",
          "name": "isApproved",
          "type": "bool"
        },
        {
          "internalType": "bool",
          "name": "isRejected",
          "type": "bool"
        },
        {
          "internalType": "string",
          "name": "rejectReason",
          "type": "string"
        }
      ],
      "stateMutability": "view",
      "type": "function"
    },
    {
      "inputs": [
        {
          "internalType": "address",
          "name": "_doctor",
          "type": "address"
        }
      ],
      "name": "getAccessibleCidsForDoctor",
      "outputs": [
        {
          "internalType": "string[]",
          "name": "",
          "type": "string[]"
        }
      ],
      "stateMutability": "view",
      "type": "function"
    },
    {
      "inputs": [],
      "name": "getApprovedDoctors",
      "outputs": [
        {
          "components": [
            {
              "internalType": "address",
              "name": "addr",
              "type": "address"
            },
            {
              "internalType": "string",
              "name": "name",
              "type": "string"
            },
            {
              "internalType": "string",
              "name": "licenseNumber",
              "type": "string"
            },
            {
              "internalType": "string",
              "name": "specialization",
              "type": "string"
            },
            {
              "internalType": "string",
              "name": "hospital",
              "type": "string"
            },
            {
              "internalType": "string",
              "name": "ktpNumber",
              "type": "string"
            },
            {
              "internalType": "string",
              "name": "phoneNumber",
              "type": "string"
            },
            {
              "internalType": "string",
              "name": "photoCid",
              "type": "string"
            },
            {
              "internalType": "uint256",
              "name": "requestedAt",
              "type": "uint256"
            }
          ],
          "internalType": "struct MedicalRecordVault.DoctorRequestView[]",
          "name": "",
          "type": "tuple[]"
        }
      ],
      "stateMutability": "view",
      "type": "function"
    },
    {
      "inputs": [],
      "name": "getAuthorizedDoctors",
      "outputs": [
        {
          "internalType": "address[]",
          "name": "",
          "type": "address[]"
        }
      ],
      "stateMutability": "view",
      "type": "function"
    },
    {
      "inputs": [
        {
          "internalType": "address",
          "name": "_account",
          "type": "address"
        }
      ],
      "name": "getDisplayName",
      "outputs": [
        {
          "internalType": "string",
          "name": "",
          "type": "string"
        }
      ],
      "stateMutability": "view",
      "type": "function"
    },
    {
      "inputs": [
        {
          "internalType": "address",
          "name": "_addr",
          "type": "address"
        }
      ],
      "name": "getDoctorRequest",
      "outputs": [
        {
          "internalType": "bool",
          "name": "isPending",
          "type": "bool"
        },
        {
          "internalType": "bool",
          "name": "isApproved",
          "type": "bool"
        },
        {
          "internalType": "bool",
          "name": "isRejected",
          "type": "bool"
        },
        {
          "internalType": "string",
          "name": "rejectReason",
          "type": "string"
        },
        {
          "internalType": "string",
          "name": "name",
          "type": "string"
        },
        {
          "internalType": "string",
          "name": "licenseNumber",
          "type": "string"
        },
        {
          "internalType": "string",
          "name": "specialization",
          "type": "string"
        },
        {
          "internalType": "string",
          "name": "hospital",
          "type": "string"
        },
        {
          "internalType": "string",
          "name": "ktpNumber",
          "type": "string"
        },
        {
          "internalType": "string",
          "name": "phoneNumber",
          "type": "string"
        },
        {
          "internalType": "string",
          "name": "photoCid",
          "type": "string"
        }
      ],
      "stateMutability": "view",
      "type": "function"
    },
    {
      "inputs": [],
      "name": "getDoctorSubmittedRecords",
      "outputs": [
        {
          "components": [
            {
              "internalType": "string",
              "name": "cid",
              "type": "string"
            },
            {
              "internalType": "address",
              "name": "patientAddress",
              "type": "address"
            },
            {
              "internalType": "address",
              "name": "doctorAddress",
              "type": "address"
            },
            {
              "internalType": "string",
              "name": "fileType",
              "type": "string"
            },
            {
              "internalType": "string",
              "name": "fileName",
              "type": "string"
            },
            {
              "internalType": "string",
              "name": "notes",
              "type": "string"
            },
            {
              "internalType": "enum MedicalRecordVault.RecordStatus",
              "name": "status",
              "type": "uint8"
            },
            {
              "internalType": "uint256",
              "name": "timestamp",
              "type": "uint256"
            }
          ],
          "internalType": "struct MedicalRecordVault.Record[]",
          "name": "",
          "type": "tuple[]"
        }
      ],
      "stateMutability": "view",
      "type": "function"
    },
    {
      "inputs": [
        {
          "internalType": "string",
          "name": "_cid",
          "type": "string"
        }
      ],
      "name": "getEncryptedKey",
      "outputs": [
        {
          "internalType": "string",
          "name": "",
          "type": "string"
        }
      ],
      "stateMutability": "view",
      "type": "function"
    },
    {
      "inputs": [],
      "name": "getMyCids",
      "outputs": [
        {
          "internalType": "string[]",
          "name": "",
          "type": "string[]"
        }
      ],
      "stateMutability": "view",
      "type": "function"
    },
    {
      "inputs": [],
      "name": "getMyRecords",
      "outputs": [
        {
          "components": [
            {
              "internalType": "string",
              "name": "cid",
              "type": "string"
            },
            {
              "internalType": "address",
              "name": "patientAddress",
              "type": "address"
            },
            {
              "internalType": "address",
              "name": "doctorAddress",
              "type": "address"
            },
            {
              "internalType": "string",
              "name": "fileType",
              "type": "string"
            },
            {
              "internalType": "string",
              "name": "fileName",
              "type": "string"
            },
            {
              "internalType": "string",
              "name": "notes",
              "type": "string"
            },
            {
              "internalType": "enum MedicalRecordVault.RecordStatus",
              "name": "status",
              "type": "uint8"
            },
            {
              "internalType": "uint256",
              "name": "timestamp",
              "type": "uint256"
            }
          ],
          "internalType": "struct MedicalRecordVault.Record[]",
          "name": "",
          "type": "tuple[]"
        }
      ],
      "stateMutability": "view",
      "type": "function"
    },
    {
      "inputs": [],
      "name": "getPatientList",
      "outputs": [
        {
          "internalType": "address[]",
          "name": "addrs",
          "type": "address[]"
        },
        {
          "internalType": "string[]",
          "name": "names",
          "type": "string[]"
        }
      ],
      "stateMutability": "view",
      "type": "function"
    },
    {
      "inputs": [
        {
          "internalType": "address",
          "name": "_patient",
          "type": "address"
        }
      ],
      "name": "getPatientRecords",
      "outputs": [
        {
          "components": [
            {
              "internalType": "string",
              "name": "cid",
              "type": "string"
            },
            {
              "internalType": "address",
              "name": "patientAddress",
              "type": "address"
            },
            {
              "internalType": "address",
              "name": "doctorAddress",
              "type": "address"
            },
            {
              "internalType": "string",
              "name": "fileType",
              "type": "string"
            },
            {
              "internalType": "string",
              "name": "fileName",
              "type": "string"
            },
            {
              "internalType": "string",
              "name": "notes",
              "type": "string"
            },
            {
              "internalType": "enum MedicalRecordVault.RecordStatus",
              "name": "status",
              "type": "uint8"
            },
            {
              "internalType": "uint256",
              "name": "timestamp",
              "type": "uint256"
            }
          ],
          "internalType": "struct MedicalRecordVault.Record[]",
          "name": "",
          "type": "tuple[]"
        }
      ],
      "stateMutability": "view",
      "type": "function"
    },
    {
      "inputs": [],
      "name": "getPendingCount",
      "outputs": [
        {
          "internalType": "uint256",
          "name": "",
          "type": "uint256"
        }
      ],
      "stateMutability": "view",
      "type": "function"
    },
    {
      "inputs": [],
      "name": "getPendingDoctorRequests",
      "outputs": [
        {
          "components": [
            {
              "internalType": "address",
              "name": "addr",
              "type": "address"
            },
            {
              "internalType": "string",
              "name": "name",
              "type": "string"
            },
            {
              "internalType": "string",
              "name": "licenseNumber",
              "type": "string"
            },
            {
              "internalType": "string",
              "name": "specialization",
              "type": "string"
            },
            {
              "internalType": "string",
              "name": "hospital",
              "type": "string"
            },
            {
              "internalType": "string",
              "name": "ktpNumber",
              "type": "string"
            },
            {
              "internalType": "string",
              "name": "phoneNumber",
              "type": "string"
            },
            {
              "internalType": "string",
              "name": "photoCid",
              "type": "string"
            },
            {
              "internalType": "uint256",
              "name": "requestedAt",
              "type": "uint256"
            }
          ],
          "internalType": "struct MedicalRecordVault.DoctorRequestView[]",
          "name": "",
          "type": "tuple[]"
        }
      ],
      "stateMutability": "view",
      "type": "function"
    },
    {
      "inputs": [],
      "name": "getPendingRecords",
      "outputs": [
        {
          "components": [
            {
              "internalType": "string",
              "name": "cid",
              "type": "string"
            },
            {
              "internalType": "address",
              "name": "patientAddress",
              "type": "address"
            },
            {
              "internalType": "address",
              "name": "doctorAddress",
              "type": "address"
            },
            {
              "internalType": "string",
              "name": "fileType",
              "type": "string"
            },
            {
              "internalType": "string",
              "name": "fileName",
              "type": "string"
            },
            {
              "internalType": "string",
              "name": "notes",
              "type": "string"
            },
            {
              "internalType": "enum MedicalRecordVault.RecordStatus",
              "name": "status",
              "type": "uint8"
            },
            {
              "internalType": "uint256",
              "name": "timestamp",
              "type": "uint256"
            }
          ],
          "internalType": "struct MedicalRecordVault.Record[]",
          "name": "",
          "type": "tuple[]"
        },
        {
          "internalType": "uint256[]",
          "name": "",
          "type": "uint256[]"
        }
      ],
      "stateMutability": "view",
      "type": "function"
    },
    {
      "inputs": [
        {
          "internalType": "address",
          "name": "_account",
          "type": "address"
        }
      ],
      "name": "getPublicKey",
      "outputs": [
        {
          "internalType": "string",
          "name": "",
          "type": "string"
        }
      ],
      "stateMutability": "view",
      "type": "function"
    },
    {
      "inputs": [],
      "name": "getRecordCount",
      "outputs": [
        {
          "internalType": "uint256",
          "name": "",
          "type": "uint256"
        }
      ],
      "stateMutability": "view",
      "type": "function"
    },
    {
      "inputs": [
        {
          "internalType": "address",
          "name": "_account",
          "type": "address"
        }
      ],
      "name": "getRole",
      "outputs": [
        {
          "internalType": "enum MedicalRecordVault.Role",
          "name": "",
          "type": "uint8"
        }
      ],
      "stateMutability": "view",
      "type": "function"
    },
    {
      "inputs": [
        {
          "internalType": "address",
          "name": "_doctor",
          "type": "address"
        },
        {
          "internalType": "string",
          "name": "_cid",
          "type": "string"
        },
        {
          "internalType": "string",
          "name": "_encryptedKeyForDoctor",
          "type": "string"
        }
      ],
      "name": "grantAccess",
      "outputs": [],
      "stateMutability": "nonpayable",
      "type": "function"
    },
    {
      "inputs": [],
      "name": "owner",
      "outputs": [
        {
          "internalType": "address",
          "name": "",
          "type": "address"
        }
      ],
      "stateMutability": "view",
      "type": "function"
    },
    {
      "inputs": [
        {
          "internalType": "address",
          "name": "",
          "type": "address"
        }
      ],
      "name": "publicKeys",
      "outputs": [
        {
          "internalType": "string",
          "name": "",
          "type": "string"
        }
      ],
      "stateMutability": "view",
      "type": "function"
    },
    {
      "inputs": [
        {
          "internalType": "string",
          "name": "_name",
          "type": "string"
        },
        {
          "internalType": "string",
          "name": "_publicKey",
          "type": "string"
        }
      ],
      "name": "registerAsPatient",
      "outputs": [],
      "stateMutability": "nonpayable",
      "type": "function"
    },
    {
      "inputs": [
        {
          "internalType": "address",
          "name": "_doctor",
          "type": "address"
        },
        {
          "internalType": "string",
          "name": "_reason",
          "type": "string"
        }
      ],
      "name": "rejectDoctor",
      "outputs": [],
      "stateMutability": "nonpayable",
      "type": "function"
    },
    {
      "inputs": [
        {
          "internalType": "uint256",
          "name": "_recordIndex",
          "type": "uint256"
        }
      ],
      "name": "rejectRecord",
      "outputs": [],
      "stateMutability": "nonpayable",
      "type": "function"
    },
    {
      "inputs": [
        {
          "internalType": "string",
          "name": "_name",
          "type": "string"
        },
        {
          "internalType": "string",
          "name": "_licenseNumber",
          "type": "string"
        },
        {
          "internalType": "string",
          "name": "_specialization",
          "type": "string"
        },
        {
          "internalType": "string",
          "name": "_hospital",
          "type": "string"
        },
        {
          "internalType": "string",
          "name": "_ktpNumber",
          "type": "string"
        },
        {
          "internalType": "string",
          "name": "_phoneNumber",
          "type": "string"
        },
        {
          "internalType": "string",
          "name": "_photoCid",
          "type": "string"
        },
        {
          "internalType": "string",
          "name": "_publicKey",
          "type": "string"
        }
      ],
      "name": "requestDoctorVerification",
      "outputs": [],
      "stateMutability": "nonpayable",
      "type": "function"
    },
    {
      "inputs": [
        {
          "internalType": "address",
          "name": "_doctor",
          "type": "address"
        }
      ],
      "name": "revokeAccess",
      "outputs": [],
      "stateMutability": "nonpayable",
      "type": "function"
    },
    {
      "inputs": [
        {
          "internalType": "address",
          "name": "_doctor",
          "type": "address"
        },
        {
          "internalType": "string",
          "name": "_cid",
          "type": "string"
        }
      ],
      "name": "revokeAccessForCid",
      "outputs": [],
      "stateMutability": "nonpayable",
      "type": "function"
    },
    {
      "inputs": [
        {
          "internalType": "address",
          "name": "",
          "type": "address"
        }
      ],
      "name": "roles",
      "outputs": [
        {
          "internalType": "enum MedicalRecordVault.Role",
          "name": "",
          "type": "uint8"
        }
      ],
      "stateMutability": "view",
      "type": "function"
    },
    {
      "inputs": [
        {
          "internalType": "address",
          "name": "_patient",
          "type": "address"
        },
        {
          "internalType": "string",
          "name": "_cid",
          "type": "string"
        },
        {
          "internalType": "string",
          "name": "_encryptedKeyForPatient",
          "type": "string"
        },
        {
          "internalType": "string",
          "name": "_fileType",
          "type": "string"
        },
        {
          "internalType": "string",
          "name": "_fileName",
          "type": "string"
        },
        {
          "internalType": "string",
          "name": "_notes",
          "type": "string"
        }
      ],
      "name": "submitRecord",
      "outputs": [],
      "stateMutability": "nonpayable",
      "type": "function"
    }
  ],
  "bytecode": "0x6080806040523461002857600080546001600160a01b03191633179055614635908161002e8239f35b600080fdfe61012080604052600436101561001457600080fd5b60003560e01c9081631042876d1461376d5750806318bd4847146135c557806319c2ea861461349e5780632ca4862b146131b257806330ab126a1461310e5780633a6d50b61461303e5780634427673314611b50578063503b135414612f1d57806350bd43dc14612d8a5780636160a5c214612c1b5780637781464614612bc15780637c2e811a14612a405780637dff004414612870578063857cdbb8146127b957806385e68531146125d457806388c118a91461251157806389a82c2914611d365780638da5cb5b14611d0d578063918c0c4314611b965780639937464214611b505780639e64b85614611aa8578063a3d6f9a914611a64578063b3826156146119a0578063c696f00c14610e20578063ca267f2814610dd6578063d795ede114610d37578063dc86638114610cdf578063e085456714610b28578063e45cf78f1461097f578063e76637ce1461085c578063eb056845146106e5578063f7d9e1571461039e5763f7e7bd901461018b57600080fd5b34610399576020366003190112610399576001600160a01b036101ac6137ad565b1660005260046020526040600020604051806101c88184613b50565b036101d39082613c1e565b60405191826101e58160018401613b50565b036101f09084613c1e565b604051806102018160028501613b50565b0361020c9082613c1e565b604051908161021e8160038601613b50565b036102299083613c1e565b6040518061023a8160048701613b50565b036102459082613c1e565b604051806102568160058801613b50565b036102619082613c1e565b60405190816102738160068901613b50565b0361027e9083613c1e565b60405192836102908160078a01613b50565b0361029b9085613c1e565b60088701549560098801549560405180600a819b01906102ba91613b50565b036102c5908a613c1e565b6040519a8b9a6101a0808d528c016102dc916137c3565b8b810360208d01526102ed916137c3565b8a810360408c01526102fe916137c3565b89810360608b015261030f916137c3565b88810360808a0152610320916137c3565b87810360a0890152610331916137c3565b86810360c0880152610342916137c3565b85810360e0870152610353916137c3565b9161010085015260ff811615156101208501528060081c60ff16151561014085015260101c60ff161515610160840152828103610180840152610395916137c3565b0390f35b600080fd5b34610399576060366003190112610399576103b76137ad565b6001600160401b03602435818111610399576103d7903690600401613a14565b9091604435908111610399576103f1903690600401613a14565b9290923360005260019060209482865261041d8360ff6040600020541661041781613803565b14614243565b60018060a01b0387169687600052838752600260ff6040600020541661044281613803565b03610696576104528615156141e5565b604051868682378781888101600881520301902033600052875261047a604060002054613b16565b1561065157906104cc92913360005260098852604060002089600052885260ff6040600020541615610613575b5060405186868237878188810160088152030190208860005287526040600020613dc5565b600033600052600c8552604060002086600052855260406000206000918154925b8381106105bc575b501561053c575b5050507fc7e5c007251689b9bc3cb624f55714afc5988f3e3b4e20cc6a606d7bad6faeca916105376040519283928684523396840191613f59565b0390a3005b600160401b8210156105a6576105559282018155613eb9565b9290926105905761058881837fc7e5c007251689b9bc3cb624f55714afc5988f3e3b4e20cc6a606d7bad6faeca95613dc5565b9185806104fc565b634e487b7160e01b600052600060045260246000fd5b634e487b7160e01b600052604160045260246000fd5b6105d96105e06105cc8386613eb9565b5060405192838092613b50565b0382613c1e565b8881519101206105f1368989613f13565b8981519101201461060a57610605906140e0565b6104ed565b505082886104f5565b61064b90336000526009895260406000208a600052895260406000208660ff1982541617905533600052600a89526040600020613ed1565b886104a7565b60405162461bcd60e51b815260048101889052601a60248201527f596f7520646f206e6f74206f776e2074686973207265636f72640000000000006044820152606490fd5b60405162461bcd60e51b815260048101889052602160248201527f546172676574206973206e6f742061207265676973746572656420646f63746f6044820152603960f91b6064820152608490fd5b34610399576000366003190112610399576000546001600160a01b039061070f9082163314613f7a565b600680549061071d82614573565b9260005b83811061073657604051806103958782613906565b8082610857927ff652222313e28459528d920b65115c16c04f3efc82aaedc97be59f3f377c0d3f015416806000526020600481528561083160406000206008810154936040519561078687613be6565b8652604051906107a18261079a8186613b50565b0383613c1e565b8601526040516107b8816105d98160018601613b50565b60408601526040516107d1816105d98160028601613b50565b60608601526040516107ea816105d98160038601613b50565b6080860152604051610803816105d98160048601613b50565b60a086015260405161081c816105d98160058601613b50565b60c08601526105d96040518094819301613b50565b60e0830152610100820152610846828861446e565b52610851818761446e565b506140e0565b610721565b34610399576000366003190112610399573360005260018060205260ff61088e82826040600020541661041781613803565b33600052600760205260406000206000916000928254935b84811061093b57506108b7906143e8565b9360009160005b8581106108db57604051602080825281906103959082018a613823565b80838360066108ed610904958a614227565b500154166108fa81613803565b14610909576140e0565b6108be565b6108516109168288614227565b509561092a610924826140e0565b97614482565b610934828c61446e565b528961446e565b858360066109498488614227565b5001541661095681613803565b1461096a575b610965906140e0565b6108a6565b90610977610965916140e0565b91905061095c565b34610399576000366003190112610399573360005260206001815260ff60406000205416906109ad82613803565b6109ba600280931461418d565b33600052600d81526040600020916000906000918454925b838110610aa657506109e3906143e8565b9360009060005b848110610a0457604051868152806103958189018a613823565b610a0e8183613eb9565b90546001600160a01b0360039290921b1c81166000908152600788526040812080549290915b838110610a4d5750505050610a48906140e0565b6109ea565b80610a5b610a6c9285614227565b5089015483163314610a71576140e0565b610a34565b610851610a938d610a9f610a858589614227565b509b610a99819485926140e0565b9d614482565b9261446e565b528d61446e565b610ab08187613eb9565b90546001600160a01b0360039290921b1c811660009081526007875260408120805492915b838110610aee5750505050610ae9906140e0565b6109d2565b610af88183614227565b5087015483163314610b13575b610b0e906140e0565b610ad5565b94610b20610b0e916140e0565b959050610b05565b346103995760003660031901126103995733600052600160209080825260ff90610b5d81836040600020541661041781613803565b33600052600783526040600020926000808554905b818110610c915750610b83826143e8565b94610ba6610b90846143d1565b93610b9e6040519586613c1e565b8085526143d1565b8385019790601f190136893760009160005b848110610c0d57505050505081610bda60405195604087526040870190613823565b9185830382870152519182815201949160005b828110610bfa5785870386f35b8351875295810195928101928401610bed565b816006610c2083869d9b9d9a999a614227565b50015416610c2d81613803565b15610c47575b610c3c906140e0565b989698959495610bb8565b92610c89610c3c91610c62610c5c8787614227565b50614482565b610c6c828d61446e565b52610c77818c61446e565b5085610c83828b61446e565b526140e0565b939050610c33565b856006610ca3838a989a979697614227565b50015416610cb081613803565b15610cca575b610cbf906140e0565b959395929192610b72565b92610cd7610cbf916140e0565b939050610cb6565b34610399576020366003190112610399576001600160a01b03610d006137ad565b1660005260036020526103956105d9610d23604060002060405192838092613b50565b6040519182916020835260208301906137c3565b346103995760003660031901126103995733600052600160205260ff610d696001826040600020541661041781613803565b33600052600760205260406000206000916000918054925b838110610d9357602085604051908152f35b826006610da08385614227565b50015416610dad81613803565b15610dc1575b610dbc906140e0565b610d81565b93610dce610dbc916140e0565b949050610db3565b3461039957600036600319011261039957336000526001602052610e07600160ff6040600020541661041781613803565b3360005260076020526020604060002054604051908152f35b3461039957610100366003190112610399576004356001600160401b03811161039957610e51903690600401613a14565b6101005260c0526024356001600160401b03811161039957610e77903690600401613a14565b60e0526080526044356001600160401b03811161039957610e9c903690600401613a14565b906064356001600160401b03811161039957610ebc903690600401613a14565b6084939193356001600160401b03811161039957610ede903690600401613a14565b93909260a4356001600160401b03811161039957610f00903690600401613a14565b919060c4356001600160401b03811161039957610f21903690600401613a14565b93909460e4356001600160401b03811161039957610f43903690600401613a14565b989099336000526001602052610f6a60ff60406000205416610f6481613803565b15613c3f565b336000526004602052610f8860ff6009604060002001541615613c80565b610f96610100511515613cd8565b60e0511561195b57610fa98a1515613d1b565b604051958660a052866101a08101106001600160401b036101a0890111176105a65761105f9c6110519a61101a61103696611028946101a06110449c01604052610ff9366101005160c051613f13565b60a0515261100c3660e051608051613f13565b602060a05101523691613f13565b604060a05101523691613f13565b606060a05101523691613f13565b608060a05101523691613f13565b60a0805101523691613f13565b60c060a05101523691613f13565b60e060a05101524261010060a0510152600161012060a0510152600061014060a0510152600061016060a0510152604051602081018181106001600160401b038211176105a6576040526000815261018060a0510152336000526004602052604060002060a051518051906001600160401b0382116105a65781906110ee826110e88654613b16565b86613d7e565b602090601f83116001146118ef576000926118e4575b50508160011b916000199060031b1c19161781555b602060a05101518051906001600160401b0382116105a657819061114d826111446001870154613b16565b60018701613d7e565b602090601f831160011461187257600092611867575b50508160011b916000199060031b1c19161760018201555b604060a05101518051906001600160401b0382116105a65781906111af826111a66002870154613b16565b60028701613d7e565b602090601f83116001146117f5576000926117ea575b50508160011b916000199060031b1c19161760028201555b606060a05101518051906001600160401b0382116105a6578190611211826112086003870154613b16565b60038701613d7e565b602090601f83116001146117785760009261176d575b50508160011b916000199060031b1c19161760038201555b608060a05101518051906001600160401b0382116105a65781906112738261126a6004870154613b16565b60048701613d7e565b602090601f83116001146116fb576000926116f0575b50508160011b916000199060031b1c19161760048201555b60a0805101518051906001600160401b0382116105a65781906112d4826112cb6005870154613b16565b60058701613d7e565b602090601f831160011461167e57600092611673575b50508160011b916000199060031b1c19161760058201555b60c060a05101518051906001600160401b0382116105a65781906113368261132d6006870154613b16565b60068701613d7e565b602090601f8311600114611601576000926115f6575b50508160011b916000199060031b1c19161760068201555b60e060a05101518051906001600160401b0382116105a65781906113988261138f6007870154613b16565b60078701613d7e565b602090601f831160011461158457600092611579575b50508160011b916000199060031b1c19161760078201555b610180600a60a051926101008401516008820155600981016101208501511515815461ff00610140880151151560081b169060ff62ff00006101608a0151151560101b1693169062ffffff19161717179055019101519081516001600160401b0381116105a6576114418161143b8454613b16565b84613d7e565b602092601f8211600114611515579281929360009261150a575b50508160011b916000199060031b1c19161790555b600554600160401b8110156105a6576114928160016114b09301600555613e82565b81546001600160a01b0360039290921b91821b19163390911b179055565b604051604081527fa10fac549d353fda0c9e8727471521d618e71c7ad4bea1441e49cce316ce216b6114eb604083016101005160c051613f59565b91808303602082015280611505339460e051608051613f59565b0390a2005b01519050838061145b565b601f198216938360005260206000209160005b8681106115615750836001959610611548575b505050811b019055611470565b015160001960f88460031b161c1916905583808061153b565b91926020600181928685015181550194019201611528565b0151905083806113ae565b9250600784016000526020600020906000935b601f19841685106115db576001945083601f198116106115c2575b505050811b0160078201556113c6565b015160001960f88460031b161c191690558380806115b2565b81810151835560209485019460019093019290910190611597565b01519050838061134c565b9250600684016000526020600020906000935b601f1984168510611658576001945083601f1981161061163f575b505050811b016006820155611364565b015160001960f88460031b161c1916905583808061162f565b81810151835560209485019460019093019290910190611614565b0151905083806112ea565b9250600584016000526020600020906000935b601f19841685106116d5576001945083601f198116106116bc575b505050811b016005820155611302565b015160001960f88460031b161c191690558380806116ac565b81810151835560209485019460019093019290910190611691565b015190508380611289565b9250600484016000526020600020906000935b601f1984168510611752576001945083601f19811610611739575b505050811b0160048201556112a1565b015160001960f88460031b161c19169055838080611729565b8181015183556020948501946001909301929091019061170e565b015190508380611227565b9250600384016000526020600020906000935b601f19841685106117cf576001945083601f198116106117b6575b505050811b01600382015561123f565b015160001960f88460031b161c191690558380806117a6565b8181015183556020948501946001909301929091019061178b565b0151905083806111c5565b9250600284016000526020600020906000935b601f198416851061184c576001945083601f19811610611833575b505050811b0160028201556111dd565b015160001960f88460031b161c19169055838080611823565b81810151835560209485019460019093019290910190611808565b015190508380611163565b9250600184016000526020600020906000935b601f19841685106118c9576001945083601f198116106118b0575b505050811b01600182015561117b565b015160001960f88460031b161c191690558380806118a0565b81810151835560209485019460019093019290910190611885565b015190508380611104565b9250836000526020600020906000935b601f1984168510611940576001945083601f19811610611927575b505050811b018155611119565b015160001960f88460031b161c1916905583808061191a565b818101518355602094850194600190930192909101906118ff565b60405162461bcd60e51b815260206004820152601e60248201527f4c6963656e7365206e756d6265722063616e6e6f7420626520656d70747900006044820152606490fd5b3461039957602080600319360112610399576119ba6137ad565b90336000526001918282526119db8360ff6040600020541661041781613803565b33600052600c825260406000209060018060a01b031660005281526040600020918254611a07816143d1565b93611a156040519586613c1e565b8185526000908152838120848087015b848410611a3f57604051828152806103958185018b613ac1565b85918291604051611a54816105d98189613b50565b8152019201920191908590611a25565b34610399576020366003190112610399576001600160a01b03611a856137ad565b1660005260026020526103956105d9610d23604060002060405192838092613b50565b34610399576000366003190112610399573360005260016020818152611ada8260ff6040600020541661041781613803565b33600052600b81526040600020918254611af3816143d1565b93611b016040519586613c1e565b8185526000908152838120848087015b848410611b2b57604051828152806103958185018b613ac1565b85918291604051611b40816105d98189613b50565b8152019201920191908590611b11565b34610399576020366003190112610399576001600160a01b03611b716137ad565b166000526001602052602060ff6040600020541660405190611b9281613803565b8152f35b346103995760208060031936011261039957600435903360005260018152611bcb600160ff6040600020541661041781613803565b3360005260078152611be3604060002054831061429d565b3360005260078152611bf9826040600020614227565b509160068301805490611c1860ff8316611c1281613803565b156142e9565b600160ff1980931617905533600052600b8352604060002092835491600160401b8310156105a657611c7d86611c77857f24055d14743ca3f4c9f408d9ee74f1c45a082e250dca49cb8b49d7b7f697e809986001604098018155613eb9565b9061432d565b33600052600982528260002090600287019060018060a01b0390818354169384600052855260ff86600020541615611ccc575b5050505081519283528201528061150533946040830190613b50565b611d04933360005260098652866000209060005285526001866000209182541617905533600052600a84528460002091541690613ed1565b85808080611cb0565b34610399576000366003190112610399576000546040516001600160a01b039091168152602090f35b346103995760c036600319011261039957611d4f6137ad565b6024356001600160401b03811161039957611d6e903690600401613a14565b6044356001600160401b03811161039957611d8d903690600401613a14565b6064939193356001600160401b03811161039957611daf903690600401613a14565b9190946084356001600160401b03811161039957611dd1903690600401613a14565b9060a4356001600160401b03811161039957611df1903690600401613a14565b9091336000526001602052611e19600260ff60406000205416611e1381613803565b1461418d565b60018060a01b038b166000526001602052600160ff60406000205416611e3e81613803565b036124c157611e4e8915156141e5565b851561247c5786156124375783156123f257600160a01b600190038b16600052600760205260406000209384549a60405198611e898a613c02565b611e94368d8d613f13565b8a526001600160a01b038e1660208b01523360408b0152611eb791369190613f13565b60608901523690611ec792613f13565b60808701523690611ed792613f13565b60a0850152600060c08501524260e0850152600160401b8710156105a65786611f0591600182018155614227565b6105905783518051906001600160401b0382116105a6578190611f2c826110e88654613b16565b602090601f83116001146123865760009261237b575b50508160011b916000199060031b1c19161781555b60208401516001820180546001600160a01b039283166001600160a01b031991821617909155604086015160028401805491909316911617905560608401518051906001600160401b0382116105a6578190611fba826112086003870154613b16565b602090601f8311600114612309576000926122fe575b50508160011b916000199060031b1c19161760038201555b60808401518051906001600160401b0382116105a65781906120118261126a6004870154613b16565b602090601f831160011461228c57600092612281575b50508160011b916000199060031b1c19161760048201555b60a08401518051906001600160401b0382116105a65761206f826120666005860154613b16565b60058601613d7e565b602090601f83116001146121e45792827f74f48835a36ac5fd7d7a1dc680b421425dcf650aba8cd1440817673d60c1483f99989693612170989693612131966000926121d9575b50508160011b916000199060031b1c19161760058201555b600760e0600683019660c0810151976120e689613803565b6120ef89613803565b60ff199860ff8a8354169116179055015191015560405187868237602081898101600881520301902060018060a01b038b166000526020526040600020613dc5565b33600052600e602052604060002060018060a01b03881660005260205260ff6040600020541615612191575b5060405192606084526060840191613f59565b602082019390935242604082015233936001600160a01b03169281900390a3005b33600052600e602052604060002060018060a01b038816600052602052600160406000209182541617905533600052600d6020526121d3866040600020613ed1565b8661215d565b015190508d806120b6565b906005840160005260206000209160005b601f198516811061226957508361217098969361213196936001937f74f48835a36ac5fd7d7a1dc680b421425dcf650aba8cd1440817673d60c1483f9d9c9a97601f19811610612250575b505050811b0160058201556120ce565b015160001960f88460031b161c191690558d8080612240565b919260206001819286850151815501940192016121f5565b015190508a80612027565b9250600484016000526020600020906000935b601f19841685106122e3576001945083601f198116106122ca575b505050811b01600482015561203f565b015160001960f88460031b161c191690558a80806122ba565b8181015183556020948501946001909301929091019061229f565b015190508a80611fd0565b9250600384016000526020600020906000935b601f1984168510612360576001945083601f19811610612347575b505050811b016003820155611fe8565b015160001960f88460031b161c191690558a8080612337565b8181015183556020948501946001909301929091019061231c565b015190508a80611f42565b9250836000526020600020906000935b601f19841685106123d7576001945083601f198116106123be575b505050811b018155611f57565b015160001960f88460031b161c191690558a80806123b1565b81810151835560209485019460019093019290910190612396565b60405162461bcd60e51b815260206004820152601960248201527f46696c65206e616d652063616e6e6f7420626520656d707479000000000000006044820152606490fd5b60405162461bcd60e51b815260206004820152601960248201527f46696c6520747970652063616e6e6f7420626520656d707479000000000000006044820152606490fd5b60405162461bcd60e51b815260206004820152601d60248201527f456e63727970746564206b65792063616e6e6f7420626520656d7074790000006044820152606490fd5b60405162461bcd60e51b815260206004820152602260248201527f546172676574206973206e6f74206120726567697374657265642070617469656044820152611b9d60f21b6064820152608490fd5b3461039957602036600319011261039957600435336000526001602052612545600160ff6040600020541661041781613803565b33600052600760205261255e604060002054821061429d565b3360005260076020527f67813150e12a88a933a212e01460fbb9da398d9f273927860439f64efac5538f612596826040600020614227565b509160068301600281546125b060ff8216611c1281613803565b60ff1916179055604051908152604060208201528061150533946040830190613b50565b3461039957602080600319360112610399576125ee6137ad565b903360005260019081815261260f8260ff6040600020541661041781613803565b336000526009815260406000209260018060a01b03169283600052815261263d60ff6040600020541661433c565b33600052600981526040600020836000528152604060002060ff199081815416905533600052600b8252828060406000206000925b6126f3575b5050505033600052600c8152604060002083600052815260406000209081549160008155826126ca575b84337f825c8be24eb0df19500f63e86c29e7d0d951e73056b889b891d85e40938d9b6e600080a3005b600052600020908101905b8181106126e257806126a1565b806126ed8492614388565b016126d5565b80548310156127b4576127068382613eb9565b50926040518660009580549061271b82613b16565b9189888216918260001461279e575050600114612764575b50508186600861275c96979852030190208860005286526127576040600020614388565b6140e0565b919081612672565b9150955060005286806000206000905b87821061278a575050948101948161275c612733565b8054848301528a968a939092019101612774565b168552505080151502820195508161275c612733565b612677565b34610399576020366003190112610399576001600160a01b036127da6137ad565b1660005260026020526105d96127fa604060002060405192838092613b50565b80511561281957610395906040519182916020835260208301906137c3565b60405162461bcd60e51b815260206004820152602960248201527f4e6f207075626c6963206b6579207265676973746572656420666f722074686960448201526873206164647265737360b81b6064820152608490fd5b34610399576020366003190112610399576001600160a01b036128916137ad565b16600052600460205260406000206009810154604051918280600a8301906128b891613b50565b036128c39084613c1e565b604051806128d18184613b50565b036128dc9082613c1e565b604051806128ed8160018601613b50565b036128f89082613c1e565b604051806129098160028701613b50565b036129149082613c1e565b60405190816129268160038801613b50565b036129319083613c1e565b60405192836129438160048901613b50565b0361294e9085613c1e565b60405194856129608160058a01613b50565b0361296b9087613c1e565b6040518060068199019061297e91613b50565b036129899088613c1e565b604051988860ff8b9a1615158a528060081c60ff16151560208b015260101c60ff16151560408a01526101608060608b015289016129c6916137c3565b88810360808a01526129d7916137c3565b87810360a08901526129e8916137c3565b86810360c08801526129f9916137c3565b85810360e0870152612a0a916137c3565b848103610100860152612a1c916137c3565b838103610120850152612a2e916137c3565b828103610140840152610395916137c3565b34610399576040366003190112610399576001600160401b0360043581811161039957612a71903690600401613a14565b60249291923591821161039957612b0f92612a93612b21933690600401613a14565b9490943360005260209560018752612ab660ff60406000205416610f6481613803565b3360005260048752612ad360ff6009604060002001541615613c80565b612ade851515613cd8565b612ae9821515613d1b565b33600052600187526040600020600160ff19825416179055600287526040600020613dc5565b33600052600384526040600020613dc5565b600f54600160401b8110156105a6576001810180600f55811015612bab57600f6000527f8d1108e10bcb7c27dddfc02ed9d693a074039d026cf4ea4240b40f7d581ac80201336bffffffffffffffffffffffff60a01b8254161790557f8e18574f8a7333e6a87112742a55853a643e2f0550f4e1a3a2c3f1bb2994441d60405191600183523392a2005b634e487b7160e01b600052603260045260246000fd5b3461039957604036600319011261039957612bda6137ad565b6001600160a01b03602435818116929083900361039957166000526009602052604060002090600052602052602060ff604060002054166040519015158152f35b346103995760208060031936011261039957612c356137ad565b6000546001600160a01b0390612c4e9082163314613f7a565b81169182600052600481526040600020600981016101008154612c7360ff8216613fb2565b61ffff191617905583600052600182526040600020600260ff1982541617905560028252612ca860078201604060002061400a565b8360005260038252612cbe81604060002061400a565b600654600160401b8110156105a6576001810180600655811015612bab57612d7d8592612d6b7f8e18574f8a7333e6a87112742a55853a643e2f0550f4e1a3a2c3f1bb2994441d967f35d45d664b551d0c83facbd3487cca32022a3ed9a515115791992136b270b4ae9460066000527ff652222313e28459528d920b65115c16c04f3efc82aaedc97be59f3f377c0d3f01866bffffffffffffffffffffffff60a01b8254161790556140ef565b60405191829186835286830190613b50565b0390a260405160028152a2005b346103995760003660031901126103995733600052612ddd600160209080825260ff612dc182826040600020541661041781613803565b33600052600a8352612de460406000206040519586809261452d565b0385613c1e565b60009384835b612eb4575b50612df9856143d1565b94612e076040519687613c1e565b808652612e16601f19916143d1565b01368587013760009182845b612e3a575b604051868152806103958189018a613a84565b8251811015612eaf573360009081526009875260409020612e8391906001600160a01b039081612e6a848861446e565b511660005288528360406000205416612e8957506140e0565b84612e22565b612e93828661446e565b5116612ea8612ea1876140e0565b968a61446e565b5288610851565b612e27565b8151811015612f185733600090815260098652604090206001600160a01b03612edd838561446e565b511660005285528260406000205416612f01575b612efb84916140e0565b90612dea565b94612efb612f0f85926140e0565b96915050612ef1565b612def565b346103995760003660031901126103995733600052602060018152612f4f600260ff60406000205416611e1381613803565b33600052600d8152604060002060405190612f6e8261079a818461452d565b8054612f79816143d1565b91612f876040519384613c1e565b818352601f19612f96836143d1565b018560005b82811061302f5750505060005b828110612fd957612fcc856103958887604051948594604086526040860190613a84565b9184830390850152613ac1565b80612fe761302a9284613eb9565b90549060039160018060a01b0391831b1c1660005287526105d9613015604060002060405192838092613b50565b61301f828761446e565b52610851818661446e565b612fa8565b60608682018301528101612f9b565b346103995760208060031936011261039957600435906001600160401b038211610399578061307461079a933690600401613a14565b9190826040519384928337810160088152030190203360005281526130a3604060002060405193848092613b50565b8151156130be576103956040519282849384528301906137c3565b6084906040519062461bcd60e51b82526004820152602360248201527f4e6f20656e63727970746564206b657920666f756e6420666f7220746869732060448201526210d25160ea1b6064820152fd5b34610399577fb88d3b65fb21588e8792487a88d20d5d3870bd1330fd651c4924d048c15bdc7161313d36613a41565b61319b60018060a09695961b0361315981600054163314613f7a565b8516948560005260046020526131968385600a60406000206009810162010000815461318760ff8216613fb2565b62ff00ff191617905501613dc5565b6140ef565b611505604051928392602084526020840191613f59565b34610399576131c036613a41565b336000526001916020918383526131e38460ff6040600020541661041781613803565b336000526009835260406000209460018060a01b03169485600052835261321160ff6040600020541661433c565b6040518183823783818381016008815203019020856000528352613239604060002054613b16565b156134465760409392935181838237848183810160088152030190208560005284526132686040600020614388565b33600052600c845260406000208560005284526040600020836000905b613309575b50507f42ce86fc65f9662ffd2726937c143668d2bf9b13032b5d04eff61e5883302bc8925033600052600c84526040600020856000528452604060002054156132e4575b6105376040519283928684523396840191613f59565b33600052600984526040600020856000528452604060002060ff1981541690556132ce565b815480821015613440576105d96133236105cc8486613eb9565b878151910120613334368688613f13565b8881519101201461335657509061334d859695926140e0565b90919495613285565b6000199181830191821161342a57611c7761337461337c9386613eb9565b509185613eb9565b815480156134145701906133908282613eb9565b95909561059057856133c37f42ce86fc65f9662ffd2726937c143668d2bf9b13032b5d04eff61e5883302bc89754613b16565b806133d4575b50505055858061328a565b600092601f8083116001146133f057505050555b8780806133c9565b839161340d9186949585528c8520950160051c8501908501613d67565b55556133e8565b634e487b7160e01b600052603160045260246000fd5b634e487b7160e01b600052601160045260246000fd5b5061328a565b60405162461bcd60e51b815260048101849052602a60248201527f446f63746f7220646f6573206e6f7420686176652061636365737320746f20746044820152691a1a5cc81c9958dbdc9960b21b6064820152608490fd5b34610399576000366003190112610399576000546001600160a01b03906134c89082163314613f7a565b6005908154906134d782614573565b9260005b8381106134f057604051806103958782613906565b80836134fe6135c093613e82565b919054600392831b1c1690816000526006610831602092600484526105d961358f604060002092600884015496604051986135388a613be6565b89526040519061354c8261079a8189613b50565b890152604051613563816105d98160018901613b50565b604089015260405161357c816105d98160028901613b50565b6060890152604051928380928601613b50565b60808601526040516135a8816105d98160048601613b50565b60a086015260405161081c816105d9818c8601613b50565b6134db565b3461039957602080600319360112610399576135df6137ad565b903360005260019182825260ff9061360360028360406000205416611e1381613803565b6001600160a01b03166000818152600984526040808220338352855290205482161561370f576000526007825260406000206000916000928254935b8481106136cb5750613650906143e8565b9460009160005b8581106136715760405187815280610395818a018b613823565b808383600661368361369a958a614227565b5001541661369081613803565b1461369f576140e0565b613657565b6108516136ac8288614227565b50956136ba610924826140e0565b6136c4828d61446e565b528a61446e565b868360066136d98488614227565b500154166136e681613803565b146136fa575b6136f5906140e0565b61363f565b906137076136f5916140e0565b9190506136ec565b60405162461bcd60e51b815260048101849052603060248201527f596f7520646f206e6f7420686176652061636365737320746f2074686973207060448201526f617469656e742773207265636f72647360801b6064820152608490fd5b3461039957602036600319011261039957610395906001600160a01b036137926137ad565b166000526003602052610d23816105d9816040600020613b50565b600435906001600160a01b038216820361039957565b919082519283825260005b8481106137ef575050826000602080949584010152601f8019910116010190565b6020818301810151848301820152016137ce565b6003111561380d57565b634e487b7160e01b600052602160045260246000fd5b908082519081815260208091019281808460051b8301019501936000915b8483106138515750505050505090565b9091929394958480600192601f198582030186528951906138d96138c66138b361388485516101008087528601906137c3565b888060a01b038088880151168887015260409081880151169086015260608087015190868303908701526137c3565b60808086015190858303908601526137c3565b60a08085015190848303908501526137c3565b9160c080820151906138ea82613803565b83015260e0809101519101529801930193019194939290613841565b602080820190808352835180925260409283810182858560051b8401019601946000925b85841061393b575050505050505090565b909192939495968580600192603f198582030187528a5190848060a01b0382511681526139f86139e56139d26139bf6139ac61399961398789890151610120808c8b01528901906137c3565b8d808a015190898303908a01526137c3565b60608089015190888303908901526137c3565b60808088015190878303908801526137c3565b60a08087015190868303908701526137c3565b60c08086015190858303908601526137c3565b60e08085015190848303908501526137c3565b916101008091015191015299019401940192959493919061392a565b9181601f84011215610399578235916001600160401b038311610399576020838186019501011161039957565b906040600319830112610399576004356001600160a01b03811681036103995791602435906001600160401b03821161039957613a8091600401613a14565b9091565b90815180825260208080930193019160005b828110613aa4575050505090565b83516001600160a01b031685529381019392810192600101613a96565b90815180825260208092019182818360051b85019501936000915b848310613aec5750505050505090565b9091929394958480613b0683856001950387528a516137c3565b9801930193019194939290613adc565b90600182811c92168015613b46575b6020831014613b3057565b634e487b7160e01b600052602260045260246000fd5b91607f1691613b25565b9060009291805491613b6183613b16565b918282526001938481169081600014613bc35750600114613b83575b50505050565b90919394506000526020928360002092846000945b838610613baf575050505001019038808080613b7d565b805485870183015294019385908201613b98565b9294505050602093945060ff191683830152151560051b01019038808080613b7d565b61012081019081106001600160401b038211176105a657604052565b61010081019081106001600160401b038211176105a657604052565b90601f801991011681019081106001600160401b038211176105a657604052565b15613c4657565b60405162461bcd60e51b8152602060048201526012602482015271105b1c9958591e481c9959da5cdd195c995960721b6044820152606490fd5b15613c8757565b60405162461bcd60e51b815260206004820152602360248201527f446f63746f7220766572696669636174696f6e20616c72656164792070656e64604482015262696e6760e81b6064820152608490fd5b15613cdf57565b60405162461bcd60e51b81526020600482015260146024820152734e616d652063616e6e6f7420626520656d70747960601b6044820152606490fd5b15613d2257565b60405162461bcd60e51b815260206004820152601a60248201527f5075626c6963206b65792063616e6e6f7420626520656d7074790000000000006044820152606490fd5b818110613d72575050565b60008155600101613d67565b9190601f8111613d8d57505050565b613db9926000526020600020906020601f840160051c83019310613dbb575b601f0160051c0190613d67565b565b9091508190613dac565b9092916001600160401b0381116105a657613de48161143b8454613b16565b6000601f8211600114613e1e5781929394600092613e13575b50508160011b916000199060031b1c1916179055565b013590503880613dfd565b601f198216948382526020918281209281905b888210613e6a57505083600195969710613e50575b505050811b019055565b0135600019600384901b60f8161c19169055388080613e46565b80600184968294958701358155019501920190613e31565b600554811015612bab5760056000527f036b6384b5eca791c62761152d0c79bb0604c104a5fb6f4eb0703f3154bb3db00190600090565b8054821015612bab5760005260206000200190600090565b90815491600160401b8310156105a65782613ef4916001613db995018155613eb9565b90919082549060031b9160018060a01b03809116831b921b1916179055565b9291926001600160401b0382116105a65760405191613f3c601f8201601f191660200184613c1e565b829481845281830111610399578281602093846000960137010152565b908060209392818452848401376000828201840152601f01601f1916010190565b15613f8157565b60405162461bcd60e51b81526020600482015260096024820152682737ba1030b236b4b760b91b6044820152606490fd5b15613fb957565b60405162461bcd60e51b815260206004820152602360248201527f4e6f2070656e64696e67207265717565737420666f722074686973206164647260448201526265737360e81b6064820152608490fd5b908082146140dc5761401c8154613b16565b906001600160401b0382116105a657819061403b826110e88654613b16565b600090601f8311600114614071576000926140665750508160011b916000199060031b1c1916179055565b015490503880613dfd565b81526020808220858352818320935090601f1985169083905b8282106140c35750509084600195949392106140aa57505050811b019055565b015460001960f88460031b161c19169055388080613e46565b849581929585015481556001809101960194019061408a565b5050565b600019811461342a5760010190565b6000905b60059182549283821015613b7d5761410a82613e82565b90546003956001600160a01b0392909190871b1c82168583161461413c575050506141369192506140e0565b906140f3565b91935091600019918281019190821161342a57613ef48461415f61416c94613e82565b905490891b1c1691613e82565b8254801561341457019261417f84613e82565b81939154921b1b1916905555565b1561419457565b60405162461bcd60e51b8152602060048201526024808201527f4f6e6c7920646f63746f72732063616e20706572666f726d20746869732061636044820152633a34b7b760e11b6064820152608490fd5b156141ec57565b60405162461bcd60e51b81526020600482015260136024820152724349442063616e6e6f7420626520656d70747960681b6044820152606490fd5b8054821015612bab5760005260206000209060031b0190600090565b1561424a57565b60405162461bcd60e51b815260206004820152602560248201527f4f6e6c792070617469656e74732063616e20706572666f726d2074686973206160448201526431ba34b7b760d91b6064820152608490fd5b156142a457565b60405162461bcd60e51b815260206004820152601a60248201527f5265636f726420696e646578206f7574206f6620626f756e64730000000000006044820152606490fd5b156142f057565b60405162461bcd60e51b81526020600482015260156024820152745265636f7264206973206e6f742070656e64696e6760581b6044820152606490fd5b919061059057613db99161400a565b1561434357565b60405162461bcd60e51b815260206004820152601b60248201527f446f63746f7220646f6573206e6f7420686176652061636365737300000000006044820152606490fd5b6143928154613b16565b908161439c575050565b81601f600093116001146143ae575055565b9080839182526143cd601f60208420940160051c840160018501613d67565b5555565b6001600160401b0381116105a65760051b60200190565b906143f2826143d1565b60409061440182519182613c1e565b8381528093614412601f19916143d1565b019160005b8381106144245750505050565b602090825161443281613c02565b60608082528390600082840152600086840152808084015280608084015260a0830152600060c0830152600060e0830152828601015201614417565b8051821015612bab5760209160051b010190565b9060409160e0600784519261449684613c02565b839580516144a8816105d98186613b50565b855260018201546001600160a01b0390811660208701526002830154168186015280516144dc816105d98160038701613b50565b606086015280516144f4816105d98160048701613b50565b60808601525161450b816105d98160058601613b50565b60a085015260ff60068201541661452181613803565b60c08501520154910152565b90815480825260208092019260005281600020916000905b828210614553575050505090565b83546001600160a01b031685529384019360019384019390910190614545565b9061457d826143d1565b60409061458c82519182613c1e565b838152809361459d601f19916143d1565b0191600091825b8481106145b2575050505050565b60209083516145c081613be6565b858152606083908082840152808784015280808401528060808401528060a08401528060c084015260e0830152866101008301528285010152016145a456fea26469706673582212209ecc7c9af97abeaac51a8fe4a6583e2d15a25f4dcd7f6abb28b5c959c211f31664736f6c63430008140033",
  "linkReferences": {},
  "deployedLinkReferences": {}
}